{
  "_format": "hh-sol-artifact-1",
  "contractName": "ServareMarketplace",
  "sourceName": "contracts/ServareMarketplace.sol",
  "abi": [
    {
      "inputs": [
        {
          "internalType": "address",
          "name": "_nftContract",
          "type": "address"
        },
        {
          "internalType": "address",
          "name": "_vetToken",
          "type": "address"
        },
        {
          "internalType": "address",
          "name": "_feeCollector",
          "type": "address"
        }
      ],
      "stateMutability": "nonpayable",
      "type": "constructor"
    },
    {
      "inputs": [],
      "name": "AccessControlBadConfirmation",
      "type": "error"
    },
    {
      "inputs": [
        {
          "internalType": "address",
          "name": "account",
          "type": "address"
        },
        {
          "internalType": "bytes32",
          "name": "neededRole",
          "type": "bytes32"
        }
      ],
      "name": "AccessControlUnauthorizedAccount",
      "type": "error"
    },
    {
      "inputs": [],
      "name": "ReentrancyGuardReentrantCall",
      "type": "error"
    },
    {
      "anonymous": false,
      "inputs": [
        {
          "indexed": true,
          "internalType": "uint256",
          "name": "tokenId",
          "type": "uint256"
        },
        {
          "indexed": true,
          "internalType": "address",
          "name": "winner",
          "type": "address"
        },
        {
          "indexed": false,
          "internalType": "uint256",
          "name": "amount",
          "type": "uint256"
        }
      ],
      "name": "AuctionFinalized",
      "type": "event"
    },
    {
      "anonymous": false,
      "inputs": [
        {
          "indexed": true,
          "internalType": "uint256",
          "name": "tokenId",
          "type": "uint256"
        },
        {
          "indexed": true,
          "internalType": "address",
          "name": "bidder",
          "type": "address"
        },
        {
          "indexed": false,
          "internalType": "uint256",
          "name": "amount",
          "type": "uint256"
        }
      ],
      "name": "BidPlaced",
      "type": "event"
    },
    {
      "anonymous": false,
      "inputs": [
        {
          "indexed": true,
          "internalType": "uint256",
          "name": "tokenId",
          "type": "uint256"
        },
        {
          "indexed": true,
          "internalType": "address",
          "name": "seller",
          "type": "address"
        },
        {
          "indexed": false,
          "internalType": "uint256",
          "name": "price",
          "type": "uint256"
        },
        {
          "indexed": false,
          "internalType": "enum ServareMarketplace.ListingType",
          "name": "listingType",
          "type": "uint8"
        }
      ],
      "name": "Listed",
      "type": "event"
    },
    {
      "anonymous": false,
      "inputs": [
        {
          "indexed": true,
          "internalType": "bytes32",
          "name": "role",
          "type": "bytes32"
        },
        {
          "indexed": true,
          "internalType": "bytes32",
          "name": "previousAdminRole",
          "type": "bytes32"
        },
        {
          "indexed": true,
          "internalType": "bytes32",
          "name": "newAdminRole",
          "type": "bytes32"
        }
      ],
      "name": "RoleAdminChanged",
      "type": "event"
    },
    {
      "anonymous": false,
      "inputs": [
        {
          "indexed": true,
          "internalType": "bytes32",
          "name": "role",
          "type": "bytes32"
        },
        {
          "indexed": true,
          "internalType": "address",
          "name": "account",
          "type": "address"
        },
        {
          "indexed": true,
          "internalType": "address",
          "name": "sender",
          "type": "address"
        }
      ],
      "name": "RoleGranted",
      "type": "event"
    },
    {
      "anonymous": false,
      "inputs": [
        {
          "indexed": true,
          "internalType": "bytes32",
          "name": "role",
          "type": "bytes32"
        },
        {
          "indexed": true,
          "internalType": "address",
          "name": "account",
          "type": "address"
        },
        {
          "indexed": true,
          "internalType": "address",
          "name": "sender",
          "type": "address"
        }
      ],
      "name": "RoleRevoked",
      "type": "event"
    },
    {
      "anonymous": false,
      "inputs": [
        {
          "indexed": true,
          "internalType": "uint256",
          "name": "tokenId",
          "type": "uint256"
        },
        {
          "indexed": true,
          "internalType": "address",
          "name": "seller",
          "type": "address"
        },
        {
          "indexed": true,
          "internalType": "address",
          "name": "buyer",
          "type": "address"
        },
        {
          "indexed": false,
          "internalType": "uint256",
          "name": "price",
          "type": "uint256"
        }
      ],
      "name": "Sale",
      "type": "event"
    },
    {
      "inputs": [],
      "name": "DEFAULT_ADMIN_ROLE",
      "outputs": [
        {
          "internalType": "bytes32",
          "name": "",
          "type": "bytes32"
        }
      ],
      "stateMutability": "view",
      "type": "function"
    },
    {
      "inputs": [
        {
          "internalType": "uint256",
          "name": "",
          "type": "uint256"
        },
        {
          "internalType": "address",
          "name": "",
          "type": "address"
        }
      ],
      "name": "bids",
      "outputs": [
        {
          "internalType": "uint256",
          "name": "",
          "type": "uint256"
        }
      ],
      "stateMutability": "view",
      "type": "function"
    },
    {
      "inputs": [
        {
          "internalType": "uint256",
          "name": "tokenId",
          "type": "uint256"
        }
      ],
      "name": "buyItem",
      "outputs": [],
      "stateMutability": "nonpayable",
      "type": "function"
    },
    {
      "inputs": [
        {
          "internalType": "uint256",
          "name": "tokenId",
          "type": "uint256"
        }
      ],
      "name": "cancelListing",
      "outputs": [],
      "stateMutability": "nonpayable",
      "type": "function"
    },
    {
      "inputs": [],
      "name": "feeCollector",
      "outputs": [
        {
          "internalType": "address",
          "name": "",
          "type": "address"
        }
      ],
      "stateMutability": "view",
      "type": "function"
    },
    {
      "inputs": [
        {
          "internalType": "uint256",
          "name": "tokenId",
          "type": "uint256"
        }
      ],
      "name": "finalizeAuction",
      "outputs": [],
      "stateMutability": "nonpayable",
      "type": "function"
    },
    {
      "inputs": [
        {
          "internalType": "uint256",
          "name": "tokenId",
          "type": "uint256"
        },
        {
          "internalType": "address",
          "name": "bidder",
          "type": "address"
        }
      ],
      "name": "getActiveBids",
      "outputs": [
        {
          "internalType": "uint256",
          "name": "",
          "type": "uint256"
        }
      ],
      "stateMutability": "view",
      "type": "function"
    },
    {
      "inputs": [
        {
          "internalType": "uint256",
          "name": "tokenId",
          "type": "uint256"
        }
      ],
      "name": "getListing",
      "outputs": [
        {
          "internalType": "address",
          "name": "seller",
          "type": "address"
        },
        {
          "internalType": "uint256",
          "name": "price",
          "type": "uint256"
        },
        {
          "internalType": "bool",
          "name": "isActive",
          "type": "bool"
        },
        {
          "internalType": "uint256",
          "name": "listedAt",
          "type": "uint256"
        },
        {
          "internalType": "enum ServareMarketplace.ListingType",
          "name": "listingType",
          "type": "uint8"
        },
        {
          "internalType": "uint256",
          "name": "auctionEndTime",
          "type": "uint256"
        },
        {
          "internalType": "address",
          "name": "highestBidder",
          "type": "address"
        },
        {
          "internalType": "uint256",
          "name": "highestBid",
          "type": "uint256"
        }
      ],
      "stateMutability": "view",
      "type": "function"
    },
    {
      "inputs": [
        {
          "internalType": "bytes32",
          "name": "role",
          "type": "bytes32"
        }
      ],
      "name": "getRoleAdmin",
      "outputs": [
        {
          "internalType": "bytes32",
          "name": "",
          "type": "bytes32"
        }
      ],
      "stateMutability": "view",
      "type": "function"
    },
    {
      "inputs": [
        {
          "internalType": "bytes32",
          "name": "role",
          "type": "bytes32"
        },
        {
          "internalType": "address",
          "name": "account",
          "type": "address"
        }
      ],
      "name": "grantRole",
      "outputs": [],
      "stateMutability": "nonpayable",
      "type": "function"
    },
    {
      "inputs": [
        {
          "internalType": "bytes32",
          "name": "role",
          "type": "bytes32"
        },
        {
          "internalType": "address",
          "name": "account",
          "type": "address"
        }
      ],
      "name": "hasRole",
      "outputs": [
        {
          "internalType": "bool",
          "name": "",
          "type": "bool"
        }
      ],
      "stateMutability": "view",
      "type": "function"
    },
    {
      "inputs": [
        {
          "internalType": "uint256",
          "name": "tokenId",
          "type": "uint256"
        },
        {
          "internalType": "uint256",
          "name": "price",
          "type": "uint256"
        },
        {
          "internalType": "enum ServareMarketplace.ListingType",
          "name": "listingType",
          "type": "uint8"
        },
        {
          "internalType": "uint256",
          "name": "auctionDuration",
          "type": "uint256"
        }
      ],
      "name": "listItem",
      "outputs": [],
      "stateMutability": "nonpayable",
      "type": "function"
    },
    {
      "inputs": [
        {
          "internalType": "uint256",
          "name": "",
          "type": "uint256"
        }
      ],
      "name": "listings",
      "outputs": [
        {
          "internalType": "uint256",
          "name": "tokenId",
          "type": "uint256"
        },
        {
          "internalType": "address",
          "name": "seller",
          "type": "address"
        },
        {
          "internalType": "uint256",
          "name": "price",
          "type": "uint256"
        },
        {
          "internalType": "bool",
          "name": "isActive",
          "type": "bool"
        },
        {
          "internalType": "uint256",
          "name": "listedAt",
          "type": "uint256"
        },
        {
          "internalType": "enum ServareMarketplace.ListingType",
          "name": "listingType",
          "type": "uint8"
        },
        {
          "internalType": "uint256",
          "name": "auctionEndTime",
          "type": "uint256"
        },
        {
          "internalType": "address",
          "name": "highestBidder",
          "type": "address"
        },
        {
          "internalType": "uint256",
          "name": "highestBid",
          "type": "uint256"
        }
      ],
      "stateMutability": "view",
      "type": "function"
    },
    {
      "inputs": [],
      "name": "nftContract",
      "outputs": [
        {
          "internalType": "contract IERC721",
          "name": "",
          "type": "address"
        }
      ],
      "stateMutability": "view",
      "type": "function"
    },
    {
      "inputs": [
        {
          "internalType": "uint256",
          "name": "tokenId",
          "type": "uint256"
        },
        {
          "internalType": "uint256",
          "name": "amount",
          "type": "uint256"
        }
      ],
      "name": "placeBid",
      "outputs": [],
      "stateMutability": "nonpayable",
      "type": "function"
    },
    {
      "inputs": [],
      "name": "platformFee",
      "outputs": [
        {
          "internalType": "uint256",
          "name": "",
          "type": "uint256"
        }
      ],
      "stateMutability": "view",
      "type": "function"
    },
    {
      "inputs": [
        {
          "internalType": "bytes32",
          "name": "role",
          "type": "bytes32"
        },
        {
          "internalType": "address",
          "name": "callerConfirmation",
          "type": "address"
        }
      ],
      "name": "renounceRole",
      "outputs": [],
      "stateMutability": "nonpayable",
      "type": "function"
    },
    {
      "inputs": [
        {
          "internalType": "bytes32",
          "name": "role",
          "type": "bytes32"
        },
        {
          "internalType": "address",
          "name": "account",
          "type": "address"
        }
      ],
      "name": "revokeRole",
      "outputs": [],
      "stateMutability": "nonpayable",
      "type": "function"
    },
    {
      "inputs": [
        {
          "internalType": "bytes4",
          "name": "interfaceId",
          "type": "bytes4"
        }
      ],
      "name": "supportsInterface",
      "outputs": [
        {
          "internalType": "bool",
          "name": "",
          "type": "bool"
        }
      ],
      "stateMutability": "view",
      "type": "function"
    },
    {
      "inputs": [
        {
          "internalType": "address",
          "name": "newCollector",
          "type": "address"
        }
      ],
      "name": "updateFeeCollector",
      "outputs": [],
      "stateMutability": "nonpayable",
      "type": "function"
    },
    {
      "inputs": [
        {
          "internalType": "uint256",
          "name": "tokenId",
          "type": "uint256"
        },
        {
          "internalType": "uint256",
          "name": "newPrice",
          "type": "uint256"
        }
      ],
      "name": "updateListingPrice",
      "outputs": [],
      "stateMutability": "nonpayable",
      "type": "function"
    },
    {
      "inputs": [
        {
          "internalType": "uint256",
          "name": "newFee",
          "type": "uint256"
        }
      ],
      "name": "updatePlatformFee",
      "outputs": [],
      "stateMutability": "nonpayable",
      "type": "function"
    },
    {
      "inputs": [],
      "name": "vetToken",
      "outputs": [
        {
          "internalType": "contract IERC20",
          "name": "",
          "type": "address"
        }
      ],
      "stateMutability": "view",
      "type": "function"
    },
    {
      "inputs": [
        {
          "internalType": "uint256",
          "name": "tokenId",
          "type": "uint256"
        }
      ],
      "name": "withdrawBid",
      "outputs": [],
      "stateMutability": "nonpayable",
      "type": "function"
    }
  ],
  "bytecode": "0x6080346200010957601f62001be538819003918201601f191683019291906001600160401b038411838510176200010e5781606092849260409687528339810103126200010957620000518162000124565b6200006c83620000646020850162000124565b930162000124565b916000926001845560fa60065560018060a01b0380928160018060a01b031995168560025416176002551683600354161760035516906007541617600755808052600160205260ff82600181842001549283815281812033825260205220541615620000ed5750620000de3362000139565b5051611a199081620001cc8239f35b604491519063e2517d3f60e01b82523360048301526024820152fd5b600080fd5b634e487b7160e01b600052604160045260246000fd5b51906001600160a01b03821682036200010957565b6001600160a01b031660008181527fa6eef7e35abe7026729641147f7915573c7e97b47efa546f5f6e3230263bcb49602052604081205490919060ff16620001c75781805260016020526040822081835260205260408220600160ff1982541617905533917f2f8788117e7eff1d82e926ec794901d17c78024a50270940304540a733656f0d8180a4600190565b509056fe6080604081815260048036101561001557600080fd5b600092833560e01c90816301ffc9a714611578575080630eaaf4c8146113d4578063107a274a14611343578063248a9ca31461131a57806326232a2e146112fb5780632f2ff15d146112d2578063305a67a8146110cd578063340a8c7b1461104657806336568abe146110865780633f1ffcec1461104657806357c90de514610dc357806391d1485414610d7e5780639b0993a214610d55578063a217fddf14610d3a578063aa0b598814610cc0578063aaf788411461096a578063c415b95c14610941578063c46049431461085e578063d2c35ce8146107bd578063d547741f1461077f578063d56d229d14610752578063de74e57b146106b9578063e7fb74c7146104495763e80838631461012b57600080fd5b346104455760209081600319360112610341578035916101496117c1565b8285528181528385209360038501805461016560ff82166117e4565b60ff600588015416600281101561043257600161018291146118f2565b610192600688015442101561196b565b60ff1916905560078501805490936001600160a01b03918891908316156103a35760088801978854906101d56127106101cd60065485611825565b04809361184e565b91848861021788600354168960075416948b5194858094819363a9059cbb60e01b998a84528d840160209093929193604081019460018060a01b031681520152565b03925af1908115610399579161023b8a94926102719694899161037c575b50611873565b86886001816003541694015416918a519687958694859384528a840160209093929193604081019460018060a01b031681520152565b03925af1908115610372579061028e918491610345575b506118b5565b8260025416908387541690823b156103415785516323b872dd60e01b8152309181019182526001600160a01b039092166020820152604081018990529091839183919082908490829060600103925af180156103375761031f575b50507f4d9113a1377d665eaa1f9168a9c9080f2e488cb820b10149de3d6d2e0f2780c793541694549051908152a35b6001815580f35b61032890611756565b6103335786386102e9565b8680fd5b84513d84823e3d90fd5b8380fd5b6103659150873d891161036b575b61035d8183611780565b81019061185b565b38610288565b503d610353565b85513d85823e3d90fd5b6103939150863d881161036b5761035d8183611780565b38610235565b88513d88823e3d90fd5b93509594919350600181600254169501541693803b1561042e5783516323b872dd60e01b8152309381019384526001600160a01b0390951660208401526040830191909152849184919082908490829060600103925af1908115610425575061040e575b5050610318565b61041790611756565b610422578038610407565b80fd5b513d84823e3d90fd5b8580fd5b634e487b7160e01b895260218652602489fd5b8280fd5b50346104455760209182600319360112610341578135906104686117c1565b81855282845280852093600385019161048460ff8454166117e4565b60ff60058701541660028110156106a65761066357866001600288015497818060a01b03918291015416966127106104be6006548b611825565b04916104ca838b61184e565b60035460075487516323b872dd60e01b808252338783019081529286166001600160a01b031660208401526040830197909752918991839186169082908a90829060600103925af1908115610659579161052f899261056a9489916106425750611873565b6003548851878152338782019081526001600160a01b038f16602082015260408101939093529384929186169183918a918391606090910190565b03925af1908115610638579061058691869161062157506118b5565b6002541691823b15610341578451908152309181019182523360208301526040820188905291839183919082908490829060600103925af1801561061757610603575b50507f88863d5e20f64464b554931394e2e4b6f09c10015147215bf26b3ba5070acebe9260ff198154169055519485523394a46001815580f35b61060c90611756565b6103335786386105c9565b83513d84823e3d90fd5b6103659150883d8a1161036b5761035d8183611780565b86513d87823e3d90fd5b6103939150843d861161036b5761035d8183611780565b87513d88823e3d90fd5b5162461bcd60e51b815280850191909152601960248201527f4e6f742061206669786564207072696365206c697374696e67000000000000006044820152606490fd5b634e487b7160e01b885260218652602488fd5b503461044557602036600319011261044557816101209382358152826020522080549261074060018060a01b0391826001850154169460028501549060ff600387015416908601549160ff60058801541693600860068901549760078a0154169801549881519a8b5260208b015289015215156060880152608087015260a08601906115cc565b60c084015260e0830152610100820152f35b50503461077b578160031936011261077b5760025490516001600160a01b039091168152602090f35b5080fd5b5090346104455780600319360112610445576107b991356107b460016107a36115ef565b93838752816020528620015461161b565b6116df565b5080f35b50346104455760203660031901126104455780356001600160a01b03811692908390036108595783805260016020528084203360005260205261080660ff8260002054166119ab565b82156108245750506001600160601b0360a01b600754161760075580f35b906020606492519162461bcd60e51b8352820152600f60248201526e496e76616c6964206164647265737360881b6044820152fd5b600080fd5b5090346104455761086e36611605565b92908452806020528184209160018060a01b0360018401541633036109115761089d60ff6003850154166117e4565b60ff60058401541660028110156108fe576108bb5750506002015580f35b906020606492519162461bcd60e51b8352820152601b60248201527f43616e6e6f74207570646174652061756374696f6e20707269636500000000006044820152fd5b634e487b7160e01b865260218352602486fd5b906020606492519162461bcd60e51b8352820152600a6024820152692737ba1039b2b63632b960b11b6044820152fd5b50503461077b578160031936011261077b5760075490516001600160a01b039091168152602090f35b5034610445576080366003190112610445578035906024928335936044359260028410156103335761099a6117c1565b60025483516331a9108f60e11b81528281018790526020936001600160a01b039290919083169085818481855afa908115610cb6578b91610c99575b508333911603610c655784829187519283809263020604bf60e21b82528c898301525afa908115610c5b578a91610c2e575b508230911603610bed5760018603610be7576064354201804211610bd5575b855191610120830183811067ffffffffffffffff821117610bc1578b928984938c878f8c968e528282528d888d89850199338b52838601948552606086019660018852610100608088019742895260a081019b8c5260c081019c8d5260e081019e8f52019d8e528352522099518a558a60018b01975116966001600160601b0360a01b97888254161790555160028a015560038901915115159160ff199260ff848354169116179055518a890155600588019251916002831015610bae5750825460ff909216911617905551600685015590516007840180549092169085161790555160089091015560025488929116803b156104455784516323b872dd60e01b81523392810192835230602084015260408301889052918391839182908490829060600103925af1801561033757610b9a575b50507fd827f730b707fc2a464705c98023b0c215fa45822662b3ad03d66c46d057aec492610b909183519687528601906115cc565b3393a36001815580f35b610ba390611756565b61042e578538610b5b565b90508f60218b634e487b7160e01b835252fd5b50634e487b7160e01b600090815260418652fd5b50634e487b7160e01b89526011835288fd5b88610a27565b6018915060649385519362461bcd60e51b85528401528201527f4d61726b6574706c616365206e6f7420617070726f76656400000000000000006044820152fd5b610c4e9150853d8711610c54575b610c468183611780565b8101906117a2565b38610a08565b503d610c3c565b86513d8c823e3d90fd5b855162461bcd60e51b8152808501869052600f818401526e2737ba103a37b5b2b71037bbb732b960891b6044820152606490fd5b610cb09150863d8811610c5457610c468183611780565b386109d6565b87513d8d823e3d90fd5b503461044557602036600319011261044557803591838052600160205280842033600052602052610cf760ff8260002054166119ab565b6103e88311610d0857505060065580f35b906020606492519162461bcd60e51b8352820152600c60248201526b08ccaca40e8dede40d0d2ced60a31b6044820152fd5b50503461077b578160031936011261077b5751908152602090f35b50503461077b578160031936011261077b5760035490516001600160a01b039091168152602090f35b503461044557816003193601126104455781602093610d9b6115ef565b9235815260018552209060018060a01b0316600052825260ff81600020541690519015158152f35b50903461044557610dd336611605565b929091610dde6117c1565b828552602091808352818620610dfa60ff6003830154166117e4565b60ff6005820154166002811015611033576001610e1791146118f2565b600681015442101561100157600881019182549182881115610fd05760070180549092899187916001600160a01b0391821680610f44575b505060035487516323b872dd60e01b815233868201908152306020820152604081018d90529094859390921691839182906060015b03925af1908115610f3a578991610f1d575b5015610ee457507f0e54eff26401bf69b81b26f60bd85ef47f5d85275c1d268d84f68d6897431c479392918691336001600160601b0360a01b82541617905555519384523393a36001815580f35b835162461bcd60e51b81529081018590526013602482015272109a59081d1c985b9cd9995c8819985a5b1959606a1b6044820152606490fd5b610f349150863d881161036b5761035d8183611780565b38610e96565b85513d8b823e3d90fd5b600354895163a9059cbb60e01b81526001600160a01b039092168783019081526020810193909352929390929091839185169082908790829060400103925af1908115610fc65791610fa2610e84928a948691610fa9575b5061192f565b9038610e4f565b610fc09150853d871161036b5761035d8183611780565b38610f9c565b87513d85823e3d90fd5b845162461bcd60e51b8152808301879052600b60248201526a42696420746f6f206c6f7760a81b6044820152606490fd5b5082606492519162461bcd60e51b8352820152600d60248201526c105d58dd1a5bdb88195b991959609a1b6044820152fd5b634e487b7160e01b885260218352602488fd5b5034610445578160031936011261044557816020936110636115ef565b9235815260058552209060018060a01b0316600052825280600020549051908152f35b5091903461077b578060031936011261077b576110a16115ef565b90336001600160a01b038316036110be57506107b99192356116df565b5163334bd91960e11b81528390fd5b50346104455760209081600319360112610341578035906110ec6117c1565b818552808352838520906003820161110760ff8254166117e4565b60018301546001600160a01b03949085169033821480156112b6575b156112825788908660025416803b156104455789516323b872dd60e01b8152308782019081526001600160a01b0390951660208601526040850192909252909283919082908490829060600103925af1801561127857611265575b50805460ff19169055600582015460ff1660028110156112525760011480611243575b6111ae575b856001815580f35b6003546007830154600890930154865163a9059cbb60e01b81529385166001600160a01b0316928401928352602083015291928492849291169082908890829060400103925af19182156112365761120f93508492611219575b505061192f565b38808080806111a6565b61122f9250803d1061036b5761035d8183611780565b3880611208565b50505051903d90823e3d90fd5b508260078301541615156111a1565b634e487b7160e01b875260218252602487fd5b61127190979197611756565b953861117e565b87513d8a823e3d90fd5b875162461bcd60e51b8152808501889052600e60248201526d139bdd08185d5d1a1bdc9a5e995960921b6044820152606490fd5b5088805260018752878920338a52875260ff888a205416611123565b5090346104455780600319360112610445576107b991356112f660016107a36115ef565b61165f565b50503461077b578160031936011261077b576020906006549051908152f35b503461044557602036600319011261044557816020936001923581528285522001549051908152f35b50903461044557602036600319011261044557806101009383358152836020522060018060a01b036113c3816001840154169460028401549460ff600386015416918501549060ff600587015416926008600688015496600789015416970154978251998a5260208a0152151590880152606087015260808601906115cc565b60a084015260c083015260e0820152f35b50903461044557602090816003193601126103415782356113f36117c1565b80855283835261140a60068387200154421161196b565b808552838352818520600701546001600160a01b03908116331461153557818652600584528286203387528452828620549182156114fd5786526005845282862033808852908552838720879055600354845163a9059cbb60e01b81528781019283526020830194909452859284928390036040019183918a91165af19081156114f35785916114d6575b50156114a357836001815580f35b5162461bcd60e51b815291820152600f60248201526e151c985b9cd9995c8819985a5b1959608a1b604482015260649150fd5b6114ed9150833d851161036b5761035d8183611780565b38611495565b82513d87823e3d90fd5b835162461bcd60e51b815280870186905260126024820152714e6f2062696420746f20776974686472617760701b6044820152606490fd5b50505162461bcd60e51b815291820152601e60248201527f48696768657374206269646465722063616e6e6f742077697468647261770000604482015260649150fd5b92505034610445576020366003190112610445573563ffffffff60e01b81168091036104455760209250637965db0b60e01b81149081156115bb575b5015158152f35b6301ffc9a760e01b149050386115b4565b9060028210156115d95752565b634e487b7160e01b600052602160045260246000fd5b602435906001600160a01b038216820361085957565b6040906003190112610859576004359060243590565b80600052600160205260406000203360005260205260ff60406000205416156116415750565b6044906040519063e2517d3f60e01b82523360048301526024820152fd5b906000918083526001602052604083209160018060a01b03169182845260205260ff604084205416156000146116da5780835260016020526040832082845260205260408320600160ff198254161790557f2f8788117e7eff1d82e926ec794901d17c78024a50270940304540a733656f0d339380a4600190565b505090565b906000918083526001602052604083209160018060a01b03169182845260205260ff6040842054166000146116da578083526001602052604083208284526020526040832060ff1981541690557ff6391f5c32d9c69d2a47ea670b442974b53935d1edc7fd64eb21e047a839171b339380a4600190565b67ffffffffffffffff811161176a57604052565b634e487b7160e01b600052604160045260246000fd5b90601f8019910116810190811067ffffffffffffffff82111761176a57604052565b9081602091031261085957516001600160a01b03811681036108595790565b6002600054146117d2576002600055565b604051633ee5aeb560e01b8152600490fd5b156117eb57565b60405162461bcd60e51b81526020600482015260126024820152714c697374696e67206e6f742061637469766560701b6044820152606490fd5b8181029291811591840414171561183857565b634e487b7160e01b600052601160045260246000fd5b9190820391821161183857565b90816020910312610859575180151581036108595790565b1561187a57565b60405162461bcd60e51b8152602060048201526013602482015272119959481d1c985b9cd9995c8819985a5b1959606a1b6044820152606490fd5b156118bc57565b60405162461bcd60e51b815260206004820152600e60248201526d14185e5b595b9d0819985a5b195960921b6044820152606490fd5b156118f957565b60405162461bcd60e51b815260206004820152600e60248201526d2737ba1030b71030bab1ba34b7b760911b6044820152606490fd5b1561193657565b60405162461bcd60e51b815260206004820152600d60248201526c1499599d5b990819985a5b1959609a1b6044820152606490fd5b1561197257565b60405162461bcd60e51b8152602060048201526011602482015270105d58dd1a5bdb881b9bdd08195b991959607a1b6044820152606490fd5b156119b257565b60405162461bcd60e51b81526020600482015260096024820152682737ba1030b236b4b760b91b6044820152606490fdfea26469706673582212202d8f681c5a7aeaac8d0d281b3d0af409c0be7a7563eb918fac736afcd76ff0cc64736f6c63430008140033",
  "linkReferences": {},
  "deployedLinkReferences": {}
}