{
  "_format": "hh-sol-artifact-1",
  "contractName": "SupplyChainTracking",
  "sourceName": "contracts/SupplyChainTracking.sol",
  "abi": [
    {
      "inputs": [
        {
          "internalType": "address",
          "name": "_nftContract",
          "type": "address"
        }
      ],
      "stateMutability": "nonpayable",
      "type": "constructor"
    },
    {
      "inputs": [],
      "name": "AccessControlBadConfirmation",
      "type": "error"
    },
    {
      "inputs": [
        {
          "internalType": "address",
          "name": "account",
          "type": "address"
        },
        {
          "internalType": "bytes32",
          "name": "neededRole",
          "type": "bytes32"
        }
      ],
      "name": "AccessControlUnauthorizedAccount",
      "type": "error"
    },
    {
      "inputs": [],
      "name": "EnforcedPause",
      "type": "error"
    },
    {
      "inputs": [],
      "name": "ExpectedPause",
      "type": "error"
    },
    {
      "anonymous": false,
      "inputs": [
        {
          "indexed": true,
          "internalType": "uint256",
          "name": "tokenId",
          "type": "uint256"
        },
        {
          "indexed": false,
          "internalType": "string",
          "name": "alertType",
          "type": "string"
        },
        {
          "indexed": false,
          "internalType": "string",
          "name": "description",
          "type": "string"
        },
        {
          "indexed": false,
          "internalType": "uint256",
          "name": "timestamp",
          "type": "uint256"
        }
      ],
      "name": "AlertTriggered",
      "type": "event"
    },
    {
      "anonymous": false,
      "inputs": [
        {
          "indexed": false,
          "internalType": "address",
          "name": "account",
          "type": "address"
        }
      ],
      "name": "Paused",
      "type": "event"
    },
    {
      "anonymous": false,
      "inputs": [
        {
          "indexed": true,
          "internalType": "bytes32",
          "name": "role",
          "type": "bytes32"
        },
        {
          "indexed": true,
          "internalType": "bytes32",
          "name": "previousAdminRole",
          "type": "bytes32"
        },
        {
          "indexed": true,
          "internalType": "bytes32",
          "name": "newAdminRole",
          "type": "bytes32"
        }
      ],
      "name": "RoleAdminChanged",
      "type": "event"
    },
    {
      "anonymous": false,
      "inputs": [
        {
          "indexed": true,
          "internalType": "bytes32",
          "name": "role",
          "type": "bytes32"
        },
        {
          "indexed": true,
          "internalType": "address",
          "name": "account",
          "type": "address"
        },
        {
          "indexed": true,
          "internalType": "address",
          "name": "sender",
          "type": "address"
        }
      ],
      "name": "RoleGranted",
      "type": "event"
    },
    {
      "anonymous": false,
      "inputs": [
        {
          "indexed": true,
          "internalType": "bytes32",
          "name": "role",
          "type": "bytes32"
        },
        {
          "indexed": true,
          "internalType": "address",
          "name": "account",
          "type": "address"
        },
        {
          "indexed": true,
          "internalType": "address",
          "name": "sender",
          "type": "address"
        }
      ],
      "name": "RoleRevoked",
      "type": "event"
    },
    {
      "anonymous": false,
      "inputs": [
        {
          "indexed": true,
          "internalType": "uint256",
          "name": "tokenId",
          "type": "uint256"
        },
        {
          "indexed": false,
          "internalType": "string",
          "name": "location",
          "type": "string"
        },
        {
          "indexed": false,
          "internalType": "string",
          "name": "status",
          "type": "string"
        },
        {
          "indexed": false,
          "internalType": "uint256",
          "name": "timestamp",
          "type": "uint256"
        }
      ],
      "name": "TrackingUpdated",
      "type": "event"
    },
    {
      "anonymous": false,
      "inputs": [
        {
          "indexed": true,
          "internalType": "uint256",
          "name": "tokenId",
          "type": "uint256"
        },
        {
          "indexed": true,
          "internalType": "uint256",
          "name": "trackingIndex",
          "type": "uint256"
        },
        {
          "indexed": false,
          "internalType": "address",
          "name": "validator",
          "type": "address"
        },
        {
          "indexed": false,
          "internalType": "bool",
          "name": "isValid",
          "type": "bool"
        }
      ],
      "name": "TrackingValidated",
      "type": "event"
    },
    {
      "anonymous": false,
      "inputs": [
        {
          "indexed": false,
          "internalType": "address",
          "name": "account",
          "type": "address"
        }
      ],
      "name": "Unpaused",
      "type": "event"
    },
    {
      "inputs": [],
      "name": "DEFAULT_ADMIN_ROLE",
      "outputs": [
        {
          "internalType": "bytes32",
          "name": "",
          "type": "bytes32"
        }
      ],
      "stateMutability": "view",
      "type": "function"
    },
    {
      "inputs": [],
      "name": "TRACKER_ROLE",
      "outputs": [
        {
          "internalType": "bytes32",
          "name": "",
          "type": "bytes32"
        }
      ],
      "stateMutability": "view",
      "type": "function"
    },
    {
      "inputs": [],
      "name": "VALIDATOR_ROLE",
      "outputs": [
        {
          "internalType": "bytes32",
          "name": "",
          "type": "bytes32"
        }
      ],
      "stateMutability": "view",
      "type": "function"
    },
    {
      "inputs": [
        {
          "internalType": "uint256",
          "name": "tokenId",
          "type": "uint256"
        },
        {
          "internalType": "string",
          "name": "location",
          "type": "string"
        },
        {
          "internalType": "string",
          "name": "handler",
          "type": "string"
        },
        {
          "internalType": "string",
          "name": "status",
          "type": "string"
        },
        {
          "internalType": "string[]",
          "name": "envKeys",
          "type": "string[]"
        },
        {
          "internalType": "string[]",
          "name": "envValues",
          "type": "string[]"
        },
        {
          "internalType": "uint256",
          "name": "temperature",
          "type": "uint256"
        },
        {
          "internalType": "uint256",
          "name": "humidity",
          "type": "uint256"
        }
      ],
      "name": "addTrackingData",
      "outputs": [],
      "stateMutability": "nonpayable",
      "type": "function"
    },
    {
      "inputs": [
        {
          "internalType": "bytes32",
          "name": "role",
          "type": "bytes32"
        }
      ],
      "name": "getRoleAdmin",
      "outputs": [
        {
          "internalType": "bytes32",
          "name": "",
          "type": "bytes32"
        }
      ],
      "stateMutability": "view",
      "type": "function"
    },
    {
      "inputs": [
        {
          "internalType": "uint256",
          "name": "tokenId",
          "type": "uint256"
        }
      ],
      "name": "getTrackingHistory",
      "outputs": [
        {
          "components": [
            {
              "internalType": "uint256",
              "name": "timestamp",
              "type": "uint256"
            },
            {
              "internalType": "string",
              "name": "location",
              "type": "string"
            },
            {
              "internalType": "string",
              "name": "handler",
              "type": "string"
            },
            {
              "internalType": "string",
              "name": "status",
              "type": "string"
            },
            {
              "internalType": "string[]",
              "name": "envKeys",
              "type": "string[]"
            },
            {
              "internalType": "string[]",
              "name": "envValues",
              "type": "string[]"
            },
            {
              "internalType": "uint256",
              "name": "temperature",
              "type": "uint256"
            },
            {
              "internalType": "uint256",
              "name": "humidity",
              "type": "uint256"
            },
            {
              "internalType": "bool",
              "name": "isValidated",
              "type": "bool"
            },
            {
              "internalType": "address",
              "name": "validator",
              "type": "address"
            }
          ],
          "internalType": "struct ISupplyChainTracking.TrackingData[]",
          "name": "",
          "type": "tuple[]"
        }
      ],
      "stateMutability": "view",
      "type": "function"
    },
    {
      "inputs": [
        {
          "internalType": "bytes32",
          "name": "role",
          "type": "bytes32"
        },
        {
          "internalType": "address",
          "name": "account",
          "type": "address"
        }
      ],
      "name": "grantRole",
      "outputs": [],
      "stateMutability": "nonpayable",
      "type": "function"
    },
    {
      "inputs": [
        {
          "internalType": "bytes32",
          "name": "role",
          "type": "bytes32"
        },
        {
          "internalType": "address",
          "name": "account",
          "type": "address"
        }
      ],
      "name": "hasRole",
      "outputs": [
        {
          "internalType": "bool",
          "name": "",
          "type": "bool"
        }
      ],
      "stateMutability": "view",
      "type": "function"
    },
    {
      "inputs": [],
      "name": "nftContract",
      "outputs": [
        {
          "internalType": "contract IServareNFT",
          "name": "",
          "type": "address"
        }
      ],
      "stateMutability": "view",
      "type": "function"
    },
    {
      "inputs": [],
      "name": "pause",
      "outputs": [],
      "stateMutability": "nonpayable",
      "type": "function"
    },
    {
      "inputs": [],
      "name": "paused",
      "outputs": [
        {
          "internalType": "bool",
          "name": "",
          "type": "bool"
        }
      ],
      "stateMutability": "view",
      "type": "function"
    },
    {
      "inputs": [
        {
          "internalType": "bytes32",
          "name": "role",
          "type": "bytes32"
        },
        {
          "internalType": "address",
          "name": "callerConfirmation",
          "type": "address"
        }
      ],
      "name": "renounceRole",
      "outputs": [],
      "stateMutability": "nonpayable",
      "type": "function"
    },
    {
      "inputs": [
        {
          "internalType": "bytes32",
          "name": "role",
          "type": "bytes32"
        },
        {
          "internalType": "address",
          "name": "account",
          "type": "address"
        }
      ],
      "name": "revokeRole",
      "outputs": [],
      "stateMutability": "nonpayable",
      "type": "function"
    },
    {
      "inputs": [
        {
          "internalType": "uint256",
          "name": "tokenId",
          "type": "uint256"
        },
        {
          "internalType": "uint256",
          "name": "maxTemperature",
          "type": "uint256"
        },
        {
          "internalType": "uint256",
          "name": "minTemperature",
          "type": "uint256"
        },
        {
          "internalType": "uint256",
          "name": "maxHumidity",
          "type": "uint256"
        },
        {
          "internalType": "uint256",
          "name": "minHumidity",
          "type": "uint256"
        }
      ],
      "name": "setThresholds",
      "outputs": [],
      "stateMutability": "nonpayable",
      "type": "function"
    },
    {
      "inputs": [
        {
          "internalType": "bytes4",
          "name": "interfaceId",
          "type": "bytes4"
        }
      ],
      "name": "supportsInterface",
      "outputs": [
        {
          "internalType": "bool",
          "name": "",
          "type": "bool"
        }
      ],
      "stateMutability": "view",
      "type": "function"
    },
    {
      "inputs": [
        {
          "internalType": "uint256",
          "name": "",
          "type": "uint256"
        },
        {
          "internalType": "string",
          "name": "",
          "type": "string"
        }
      ],
      "name": "thresholds",
      "outputs": [
        {
          "internalType": "uint256",
          "name": "",
          "type": "uint256"
        }
      ],
      "stateMutability": "view",
      "type": "function"
    },
    {
      "inputs": [
        {
          "internalType": "uint256",
          "name": "",
          "type": "uint256"
        }
      ],
      "name": "trackingCount",
      "outputs": [
        {
          "internalType": "uint256",
          "name": "",
          "type": "uint256"
        }
      ],
      "stateMutability": "view",
      "type": "function"
    },
    {
      "inputs": [],
      "name": "unpause",
      "outputs": [],
      "stateMutability": "nonpayable",
      "type": "function"
    },
    {
      "inputs": [
        {
          "internalType": "uint256",
          "name": "tokenId",
          "type": "uint256"
        },
        {
          "internalType": "uint256",
          "name": "trackingIndex",
          "type": "uint256"
        },
        {
          "internalType": "bool",
          "name": "isValid",
          "type": "bool"
        },
        {
          "internalType": "string",
          "name": "notes",
          "type": "string"
        }
      ],
      "name": "validateTrackingData",
      "outputs": [],
      "stateMutability": "nonpayable",
      "type": "function"
    }
  ],
  "bytecode": "0x60803461008e57601f62001f5338819003918201601f19168301916001600160401b038311848410176100935780849260209460405283398101031261008e57516001600160a01b038116810361008e57600180546001600160a81b03191660089290921b610100600160a81b031691909117905561007d336100a9565b50604051611e1990816200013a8239f35b600080fd5b634e487b7160e01b600052604160045260246000fd5b6001600160a01b031660008181527fad3228b676f7d3cd4284a5443f17f1962b36e491b30a40b2405849e597ba5fb5602052604081205490919060ff1661013557818052816020526040822081835260205260408220600160ff1982541617905533917f2f8788117e7eff1d82e926ec794901d17c78024a50270940304540a733656f0d8180a4600190565b509056fe608080604052600436101561001357600080fd5b60009060e08235811c91826301ffc9a714611644575081631b3aa154146115da578163248a9ca3146115ae5781632f2ff15d1461157f57816336568abe146115455781633f4ba83a146114c15781634e4e3eeb146114865781635c975abb146114635781636dbfc112146113835781638456cb591461131057816391d14854146112d5578163a217fddf146112b9578163c36034e21461103457508063c49baebe14610ff9578063d35d365714610cde578063d547741f14610cab578063d56d229d14610c7e578063dfb7747d146101205763e6e7f0df146100f457600080fd5b3461011d57602036600319011261011d5760406020916004358152600383522054604051908152f35b80fd5b503461011d5761010036600319011261011d576024356001600160401b03811161066a57610152903690600401611722565b6044356001600160401b038111610c7a57610171903690600401611722565b916064356001600160401b03811161066a57610191903690600401611722565b926084356001600160401b038111610c7a576101b190369060040161185e565b9360a4356001600160401b038111610c76576101d190369060040161185e565b906101da611ae8565b7f3ef0725b9d4b3697f60fa4e9def2b6b2b9dee279d2bffdf3252d316fffcb536e8452836020526040842033855260205260ff60408520541615610c38576001546040516331a9108f60e11b81526004803590820152906020908290602490829060081c6001600160a01b03165afa908115610c2d578591610be7575b506001600160a01b031615610baf578551825103610b71576004358452600360205261028f6040852054600260205260408620611a15565b509242845585516001600160401b038111610aa4576102b16001860154611a47565b601f8111610b2d575b50806020601f8211600114610ac3578791610ab8575b508160011b916000199060031b1c19161760018501555b8051906001600160401b038211610aa45781906103076002870154611a47565b601f8111610a54575b50602090601f83116001146109e55787926109da575b50508160011b916000199060031b1c19161760028401555b80516001600160401b0381116109c65761035b6003850154611a47565b601f8111610982575b50806020601f821160011461091857869161090d575b508160011b916000199060031b1c19161760038401555b60c435600584015560e435600684015560078301805460ff19169055835b865181101561051f576103c28184611aa6565b516103e660206103d2848b611aa6565b51816040519382858094519384920161177d565b810160048901815203019020908051906001600160401b03821161050b5761040e8354611a47565b601f81116104ca575b50602090601f831160011461045e5761044e94939291899183610453575b50508160011b916000199060031b1c1916179055611a81565b6103af565b015190503880610435565b908389526020892091895b601f19851681106104b2575091839160019361044e979695601f19811610610499575b505050811b019055611a81565b015160001960f88460031b161c1916905538808061048c565b91926020600181928685015181550194019201610469565b83895260208920601f840160051c810160208510610504575b601f830160051c820181106104f9575050610417565b8a81556001016104e3565b50806104e3565b634e487b7160e01b88526041600452602488fd5b848287600435835260046020526040832060276040516606d617854656d760cc1b92838252600782015220546107b5575b506004358352600460205260408320602b6040516a6d617848756d696469747960a81b92838252600b820152205461066e575b50600154839060081c6001600160a01b0316803b1561066a57819060646040518094819363a25f348d60e01b8352600435600484015260c435602484015260e43560448401525af1801561065f5761062e575b506106287f5cae47c067ff256f643b1e9219c03e853fc25e2d29199fbc6b2de52d6a361b4a9160043585526003602052604085206106148154611a81565b905560405191829160043595429184611aba565b0390a280f35b6001600160401b03819492941161064b57604052916106286105d6565b634e487b7160e01b82526041600452602482fd5b6040513d86823e3d90fd5b5080fd5b602b906004358552600460205260408520604051918252600b820152205460e4351161073c575b60043583526004602052602b60408420604051906a6d696e48756d696469747960a81b8252600b820152205460e435106106d0575b83610583565b6107376040516106df816116cb565b600c81526b48756d6964697479204c6f7760a01b602082015260405190610705826116cb565b602082527f48756d69646974792062656c6f77206d696e696d756d207468726573686f6c646020830152600435611b49565b6106ca565b6107b060405161074b816116cb565b600d81526c090eadad2c8d2e8f24090d2ced609b1b602082015260405190610772826116e6565b602382527f48756d6964697479206578636565646564206d6178696d756d207468726573686020830152621bdb1960ea1b6040830152600435611b49565b610695565b60279060043585526004602052604085206040519182526007820152205460c4351161088e575b60043583526004602052602760408420604051906606d696e54656d760cc1b82526007820152205460c43510610813575b83610550565b610889604051610822816116cb565b600f81526e54656d7065726174757265204c6f7760881b60208201526040519061084b826116e6565b602382527f54656d70657261747572652062656c6f77206d696e696d756d207468726573686020830152621bdb1960ea1b6040830152600435611b49565b61080d565b61090860405161089d816116cb565b601081526f0a8cadae0cae4c2e8eae4ca4090d2ced60831b6020820152604051906108c7826116e6565b602682527f54656d7065726174757265206578636565646564206d6178696d756d20746872602083015265195cda1bdb1960d21b6040830152600435611b49565b6107dc565b90508201513861037a565b91506003850186526020862086925b601f198316841061096a576001935082601f19811610610951575b5050811b016003840155610391565b84015160001960f88460031b161c191690553880610942565b84810151825560209384019360019092019101610927565b60038501865260208620601f830160051c8101602084106109bf575b601f830160051c820181106109b4575050610364565b87815560010161099e565b508061099e565b634e487b7160e01b85526041600452602485fd5b015190503880610326565b9250600286018752602087209087935b601f1984168510610a39576001945083601f19811610610a20575b505050811b01600284015561033e565b015160001960f88460031b161c19169055388080610a10565b818101518355602094850194600190930192909101906109f5565b90915060028601875260208720601f840160051c810160208510610a9d575b90849392915b601f830160051c82018110610a8f575050610310565b898155859450600101610a79565b5080610a73565b634e487b7160e01b86526041600452602486fd5b9050870151386102d0565b91506001860187526020872087925b601f1983168410610b15576001935082601f19811610610afc575b5050811b0160018501556102e7565b89015160001960f88460031b161c191690553880610aed565b89810151825560209384019360019092019101610ad2565b60018601875260208720601f830160051c810160208410610b6a575b601f830160051c82018110610b5f5750506102ba565b888155600101610b49565b5080610b49565b60405162461bcd60e51b8152602060048201526016602482015275082e4e4c2f2e640d8cadccee8d040dad2e6dac2e8c6d60531b6044820152606490fd5b60405162461bcd60e51b815260206004820152601060248201526f125b9d985b1a59081d1bdad95b88125160821b6044820152606490fd5b90506020813d602011610c25575b81610c0260209383611701565b81010312610c2157516001600160a01b0381168103610c215738610257565b8480fd5b3d9150610bf5565b6040513d87823e3d90fd5b60405162461bcd60e51b81526020600482015260166024820152754d757374206861766520747261636b657220726f6c6560501b6044820152606490fd5b8380fd5b8280fd5b503461011d578060031936011261011d5760015460405160089190911c6001600160a01b03168152602090f35b503461011d57610cda610cbd366117a0565b9080845283602052610cd560016040862001546118de565b6119a0565b5080f35b503461011d57608036600319011261011d5760043560243590604435801515809103610c76576001600160401b0390606435828111610ff557610d25903690600401611722565b610d2d611ae8565b7f21702c8af46127c7fa207f89d0b0a8441bb32959a0ac7df790e9ab1a25c98926865260209286845260408720338852845260ff60408820541615610fb057848752600384526040872054861015610f725784875260028452610d938660408920611a15565b50600781019081549160ff8316610f39579060089160018094610100600160a81b0333861b16906affffffffffffffffffffff60a81b161717905501928051928311610f2557610de38454611a47565b601f8111610edf575b508590601f8411600114610e575792807f2fc90722e991f7db6eebbb9e5c753559d57fbc814f1bb18288ee5005f6ca5f899795938193604098968d94610e4c575b50501b916000199060031b1c19161790555b825191338352820152a380f35b015192503880610e2d565b848a52868a209293929190601f1984168b5b818110610eca575091604097959391857f2fc90722e991f7db6eebbb9e5c753559d57fbc814f1bb18288ee5005f6ca5f899a98969410610eb1575b505050811b019055610e3f565b015160001960f88460031b161c19169055388080610ea4565b82840151855593860193928901928901610e69565b848a52868a20601f850160051c810191888610610f1b575b601f0160051c019083905b828110610f10575050610dec565b8b8155018390610f02565b9091508190610ef7565b634e487b7160e01b89526041600452602489fd5b60405162461bcd60e51b8152600481018890526011602482015270105b1c9958591e481d985b1a59185d1959607a1b6044820152606490fd5b60405162461bcd60e51b8152600481018590526016602482015275092dcecc2d8d2c840e8e4c2c6d6d2dcce40d2dcc8caf60531b6044820152606490fd5b60405162461bcd60e51b815260048101859052601860248201527f4d75737420686176652076616c696461746f7220726f6c6500000000000000006044820152606490fd5b8580fd5b503461011d578060031936011261011d5760206040517f21702c8af46127c7fa207f89d0b0a8441bb32959a0ac7df790e9ab1a25c989268152f35b823461011d576020908160031936011261011d5760043590818152600380845260408220549061106382611847565b936110716040519586611701565b828552601f1961108084611847565b0186855b82811061126657505050835b838110611196575050505060405192808401908085528351809252604085018160408460051b880101950193965b8388106110cb5786860387f35b90919293948380600192603f198a82030186528851908151815261115361114061112d61111a61110887870151610140808a8901528701906117c6565b604087015186820360408801526117c6565b60608087015190868303908701526117c6565b60808086015190858303908601526117eb565b60a08085015190848303908501526117eb565b9160c080820151908301528681015187830152610100808201511515908301526101209081878060a01b03910151169101529701930197019690939291936110be565b611261908286526002808952886111b08360408a20611a15565b50916111ba611d1a565b926111c3611d1a565b8154946112108a6005850154946112056006820154976007830154996040519b6111ec8d611699565b8c526111fa60018501611d3d565b908c01528201611d3d565b60408a015201611d3d565b6060870152608086015260a085015260c08401528b83015260ff8116151561010083015260081c6001600160a01b03166101208201526112508289611aa6565b5261125b8188611aa6565b50611a81565b611090565b60405161127281611699565b87815260608084830152806040830152808083015280608083015260a08201528760c0820152878b820152876101008201528761012082015282828a010152018790611084565b823461011d578060031936011261011d57602090604051908152f35b823461011d5760ff60406020926112eb366117a0565b9082528185528282206001600160a01b03909116825284522054604051911615158152f35b823461011d578060031936011261011d57808052806020526040812033825260205261134260ff604083205416611b06565b61134a611ae8565b600160ff19815416176001557f62e78cea01bee320cd4e420270b5ea74000d11b0c9f74754ebdbfc544b05a2586020604051338152a180f35b823461011d5760a036600319011261011d57600480358280526020908382526040842033855282526113bb60ff604086205416611b06565b80845282825260408420604051906606d617854656d760cc1b82526007820152602760243591205580845282825260408420604051906606d696e54656d760cc1b82526007820152602760443591205580845282825260408420604051906a6d617848756d696469747960a81b8252600b820152602b60643591205583525260408120604051906a6d696e48756d696469747960a81b8252600b820152602b60843591205580f35b823461011d578060031936011261011d57602060ff600154166040519015158152f35b823461011d578060031936011261011d5760206040517f3ef0725b9d4b3697f60fa4e9def2b6b2b9dee279d2bffdf3252d316fffcb536e8152f35b823461011d578060031936011261011d5780805280602052604081203382526020526114f360ff604083205416611b06565b60015460ff8116156115335760ff19166001557f5db9ee0a495bf2e6ff9c91a7834c1ba4fdd244a5e8aa4e537bd38aeae4b073aa6020604051338152a180f35b604051638dfc202b60e01b8152600490fd5b823461011d57611554366117a0565b336001600160a01b0382160361156d57610cda916119a0565b60405163334bd91960e11b8152600490fd5b823461011d57610cda611591366117a0565b90808452836020526115a960016040862001546118de565b611922565b823461011d57602036600319011261011d57600160406020926004358152808452200154604051908152f35b823461011d57604036600319011261011d576024356001600160401b03811161066a57602080926040611614611632943690600401611722565b9160043581526004845220826040519483868095519384920161177d565b82019081520301902054604051908152f35b83903461066a57602036600319011261066a5760043563ffffffff60e01b8116809103610c7a5760209250637965db0b60e01b8114908115611688575b5015158152f35b6301ffc9a760e01b14905083611681565b61014081019081106001600160401b038211176116b557604052565b634e487b7160e01b600052604160045260246000fd5b604081019081106001600160401b038211176116b557604052565b606081019081106001600160401b038211176116b557604052565b90601f801991011681019081106001600160401b038211176116b557604052565b81601f82011215611778578035906001600160401b0382116116b55760405192611756601f8401601f191660200185611701565b8284526020838301011161177857816000926020809301838601378301015290565b600080fd5b60005b8381106117905750506000910152565b8181015183820152602001611780565b604090600319011261177857600435906024356001600160a01b03811681036117785790565b906020916117df8151809281855285808601910161177d565b601f01601f1916010190565b908082519081815260208091019281808460051b8301019501936000915b8483106118195750505050505090565b9091929394958480611837600193601f198682030187528a516117c6565b9801930193019194939290611809565b6001600160401b0381116116b55760051b60200190565b9080601f830112156117785781359061187682611847565b926118846040519485611701565b828452602092838086019160051b8301019280841161177857848301915b8483106118b25750505050505090565b82356001600160401b0381116117785786916118d384848094890101611722565b8152019201916118a2565b80600052600060205260406000203360005260205260ff60406000205416156119045750565b6044906040519063e2517d3f60e01b82523360048301526024820152fd5b9060009180835282602052604083209160018060a01b03169182845260205260ff6040842054161560001461199b57808352826020526040832082845260205260408320600160ff198254161790557f2f8788117e7eff1d82e926ec794901d17c78024a50270940304540a733656f0d339380a4600190565b505090565b9060009180835282602052604083209160018060a01b03169182845260205260ff60408420541660001461199b5780835282602052604083208284526020526040832060ff1981541690557ff6391f5c32d9c69d2a47ea670b442974b53935d1edc7fd64eb21e047a839171b339380a4600190565b8054821015611a3157600052600b602060002091020190600090565b634e487b7160e01b600052603260045260246000fd5b90600182811c92168015611a77575b6020831014611a6157565b634e487b7160e01b600052602260045260246000fd5b91607f1691611a56565b6000198114611a905760010190565b634e487b7160e01b600052601160045260246000fd5b8051821015611a315760209160051b010190565b939291611ae390611ad56040936060885260608801906117c6565b9086820360208801526117c6565b930152565b60ff60015416611af457565b60405163d93c066560e01b8152600490fd5b15611b0d57565b60405162461bcd60e51b81526020600482015260146024820152734d75737420686176652061646d696e20726f6c6560601b6044820152606490fd5b9092919260009382855260206003815260408620549560001996878101908111611d0657611b81908683526002845260408320611a15565b5096600a60098901986001998a60ff1982541617905501928551926001600160401b038411611cf257611bb48554611a47565b601f8111611cac575b5081601f8511600114611c2857507f6af8a40f8a661f2ea1898dc041375ba059bc15f9120cb2c9cae247243d14e534979899849392849294611c1d575b501b9260031b1c19161790555b611c18604051928392429184611aba565b0390a2565b880151935038611bfa565b9993929091601f1984169a86845280842093905b8c8210611c95575050837f6af8a40f8a661f2ea1898dc041375ba059bc15f9120cb2c9cae247243d14e534999a9b10611c7d575b505050811b019055611c07565b8701519060f88460031b161c19169055388080611c70565b808784968294958d01518155019501920190611c3c565b858252828220601f860160051c810191848710611ce8575b601f0160051c01908b905b828110611cdd575050611bbd565b838155018b90611ccf565b9091508190611cc4565b634e487b7160e01b81526041600452602490fd5b634e487b7160e01b82526011600452602482fd5b604051602081018181106001600160401b038211176116b5576040526000815290565b9060405191826000825492611d5184611a47565b908184526001948581169081600014611dc05750600114611d7d575b5050611d7b92500383611701565b565b9093915060005260209081600020936000915b818310611da8575050611d7b93508201013880611d6d565b85548884018501529485019487945091830191611d90565b915050611d7b94506020925060ff191682840152151560051b8201013880611d6d56fea26469706673582212204e0fb5653475bca5f216bc033b80837add7ddceaaa3639becbfe3ba4d181746464736f6c63430008140033",
  "linkReferences": {},
  "deployedLinkReferences": {}
}