{
  "_format": "hh-sol-artifact-1",
  "contractName": "SurfoodNFT",
  "sourceName": "contracts/ServareNFT.sol",
  "abi": [
    {
      "inputs": [],
      "stateMutability": "nonpayable",
      "type": "constructor"
    },
    {
      "inputs": [],
      "name": "AccessControlBadConfirmation",
      "type": "error"
    },
    {
      "inputs": [
        {
          "internalType": "address",
          "name": "account",
          "type": "address"
        },
        {
          "internalType": "bytes32",
          "name": "neededRole",
          "type": "bytes32"
        }
      ],
      "name": "AccessControlUnauthorizedAccount",
      "type": "error"
    },
    {
      "inputs": [
        {
          "internalType": "address",
          "name": "sender",
          "type": "address"
        },
        {
          "internalType": "uint256",
          "name": "tokenId",
          "type": "uint256"
        },
        {
          "internalType": "address",
          "name": "owner",
          "type": "address"
        }
      ],
      "name": "ERC721IncorrectOwner",
      "type": "error"
    },
    {
      "inputs": [
        {
          "internalType": "address",
          "name": "operator",
          "type": "address"
        },
        {
          "internalType": "uint256",
          "name": "tokenId",
          "type": "uint256"
        }
      ],
      "name": "ERC721InsufficientApproval",
      "type": "error"
    },
    {
      "inputs": [
        {
          "internalType": "address",
          "name": "approver",
          "type": "address"
        }
      ],
      "name": "ERC721InvalidApprover",
      "type": "error"
    },
    {
      "inputs": [
        {
          "internalType": "address",
          "name": "operator",
          "type": "address"
        }
      ],
      "name": "ERC721InvalidOperator",
      "type": "error"
    },
    {
      "inputs": [
        {
          "internalType": "address",
          "name": "owner",
          "type": "address"
        }
      ],
      "name": "ERC721InvalidOwner",
      "type": "error"
    },
    {
      "inputs": [
        {
          "internalType": "address",
          "name": "receiver",
          "type": "address"
        }
      ],
      "name": "ERC721InvalidReceiver",
      "type": "error"
    },
    {
      "inputs": [
        {
          "internalType": "address",
          "name": "sender",
          "type": "address"
        }
      ],
      "name": "ERC721InvalidSender",
      "type": "error"
    },
    {
      "inputs": [
        {
          "internalType": "uint256",
          "name": "tokenId",
          "type": "uint256"
        }
      ],
      "name": "ERC721NonexistentToken",
      "type": "error"
    },
    {
      "inputs": [
        {
          "internalType": "address",
          "name": "owner",
          "type": "address"
        }
      ],
      "name": "OwnableInvalidOwner",
      "type": "error"
    },
    {
      "inputs": [
        {
          "internalType": "address",
          "name": "account",
          "type": "address"
        }
      ],
      "name": "OwnableUnauthorizedAccount",
      "type": "error"
    },
    {
      "anonymous": false,
      "inputs": [
        {
          "indexed": true,
          "internalType": "address",
          "name": "owner",
          "type": "address"
        },
        {
          "indexed": true,
          "internalType": "address",
          "name": "approved",
          "type": "address"
        },
        {
          "indexed": true,
          "internalType": "uint256",
          "name": "tokenId",
          "type": "uint256"
        }
      ],
      "name": "Approval",
      "type": "event"
    },
    {
      "anonymous": false,
      "inputs": [
        {
          "indexed": true,
          "internalType": "address",
          "name": "owner",
          "type": "address"
        },
        {
          "indexed": true,
          "internalType": "address",
          "name": "operator",
          "type": "address"
        },
        {
          "indexed": false,
          "internalType": "bool",
          "name": "approved",
          "type": "bool"
        }
      ],
      "name": "ApprovalForAll",
      "type": "event"
    },
    {
      "anonymous": false,
      "inputs": [
        {
          "indexed": true,
          "internalType": "address",
          "name": "previousOwner",
          "type": "address"
        },
        {
          "indexed": true,
          "internalType": "address",
          "name": "newOwner",
          "type": "address"
        }
      ],
      "name": "OwnershipTransferred",
      "type": "event"
    },
    {
      "anonymous": false,
      "inputs": [
        {
          "indexed": true,
          "internalType": "uint256",
          "name": "tokenId",
          "type": "uint256"
        },
        {
          "indexed": false,
          "internalType": "address",
          "name": "producer",
          "type": "address"
        },
        {
          "indexed": false,
          "internalType": "string",
          "name": "name",
          "type": "string"
        },
        {
          "indexed": false,
          "internalType": "uint256",
          "name": "quantity",
          "type": "uint256"
        },
        {
          "indexed": false,
          "internalType": "string",
          "name": "category",
          "type": "string"
        }
      ],
      "name": "ProductCreated",
      "type": "event"
    },
    {
      "anonymous": false,
      "inputs": [
        {
          "indexed": true,
          "internalType": "uint256",
          "name": "tokenId",
          "type": "uint256"
        },
        {
          "indexed": false,
          "internalType": "uint256",
          "name": "price",
          "type": "uint256"
        },
        {
          "indexed": false,
          "internalType": "uint256",
          "name": "timestamp",
          "type": "uint256"
        }
      ],
      "name": "ProductListed",
      "type": "event"
    },
    {
      "anonymous": false,
      "inputs": [
        {
          "indexed": true,
          "internalType": "uint256",
          "name": "tokenId",
          "type": "uint256"
        }
      ],
      "name": "ProductUnlisted",
      "type": "event"
    },
    {
      "anonymous": false,
      "inputs": [
        {
          "indexed": true,
          "internalType": "uint256",
          "name": "tokenId",
          "type": "uint256"
        },
        {
          "indexed": false,
          "internalType": "enum SurfoodNFT.ProductQuality",
          "name": "quality",
          "type": "uint8"
        },
        {
          "indexed": false,
          "internalType": "uint256",
          "name": "timestamp",
          "type": "uint256"
        }
      ],
      "name": "QualityUpdated",
      "type": "event"
    },
    {
      "anonymous": false,
      "inputs": [
        {
          "indexed": true,
          "internalType": "bytes32",
          "name": "role",
          "type": "bytes32"
        },
        {
          "indexed": true,
          "internalType": "bytes32",
          "name": "previousAdminRole",
          "type": "bytes32"
        },
        {
          "indexed": true,
          "internalType": "bytes32",
          "name": "newAdminRole",
          "type": "bytes32"
        }
      ],
      "name": "RoleAdminChanged",
      "type": "event"
    },
    {
      "anonymous": false,
      "inputs": [
        {
          "indexed": true,
          "internalType": "bytes32",
          "name": "role",
          "type": "bytes32"
        },
        {
          "indexed": true,
          "internalType": "address",
          "name": "account",
          "type": "address"
        },
        {
          "indexed": true,
          "internalType": "address",
          "name": "sender",
          "type": "address"
        }
      ],
      "name": "RoleGranted",
      "type": "event"
    },
    {
      "anonymous": false,
      "inputs": [
        {
          "indexed": true,
          "internalType": "bytes32",
          "name": "role",
          "type": "bytes32"
        },
        {
          "indexed": true,
          "internalType": "address",
          "name": "account",
          "type": "address"
        },
        {
          "indexed": true,
          "internalType": "address",
          "name": "sender",
          "type": "address"
        }
      ],
      "name": "RoleRevoked",
      "type": "event"
    },
    {
      "anonymous": false,
      "inputs": [
        {
          "indexed": true,
          "internalType": "uint256",
          "name": "tokenId",
          "type": "uint256"
        },
        {
          "indexed": false,
          "internalType": "string",
          "name": "eventType",
          "type": "string"
        },
        {
          "indexed": false,
          "internalType": "string",
          "name": "location",
          "type": "string"
        },
        {
          "indexed": false,
          "internalType": "uint256",
          "name": "timestamp",
          "type": "uint256"
        }
      ],
      "name": "SupplyChainEventAdded",
      "type": "event"
    },
    {
      "anonymous": false,
      "inputs": [
        {
          "indexed": true,
          "internalType": "address",
          "name": "from",
          "type": "address"
        },
        {
          "indexed": true,
          "internalType": "address",
          "name": "to",
          "type": "address"
        },
        {
          "indexed": true,
          "internalType": "uint256",
          "name": "tokenId",
          "type": "uint256"
        }
      ],
      "name": "Transfer",
      "type": "event"
    },
    {
      "inputs": [],
      "name": "DEFAULT_ADMIN_ROLE",
      "outputs": [
        {
          "internalType": "bytes32",
          "name": "",
          "type": "bytes32"
        }
      ],
      "stateMutability": "view",
      "type": "function"
    },
    {
      "inputs": [],
      "name": "PRODUCER_ROLE",
      "outputs": [
        {
          "internalType": "bytes32",
          "name": "",
          "type": "bytes32"
        }
      ],
      "stateMutability": "view",
      "type": "function"
    },
    {
      "inputs": [],
      "name": "VERIFIER_ROLE",
      "outputs": [
        {
          "internalType": "bytes32",
          "name": "",
          "type": "bytes32"
        }
      ],
      "stateMutability": "view",
      "type": "function"
    },
    {
      "inputs": [
        {
          "internalType": "uint256",
          "name": "tokenId",
          "type": "uint256"
        },
        {
          "internalType": "string",
          "name": "eventType",
          "type": "string"
        },
        {
          "internalType": "string",
          "name": "location",
          "type": "string"
        },
        {
          "internalType": "string",
          "name": "handlerName",
          "type": "string"
        },
        {
          "internalType": "bytes32",
          "name": "ipfsDataHash",
          "type": "bytes32"
        },
        {
          "internalType": "string[]",
          "name": "sensorKeys",
          "type": "string[]"
        },
        {
          "internalType": "string[]",
          "name": "sensorValues",
          "type": "string[]"
        }
      ],
      "name": "addSupplyChainEvent",
      "outputs": [],
      "stateMutability": "nonpayable",
      "type": "function"
    },
    {
      "inputs": [
        {
          "internalType": "address",
          "name": "to",
          "type": "address"
        },
        {
          "internalType": "uint256",
          "name": "tokenId",
          "type": "uint256"
        }
      ],
      "name": "approve",
      "outputs": [],
      "stateMutability": "nonpayable",
      "type": "function"
    },
    {
      "inputs": [
        {
          "internalType": "address",
          "name": "owner",
          "type": "address"
        }
      ],
      "name": "balanceOf",
      "outputs": [
        {
          "internalType": "uint256",
          "name": "",
          "type": "uint256"
        }
      ],
      "stateMutability": "view",
      "type": "function"
    },
    {
      "inputs": [
        {
          "internalType": "string",
          "name": "name",
          "type": "string"
        },
        {
          "internalType": "string",
          "name": "description",
          "type": "string"
        },
        {
          "internalType": "uint256",
          "name": "quantity",
          "type": "uint256"
        },
        {
          "internalType": "string",
          "name": "location",
          "type": "string"
        },
        {
          "internalType": "uint256",
          "name": "expiryDate",
          "type": "uint256"
        },
        {
          "internalType": "string",
          "name": "productionDate",
          "type": "string"
        },
        {
          "internalType": "string",
          "name": "category",
          "type": "string"
        },
        {
          "internalType": "string",
          "name": "imageURI",
          "type": "string"
        },
        {
          "internalType": "uint256",
          "name": "price",
          "type": "uint256"
        },
        {
          "internalType": "bytes32",
          "name": "ipfsMetadataHash",
          "type": "bytes32"
        },
        {
          "internalType": "uint256",
          "name": "carbonFootprint",
          "type": "uint256"
        }
      ],
      "name": "createFoodProduct",
      "outputs": [
        {
          "internalType": "uint256",
          "name": "",
          "type": "uint256"
        }
      ],
      "stateMutability": "nonpayable",
      "type": "function"
    },
    {
      "inputs": [
        {
          "internalType": "uint256",
          "name": "tokenId",
          "type": "uint256"
        }
      ],
      "name": "exists",
      "outputs": [
        {
          "internalType": "bool",
          "name": "",
          "type": "bool"
        }
      ],
      "stateMutability": "view",
      "type": "function"
    },
    {
      "inputs": [
        {
          "internalType": "uint256",
          "name": "",
          "type": "uint256"
        }
      ],
      "name": "foodProducts",
      "outputs": [
        {
          "internalType": "string",
          "name": "name",
          "type": "string"
        },
        {
          "internalType": "string",
          "name": "description",
          "type": "string"
        },
        {
          "internalType": "uint256",
          "name": "quantity",
          "type": "uint256"
        },
        {
          "internalType": "string",
          "name": "location",
          "type": "string"
        },
        {
          "internalType": "uint256",
          "name": "expiryDate",
          "type": "uint256"
        },
        {
          "internalType": "string",
          "name": "productionDate",
          "type": "string"
        },
        {
          "internalType": "string",
          "name": "category",
          "type": "string"
        },
        {
          "internalType": "string",
          "name": "imageURI",
          "type": "string"
        },
        {
          "internalType": "uint256",
          "name": "price",
          "type": "uint256"
        },
        {
          "internalType": "bool",
          "name": "isListed",
          "type": "bool"
        },
        {
          "internalType": "address",
          "name": "producer",
          "type": "address"
        },
        {
          "internalType": "bool",
          "name": "isVerified",
          "type": "bool"
        },
        {
          "internalType": "uint256",
          "name": "eventCount",
          "type": "uint256"
        },
        {
          "internalType": "bytes32",
          "name": "ipfsMetadataHash",
          "type": "bytes32"
        },
        {
          "internalType": "enum SurfoodNFT.ProductQuality",
          "name": "quality",
          "type": "uint8"
        },
        {
          "internalType": "uint256",
          "name": "carbonFootprint",
          "type": "uint256"
        },
        {
          "internalType": "bool",
          "name": "exists",
          "type": "bool"
        }
      ],
      "stateMutability": "view",
      "type": "function"
    },
    {
      "inputs": [
        {
          "internalType": "uint256",
          "name": "tokenId",
          "type": "uint256"
        }
      ],
      "name": "getApproved",
      "outputs": [
        {
          "internalType": "address",
          "name": "",
          "type": "address"
        }
      ],
      "stateMutability": "view",
      "type": "function"
    },
    {
      "inputs": [
        {
          "internalType": "uint256",
          "name": "tokenId",
          "type": "uint256"
        }
      ],
      "name": "getProduct",
      "outputs": [
        {
          "internalType": "string",
          "name": "name",
          "type": "string"
        },
        {
          "internalType": "string",
          "name": "description",
          "type": "string"
        },
        {
          "internalType": "uint256",
          "name": "quantity",
          "type": "uint256"
        },
        {
          "internalType": "string",
          "name": "location",
          "type": "string"
        },
        {
          "internalType": "uint256",
          "name": "expiryDate",
          "type": "uint256"
        },
        {
          "internalType": "string",
          "name": "productionDate",
          "type": "string"
        },
        {
          "internalType": "string",
          "name": "category",
          "type": "string"
        },
        {
          "internalType": "string",
          "name": "imageURI",
          "type": "string"
        },
        {
          "internalType": "uint256",
          "name": "price",
          "type": "uint256"
        },
        {
          "internalType": "bool",
          "name": "isListed",
          "type": "bool"
        },
        {
          "internalType": "address",
          "name": "producer",
          "type": "address"
        },
        {
          "internalType": "bool",
          "name": "isVerified",
          "type": "bool"
        },
        {
          "internalType": "bytes32",
          "name": "ipfsMetadataHash",
          "type": "bytes32"
        },
        {
          "internalType": "enum SurfoodNFT.ProductQuality",
          "name": "quality",
          "type": "uint8"
        },
        {
          "internalType": "uint256",
          "name": "carbonFootprint",
          "type": "uint256"
        }
      ],
      "stateMutability": "view",
      "type": "function"
    },
    {
      "inputs": [],
      "name": "getProductCount",
      "outputs": [
        {
          "internalType": "uint256",
          "name": "",
          "type": "uint256"
        }
      ],
      "stateMutability": "view",
      "type": "function"
    },
    {
      "inputs": [
        {
          "internalType": "address",
          "name": "producer",
          "type": "address"
        }
      ],
      "name": "getProductsByProducer",
      "outputs": [
        {
          "internalType": "uint256[]",
          "name": "productsArray",
          "type": "uint256[]"
        }
      ],
      "stateMutability": "view",
      "type": "function"
    },
    {
      "inputs": [
        {
          "internalType": "bytes32",
          "name": "role",
          "type": "bytes32"
        }
      ],
      "name": "getRoleAdmin",
      "outputs": [
        {
          "internalType": "bytes32",
          "name": "",
          "type": "bytes32"
        }
      ],
      "stateMutability": "view",
      "type": "function"
    },
    {
      "inputs": [
        {
          "internalType": "bytes32",
          "name": "role",
          "type": "bytes32"
        },
        {
          "internalType": "address",
          "name": "account",
          "type": "address"
        }
      ],
      "name": "grantRole",
      "outputs": [],
      "stateMutability": "nonpayable",
      "type": "function"
    },
    {
      "inputs": [
        {
          "internalType": "bytes32",
          "name": "role",
          "type": "bytes32"
        },
        {
          "internalType": "address",
          "name": "account",
          "type": "address"
        }
      ],
      "name": "hasRole",
      "outputs": [
        {
          "internalType": "bool",
          "name": "",
          "type": "bool"
        }
      ],
      "stateMutability": "view",
      "type": "function"
    },
    {
      "inputs": [
        {
          "internalType": "address",
          "name": "owner",
          "type": "address"
        },
        {
          "internalType": "address",
          "name": "operator",
          "type": "address"
        }
      ],
      "name": "isApprovedForAll",
      "outputs": [
        {
          "internalType": "bool",
          "name": "",
          "type": "bool"
        }
      ],
      "stateMutability": "view",
      "type": "function"
    },
    {
      "inputs": [
        {
          "internalType": "uint256",
          "name": "tokenId",
          "type": "uint256"
        }
      ],
      "name": "isListedProduct",
      "outputs": [
        {
          "internalType": "bool",
          "name": "",
          "type": "bool"
        }
      ],
      "stateMutability": "view",
      "type": "function"
    },
    {
      "inputs": [
        {
          "internalType": "uint256",
          "name": "tokenId",
          "type": "uint256"
        }
      ],
      "name": "isValidProduct",
      "outputs": [
        {
          "internalType": "bool",
          "name": "",
          "type": "bool"
        }
      ],
      "stateMutability": "view",
      "type": "function"
    },
    {
      "inputs": [],
      "name": "name",
      "outputs": [
        {
          "internalType": "string",
          "name": "",
          "type": "string"
        }
      ],
      "stateMutability": "view",
      "type": "function"
    },
    {
      "inputs": [],
      "name": "owner",
      "outputs": [
        {
          "internalType": "address",
          "name": "",
          "type": "address"
        }
      ],
      "stateMutability": "view",
      "type": "function"
    },
    {
      "inputs": [
        {
          "internalType": "uint256",
          "name": "tokenId",
          "type": "uint256"
        }
      ],
      "name": "ownerOf",
      "outputs": [
        {
          "internalType": "address",
          "name": "",
          "type": "address"
        }
      ],
      "stateMutability": "view",
      "type": "function"
    },
    {
      "inputs": [],
      "name": "renounceOwnership",
      "outputs": [],
      "stateMutability": "nonpayable",
      "type": "function"
    },
    {
      "inputs": [
        {
          "internalType": "bytes32",
          "name": "role",
          "type": "bytes32"
        },
        {
          "internalType": "address",
          "name": "callerConfirmation",
          "type": "address"
        }
      ],
      "name": "renounceRole",
      "outputs": [],
      "stateMutability": "nonpayable",
      "type": "function"
    },
    {
      "inputs": [
        {
          "internalType": "bytes32",
          "name": "role",
          "type": "bytes32"
        },
        {
          "internalType": "address",
          "name": "account",
          "type": "address"
        }
      ],
      "name": "revokeRole",
      "outputs": [],
      "stateMutability": "nonpayable",
      "type": "function"
    },
    {
      "inputs": [
        {
          "internalType": "address",
          "name": "from",
          "type": "address"
        },
        {
          "internalType": "address",
          "name": "to",
          "type": "address"
        },
        {
          "internalType": "uint256",
          "name": "tokenId",
          "type": "uint256"
        }
      ],
      "name": "safeTransferFrom",
      "outputs": [],
      "stateMutability": "nonpayable",
      "type": "function"
    },
    {
      "inputs": [
        {
          "internalType": "address",
          "name": "from",
          "type": "address"
        },
        {
          "internalType": "address",
          "name": "to",
          "type": "address"
        },
        {
          "internalType": "uint256",
          "name": "tokenId",
          "type": "uint256"
        },
        {
          "internalType": "bytes",
          "name": "data",
          "type": "bytes"
        }
      ],
      "name": "safeTransferFrom",
      "outputs": [],
      "stateMutability": "nonpayable",
      "type": "function"
    },
    {
      "inputs": [
        {
          "internalType": "address",
          "name": "operator",
          "type": "address"
        },
        {
          "internalType": "bool",
          "name": "approved",
          "type": "bool"
        }
      ],
      "name": "setApprovalForAll",
      "outputs": [],
      "stateMutability": "nonpayable",
      "type": "function"
    },
    {
      "inputs": [
        {
          "internalType": "bytes4",
          "name": "interfaceId",
          "type": "bytes4"
        }
      ],
      "name": "supportsInterface",
      "outputs": [
        {
          "internalType": "bool",
          "name": "",
          "type": "bool"
        }
      ],
      "stateMutability": "view",
      "type": "function"
    },
    {
      "inputs": [],
      "name": "symbol",
      "outputs": [
        {
          "internalType": "string",
          "name": "",
          "type": "string"
        }
      ],
      "stateMutability": "view",
      "type": "function"
    },
    {
      "inputs": [
        {
          "internalType": "uint256",
          "name": "tokenId",
          "type": "uint256"
        },
        {
          "internalType": "bool",
          "name": "isListed",
          "type": "bool"
        },
        {
          "internalType": "uint256",
          "name": "newPrice",
          "type": "uint256"
        }
      ],
      "name": "toggleProductListing",
      "outputs": [],
      "stateMutability": "nonpayable",
      "type": "function"
    },
    {
      "inputs": [
        {
          "internalType": "uint256",
          "name": "tokenId",
          "type": "uint256"
        }
      ],
      "name": "tokenURI",
      "outputs": [
        {
          "internalType": "string",
          "name": "",
          "type": "string"
        }
      ],
      "stateMutability": "view",
      "type": "function"
    },
    {
      "inputs": [
        {
          "internalType": "address",
          "name": "from",
          "type": "address"
        },
        {
          "internalType": "address",
          "name": "to",
          "type": "address"
        },
        {
          "internalType": "uint256",
          "name": "tokenId",
          "type": "uint256"
        }
      ],
      "name": "transferFrom",
      "outputs": [],
      "stateMutability": "nonpayable",
      "type": "function"
    },
    {
      "inputs": [
        {
          "internalType": "address",
          "name": "newOwner",
          "type": "address"
        }
      ],
      "name": "transferOwnership",
      "outputs": [],
      "stateMutability": "nonpayable",
      "type": "function"
    },
    {
      "inputs": [
        {
          "internalType": "uint256",
          "name": "tokenId",
          "type": "uint256"
        },
        {
          "internalType": "enum SurfoodNFT.ProductQuality",
          "name": "quality",
          "type": "uint8"
        }
      ],
      "name": "updateQuality",
      "outputs": [],
      "stateMutability": "nonpayable",
      "type": "function"
    },
    {
      "inputs": [
        {
          "internalType": "address",
          "name": "",
          "type": "address"
        }
      ],
      "name": "verifiedProducers",
      "outputs": [
        {
          "internalType": "bool",
          "name": "",
          "type": "bool"
        }
      ],
      "stateMutability": "view",
      "type": "function"
    }
  ],
  "bytecode": "0x608034620003a1576040906001600160401b03818301818111838210176200038b578352600782526020916614dd5c999bdbd960ca1b83820152835191848301838110828211176200038b578552600492838152631193d3d160e21b8582015282519082821162000376576000958654926001958685811c951680156200036b575b8386101462000358578190601f9586811162000305575b508390868311600114620002a1578a9262000295575b5050600019600383901b1c191690861b1787555b8151938411620002825784548581811c9116801562000277575b82821014620002645790818486959493116200020d575b5080928411600114620001a55750869262000199575b5050600019600383901b1c191690821b1790555b331562000184575060078054336001600160a01b0319821681179092556001600160a01b03167f8be0079c531659141344cd1fd0a4f28419497f9722a3daafe3b4186f6b6457e08380a36200017233620003a6565b5060085551612e369081620004398239f35b9151631e4fbdf760e01b815291820152602490fd5b01519050388062000109565b9190859450601f1984168589528389209389905b828210620001f35750508411620001d9575b505050811b0190556200011d565b015160001960f88460031b161c19169055388080620001cb565b8484015186558897909501949384019390810190620001b9565b90919293508588528188208480870160051c8201928488106200025a575b9187968992969594930160051c01915b8281106200024b575050620000f3565b8a81558796508891016200023b565b925081926200022b565b634e487b7160e01b885260228752602488fd5b90607f1690620000dc565b634e487b7160e01b875260418652602487fd5b015190503880620000ae565b8a8052848b208994509190601f1984168c5b87828210620002ee5750508411620002d4575b505050811b018755620000c2565b015160001960f88460031b161c19169055388080620002c6565b8385015186558c97909501949384019301620002b3565b909150898052838a208680850160051c8201928686106200034e575b918a91869594930160051c01915b8281106200033f57505062000098565b8c81558594508a91016200032f565b9250819262000321565b634e487b7160e01b895260228852602489fd5b94607f169462000081565b604185634e487b7160e01b6000525260246000fd5b634e487b7160e01b600052604160045260246000fd5b600080fd5b6001600160a01b031660008181527f54cdd369e4e8a8515e52ca72ec816c2101831ad1f18bf44102ed171459c9b4f8602052604081205490919060ff16620004345781805260066020526040822081835260205260408220600160ff1982541617905533917f2f8788117e7eff1d82e926ec794901d17c78024a50270940304540a733656f0d8180a4600190565b509056fe608080604052600436101561001357600080fd5b60003560e01c90816301ffc9a7146124375750806306fdde0314612394578063081812fc14612356578063095ea7b31461226f5780631bf9826a1461164157806323b872dd1461162a578063248a9ca3146115fb5780632f2ff15d146115bc57806335ef88991461143d57806336568abe146113f657806342842e0e146113c857806344b0ceed146113aa5780634a348da91461138c5780634f558e791461136e57806356cb2462146113465780635c2fa7e4146111c357806360f7f09e146110745780636352211e1461104457806370a0823114610feb578063715018a614610f8e578063731db76714610ed05780638da5cb5b14610ea757806391d1485414610e5a57806395d89b4114610d7b578063a217fddf14610d5f578063a22cb46514610cb4578063b88d4fde14610c49578063b9db15b414610ad4578063bdefd4e4146103e1578063c87b56dd1461038a578063cb3e1fe71461034f578063d547741f1461030e578063e155d6f6146102cf578063e7705db614610294578063e985e9c51461023e5763f2fde38b146101ab57600080fd5b34610239576020366003190112610239576101c4612504565b6101cc6128f5565b6001600160a01b0390811690811561022057600754826bffffffffffffffffffffffff60a01b821617600755167f8be0079c531659141344cd1fd0a4f28419497f9722a3daafe3b4186f6b6457e0600080a3005b604051631e4fbdf760e01b815260006004820152602490fd5b600080fd5b3461023957604036600319011261023957610257612504565b61025f61251a565b9060018060a01b03809116600052600560205260406000209116600052602052602060ff604060002054166040519015158152f35b346102395760003660031901126102395760206040517f0ce23c3e399818cfee81a7ab0880f714e53d7672b08df0fa62f2843416e1ea098152f35b34610239576020366003190112610239576001600160a01b036102f0612504565b16600052600a602052602060ff604060002054166040519015158152f35b346102395760403660031901126102395761034d60043561032d61251a565b908060005260066020526103486001604060002001546127ba565b61287e565b005b346102395760003660031901126102395760206040517f8eb467f061ca67f42a2d2ca4a346fc9fb645efc0ba75056ee9f71c3a0ccc10a88152f35b34610239576020366003190112610239576103a6600435612aa7565b5060006040516103b581612530565b526103dd6040516103c581612530565b600081526040519182916020835260208301906124df565b0390f35b346102395760e0366003190112610239576024356001600160401b038111610239576104119036906004016125be565b6044356001600160401b038111610239576104309036906004016125be565b6064356001600160401b0381116102395761044f9036906004016125be565b60a4356001600160401b0381116102395761046e90369060040161273a565b9260c4356001600160401b0381116102395761048e90369060040161273a565b3360009081527fe298173fb715fb8b47cba95afe542599cde89075e978203baa0c87bd3333a43960205260409020549091906104cc9060ff16612d71565b6104df6104da600435612c31565b612dbd565b8451825103610a9657805115610a51576004356000526009602052604060002093600b850154600052600a850160205260406000209342855582516001600160401b038111610786576105356001870154612611565b601f8111610a0a575b50806020601f821160011461099d57600091610992575b508160011b916000199060031b1c19161760018601555b81516001600160401b038111610786576105896002870154612611565b601f811161094b575b50806020601f82116001146108de576000916108d3575b508160011b916000199060031b1c19161760028601555b8051906001600160401b0382116107865781906105e06003880154612611565b601f8111610880575b50602090601f831160011461080e57600092610803575b50508160011b916000199060031b1c19161760038501555b608435600485015560005b865181101561079c576106368185612d47565b5161065a6020610646848b612d47565b5181604051938285809451938492016124bc565b810160058a01815203019020908051906001600160401b038211610786576106828354612611565b601f8111610742575b50602090601f83116001146106d3576106c394939291600091836106c8575b50508160011b916000199060031b1c1916179055612d22565b610623565b015190508b806106aa565b908360005260206000209160005b601f198516811061072a57509183916001936106c3979695601f19811610610711575b505050811b019055612d22565b015160001960f88460031b161c191690558b8080610704565b919260206001819286850151815501940192016106e1565b836000526020600020601f840160051c81016020851061077f575b601f830160051c8201811061077357505061068b565b6000815560010161075d565b508061075d565b634e487b7160e01b600052604160045260246000fd5b506107f27fb125a635359523c8c263eceff3818c33f0a52d99e6d765bb6a0b0dc946fee12c9186600b600181830154019101556107e4604051946060865260608601906124df565b9084820360208601526124df565b9142604082015280600435930390a2005b015190508880610600565b9250600387016000526020600020906000935b601f1984168510610865576001945083601f1981161061084c575b505050811b016003850155610618565b015160001960f88460031b161c1916905588808061083c565b81810151835560209485019460019093019290910190610821565b909150600387016000526020600020601f840160051c8101602085106108cc575b90849392915b601f830160051c820181106108bd5750506105e9565b600081558594506001016108a7565b50806108a1565b9050830151896105a9565b91506002870160005260206000206000925b601f1983168410610933576001935082601f1981161061091a575b5050811b0160028601556105c0565b85015160001960f88460031b161c19169055898061090b565b858101518255602093840193600190920191016108f0565b600287016000526020600020601f830160051c81016020841061098b575b601f830160051c8201811061097f575050610592565b60008155600101610969565b5080610969565b905084015189610555565b91506001870160005260206000206000925b601f19831684106109f2576001935082601f198116106109d9575b5050811b01600186015561056c565b86015160001960f88460031b161c1916905589806109ca565b868101518255602093840193600190920191016109af565b600187016000526020600020601f830160051c810160208410610a4a575b601f830160051c82018110610a3e57505061053e565b60008155600101610a28565b5080610a28565b60405162461bcd60e51b815260206004820152601a60248201527f4576656e7420747970652063616e6e6f7420626520656d7074790000000000006044820152606490fd5b60405162461bcd60e51b8152602060048201526016602482015275082e4e4c2f2e640d8cadccee8d040dad2e6dac2e8c6d60531b6044820152606490fd5b3461023957602036600319011261023957600435610af181612c31565b610afa90612dbd565b600052600960205260406000206002810154906004810154916008820154906009830154600c840154600d85015460ff1691600e86015493610b3b8761264b565b96610b486001820161264b565b98610b556003830161264b565b90610b626005840161264b565b91610b6f6006850161264b565b93600701610b7c9061264b565b946040519c8d9c8d6101e09081815201610b95916124df565b8d810360208f0152610ba6916124df565b9060408d01528b810360608d0152610bbd916124df565b9060808b015289810360a08b0152610bd4916124df565b88810360c08a0152610be5916124df565b87810360e0890152610bf6916124df565b9461010087015260ff81161515610120870152600160a01b600190038160081c1661014087015260a81c60ff1615156101608601526101808501526101a08401610c3f916126f1565b6101c08301520390f35b3461023957608036600319011261023957610c62612504565b610c6a61251a565b90604435606435926001600160401b038411610239573660238501121561023957610ca261034d943690602481600401359101612587565b92610cae838383612921565b33612ae2565b3461023957604036600319011261023957610ccd612504565b610cd5612714565b6001600160a01b03909116908115610d4657336000526005602052604060002082600052602052610d168160406000209060ff801983541691151516179055565b60405190151581527f17307eab39ab6107e8899845ad3d59bd9653f200f220920489ca2b5937696c3160203392a3005b604051630b61174360e31b815260048101839052602490fd5b3461023957600036600319011261023957602060405160008152f35b346102395760003660031901126102395760405160006001805490610d9f82612611565b80855291818116908115610e335750600114610dda575b6103dd84610dc68186038261254b565b6040519182916020835260208301906124df565b600081815292507fb10e2d527612073b26eecdfd717e6a320cf44b4afac2b0732d9fcbe2b7fa0cf65b828410610e1b575050508101602001610dc682610db6565b80546020858701810191909152909301928101610e03565b60ff191660208087019190915292151560051b85019092019250610dc69150839050610db6565b3461023957604036600319011261023957610e7361251a565b600435600052600660205260406000209060018060a01b0316600052602052602060ff604060002054166040519015158152f35b34610239576000366003190112610239576007546040516001600160a01b039091168152602090f35b34610239576040366003190112610239576004356024356004811015610239573360009081527fe298173fb715fb8b47cba95afe542599cde89075e978203baa0c87bd3333a439602052604090819020547fc8bf5df8e37a2cde1ab3af715ff64ba9051cb27fccca8c4751bd0409a1c71fd89290610f509060ff16612d71565b610f5c6104da85612c31565b836000526009602052600d826000200160ff1981541660ff8316179055610f85825180926126f1565b426020820152a2005b3461023957600036600319011261023957610fa76128f5565b600780546001600160a01b031981169091556000906001600160a01b03167f8be0079c531659141344cd1fd0a4f28419497f9722a3daafe3b4186f6b6457e08280a3005b34610239576020366003190112610239576001600160a01b0361100c612504565b16801561102b5760005260036020526020604060002054604051908152f35b6040516322718ad960e21b815260006004820152602490fd5b34610239576020366003190112610239576020611062600435612aa7565b6040516001600160a01b039091168152f35b3461023957606036600319011261023957600435611090612714565b604435906110a06104da84612c31565b6110a983612aa7565b336001600160a01b039091160361118c578260005260096020526040600020906110e281600984019060ff801983541691151516179055565b1561116357811561112557817f97a2fd16610057b24c11ef7212218f5c3aea1276a8c3d5f2dc824b5b122b0dfc92600860409301558151908152426020820152a2005b60405162461bcd60e51b81526020600482015260166024820152755072696365206d75737420626520706f73697469766560501b6044820152606490fd5b50507f600fe75b22e3fed1948261ab5f0b5b5f149ce6242e5bf06daf884c2756ed6c83600080a2005b60405162461bcd60e51b815260206004820152600f60248201526e2737ba103a37b5b2b71037bbb732b960891b6044820152606490fd5b3461023957602036600319011261023957600435600052600960205260406000206111ed8161264b565b906111fa6001820161264b565b906002810154926003820161120e9061264b565b600483015492906112216005830161264b565b9361122e6006840161264b565b9461123b6007850161264b565b95600885015496600986015491600b87015493600c88015495600d89015460ff1697600e8a015499600f015460ff169a6040519e8f9e8f926102208085528401611284916124df565b8381036020850152611295916124df565b91604001528d80820390606001526112ac916124df565b9060808d01528b810360a08d01526112c3916124df565b8a810360c08c01526112d4916124df565b89810360e08b01526112e5916124df565b9661010089015260ff81161515610120890152600160a01b600190038160081c1661014089015260a81c60ff1615156101608801526101808701526101a08601526101c08501611334916126f1565b6101e084015215156102008301520390f35b34610239576020366003190112610239576020611364600435612cfd565b6040519015158152f35b34610239576020366003190112610239576020611364600435612c31565b34610239576000366003190112610239576020600854604051908152f35b34610239576020366003190112610239576020611364600435612cb5565b346102395761034d6113d9366125dc565b90604051926113e784612530565b60008452610cae838383612921565b346102395760403660031901126102395761140f61251a565b336001600160a01b0382160361142b5761034d9060043561287e565b60405163334bd91960e11b8152600490fd5b346102395760208060031936011261023957611457612504565b9060006001928360088054915b8281111561155e575061147684612723565b92611484604051948561254b565b84845261149085612723565b8487019590601f19013687376114e0575b5050509160409391935192818401908285525180915260408401949160005b8281106114cd5785870386f35b83518752958101959281019284016114c0565b600091875b848111156114f45750506114a1565b6114fd81612c31565b80611537575b611516575b61151190612d22565b6114e5565b9261152f8185611529611511948a612d47565b52612d22565b939050611508565b5060008181526009808a52604090912001546001600160a01b0384811691841c1614611503565b61156781612c31565b80611595575b611580575b61157b90612d22565b611464565b9361158d61157b91612d22565b949050611572565b5060008181526009808852604090912001546001600160a01b0385811691841c161461156d565b346102395760403660031901126102395761034d6004356115db61251a565b908060005260066020526115f66001604060002001546127ba565b6127fe565b346102395760203660031901126102395760043560005260066020526020600160406000200154604051908152f35b346102395761034d61163b366125dc565b91612921565b3461023957610160366003190112610239576004356001600160401b038111610239576116729036906004016125be565b6024356001600160401b038111610239576116919036906004016125be565b6064356001600160401b038111610239576116b09036906004016125be565b9060a4356001600160401b038111610239576116d09036906004016125be565b9060c4356001600160401b038111610239576116f09036906004016125be565b9160e4356001600160401b038111610239576117109036906004016125be565b3360009081527f328940cd107ca3dbe17884adbbb9d81697f5ffcb53586525db9480be8081f2d5602052604090205490919060ff161561222a578551156121ee57604435156121a95742608435111561215a57600160085401948560085560405161177a81612530565b600081523315612141576000878152600260205260409020546001600160a01b03168015159088908261210a575b3360005260036020526040600020600181540190558160005260026020526040600020336bffffffffffffffffffffffff60a01b82541617905533907fddf252ad1be2c89b69c2b068fc378daa952ba7f163c4a11628f55a4df523b3ef600080a46120f157333b611fd2575b5085600052600960205260406000209387516001600160401b0381116107865761183e8654612611565b601f8111611f8e575b50806020601f8211600114611f2657600091611f1b575b508160011b916000199060031b1c19161785555b8051906001600160401b0382116107865781906118926001880154612611565b601f8111611ec8575b50602090601f8311600114611e5657600092611e4b575b50508160011b916000199060031b1c19161760018501555b60443560028501558051906001600160401b0382116107865781906118f26003870154612611565b601f8111611df8575b50602090601f8311600114611d8657600092611d7b575b50508160011b916000199060031b1c19161760038401555b60843560048401558051906001600160401b0382116107865781906119526005860154612611565b601f8111611d28575b50602090601f8311600114611cb657600092611cab575b50508160011b916000199060031b1c19161760058301555b82516001600160401b038111610786576119a76006840154612611565b601f8111611c64575b50806020601f8211600114611bf757600091611bec575b508160011b916000199060031b1c19161760068301555b805160078301916001600160401b038211610786576119fd8354612611565b601f8111611ba4575b509160209693918695938890601f8311600114611b10579282611ae496937f34854a6a88c16fc1b8c8e7ec924a44b14d32b3b126b466a3054b2b636fe48090989693611afa96600092611b05575b50508160011b916000199060031b1c19161790555b61010435600882015560098101600181546101008260a81b033360081b16906affffffffffffffffffffff60a81b161717905561012435600c8201556001600f600d83019260ff1993838582541617905561014435600e820155019182541617905560405193849333855260808a86015260808501906124df565b90604435604085015283820360608501526124df565b0390a2604051908152f35b015190508c80611a54565b90601f19831691846000528a6000209260005b818110611b8a5750937f34854a6a88c16fc1b8c8e7ec924a44b14d32b3b126b466a3054b2b636fe48090989693611afa969360019383611ae49b9810611b71575b505050811b019055611a69565b015160001960f88460031b161c191690558c8080611b64565b8284015185558b9a50600190940193928c01928c01611b23565b836000526020600020601f840160051c81019160208510611be2575b601f0160051c01905b818110611bd65750611a06565b60008155600101611bc9565b9091508190611bc0565b9050840151876119c7565b91506006840160005260206000206000925b601f1983168410611c4c576001935082601f19811610611c33575b5050811b0160068301556119de565b86015160001960f88460031b161c191690558780611c24565b86810151825560209384019360019092019101611c09565b600684016000526020600020601f830160051c810160208410611ca4575b601f830160051c82018110611c985750506119b0565b60008155600101611c82565b5080611c82565b015190508780611972565b9250600585016000526020600020906000935b601f1984168510611d0d576001945083601f19811610611cf4575b505050811b01600583015561198a565b015160001960f88460031b161c19169055878080611ce4565b81810151835560209485019460019093019290910190611cc9565b909150600585016000526020600020601f840160051c810160208510611d74575b90849392915b601f830160051c82018110611d6557505061195b565b60008155859450600101611d4f565b5080611d49565b015190508880611912565b9250600386016000526020600020906000935b601f1984168510611ddd576001945083601f19811610611dc4575b505050811b01600384015561192a565b015160001960f88460031b161c19169055888080611db4565b81810151835560209485019460019093019290910190611d99565b909150600386016000526020600020601f840160051c810160208510611e44575b90849392915b601f830160051c82018110611e355750506118fb565b60008155859450600101611e1f565b5080611e19565b0151905089806118b2565b9250600187016000526020600020906000935b601f1984168510611ead576001945083601f19811610611e94575b505050811b0160018501556118ca565b015160001960f88460031b161c19169055898080611e84565b81810151835560209485019460019093019290910190611e69565b909150600187016000526020600020601f840160051c810160208510611f14575b90849392915b601f830160051c82018110611f0557505061189b565b60008155859450600101611eef565b5080611ee9565b90508901518a61185e565b91508660005260206000206000925b8b601f1984168510611f7757506001935082601f19811610611f5e575b5050811b018555611872565b8b015160001960f88460031b161c191690558a80611f52565b810151825560209384019360019092019101611f35565b866000526020600020601f830160051c810160208410611fcb575b601f830160051c82018110611fbf575050611847565b60008155600101611fa9565b5080611fa9565b602061200d9160405180938192630a85bd0160e11b8352336004840152600060248401528b60448401526080606484015260848301906124df565b03816000335af1600091816120ac575b50612077573d15612070573d6120328161256c565b90612040604051928361254b565b81523d6000602083013e5b8051908161206b57604051633250574960e11b8152336004820152602490fd5b602001fd5b606061204b565b6001600160e01b03191663757a42ff60e11b016120945787611814565b604051633250574960e11b8152336004820152602490fd5b9091506020813d6020116120e9575b816120c86020938361254b565b8101031261023957516001600160e01b03198116810361023957908961201d565b3d91506120bb565b6040516339e3563760e11b815260006004820152602490fd5b600082815260046020526040902080546001600160a01b0319169055806000526003602052604060002060001981540190556117a8565b604051633250574960e11b815260006004820152602490fd5b60405162461bcd60e51b815260206004820152602160248201527f4578706972792064617465206d75737420626520696e207468652066757475726044820152606560f81b6064820152608490fd5b60405162461bcd60e51b815260206004820152601960248201527f5175616e74697479206d75737420626520706f736974697665000000000000006044820152606490fd5b60405162461bcd60e51b81526020600482015260146024820152734e616d652063616e6e6f7420626520656d70747960601b6044820152606490fd5b60405162461bcd60e51b815260206004820152601760248201527f4d75737420686176652070726f647563657220726f6c650000000000000000006044820152606490fd5b3461023957604036600319011261023957612288612504565b60243561229481612aa7565b33151580612343575b80612316575b6122fe576001600160a01b039283169282918491167f8c5be1e5ebec7d5bd14f71427d1e84f3dd0314c0f7b2291e5b200ac8c7c3b925600080a4600090815260046020526040902080546001600160a01b0319169091179055005b60405163a9fbf51f60e01b8152336004820152602490fd5b5060018060a01b038116600052600560205260406000203360005260205260ff60406000205416156122a3565b506001600160a01b03811633141561229d565b346102395760203660031901126102395760043561237381612aa7565b506000526004602052602060018060a01b0360406000205416604051908152f35b3461023957600036600319011261023957604051600080546123b581612611565b80845290600190818116908115610e3357506001146123de576103dd84610dc68186038261254b565b600080805292507f290decd9548b62a8d60345a988386fc84ba6bc95484008f6362f93160ef3e5635b82841061241f575050508101602001610dc682610db6565b80546020858701810191909152909301928101612407565b34610239576020366003190112610239576004359063ffffffff60e01b821680920361023957602091637965db0b60e01b8114908115612479575b5015158152f35b6380ac58cd60e01b8114915081156124ab575b811561249a575b5083612472565b6301ffc9a760e01b14905083612493565b635b5e139f60e01b8114915061248c565b60005b8381106124cf5750506000910152565b81810151838201526020016124bf565b906020916124f8815180928185528580860191016124bc565b601f01601f1916010190565b600435906001600160a01b038216820361023957565b602435906001600160a01b038216820361023957565b602081019081106001600160401b0382111761078657604052565b90601f801991011681019081106001600160401b0382111761078657604052565b6001600160401b03811161078657601f01601f191660200190565b9291926125938261256c565b916125a1604051938461254b565b829481845281830111610239578281602093846000960137010152565b9080601f83011215610239578160206125d993359101612587565b90565b6060906003190112610239576001600160a01b0390600435828116810361023957916024359081168103610239579060443590565b90600182811c92168015612641575b602083101461262b57565b634e487b7160e01b600052602260045260246000fd5b91607f1691612620565b906040519182600082549261265f84612611565b9081845260019485811690816000146126ce575060011461268b575b50506126899250038361254b565b565b9093915060005260209081600020936000915b8183106126b65750506126899350820101388061267b565b8554888401850152948501948794509183019161269e565b91505061268994506020925060ff191682840152151560051b820101388061267b565b9060048210156126fe5752565b634e487b7160e01b600052602160045260246000fd5b60243590811515820361023957565b6001600160401b0381116107865760051b60200190565b9080601f830112156102395781359061275282612723565b92612760604051948561254b565b828452602092838086019160051b8301019280841161023957848301915b84831061278e5750505050505090565b82356001600160401b0381116102395786916127af848480948901016125be565b81520192019161277e565b80600052600660205260406000203360005260205260ff60406000205416156127e05750565b6044906040519063e2517d3f60e01b82523360048301526024820152fd5b906000918083526006602052604083209160018060a01b03169182845260205260ff604084205416156000146128795780835260066020526040832082845260205260408320600160ff198254161790557f2f8788117e7eff1d82e926ec794901d17c78024a50270940304540a733656f0d339380a4600190565b505090565b906000918083526006602052604083209160018060a01b03169182845260205260ff604084205416600014612879578083526006602052604083208284526020526040832060ff1981541690557ff6391f5c32d9c69d2a47ea670b442974b53935d1edc7fd64eb21e047a839171b339380a4600190565b6007546001600160a01b0316330361290957565b60405163118cdaa760e01b8152336004820152602490fd5b6001600160a01b03918216929091831561214157600092828452826020956002875260409684888820541696879133151580612a11575b509060027fddf252ad1be2c89b69c2b068fc378daa952ba7f163c4a11628f55a4df523b3ef92846129de575b858352600381528b8320805460010190558683525289812080546001600160a01b0319168517905580a416928383036129bd5750505050565b6064945051926364283d7b60e01b8452600484015260248301526044820152fd5b600087815260046020526040902080546001600160a01b0319169055848352600381528b83208054600019019055612984565b91939450915080612a66575b15612a2d57859291879138612958565b878688612a4a576024915190637e27328960e01b82526004820152fd5b604491519063177e802f60e01b82523360048301526024820152fd5b503387148015612a8b575b80612a1d5750858252600481523385898420541614612a1d565b5086825260058152878220338352815260ff8883205416612a71565b6000818152600260205260409020546001600160a01b0316908115612aca575090565b60249060405190637e27328960e01b82526004820152fd5b909192833b612af3575b5050505050565b604051630a85bd0160e11b8082526001600160a01b039384166004830152938316602482015260448101919091526080606482015260209591909316939091908390612b439060848301906124df565b039285816000958187895af1849181612bed575b50612bb7575050503d600014612baf573d612b718161256c565b90612b7f604051928361254b565b81528091843d92013e5b80519283612baa57604051633250574960e11b815260048101849052602490fd5b019050fd5b506060612b89565b919450915063ffffffff60e01b1603612bd557503880808080612aec565b60249060405190633250574960e11b82526004820152fd5b9091508681813d8311612c2a575b612c05818361254b565b81010312612c2657516001600160e01b031981168103612c26579038612b57565b8480fd5b503d612bfb565b6040516331a9108f60e11b815260048101829052602081602481305afa9081612c77575b50612c605750600090565b600052600960205260ff600f604060002001541690565b6020813d8211612cad575b81612c8f6020938361254b565b8101031261023957516001600160a01b038116036102395738612c55565b3d9150612c82565b612cbe81612c31565b15612cf7576000526009602052604060002060018060a01b03600982015460081c1615159081612cec575090565b600491500154421090565b50600090565b612d0681612c31565b15612cf757600052600960205260ff6009604060002001541690565b6000198114612d315760010190565b634e487b7160e01b600052601160045260246000fd5b8051821015612d5b5760209160051b010190565b634e487b7160e01b600052603260045260246000fd5b15612d7857565b60405162461bcd60e51b815260206004820152601760248201527f4d757374206861766520766572696669657220726f6c650000000000000000006044820152606490fd5b15612dc457565b60405162461bcd60e51b8152602060048201526014602482015273151bdad95b88191bd95cc81b9bdd08195e1a5cdd60621b6044820152606490fdfea2646970667358221220f97636d25bbf5d56fb10b6255cff846755145244eca25d1c33cd55281babfb5d64736f6c63430008140033",
  "linkReferences": {},
  "deployedLinkReferences": {}
}