{
  "_format": "hh-sol-artifact-1",
  "contractName": "BuddyVerification",
  "sourceName": "contracts/BuddyVerification.sol",
  "abi": [
    {
      "inputs": [
        {
          "internalType": "address",
          "name": "_ensResolver",
          "type": "address"
        }
      ],
      "stateMutability": "nonpayable",
      "type": "constructor"
    },
    {
      "anonymous": false,
      "inputs": [
        {
          "indexed": true,
          "internalType": "address",
          "name": "buddy",
          "type": "address"
        },
        {
          "indexed": false,
          "internalType": "uint256",
          "name": "rating",
          "type": "uint256"
        }
      ],
      "name": "BuddyRated",
      "type": "event"
    },
    {
      "anonymous": false,
      "inputs": [
        {
          "indexed": true,
          "internalType": "address",
          "name": "buddy",
          "type": "address"
        },
        {
          "indexed": false,
          "internalType": "string",
          "name": "ensName",
          "type": "string"
        }
      ],
      "name": "BuddyVerified",
      "type": "event"
    },
    {
      "anonymous": false,
      "inputs": [
        {
          "indexed": true,
          "internalType": "address",
          "name": "from",
          "type": "address"
        },
        {
          "indexed": true,
          "internalType": "address",
          "name": "to",
          "type": "address"
        }
      ],
      "name": "ConnectionMade",
      "type": "event"
    },
    {
      "anonymous": false,
      "inputs": [
        {
          "indexed": true,
          "internalType": "address",
          "name": "previousOwner",
          "type": "address"
        },
        {
          "indexed": true,
          "internalType": "address",
          "name": "newOwner",
          "type": "address"
        }
      ],
      "name": "OwnershipTransferred",
      "type": "event"
    },
    {
      "anonymous": false,
      "inputs": [
        {
          "indexed": true,
          "internalType": "address",
          "name": "buddy",
          "type": "address"
        },
        {
          "indexed": false,
          "internalType": "string[]",
          "name": "specialties",
          "type": "string[]"
        }
      ],
      "name": "SpecialtiesUpdated",
      "type": "event"
    },
    {
      "inputs": [
        {
          "internalType": "address",
          "name": "",
          "type": "address"
        }
      ],
      "name": "buddies",
      "outputs": [
        {
          "internalType": "string",
          "name": "ensName",
          "type": "string"
        },
        {
          "internalType": "bool",
          "name": "isVerified",
          "type": "bool"
        },
        {
          "internalType": "uint256",
          "name": "verificationTimestamp",
          "type": "uint256"
        },
        {
          "internalType": "uint256",
          "name": "totalConnections",
          "type": "uint256"
        },
        {
          "internalType": "uint256",
          "name": "rating",
          "type": "uint256"
        },
        {
          "internalType": "uint256",
          "name": "totalRatings",
          "type": "uint256"
        }
      ],
      "stateMutability": "view",
      "type": "function"
    },
    {
      "inputs": [
        {
          "internalType": "address",
          "name": "buddy",
          "type": "address"
        }
      ],
      "name": "connect",
      "outputs": [],
      "stateMutability": "nonpayable",
      "type": "function"
    },
    {
      "inputs": [
        {
          "internalType": "address",
          "name": "",
          "type": "address"
        },
        {
          "internalType": "address",
          "name": "",
          "type": "address"
        }
      ],
      "name": "connections",
      "outputs": [
        {
          "internalType": "bool",
          "name": "",
          "type": "bool"
        }
      ],
      "stateMutability": "view",
      "type": "function"
    },
    {
      "inputs": [],
      "name": "ensResolver",
      "outputs": [
        {
          "internalType": "contract IENS",
          "name": "",
          "type": "address"
        }
      ],
      "stateMutability": "view",
      "type": "function"
    },
    {
      "inputs": [
        {
          "internalType": "address",
          "name": "buddy",
          "type": "address"
        }
      ],
      "name": "getBuddyInfo",
      "outputs": [
        {
          "internalType": "string",
          "name": "ensName",
          "type": "string"
        },
        {
          "internalType": "bool",
          "name": "isVerified",
          "type": "bool"
        },
        {
          "internalType": "uint256",
          "name": "verificationTime",
          "type": "uint256"
        },
        {
          "internalType": "uint256",
          "name": "totalConnections",
          "type": "uint256"
        },
        {
          "internalType": "string[]",
          "name": "specialties",
          "type": "string[]"
        },
        {
          "internalType": "uint256",
          "name": "rating",
          "type": "uint256"
        }
      ],
      "stateMutability": "view",
      "type": "function"
    },
    {
      "inputs": [
        {
          "internalType": "address",
          "name": "buddy",
          "type": "address"
        }
      ],
      "name": "getBuddySpecialties",
      "outputs": [
        {
          "internalType": "string[]",
          "name": "",
          "type": "string[]"
        }
      ],
      "stateMutability": "view",
      "type": "function"
    },
    {
      "inputs": [
        {
          "internalType": "address",
          "name": "buddy",
          "type": "address"
        },
        {
          "internalType": "string",
          "name": "ensName",
          "type": "string"
        }
      ],
      "name": "getMessageHash",
      "outputs": [
        {
          "internalType": "bytes32",
          "name": "",
          "type": "bytes32"
        }
      ],
      "stateMutability": "pure",
      "type": "function"
    },
    {
      "inputs": [
        {
          "internalType": "address",
          "name": "",
          "type": "address"
        },
        {
          "internalType": "address",
          "name": "",
          "type": "address"
        }
      ],
      "name": "hasRated",
      "outputs": [
        {
          "internalType": "bool",
          "name": "",
          "type": "bool"
        }
      ],
      "stateMutability": "view",
      "type": "function"
    },
    {
      "inputs": [
        {
          "internalType": "address",
          "name": "user",
          "type": "address"
        }
      ],
      "name": "isBuddy",
      "outputs": [
        {
          "internalType": "bool",
          "name": "",
          "type": "bool"
        }
      ],
      "stateMutability": "view",
      "type": "function"
    },
    {
      "inputs": [
        {
          "internalType": "address",
          "name": "user",
          "type": "address"
        },
        {
          "internalType": "address",
          "name": "buddy",
          "type": "address"
        }
      ],
      "name": "isConnected",
      "outputs": [
        {
          "internalType": "bool",
          "name": "",
          "type": "bool"
        }
      ],
      "stateMutability": "view",
      "type": "function"
    },
    {
      "inputs": [],
      "name": "owner",
      "outputs": [
        {
          "internalType": "address",
          "name": "",
          "type": "address"
        }
      ],
      "stateMutability": "view",
      "type": "function"
    },
    {
      "inputs": [
        {
          "internalType": "address",
          "name": "buddy",
          "type": "address"
        },
        {
          "internalType": "uint256",
          "name": "rating",
          "type": "uint256"
        }
      ],
      "name": "rateBuddy",
      "outputs": [],
      "stateMutability": "nonpayable",
      "type": "function"
    },
    {
      "inputs": [
        {
          "internalType": "bytes32",
          "name": "_ethSignedMessageHash",
          "type": "bytes32"
        },
        {
          "internalType": "bytes",
          "name": "_signature",
          "type": "bytes"
        }
      ],
      "name": "recoverSigner",
      "outputs": [
        {
          "internalType": "address",
          "name": "",
          "type": "address"
        }
      ],
      "stateMutability": "pure",
      "type": "function"
    },
    {
      "inputs": [],
      "name": "renounceOwnership",
      "outputs": [],
      "stateMutability": "nonpayable",
      "type": "function"
    },
    {
      "inputs": [
        {
          "internalType": "bytes",
          "name": "sig",
          "type": "bytes"
        }
      ],
      "name": "splitSignature",
      "outputs": [
        {
          "internalType": "bytes32",
          "name": "r",
          "type": "bytes32"
        },
        {
          "internalType": "bytes32",
          "name": "s",
          "type": "bytes32"
        },
        {
          "internalType": "uint8",
          "name": "v",
          "type": "uint8"
        }
      ],
      "stateMutability": "pure",
      "type": "function"
    },
    {
      "inputs": [
        {
          "internalType": "address",
          "name": "newOwner",
          "type": "address"
        }
      ],
      "name": "transferOwnership",
      "outputs": [],
      "stateMutability": "nonpayable",
      "type": "function"
    },
    {
      "inputs": [
        {
          "internalType": "string[]",
          "name": "newSpecialties",
          "type": "string[]"
        }
      ],
      "name": "updateSpecialties",
      "outputs": [],
      "stateMutability": "nonpayable",
      "type": "function"
    },
    {
      "inputs": [
        {
          "internalType": "address",
          "name": "buddy",
          "type": "address"
        },
        {
          "internalType": "string",
          "name": "ensName",
          "type": "string"
        },
        {
          "internalType": "bytes",
          "name": "signature",
          "type": "bytes"
        },
        {
          "internalType": "string[]",
          "name": "specialties",
          "type": "string[]"
        }
      ],
      "name": "verifyBuddy",
      "outputs": [],
      "stateMutability": "nonpayable",
      "type": "function"
    }
  ],
  "bytecode": "0x6080346100f357601f61181b38819003918201601f19168301916001600160401b038311848410176100f8578084926020946040528339810103126100f357516001600160a01b03808216918290036100f3576000549060018060a01b0319913383821617600055604051913391167f8be0079c531659141344cd1fd0a4f28419497f9722a3daafe3b4186f6b6457e0600080a382156100b15750600454161760045560405161170c908161010f8239f35b62461bcd60e51b815260206004820152601c60248201527f496e76616c696420454e53207265736f6c7665722061646472657373000000006044820152606490fd5b600080fd5b634e487b7160e01b600052604160045260246000fdfe6080604052600436101561001257600080fd5b60003560e01c806304a34b1a146101325780632c365df61461012d57806330c6d6191461012857806336896d381461010a57806353ea3d75146101235780635c55a78a1461011e578063715018a61461011957806378adaabf146101145780637fdadecb1461010f578063883aca1e1461010a5780638da5cb5b1461010557806391be0c031461010057806397aba7f9146100fb578063a7bb5803146100f6578063adce1c5f146100f1578063c3beae23146100ec578063ee8f931b146100e75763f2fde38b146100e257600080fd5b610e00565b610d14565b610b9d565b610b74565b610b20565b610ad0565b610a14565b6109eb565b6105dc565b610996565b6108e0565b610826565b610797565b61062d565b6103f7565b61039a565b610289565b634e487b7160e01b600052604160045260246000fd5b90601f8019910116810190811067ffffffffffffffff82111761016f57604052565b610137565b6040519060e0820182811067ffffffffffffffff82111761016f57604052565b67ffffffffffffffff811161016f5760051b60200190565b81601f820112156102035780359067ffffffffffffffff821161016f57604051926101e1601f8401601f19166020018561014d565b8284526020838301011161020357816000926020809301838601378301015290565b600080fd5b9080601f830112156102035781359061022082610194565b9261022e604051948561014d565b828452602092838086019160051b8301019280841161020357848301915b84831061025c5750505050505090565b823567ffffffffffffffff811161020357869161027e848480948901016101ac565b81520192019161024c565b346102035760203660031901126102035760043567ffffffffffffffff8111610203576102ba903690600401610208565b33600052600160205260ff6001604060002001541615610332576102e081511515610fc9565b3360009081526001602052604090206102fd90829060040161116e565b7f135a5d2e7642551c3daaba309e21f8996229e243cb7bec0107da065dacb7434d6040518061032d339482610982565b0390a2005b60405162461bcd60e51b81526020600482015260146024820152734e6f74206120766572696669656420627564647960601b6044820152606490fd5b600435906001600160a01b038216820361020357565b602435906001600160a01b038216820361020357565b3461020357604036600319011261020357602060ff6103eb6103ba61036e565b6103c2610384565b6001600160a01b0391821660009081526003865260408082209290931681526020919091522090565b54166040519015158152f35b346102035760803660031901126102035761041061036e565b67ffffffffffffffff602435818111610203576104319036906004016101ac565b906044358181116102035761044a9036906004016101ac565b606435918211610203577f135a5d2e7642551c3daaba309e21f8996229e243cb7bec0107da065dacb7434d927f619d2642ee21568a6d598c43dfebc58aa425d9c77635ea9c94025a2b0ed31bc46105cd6105366104ae61032d963690600401610208565b946104b7610ec3565b60405160208101816104ca888d84610f1b565b03916104de601f199384810183528261014d565b5190209061052e6040519182610522602082019586603c917f19457468657265756d205369676e6564204d6573736167653a0a3332000000008252601c8201520190565b0390810183528261014d565b5190206113a2565b6001600160a01b03888116988995926105c19261055591168714610f4c565b61056183511515610f8c565b61056d87511515610fc9565b6105bc610578610174565b848152600160208201529142604084015260006060840152886080840152600060a0840152600060c084015260018060a01b03166000526001602052604060002090565b611255565b60405191829182611391565b0390a260405191829182610982565b3461020357604036600319011261020357602060ff6103eb6105fc61036e565b610604610384565b6001600160a01b0391821660009081526002865260408082209290931681526020919091522090565b34610203576020366003190112610203576001600160a01b0361064e61036e565b166000526001602052602060ff600160406000200154166040519015158152f35b90600182811c9216801561069f575b602083101461068957565b634e487b7160e01b600052602260045260246000fd5b91607f169161067e565b90604051918260008254926106bd8461066f565b90818452600194858116908160001461072c57506001146106e9575b50506106e79250038361014d565b565b9093915060005260209081600020936000915b8183106107145750506106e7935082010138806106d9565b855488840185015294850194879450918301916106fc565b9150506106e794506020925060ff191682840152151560051b82010138806106d9565b60005b8381106107625750506000910152565b8181015183820152602001610752565b9060209161078b8151809281855285808601910161074f565b601f01601f1916010190565b34610203576020366003190112610203576001600160a01b036107b861036e565b16600052600160205261080660406000206107d2816106a9565b9060ff600182015416906002810154906003810154600660058301549201549260405196879660c0885260c0880190610772565b941515602087015260408601526060850152608084015260a08301520390f35b346102035760008060031936011261088157610840610ec3565b80546001600160a01b03198116825581906001600160a01b03167f8be0079c531659141344cd1fd0a4f28419497f9722a3daafe3b4186f6b6457e08280a380f35b80fd5b908082519081815260208091019281808460051b8301019501936000915b8483106108b25750505050505090565b90919293949584806108d0600193601f198682030187528a51610772565b98019301930191949392906108a2565b34610203576020366003190112610203576001600160a01b0361090161036e565b166000526001602052610959604060002060ff600182015416610978600283015491600384015492600585015493610944600461093d886106a9565b97016116aa565b9160405197889760c0895260c0890190610772565b9315156020880152604087015260608601528482036080860152610884565b9060a08301520390f35b906020610993928181520190610884565b90565b34610203576020366003190112610203576001600160a01b036109b761036e565b1660005260016020526109e76109d360046040600020016116aa565b604051918291602083526020830190610884565b0390f35b34610203576000366003190112610203576000546040516001600160a01b039091168152602090f35b3461020357604036600319011261020357610a2d61036e565b60243567ffffffffffffffff8111610203576109e791610a54610a659236906004016101ac565b604051928391602083019384610f1b565b0391610a79601f199384810183528261014d565b51902090610abd6040519182610522602082019586603c917f19457468657265756d205369676e6564204d6573736167653a0a3332000000008252601c8201520190565b5190206040519081529081906020820190565b346102035760403660031901126102035760243567ffffffffffffffff811161020357610b0e610b0660209236906004016101ac565b6004356113a2565b6040516001600160a01b039091168152f35b346102035760203660031901126102035760043567ffffffffffffffff81116102035760ff610b5d610b5860609336906004016101ac565b611446565b906040939293519384526020840152166040820152f35b34610203576000366003190112610203576004546040516001600160a01b039091168152602090f35b3461020357604036600319011261020357610bb661036e565b7f6da821d839bae98e52970ab8f95d665556f2dc85c17892b1dc6b6502e1be4b4e61032d60243592610c27610c22610c1b83610c043360018060a01b03166000526002602052604060002090565b9060018060a01b0316600052602052604060002090565b5460ff1690565b6115ba565b600184101580610d09575b610c3b906115f6565b610c6d610c68610c64610c1b84610c043360018060a01b03166000526003602052604060002090565b1590565b611633565b6001600160a01b0381166000908152600160205260409020610cc2600582019160068354910192610cbb610cac89610ca787548096611156565b61167d565b610cb58461166f565b9061168a565b90556115ab565b9055336000908152600360205260409020610cef90610ce2908390610c04565b805460ff19166001179055565b6040519384526001600160a01b0316929081906020820190565b506005841115610c32565b3461020357602036600319011261020357610d2d61036e565b60018060a01b0381166003610dcb6000938385526001602052610d5960ff6001604088200154166114e5565b610d87610d82610c64610c1b84610c043360018060a01b03166000526002602052604060002090565b611526565b610d9384331415611566565b336000908152600260205260409020610db190610ce2908390610c04565b6001600160a01b0316600090815260016020526040902090565b01610dd681546115ab565b9055337f6dbd6d532fbe3eee7c3038c63f3af0a384600c3919c6254fb2e1069a6a64764b8380a380f35b3461020357602036600319011261020357610e1961036e565b610e21610ec3565b6001600160a01b039081168015610e6f57600080546001600160a01b03198116831782559092167f8be0079c531659141344cd1fd0a4f28419497f9722a3daafe3b4186f6b6457e08380a380f35b60405162461bcd60e51b815260206004820152602660248201527f4f776e61626c653a206e6577206f776e657220697320746865207a65726f206160448201526564647265737360d01b6064820152608490fd5b6000546001600160a01b03163303610ed757565b606460405162461bcd60e51b815260206004820152602060248201527f4f776e61626c653a2063616c6c6572206973206e6f7420746865206f776e65726044820152fd5b601492916bffffffffffffffffffffffff199060601b168152610f47825180936020868501910161074f565b010190565b15610f5357565b60405162461bcd60e51b8152602060048201526011602482015270496e76616c6964207369676e617475726560781b6044820152606490fd5b15610f9357565b60405162461bcd60e51b815260206004820152600e60248201526d456d70747920454e53206e616d6560901b6044820152606490fd5b15610fd057565b60405162461bcd60e51b815260206004820152601760248201527f4e6f207370656369616c746965732070726f76696465640000000000000000006044820152606490fd5b818110611020575050565b60008155600101611015565b9190601f811161103b57505050565b6106e7926000526020600020906020601f840160051c83019310611067575b601f0160051c0190611015565b909150819061105a565b919091825167ffffffffffffffff811161016f5761109981611093845461066f565b8461102c565b602080601f83116001146110d55750819293946000926110ca575b50508160011b916000199060031b1c1916179055565b0151905038806110b4565b90601f198316956110eb85600052602060002090565b926000905b8882106111285750508360019596971061110f575b505050811b019055565b015160001960f88460031b161c19169055388080611105565b806001859682949686015181550195019301906110f0565b634e487b7160e01b600052601160045260246000fd5b8181029291811591840414171561116957565b611140565b81519168010000000000000000831161016f5781548383558084106111d1575b506111a3602080920192600052602060002090565b6000925b8484106111b5575050505050565b600183826111c583945186611071565b019201930192906111a7565b6000838152846020822092830192015b8281106111ef57505061118e565b806111fc6001925461066f565b80611209575b50016111e1565b601f9081811184146112215750508281555b38611202565b836112439261123585600052602060002090565b920160051c82019101611015565b6000818152602081208183555561121b565b908051805167ffffffffffffffff811161016f5761127d81611277865461066f565b8661102c565b6020918290601f83116001146113185760c09383600696946112d7946112c29460009261130d575b50508160011b916000199060031b1c19161787555b830151151590565b600186019060ff801983541691151516179055565b60408101516002850155606081015160038501556112fc60808201516004860161116e565b60a081015160058501550151910155565b0151905038806112a5565b90601f1983169161132e87600052602060002090565b9260005b81811061137a5750846112d7946112c29460c0989460069a9860019510611361575b505050811b0187556112ba565b015160001960f88460031b161c19169055388080611354565b929386600181928786015181550195019301611332565b906020610993928181520190610772565b608060009160ff6113b4602095611446565b6040805195865293168785015291830152606082015282805260015afa156113dc5760005190565b6040513d6000823e3d90fd5b60ff601b9116019060ff821161116957565b1561140157565b60405162461bcd60e51b815260206004820152601960248201527f496e76616c6964207369676e61747572652076657273696f6e000000000000006044820152606490fd5b60418151036114a0576020810151916060604083015192015160001a90601b8210611490575b6106e760ff8316601b8114908115611485575b506113fa565b601c9150143861147f565b9061149a906113e8565b9061146c565b60405162461bcd60e51b815260206004820152601860248201527f496e76616c6964207369676e6174757265206c656e67746800000000000000006044820152606490fd5b156114ec57565b60405162461bcd60e51b8152602060048201526012602482015271109d59191e481b9bdd081d995c9a599a595960721b6044820152606490fd5b1561152d57565b60405162461bcd60e51b8152602060048201526011602482015270105b1c9958591e4818dbdb9b9958dd1959607a1b6044820152606490fd5b1561156d57565b60405162461bcd60e51b815260206004820152601660248201527521b0b73737ba1031b7b73732b1ba103a379039b2b63360511b6044820152606490fd5b60001981146111695760010190565b156115c157565b60405162461bcd60e51b815260206004820152600d60248201526c139bdd0818dbdb9b9958dd1959609a1b6044820152606490fd5b156115fd57565b60405162461bcd60e51b815260206004820152600e60248201526d496e76616c696420726174696e6760901b6044820152606490fd5b1561163a57565b60405162461bcd60e51b815260206004820152600d60248201526c105b1c9958591e481c985d1959609a1b6044820152606490fd5b906001820180921161116957565b9190820180921161116957565b8115611694570490565b634e487b7160e01b600052601260045260246000fd5b9081546116b681610194565b926116c4604051948561014d565b818452600090815260208082208186015b8484106116e3575050505050565b60018381926116f1856106a9565b8152019201930192906116d556fea164736f6c6343000813000a",
  "linkReferences": {},
  "deployedLinkReferences": {}
}