{
  "_format": "hh-sol-artifact-1",
  "contractName": "MentalHealthMessaging",
  "sourceName": "contracts/MentalHealthMessaging.sol",
  "abi": [
    {
      "inputs": [
        {
          "internalType": "address",
          "name": "_endpoint",
          "type": "address"
        },
        {
          "internalType": "address",
          "name": "_buddyVerification",
          "type": "address"
        },
        {
          "internalType": "address",
          "name": "_filecoinStorage",
          "type": "address"
        }
      ],
      "stateMutability": "nonpayable",
      "type": "constructor"
    },
    {
      "anonymous": false,
      "inputs": [
        {
          "indexed": true,
          "internalType": "address",
          "name": "user1",
          "type": "address"
        },
        {
          "indexed": true,
          "internalType": "address",
          "name": "user2",
          "type": "address"
        }
      ],
      "name": "ChatEnded",
      "type": "event"
    },
    {
      "anonymous": false,
      "inputs": [
        {
          "indexed": true,
          "internalType": "address",
          "name": "user1",
          "type": "address"
        },
        {
          "indexed": true,
          "internalType": "address",
          "name": "user2",
          "type": "address"
        }
      ],
      "name": "ChatStarted",
      "type": "event"
    },
    {
      "anonymous": false,
      "inputs": [
        {
          "indexed": false,
          "internalType": "uint16",
          "name": "_srcChainId",
          "type": "uint16"
        },
        {
          "indexed": false,
          "internalType": "bytes",
          "name": "_srcAddress",
          "type": "bytes"
        },
        {
          "indexed": false,
          "internalType": "uint64",
          "name": "_nonce",
          "type": "uint64"
        },
        {
          "indexed": false,
          "internalType": "bytes",
          "name": "_payload",
          "type": "bytes"
        },
        {
          "indexed": false,
          "internalType": "bytes",
          "name": "_reason",
          "type": "bytes"
        }
      ],
      "name": "MessageFailed",
      "type": "event"
    },
    {
      "anonymous": false,
      "inputs": [
        {
          "indexed": true,
          "internalType": "bytes32",
          "name": "messageId",
          "type": "bytes32"
        },
        {
          "indexed": true,
          "internalType": "address",
          "name": "from",
          "type": "address"
        },
        {
          "indexed": true,
          "internalType": "address",
          "name": "to",
          "type": "address"
        }
      ],
      "name": "MessageReceived",
      "type": "event"
    },
    {
      "anonymous": false,
      "inputs": [
        {
          "indexed": true,
          "internalType": "bytes32",
          "name": "messageId",
          "type": "bytes32"
        },
        {
          "indexed": true,
          "internalType": "address",
          "name": "from",
          "type": "address"
        },
        {
          "indexed": true,
          "internalType": "address",
          "name": "to",
          "type": "address"
        },
        {
          "indexed": false,
          "internalType": "uint16",
          "name": "dstChainId",
          "type": "uint16"
        }
      ],
      "name": "MessageSent",
      "type": "event"
    },
    {
      "anonymous": false,
      "inputs": [
        {
          "indexed": true,
          "internalType": "address",
          "name": "previousOwner",
          "type": "address"
        },
        {
          "indexed": true,
          "internalType": "address",
          "name": "newOwner",
          "type": "address"
        }
      ],
      "name": "OwnershipTransferred",
      "type": "event"
    },
    {
      "anonymous": false,
      "inputs": [
        {
          "indexed": false,
          "internalType": "uint16",
          "name": "_srcChainId",
          "type": "uint16"
        },
        {
          "indexed": false,
          "internalType": "bytes",
          "name": "_srcAddress",
          "type": "bytes"
        },
        {
          "indexed": false,
          "internalType": "uint64",
          "name": "_nonce",
          "type": "uint64"
        },
        {
          "indexed": false,
          "internalType": "bytes32",
          "name": "_payloadHash",
          "type": "bytes32"
        }
      ],
      "name": "RetryMessageSuccess",
      "type": "event"
    },
    {
      "anonymous": false,
      "inputs": [
        {
          "indexed": false,
          "internalType": "uint16",
          "name": "_dstChainId",
          "type": "uint16"
        },
        {
          "indexed": false,
          "internalType": "uint16",
          "name": "_type",
          "type": "uint16"
        },
        {
          "indexed": false,
          "internalType": "uint256",
          "name": "_minDstGas",
          "type": "uint256"
        }
      ],
      "name": "SetMinDstGas",
      "type": "event"
    },
    {
      "anonymous": false,
      "inputs": [
        {
          "indexed": false,
          "internalType": "address",
          "name": "precrime",
          "type": "address"
        }
      ],
      "name": "SetPrecrime",
      "type": "event"
    },
    {
      "anonymous": false,
      "inputs": [
        {
          "indexed": false,
          "internalType": "uint16",
          "name": "_remoteChainId",
          "type": "uint16"
        },
        {
          "indexed": false,
          "internalType": "bytes",
          "name": "_path",
          "type": "bytes"
        }
      ],
      "name": "SetTrustedRemote",
      "type": "event"
    },
    {
      "anonymous": false,
      "inputs": [
        {
          "indexed": false,
          "internalType": "uint16",
          "name": "_remoteChainId",
          "type": "uint16"
        },
        {
          "indexed": false,
          "internalType": "bytes",
          "name": "_remoteAddress",
          "type": "bytes"
        }
      ],
      "name": "SetTrustedRemoteAddress",
      "type": "event"
    },
    {
      "inputs": [],
      "name": "DEFAULT_PAYLOAD_SIZE_LIMIT",
      "outputs": [
        {
          "internalType": "uint256",
          "name": "",
          "type": "uint256"
        }
      ],
      "stateMutability": "view",
      "type": "function"
    },
    {
      "inputs": [],
      "name": "MAX_ACTIVE_CHATS",
      "outputs": [
        {
          "internalType": "uint256",
          "name": "",
          "type": "uint256"
        }
      ],
      "stateMutability": "view",
      "type": "function"
    },
    {
      "inputs": [],
      "name": "MAX_MESSAGE_LENGTH",
      "outputs": [
        {
          "internalType": "uint256",
          "name": "",
          "type": "uint256"
        }
      ],
      "stateMutability": "view",
      "type": "function"
    },
    {
      "inputs": [],
      "name": "buddyVerification",
      "outputs": [
        {
          "internalType": "contract IBuddyVerification",
          "name": "",
          "type": "address"
        }
      ],
      "stateMutability": "view",
      "type": "function"
    },
    {
      "inputs": [
        {
          "internalType": "address",
          "name": "",
          "type": "address"
        },
        {
          "internalType": "address",
          "name": "",
          "type": "address"
        }
      ],
      "name": "chats",
      "outputs": [
        {
          "internalType": "bool",
          "name": "isActive",
          "type": "bool"
        },
        {
          "internalType": "uint256",
          "name": "lastMessageTime",
          "type": "uint256"
        },
        {
          "internalType": "uint256",
          "name": "messageCount",
          "type": "uint256"
        }
      ],
      "stateMutability": "view",
      "type": "function"
    },
    {
      "inputs": [
        {
          "internalType": "address",
          "name": "partner",
          "type": "address"
        }
      ],
      "name": "endChat",
      "outputs": [],
      "stateMutability": "nonpayable",
      "type": "function"
    },
    {
      "inputs": [
        {
          "internalType": "uint16",
          "name": "",
          "type": "uint16"
        },
        {
          "internalType": "bytes",
          "name": "",
          "type": "bytes"
        },
        {
          "internalType": "uint64",
          "name": "",
          "type": "uint64"
        }
      ],
      "name": "failedMessages",
      "outputs": [
        {
          "internalType": "bytes32",
          "name": "",
          "type": "bytes32"
        }
      ],
      "stateMutability": "view",
      "type": "function"
    },
    {
      "inputs": [],
      "name": "filecoinStorage",
      "outputs": [
        {
          "internalType": "contract IFilecoinStorage",
          "name": "",
          "type": "address"
        }
      ],
      "stateMutability": "view",
      "type": "function"
    },
    {
      "inputs": [
        {
          "internalType": "uint16",
          "name": "_srcChainId",
          "type": "uint16"
        },
        {
          "internalType": "bytes",
          "name": "_srcAddress",
          "type": "bytes"
        }
      ],
      "name": "forceResumeReceive",
      "outputs": [],
      "stateMutability": "nonpayable",
      "type": "function"
    },
    {
      "inputs": [
        {
          "internalType": "address",
          "name": "user",
          "type": "address"
        }
      ],
      "name": "getActiveChats",
      "outputs": [
        {
          "internalType": "address[]",
          "name": "partners",
          "type": "address[]"
        },
        {
          "internalType": "uint256[]",
          "name": "lastMessageTimes",
          "type": "uint256[]"
        },
        {
          "internalType": "uint256[]",
          "name": "messageCounts",
          "type": "uint256[]"
        }
      ],
      "stateMutability": "view",
      "type": "function"
    },
    {
      "inputs": [
        {
          "internalType": "address",
          "name": "user1",
          "type": "address"
        },
        {
          "internalType": "address",
          "name": "user2",
          "type": "address"
        },
        {
          "internalType": "uint256",
          "name": "offset",
          "type": "uint256"
        },
        {
          "internalType": "uint256",
          "name": "limit",
          "type": "uint256"
        }
      ],
      "name": "getChatHistory",
      "outputs": [
        {
          "components": [
            {
              "internalType": "address",
              "name": "sender",
              "type": "address"
            },
            {
              "internalType": "address",
              "name": "recipient",
              "type": "address"
            },
            {
              "internalType": "string",
              "name": "content",
              "type": "string"
            },
            {
              "internalType": "uint256",
              "name": "timestamp",
              "type": "uint256"
            },
            {
              "internalType": "bool",
              "name": "isEncrypted",
              "type": "bool"
            },
            {
              "internalType": "string",
              "name": "filecoinCID",
              "type": "string"
            },
            {
              "internalType": "string",
              "name": "contentType",
              "type": "string"
            },
            {
              "internalType": "uint256",
              "name": "chainId",
              "type": "uint256"
            }
          ],
          "internalType": "struct Message[]",
          "name": "chatMessages",
          "type": "tuple[]"
        }
      ],
      "stateMutability": "view",
      "type": "function"
    },
    {
      "inputs": [
        {
          "internalType": "uint16",
          "name": "_version",
          "type": "uint16"
        },
        {
          "internalType": "uint16",
          "name": "_chainId",
          "type": "uint16"
        },
        {
          "internalType": "address",
          "name": "",
          "type": "address"
        },
        {
          "internalType": "uint256",
          "name": "_configType",
          "type": "uint256"
        }
      ],
      "name": "getConfig",
      "outputs": [
        {
          "internalType": "bytes",
          "name": "",
          "type": "bytes"
        }
      ],
      "stateMutability": "view",
      "type": "function"
    },
    {
      "inputs": [
        {
          "internalType": "uint16",
          "name": "_remoteChainId",
          "type": "uint16"
        }
      ],
      "name": "getTrustedRemoteAddress",
      "outputs": [
        {
          "internalType": "bytes",
          "name": "",
          "type": "bytes"
        }
      ],
      "stateMutability": "view",
      "type": "function"
    },
    {
      "inputs": [
        {
          "internalType": "uint16",
          "name": "_srcChainId",
          "type": "uint16"
        },
        {
          "internalType": "bytes",
          "name": "_srcAddress",
          "type": "bytes"
        }
      ],
      "name": "isTrustedRemote",
      "outputs": [
        {
          "internalType": "bool",
          "name": "",
          "type": "bool"
        }
      ],
      "stateMutability": "view",
      "type": "function"
    },
    {
      "inputs": [],
      "name": "lzEndpoint",
      "outputs": [
        {
          "internalType": "contract ILayerZeroEndpoint",
          "name": "",
          "type": "address"
        }
      ],
      "stateMutability": "view",
      "type": "function"
    },
    {
      "inputs": [
        {
          "internalType": "uint16",
          "name": "_srcChainId",
          "type": "uint16"
        },
        {
          "internalType": "bytes",
          "name": "_srcAddress",
          "type": "bytes"
        },
        {
          "internalType": "uint64",
          "name": "_nonce",
          "type": "uint64"
        },
        {
          "internalType": "bytes",
          "name": "_payload",
          "type": "bytes"
        }
      ],
      "name": "lzReceive",
      "outputs": [],
      "stateMutability": "nonpayable",
      "type": "function"
    },
    {
      "inputs": [
        {
          "internalType": "address",
          "name": "",
          "type": "address"
        }
      ],
      "name": "messageCount",
      "outputs": [
        {
          "internalType": "uint256",
          "name": "",
          "type": "uint256"
        }
      ],
      "stateMutability": "view",
      "type": "function"
    },
    {
      "inputs": [
        {
          "internalType": "bytes32",
          "name": "",
          "type": "bytes32"
        }
      ],
      "name": "messages",
      "outputs": [
        {
          "internalType": "address",
          "name": "sender",
          "type": "address"
        },
        {
          "internalType": "address",
          "name": "recipient",
          "type": "address"
        },
        {
          "internalType": "string",
          "name": "content",
          "type": "string"
        },
        {
          "internalType": "uint256",
          "name": "timestamp",
          "type": "uint256"
        },
        {
          "internalType": "bool",
          "name": "isEncrypted",
          "type": "bool"
        },
        {
          "internalType": "string",
          "name": "filecoinCID",
          "type": "string"
        },
        {
          "internalType": "string",
          "name": "contentType",
          "type": "string"
        },
        {
          "internalType": "uint256",
          "name": "chainId",
          "type": "uint256"
        }
      ],
      "stateMutability": "view",
      "type": "function"
    },
    {
      "inputs": [
        {
          "internalType": "uint16",
          "name": "",
          "type": "uint16"
        },
        {
          "internalType": "uint16",
          "name": "",
          "type": "uint16"
        }
      ],
      "name": "minDstGasLookup",
      "outputs": [
        {
          "internalType": "uint256",
          "name": "",
          "type": "uint256"
        }
      ],
      "stateMutability": "view",
      "type": "function"
    },
    {
      "inputs": [
        {
          "internalType": "uint16",
          "name": "_srcChainId",
          "type": "uint16"
        },
        {
          "internalType": "bytes",
          "name": "_srcAddress",
          "type": "bytes"
        },
        {
          "internalType": "uint64",
          "name": "_nonce",
          "type": "uint64"
        },
        {
          "internalType": "bytes",
          "name": "_payload",
          "type": "bytes"
        }
      ],
      "name": "nonblockingLzReceive",
      "outputs": [],
      "stateMutability": "nonpayable",
      "type": "function"
    },
    {
      "inputs": [],
      "name": "owner",
      "outputs": [
        {
          "internalType": "address",
          "name": "",
          "type": "address"
        }
      ],
      "stateMutability": "view",
      "type": "function"
    },
    {
      "inputs": [
        {
          "internalType": "uint16",
          "name": "",
          "type": "uint16"
        }
      ],
      "name": "payloadSizeLimitLookup",
      "outputs": [
        {
          "internalType": "uint256",
          "name": "",
          "type": "uint256"
        }
      ],
      "stateMutability": "view",
      "type": "function"
    },
    {
      "inputs": [],
      "name": "precrime",
      "outputs": [
        {
          "internalType": "address",
          "name": "",
          "type": "address"
        }
      ],
      "stateMutability": "view",
      "type": "function"
    },
    {
      "inputs": [],
      "name": "renounceOwnership",
      "outputs": [],
      "stateMutability": "nonpayable",
      "type": "function"
    },
    {
      "inputs": [
        {
          "internalType": "uint16",
          "name": "_srcChainId",
          "type": "uint16"
        },
        {
          "internalType": "bytes",
          "name": "_srcAddress",
          "type": "bytes"
        },
        {
          "internalType": "uint64",
          "name": "_nonce",
          "type": "uint64"
        },
        {
          "internalType": "bytes",
          "name": "_payload",
          "type": "bytes"
        }
      ],
      "name": "retryMessage",
      "outputs": [],
      "stateMutability": "payable",
      "type": "function"
    },
    {
      "inputs": [
        {
          "internalType": "uint16",
          "name": "_dstChainId",
          "type": "uint16"
        },
        {
          "internalType": "address",
          "name": "_recipient",
          "type": "address"
        },
        {
          "internalType": "string",
          "name": "_content",
          "type": "string"
        },
        {
          "internalType": "bytes",
          "name": "_additionalContent",
          "type": "bytes"
        },
        {
          "internalType": "string",
          "name": "_contentType",
          "type": "string"
        },
        {
          "internalType": "bool",
          "name": "_isEncrypted",
          "type": "bool"
        },
        {
          "internalType": "bytes",
          "name": "_adapterParams",
          "type": "bytes"
        }
      ],
      "name": "sendMessage",
      "outputs": [],
      "stateMutability": "payable",
      "type": "function"
    },
    {
      "inputs": [
        {
          "internalType": "uint16",
          "name": "_version",
          "type": "uint16"
        },
        {
          "internalType": "uint16",
          "name": "_chainId",
          "type": "uint16"
        },
        {
          "internalType": "uint256",
          "name": "_configType",
          "type": "uint256"
        },
        {
          "internalType": "bytes",
          "name": "_config",
          "type": "bytes"
        }
      ],
      "name": "setConfig",
      "outputs": [],
      "stateMutability": "nonpayable",
      "type": "function"
    },
    {
      "inputs": [
        {
          "internalType": "uint16",
          "name": "_dstChainId",
          "type": "uint16"
        },
        {
          "internalType": "uint16",
          "name": "_packetType",
          "type": "uint16"
        },
        {
          "internalType": "uint256",
          "name": "_minGas",
          "type": "uint256"
        }
      ],
      "name": "setMinDstGas",
      "outputs": [],
      "stateMutability": "nonpayable",
      "type": "function"
    },
    {
      "inputs": [
        {
          "internalType": "uint16",
          "name": "_dstChainId",
          "type": "uint16"
        },
        {
          "internalType": "uint256",
          "name": "_size",
          "type": "uint256"
        }
      ],
      "name": "setPayloadSizeLimit",
      "outputs": [],
      "stateMutability": "nonpayable",
      "type": "function"
    },
    {
      "inputs": [
        {
          "internalType": "address",
          "name": "_precrime",
          "type": "address"
        }
      ],
      "name": "setPrecrime",
      "outputs": [],
      "stateMutability": "nonpayable",
      "type": "function"
    },
    {
      "inputs": [
        {
          "internalType": "uint16",
          "name": "_version",
          "type": "uint16"
        }
      ],
      "name": "setReceiveVersion",
      "outputs": [],
      "stateMutability": "nonpayable",
      "type": "function"
    },
    {
      "inputs": [
        {
          "internalType": "uint16",
          "name": "_version",
          "type": "uint16"
        }
      ],
      "name": "setSendVersion",
      "outputs": [],
      "stateMutability": "nonpayable",
      "type": "function"
    },
    {
      "inputs": [
        {
          "internalType": "uint16",
          "name": "_remoteChainId",
          "type": "uint16"
        },
        {
          "internalType": "bytes",
          "name": "_path",
          "type": "bytes"
        }
      ],
      "name": "setTrustedRemote",
      "outputs": [],
      "stateMutability": "nonpayable",
      "type": "function"
    },
    {
      "inputs": [
        {
          "internalType": "uint16",
          "name": "_remoteChainId",
          "type": "uint16"
        },
        {
          "internalType": "bytes",
          "name": "_remoteAddress",
          "type": "bytes"
        }
      ],
      "name": "setTrustedRemoteAddress",
      "outputs": [],
      "stateMutability": "nonpayable",
      "type": "function"
    },
    {
      "inputs": [
        {
          "internalType": "address",
          "name": "newOwner",
          "type": "address"
        }
      ],
      "name": "transferOwnership",
      "outputs": [],
      "stateMutability": "nonpayable",
      "type": "function"
    },
    {
      "inputs": [
        {
          "internalType": "uint16",
          "name": "",
          "type": "uint16"
        }
      ],
      "name": "trustedRemoteLookup",
      "outputs": [
        {
          "internalType": "bytes",
          "name": "",
          "type": "bytes"
        }
      ],
      "stateMutability": "view",
      "type": "function"
    }
  ],
  "bytecode": "0x60a0346200020a57601f620035ea38819003918201601f191683019291906001600160401b038411838510176200020f5781606092849260409687528339810103126200020a57620000518162000225565b906200006d83620000656020840162000225565b920162000225565b916000549160018060a01b031992338482161760005585519060018060a01b03938491823391167f8be0079c531659141344cd1fd0a4f28419497f9722a3daafe3b4186f6b6457e0600080a31680608052600160065515620001c857508116928315620001795716918215620001365781600b541617600b55600c541617600c55516133af90816200023b823960805181818161032d015281816104510152818161052a01528181610f1b015281816118d8015281816119e001528181611ebd0152612d930152f35b6064845162461bcd60e51b815260206004820152602060248201527f496e76616c69642046696c65636f696e2073746f7261676520616464726573736044820152fd5b845162461bcd60e51b815260206004820152602260248201527f496e76616c696420627564647920766572696669636174696f6e206164647265604482015261737360f01b6064820152608490fd5b62461bcd60e51b815260206004820152601860248201527f496e76616c696420656e64706f696e74206164647265737300000000000000006044820152606490fd5b600080fd5b634e487b7160e01b600052604160045260246000fd5b51906001600160a01b03821682036200020a5756fe6080604052600436101561001257600080fd5b60003560e01c80621d35671461025657806307e0db17146102515780630df374831461024c57806310ddb137146102475780631f3e1333146102425780632a0272111461023d5780632bbd59ca146102385780632eaffa38146102335780633092f63e1461022e57806339d52418146102295780633d8b38f6146102245780633f1f4fa41461021f57806342d65a8d1461021a578063435ad13f146102155780635b8c41e61461021057806361373b521461020b57806366ad5c8a14610206578063715018a6146102015780637533d788146101fc5780637d6de736146101f75780638cfd8f5c146101f25780638da5cb5b146101ed578063950c8a74146101e857806395407ce7146101e35780639f38369a146101de578063a6c3d165146101d9578063ac5a74c4146101d4578063b353aaa7146101cf578063baf3292d146101ca578063c4461834146101c5578063cbed8b9c146101c0578063d1deba1f146101bb578063df2a5b3b146101b6578063eb8d72b7146101b1578063f2fde38b146101ac5763f5ecbdbc146101a757600080fd5b611e5b565b611d94565b611c4a565b611bb7565b611a78565b611994565b611977565b611907565b6118c2565b611770565b6115ed565b611542565b611519565b6114f0565b6114c7565b611474565b6113f4565b6113ab565b61133f565b6110f4565b6110d8565b611030565b610f82565b610f01565b610ecc565b610e81565b610e0a565b610bd8565b6109c0565b61089d565b61066c565b6105c2565b610505565b6104ca565b61042c565b610316565b6004359061ffff8216820361026c57565b600080fd5b6024359061ffff8216820361026c57565b9181601f8401121561026c578235916001600160401b03831161026c576020838186019501011161026c57565b90608060031983011261026c5760043561ffff8116810361026c57916001600160401b039060243582811161026c57816102eb91600401610282565b93909392604435818116810361026c579260643591821161026c5761031291600401610282565b9091565b3461026c57610324366102af565b929493919291907f00000000000000000000000000000000000000000000000000000000000000006001600160a01b031633036103e7576103aa6103b2926103b8976103a36103896103848a61ffff166000526001602052604060002090565b610749565b80519081841491826103dd575b50816103ba575b50611f27565b3691610fd3565b923691610fd3565b926121d3565b005b90506103c7368486610fd3565b602081519101209060208151910120143861039d565b1515915038610396565b60405162461bcd60e51b815260206004820152601e60248201527f4c7a4170703a20696e76616c696420656e64706f696e742063616c6c657200006044820152606490fd5b3461026c57600060203660031901126104c75761044761025b565b61044f61243a565b7f00000000000000000000000000000000000000000000000000000000000000006001600160a01b0316908290823b156104c357602461ffff918360405195869485936307e0db1760e01b85521660048401525af180156104be576104b2575080f35b6104bb906106d9565b80f35b611fed565b5080fd5b80fd5b3461026c57604036600319011261026c5761ffff6104e661025b565b6104ee61243a565b166000526003602052602435604060002055600080f35b3461026c57600060203660031901126104c75761052061025b565b61052861243a565b7f00000000000000000000000000000000000000000000000000000000000000006001600160a01b0316908290823b156104c357602461ffff918360405195869485936310ddb13760e01b85521660048401525af180156104be576104b2575080f35b6001600160a01b0381160361026c57565b602435906105a98261058b565b565b8015150361026c57565b60a435906105a9826105ab565b60e036600319011261026c576105d661025b565b6105de61059c565b6001600160401b039160443583811161026c576105ff903690600401610282565b60643585811161026c57610617903690600401610282565b60849291923587811161026c57610632903690600401610282565b93909261063d6105b5565b9560c435998a1161026c576106596103b89a3690600401610282565b999098612492565b600091031261026c57565b3461026c57600036600319011261026c5760206040516107d08152f35b90600182811c921680156106b9575b60208310146106a357565b634e487b7160e01b600052602260045260246000fd5b91607f1691610698565b634e487b7160e01b600052604160045260246000fd5b6001600160401b0381116106ec57604052565b6106c3565b61010081019081106001600160401b038211176106ec57604052565b60c081019081106001600160401b038211176106ec57604052565b90601f801991011681019081106001600160401b038211176106ec57604052565b906040519182600082549261075d84610689565b9081845260019485811690816000146107ca5750600114610787575b50506105a992500383610728565b9093915060005260209081600020936000915b8183106107b25750506105a993508201013880610779565b8554888401850152948501948794509183019161079a565b9150506105a994506020925060ff191682840152151560051b8201013880610779565b60005b8381106108005750506000910152565b81810151838201526020016107f0565b90602091610829815180928185528580860191016107ed565b601f01601f1916010190565b98979693919461087061088a9460e09893610898988d60018060a01b0380931690521660208d015260408c61010091829101528c0190610810565b9260608b0152151560808a015288820360a08a0152610810565b9086820360c0880152610810565b930152565b3461026c57602036600319011261026c576004356000526007602052604060002060018060a01b036109198183541691600184015416926108e060028201610749565b90600381015460ff6004830154166108fa60058401610749565b91600761090960068601610749565b9401549460405198899889610835565b0390f35b90815180825260208080930193019160005b82811061093d575050505090565b83518552938101939281019260010161092f565b91939290936060830194606084528051809652608084019560208092019060005b8181106109a35750505094610992916109a095968583039086015261091d565b91604081840391015261091d565b90565b82516001600160a01b031689529783019791830191600101610972565b3461026c5760208060031936011261026c57600435906109df8261058b565b60018060a01b03906000908284168252600a81526040908183209382518095869184825491828152019187528487209387905b86838310610ad85750505050610a2a92500385610728565b835190610a36826130a7565b95610a40836130a7565b945b838110610a5857845180610919888b8b84610951565b8085610ab2610aad610a7d610a70610ad3968d6130d9565b516001600160a01b031690565b6001600160a01b03871660009081526009602052604090205b9060018060a01b0316600052602052604060002090565b6130ed565b85810151610ac0848d6130d9565b520151610acd82896130d9565b52612c9b565b610a42565b8654821685526001968701968b96509401939190910190610a12565b602080820190808352835180925260409283810182858560051b8401019601946000925b858410610b29575050505050505090565b909192939495968580600192603f198582030187528a5190610b5381835160018060a01b03169052565b818301516001600160a01b031681840152610bbd610baa610b8189850151610100808c870152850190610810565b6060858101519085015260808086015115159085015260a0808601519085830390860152610810565b60c0808501519084830390850152610810565b9160e080910151910152990194019401929594939190610b18565b3461026c57608036600319011261026c57600435610bf58161058b565b602435610c018161058b565b604435906001600160a01b039060643590848316903382148015610dff575b610c299061312a565b610c4c610aad82610a968960018060a01b03166000526009602052604060002090565b95610c5f610c5a8851151590565b613186565b85604080980151610c718183106131d2565b80610c7c87846120c9565b11610dec575b5050610c8d8461320f565b92600094875b610c9d828a6120c9565b811015610ddf578951610d12610d0d60209283810190610cfa81610cec888d8d879190604893916bffffffffffffffffffffffff19809260601b16845260601b16601483015260288201520190565b03601f198101835282610728565b5190206000526007602052604060002090565b613295565b80519091908a906001600160a01b03161690858083149283610dc4575b8315610d85575b505050610d54575b5090610d4c610c9d92612c9b565b909150610c93565b610d7c88610d4c92610d6b610c9d96959b8b6130d9565b52610d76818a6130d9565b50612c9b565b97919250610d3e565b898d161492509082610d9c575b5050388581610d36565b830151909150610dbc906001600160a01b03165b6001600160a01b031690565b148438610d92565b828501518a8e16908e166001600160a01b0316149350610d2f565b8951806109198882610af4565b610df79295506120ae565b928538610c82565b503381851614610c20565b3461026c57602036600319011261026c57600435610e278161058b565b60018060a01b031660005260086020526020604060002054604051908152f35b90604060031983011261026c5760043561ffff8116810361026c5791602435906001600160401b03821161026c5761031291600401610282565b3461026c57602061ffff610ebd610e9736610e47565b9390911660005260018452610eaf6040600020610749565b848151910120923691610fd3565b82815191012014604051908152f35b3461026c57602036600319011261026c5761ffff610ee861025b565b1660005260036020526020604060002054604051908152f35b3461026c57610f0f36610e47565b9190610f1961243a565b7f00000000000000000000000000000000000000000000000000000000000000006001600160a01b031691823b1561026c57604051928380926342d65a8d60e01b825281610f70600098899788946004850161201a565b03925af180156104be576104b2575080f35b3461026c57600036600319011261026c57600b546040516001600160a01b039091168152602090f35b604051906105a9826106f1565b6001600160401b0381116106ec57601f01601f191660200190565b929192610fdf82610fb8565b91610fed6040519384610728565b82948184528183011161026c578281602093846000960137010152565b6020906110249282604051948386809551938492016107ed565b82019081520301902090565b3461026c57606036600319011261026c5761104961025b565b6001600160401b0360243581811161026c573660238201121561026c5761107a903690602481600401359101610fd3565b90604435908116810361026c576110af6110c7926110a96109199561ffff166000526005602052604060002090565b9061100a565b906001600160401b0316600052602052604060002090565b546040519081529081906020820190565b3461026c57600036600319011261026c57602060405160648152f35b3461026c57611102366102af565b9150913033036112eb5761113161ffff936111bb9361112961119297611140953691610fd3565b503691610fd3565b60208082518301019101612ed0565b6001600160a01b039485169a9490951698959792959294929091611162610fab565b6001600160a01b038b168152966001600160a01b038c166020890152604088015242606088015215156080870152565b60a085015260c08401521660e08201526111b6836000526007602052604060002090565b612b4a565b6111ec6111e86111e184610a968760018060a01b03166000526009602052604060002090565b5460ff1690565b1590565b61126c575b42600161121484610a968760018060a01b03166000526009602052604060002090565b0155600261123883610a968660018060a01b03166000526009602052604060002090565b016112438154612c9b565b90557f296e1819195efaae72806919086efdeebeedebaba953aa284960065127d4ed3b600080a4005b61129c61128f83610a968660018060a01b03166000526009602052604060002090565b805460ff19166001179055565b6001600160a01b0383166000908152600a602052604090206112bf908390612c73565b81837fc6df985e25ff78b15a28e95392b0eeaf50032d939623a5b14653df7a67c6ce0f600080a36111f1565b60405162461bcd60e51b815260206004820152602660248201527f4e6f6e626c6f636b696e674c7a4170703a2063616c6c6572206d7573742062656044820152650204c7a4170760d41b6064820152608490fd5b3461026c576000806003193601126104c75761135961243a565b80546001600160a01b03198116825581906001600160a01b03167f8be0079c531659141344cd1fd0a4f28419497f9722a3daafe3b4186f6b6457e08280a380f35b9060206109a0928181520190610810565b3461026c57602036600319011261026c5761ffff6113c761025b565b1660005260016020526109196113e06040600020610749565b604051918291602083526020830190610810565b3461026c57604036600319011261026c57606061144f6004356114168161058b565b602435906114238261058b565b60018060a01b0316600052600960205260406000209060018060a01b0316600052602052604060002090565b60ff815416906002600182015491015490604051921515835260208301526040820152f35b3461026c57604036600319011261026c5760206114be61149261025b565b61ffff61149d610271565b91166000526002835260406000209061ffff16600052602052604060002090565b54604051908152f35b3461026c57600036600319011261026c576000546040516001600160a01b039091168152602090f35b3461026c57600036600319011261026c576004546040516001600160a01b039091168152602090f35b3461026c57600036600319011261026c57600c546040516001600160a01b039091168152602090f35b3461026c57602036600319011261026c5761ffff61155e61025b565b1660005260016020526115746040600020610749565b8051156115a85780516013198101919082116115a3576109199161159791612153565b6040519182918261139a565b612089565b60405162461bcd60e51b815260206004820152601d60248201527f4c7a4170703a206e6f20747275737465642070617468207265636f72640000006044820152606490fd5b3461026c576115fb36610e47565b9061160461243a565b604051926020928083858701376116306034868381013060601b88820152036014810188520186610728565b60009361ffff8316855260019081815260408620918751916001600160401b0383116106ec5761166a836116648654610689565b86612035565b80601f84116001146116da5750918080926116c99695948a9b7f8c0400cfe2d1199b1a725c78960bcc2a344d869b80590d0f2bd005db15a572ce9b946116cf575b50501b916000199060031b1c19161790555b6040519384938461201a565b0390a180f35b0151925038806116ab565b91939498601f1984166116f287600052602060002090565b938a905b828210611759575050917f8c0400cfe2d1199b1a725c78960bcc2a344d869b80590d0f2bd005db15a572ce999a959391856116c998969410611740575b505050811b0190556116bd565b015160001960f88460031b161c19169055388080611733565b8088869782949787015181550196019401906116f6565b3461026c57602036600319011261026c5760043561178d8161058b565b3360009081526009602052604090206117b4906117af906111e1908490610a96565b613321565b336000908152600a602052604090206001600160a01b0380831692909160005b8154808210156118b15785856118026117ed8587612c56565b905460039190911b1c6001600160a01b031690565b1614611817575061181290612c9b565b6117d4565b61188994509161186661186b926118476118406117ed61183a61187f999861209f565b86612c56565b9184612c56565b90919082549060031b9160018060a01b03809116831b921b1916179055565b61335f565b336000908152600960205260409020610a96565b805460ff19169055565b337ff9f4eb073c5167e6bc0973daff9be83a90a310ecece4c1c03baf03538f4aa53a600080a3005b505050611889915061187f9061186b565b3461026c57600036600319011261026c576040517f00000000000000000000000000000000000000000000000000000000000000006001600160a01b03168152602090f35b3461026c57602036600319011261026c577f5db758e995a17ec1ad84bdef7e8c3293a0bd6179bcce400dff5d4c3d87db726b60206004356119478161058b565b61194f61243a565b600480546001600160a01b0319166001600160a01b03929092169182179055604051908152a1005b3461026c57600036600319011261026c5760206040516127108152f35b3461026c57608036600319011261026c576119ad61025b565b6119b5610271565b6064356001600160401b03811161026c576119d4903690600401610282565b90926119de61243a565b7f00000000000000000000000000000000000000000000000000000000000000006001600160a01b031690813b1561026c5760008094611a55604051978896879586946332fb62e760e21b865261ffff80921660048701521660248501526044356044850152608060648501526084840191611ff9565b03925af180156104be57611a6557005b80611a726103b8926106d9565b80610661565b611a81366102af565b9161ffff86949296166000526005602052611ac881604060002060206040518092878b833787820190815203019020906001600160401b0316600052602052604060002090565b54918215611b66577fc264d91f3adc5588250e1551f547752ca0cfa8f6b530d243b9f9f4cab10ea8e596611b6194611b5591611b4f916000611b43876110af8d89611b3d8f611b298f611b1c368c8e610fd3565b60208151910120146123ad565b61ffff166000526005602052604060002090565b91612394565b5561112936868c610fd3565b86612f5b565b60405195869586612403565b0390a1005b60405162461bcd60e51b815260206004820152602360248201527f4e6f6e626c6f636b696e674c7a4170703a206e6f2073746f726564206d65737360448201526261676560e81b6064820152608490fd5b3461026c57606036600319011261026c577f9d5c7c0b934da8fefa9c7760c98383778a12dfbfc0c3b3106518f43fb9508ac06060611bf361025b565b611bfb610271565b9060443590611c0861243a565b61ffff8091169283600052600260205282611c358260406000209061ffff16600052602052604060002090565b556040519384521660208301526040820152a1005b3461026c57611c5836610e47565b9190611c6261243a565b60009161ffff81168352600160209080825260408520916001600160401b0387116106ec57611c9b87611c958554610689565b85612035565b8590601f8811600114611d0257509186808798936116c9957ffa41487ad5d6728f0b19276fa1eddc16558578f5109fc39d2dc33c3230470dab9993611cf7575b501b906000198460031b1c19161790556040519384938461201a565b880135925038611cdb565b90601f198816611d1785600052602060002090565b9288905b828210611d7d575050918893917ffa41487ad5d6728f0b19276fa1eddc16558578f5109fc39d2dc33c3230470dab98996116c9969410611d63575b505082811b0190556116bd565b870135600019600386901b60f8161c191690553880611d56565b808685968294968c01358155019501930190611d1b565b3461026c57602036600319011261026c57600435611db18161058b565b611db961243a565b6001600160a01b039081168015611e0757600080546001600160a01b03198116831782559092167f8be0079c531659141344cd1fd0a4f28419497f9722a3daafe3b4186f6b6457e08380a380f35b60405162461bcd60e51b815260206004820152602660248201527f4f776e61626c653a206e6577206f776e657220697320746865207a65726f206160448201526564647265737360d01b6064820152608490fd5b3461026c57608036600319011261026c57611e7461025b565b611e7c610271565b90611e8860443561058b565b604051633d7b2f6f60e21b815261ffff91821660048201529116602482015230604482015260648035908201526000816084817f00000000000000000000000000000000000000000000000000000000000000006001600160a01b03165afa80156104be5761091991600091611f06575b506040519182918261139a565b611f21913d8091833e611f198183610728565b810190611fb7565b38611ef9565b15611f2e57565b60405162461bcd60e51b815260206004820152602660248201527f4c7a4170703a20696e76616c696420736f757263652073656e64696e6720636f6044820152651b9d1c9858dd60d21b6064820152608490fd5b90929192611f8f81610fb8565b91611f9d6040519384610728565b82948284528282011161026c5760206105a99301906107ed565b60208183031261026c578051906001600160401b03821161026c57019080601f8301121561026c5781516109a092602001611f82565b6040513d6000823e3d90fd5b908060209392818452848401376000828201840152601f01601f1916010190565b60409061ffff6109a095931681528160208201520191611ff9565b90601f811161204357505050565b600091825260208220906020601f850160051c8301941061207f575b601f0160051c01915b82811061207457505050565b818155600101612068565b909250829061205f565b634e487b7160e01b600052601160045260246000fd5b6000198101919082116115a357565b919082039182116115a357565b90601f82018092116115a357565b919082018092116115a357565b156120dd57565b60405162461bcd60e51b815260206004820152600e60248201526d736c6963655f6f766572666c6f7760901b6044820152606490fd5b1561211a57565b60405162461bcd60e51b8152602060048201526011602482015270736c6963655f6f75744f66426f756e647360781b6044820152606490fd5b61216782612160816120bb565b10156120d6565b6121748282511015612113565b8161218c575050604051600081526020810160405290565b60405191601f811691821560051b808486010193838501920101905b8084106121c05750508252601f01601f191660405290565b90928351815260208091019301906121a8565b9290915a604051633356ae4560e11b6020820190815261ffff8716602483015260806044830152949161223f8261223161221060a4830187610810565b6001600160401b038816606484015282810360231901608484015288610810565b03601f198101845283610728565b60008091604051976122508961070d565b609689528260208a019560a036883751923090f1903d9060968211612297575b6000908288523e15612284575b5050505050565b61228d946122c3565b388080808061227d565b60969150612270565b60405190602082018281106001600160401b038211176106ec5760405260008252565b91936123817fe183f33de2837795525b4792ca4cd60535bd77c53b7e7030060bfcf5734d6b0c9561238f939561ffff815160208301209616958660005260056020526123488361232760208b604060002082604051948386809551938492016107ed565b820190815203019020906001600160401b0316600052602052604060002090565b556001600160401b0361236d604051988998895260a060208a015260a0890190610810565b921660408701528582036060870152610810565b908382036080850152610810565b0390a1565b6020919283604051948593843782019081520301902090565b156123b457565b60405162461bcd60e51b815260206004820152602160248201527f4e6f6e626c6f636b696e674c7a4170703a20696e76616c6964207061796c6f616044820152601960fa1b6064820152608490fd5b9161242f9060609461ffff6001600160401b039499989799168552608060208601526080850191611ff9565b951660408201520152565b6000546001600160a01b0316330361244e57565b606460405162461bcd60e51b815260206004820152602060248201527f4f776e61626c653a2063616c6c6572206973206e6f7420746865206f776e65726044820152fd5b98929199959099979396976002600654146128e9576002600655600b546124c1906001600160a01b0316610db0565b6040516353ea3d7560e01b808252336004830152909791602089602481845afa9182156104be578e996000936128c8575b508215612858575b50506125059061294e565b6125136107d08511156129ad565b6001600160a01b038716151580612845575b61252e906129ec565b6125366122a0565b98816127c9575b5050336000818152600860209081526040918290205491516bffffffffffffffffffffffff19606094851b8116928201928352938a901b90931660348401524260488401526068808401929092529082529061259a608882610728565b5190209889926125a8610fab565b3381526001600160a01b03891660208201526125c5368786610fd3565b604082015242606082015287151560808201528a60a0820152366125ea908484610fd3565b60c082015261ffff8d1660e082015261260d856000526007602052604060002090565b9061261791612b4a565b33600090815260096020526040902088906001600160a01b039091166000908152602091909152604090205460ff1615996126eb976126e2966126d4956126f49d61273f575b336000908152600960205260409020429060019061267c908f90610a96565b015533600090815260096020526040902060029061269b908e90610a96565b016126a68154612c9b565b90553360009081526008602052604090206126c18154612c9b565b90556040519b8c98339060208b01612caa565b03601f198101855284610728565b34933691610fd3565b90339086612d61565b60405161ffff9290921682526001600160a01b03929092169133917fe9312508100aa75ac514eb39194e2868ee4716271b7bb8080c9e5bbb5b9651c690602090a46105a96001600655565b336000908152600a6020526040902061275c906064905410612bfc565b33600090815260096020526040902061277a9061128f908e90610a96565b336000908152600a60205260409020612794908d90612c73565b6001600160a01b038c16337fc6df985e25ff78b15a28e95392b0eeaf50032d939623a5b14653df7a67c6ce0f600080a361265d565b600c5492995061280797506000926127e9906001600160a01b0316610db0565b9083604051809a8195829463b374012b60e01b845260048401612a6b565b03925af180156104be578a95600091612824575b5096388061253d565b61283f913d8091833e6128378183610728565b810190612a46565b3861281b565b506001600160a01b038716331415612525565b6040519081526001600160a01b039990991660048a015260209150889060249082905afa9687156104be578c9761250591600091612899575b5090386124fa565b6128bb915060203d6020116128c1575b6128b38183610728565b810190612939565b38612891565b503d6128a9565b6128e291935060203d6020116128c1576128b38183610728565b91386124f2565b60405162461bcd60e51b815260206004820152601f60248201527f5265656e7472616e637947756172643a207265656e7472616e742063616c6c006044820152606490fd5b51906105a9826105ab565b9081602091031261026c57516109a0816105ab565b1561295557565b60405162461bcd60e51b815260206004820152602a60248201527f4569746865722073656e646572206f7220726563697069656e74206d757374206044820152696265206120627564647960b01b6064820152608490fd5b156129b457565b60405162461bcd60e51b815260206004820152601060248201526f4d65737361676520746f6f206c6f6e6760801b6044820152606490fd5b156129f357565b60405162461bcd60e51b8152602060048201526011602482015270125b9d985b1a59081c9958da5c1a595b9d607a1b6044820152606490fd5b9080601f8301121561026c5781516109a092602001611f82565b9060208282031261026c5781516001600160401b03811161026c576109a09201612a2c565b9160206109a0938181520191611ff9565b91909182516001600160401b0381116106ec57612aa381612a9d8454610689565b84612035565b602080601f8311600114612adf575081929394600092612ad4575b50508160011b916000199060031b1c1916179055565b015190503880612abe565b90601f19831695612af585600052602060002090565b926000905b888210612b3257505083600195969710612b19575b505050811b019055565b015160001960f88460031b161c19169055388080612b0f565b80600185968294968601518155019501930190612afa565b815181546001600160a01b0319166001600160a01b039091161781559060079060e09060208101516001850180546001600160a01b0319166001600160a01b03909216919091179055612ba4604082015160028601612a7c565b60608101516003850155612bd3612bbe6080830151151590565b600486019060ff801983541691151516179055565b612be460a082015160058601612a7c565b612bf560c082015160068601612a7c565b0151910155565b15612c0357565b60405162461bcd60e51b8152602060048201526015602482015274546f6f206d616e792061637469766520636861747360581b6044820152606490fd5b634e487b7160e01b600052603260045260246000fd5b8054821015612c6e5760005260206000200190600090565b612c40565b90815491680100000000000000008310156106ec57826118479160016105a995018155612c56565b60001981146115a35760010190565b9795939094612ce5926109a09a9894612cfa978b5260018060a01b0380921660208c01521660408a015260e060608a015260e0890191611ff9565b911515608087015285820360a0870152610810565b9260c0818503910152611ff9565b9192612d2d6109a0969461ffff612d3b9416855260c0602086015260c0850190610810565b908382036040850152610810565b6001600160a01b0390931660608201526000608082015280830360a09190910152610810565b90919361ffff82166000526001602052612d7e6040600020610749565b90815115612e0357612d91845184612e61565b7f00000000000000000000000000000000000000000000000000000000000000006001600160a01b031692833b1561026c57612de56000966040519889978896879562c5803160e81b875260048701612d08565b03925af180156104be57612df65750565b80611a726105a9926106d9565b60405162461bcd60e51b815260206004820152603060248201527f4c7a4170703a2064657374696e6174696f6e20636861696e206973206e6f742060448201526f61207472757374656420736f7572636560801b6064820152608490fd5b61ffff166000526003602052604060002054908115612ec6575b11612e8257565b606460405162461bcd60e51b815260206004820152602060248201527f4c7a4170703a207061796c6f61642073697a6520697320746f6f206c617267656044820152fd5b6127109150612e7b565b9160e08383031261026c578251926020810151612eec8161058b565b926040820151612efb8161058b565b926060830151906001600160401b039182811161026c5783612f1e918601612a2c565b93612f2b6080820161292e565b9360a082015184811161026c5781612f44918401612a2c565b9360c083015190811161026c576109a09201612a2c565b9061ffff612f786111406111929360208082518301019101612ed0565b612f9e6111e86111e184610a968760018060a01b03166000526009602052604060002090565b61301e575b426001612fc684610a968760018060a01b03166000526009602052604060002090565b01556002612fea83610a968660018060a01b03166000526009602052604060002090565b01612ff58154612c9b565b90557f296e1819195efaae72806919086efdeebeedebaba953aa284960065127d4ed3b600080a4565b61304161128f83610a968660018060a01b03166000526009602052604060002090565b6001600160a01b0383166000908152600a60205260409020613064908390612c73565b81837fc6df985e25ff78b15a28e95392b0eeaf50032d939623a5b14653df7a67c6ce0f600080a3612fa3565b6001600160401b0381116106ec5760051b60200190565b906130b182613090565b6130be6040519182610728565b82815280926130cf601f1991613090565b0190602036910137565b8051821015612c6e5760209160051b010190565b90604051606081018181106001600160401b038211176106ec5760405260406002829460ff81541615158452600181015460208501520154910152565b1561313157565b60405162461bcd60e51b815260206004820152602760248201527f4f6e6c792063686174207061727469636970616e74732063616e207669657720604482015266686973746f727960c81b6064820152608490fd5b1561318d57565b60405162461bcd60e51b815260206004820152601c60248201527f4e6f206163746976652063686174206265747765656e207573657273000000006044820152606490fd5b156131d957565b60405162461bcd60e51b815260206004820152600e60248201526d125b9d985b1a59081bd9999cd95d60921b6044820152606490fd5b9061321982613090565b60409061322882519182610728565b8381528093613239601f1991613090565b019160005b83811061324b5750505050565b6020908251613259816106f1565b600081528260008183015260608086840152600081840152600060808401528060a084015260c0830152600060e083015282860101520161323e565b9060076132a0610fab565b83546001600160a01b031681529260018101546001600160a01b031660208501526132cd60028201610749565b6040850152600381015460608501526132f66132ed600483015460ff1690565b15156080860152565b61330260058201610749565b60a085015261331360068201610749565b60c0850152015460e0830152565b1561332857565b60405162461bcd60e51b815260206004820152600f60248201526e43686174206e6f742061637469766560881b6044820152606490fd5b8054801561338c5760001901906133768282612c56565b81549060018060a01b039060031b1b1916905555565b634e487b7160e01b600052603160045260246000fdfea164736f6c6343000813000a",
  "linkReferences": {},
  "deployedLinkReferences": {}
}