{
  "_format": "hh-sol-artifact-1",
  "contractName": "MentalHealthIdentity",
  "sourceName": "contracts/MentalHealthIdentity.sol",
  "abi": [
    {
      "inputs": [
        {
          "internalType": "contract IWorldID",
          "name": "_worldId",
          "type": "address"
        },
        {
          "internalType": "string",
          "name": "_appId",
          "type": "string"
        },
        {
          "internalType": "string",
          "name": "_actionId",
          "type": "string"
        },
        {
          "internalType": "uint256",
          "name": "_groupId",
          "type": "uint256"
        },
        {
          "internalType": "address",
          "name": "_ens",
          "type": "address"
        },
        {
          "internalType": "address",
          "name": "_ensResolver",
          "type": "address"
        },
        {
          "internalType": "address",
          "name": "_mailbox",
          "type": "address"
        }
      ],
      "stateMutability": "nonpayable",
      "type": "constructor"
    },
    {
      "inputs": [],
      "name": "AlreadyVerified",
      "type": "error"
    },
    {
      "inputs": [],
      "name": "ENSNameExists",
      "type": "error"
    },
    {
      "inputs": [],
      "name": "ENSNameNotFound",
      "type": "error"
    },
    {
      "inputs": [],
      "name": "ENSNameTaken",
      "type": "error"
    },
    {
      "inputs": [],
      "name": "ENSRegistryError",
      "type": "error"
    },
    {
      "inputs": [],
      "name": "EmptyENSName",
      "type": "error"
    },
    {
      "inputs": [],
      "name": "EmptyMetadataCID",
      "type": "error"
    },
    {
      "inputs": [],
      "name": "InvalidAddress",
      "type": "error"
    },
    {
      "inputs": [],
      "name": "InvalidENSName",
      "type": "error"
    },
    {
      "inputs": [],
      "name": "InvalidMailbox",
      "type": "error"
    },
    {
      "inputs": [],
      "name": "InvalidNullifier",
      "type": "error"
    },
    {
      "inputs": [],
      "name": "InvalidProof",
      "type": "error"
    },
    {
      "inputs": [],
      "name": "InvalidSignal",
      "type": "error"
    },
    {
      "inputs": [],
      "name": "NotVerified",
      "type": "error"
    },
    {
      "inputs": [],
      "name": "UnauthorizedCaller",
      "type": "error"
    },
    {
      "inputs": [],
      "name": "UnauthorizedENSOperation",
      "type": "error"
    },
    {
      "inputs": [],
      "name": "UserIsBanned",
      "type": "error"
    },
    {
      "anonymous": false,
      "inputs": [
        {
          "indexed": false,
          "internalType": "uint32",
          "name": "originDomain",
          "type": "uint32"
        },
        {
          "indexed": true,
          "internalType": "address",
          "name": "user",
          "type": "address"
        }
      ],
      "name": "CrossChainVerification",
      "type": "event"
    },
    {
      "anonymous": false,
      "inputs": [
        {
          "indexed": true,
          "internalType": "string",
          "name": "ensName",
          "type": "string"
        },
        {
          "indexed": true,
          "internalType": "address",
          "name": "user",
          "type": "address"
        }
      ],
      "name": "ENSNameRegistered",
      "type": "event"
    },
    {
      "anonymous": false,
      "inputs": [
        {
          "indexed": true,
          "internalType": "string",
          "name": "ensName",
          "type": "string"
        },
        {
          "indexed": true,
          "internalType": "address",
          "name": "user",
          "type": "address"
        }
      ],
      "name": "ENSNameReleased",
      "type": "event"
    },
    {
      "anonymous": false,
      "inputs": [
        {
          "indexed": true,
          "internalType": "address",
          "name": "user",
          "type": "address"
        },
        {
          "indexed": false,
          "internalType": "string",
          "name": "ensName",
          "type": "string"
        }
      ],
      "name": "ENSNameSet",
      "type": "event"
    },
    {
      "anonymous": false,
      "inputs": [
        {
          "indexed": true,
          "internalType": "string",
          "name": "oldName",
          "type": "string"
        },
        {
          "indexed": true,
          "internalType": "string",
          "name": "newName",
          "type": "string"
        },
        {
          "indexed": true,
          "internalType": "address",
          "name": "user",
          "type": "address"
        }
      ],
      "name": "ENSNameUpdated",
      "type": "event"
    },
    {
      "anonymous": false,
      "inputs": [
        {
          "indexed": true,
          "internalType": "address",
          "name": "user",
          "type": "address"
        },
        {
          "indexed": false,
          "internalType": "string",
          "name": "newCID",
          "type": "string"
        }
      ],
      "name": "MetadataUpdated",
      "type": "event"
    },
    {
      "anonymous": false,
      "inputs": [
        {
          "indexed": true,
          "internalType": "address",
          "name": "previousOwner",
          "type": "address"
        },
        {
          "indexed": true,
          "internalType": "address",
          "name": "newOwner",
          "type": "address"
        }
      ],
      "name": "OwnershipTransferred",
      "type": "event"
    },
    {
      "anonymous": false,
      "inputs": [
        {
          "indexed": false,
          "internalType": "address",
          "name": "account",
          "type": "address"
        }
      ],
      "name": "Paused",
      "type": "event"
    },
    {
      "anonymous": false,
      "inputs": [
        {
          "indexed": false,
          "internalType": "address",
          "name": "account",
          "type": "address"
        }
      ],
      "name": "Unpaused",
      "type": "event"
    },
    {
      "anonymous": false,
      "inputs": [
        {
          "indexed": true,
          "internalType": "address",
          "name": "user",
          "type": "address"
        }
      ],
      "name": "UserBanned",
      "type": "event"
    },
    {
      "anonymous": false,
      "inputs": [
        {
          "indexed": true,
          "internalType": "address",
          "name": "user",
          "type": "address"
        }
      ],
      "name": "UserUnbanned",
      "type": "event"
    },
    {
      "anonymous": false,
      "inputs": [
        {
          "indexed": true,
          "internalType": "address",
          "name": "user",
          "type": "address"
        },
        {
          "indexed": false,
          "internalType": "string",
          "name": "ensName",
          "type": "string"
        }
      ],
      "name": "UserVerified",
      "type": "event"
    },
    {
      "inputs": [],
      "name": "actionId",
      "outputs": [
        {
          "internalType": "bytes32",
          "name": "",
          "type": "bytes32"
        }
      ],
      "stateMutability": "view",
      "type": "function"
    },
    {
      "inputs": [
        {
          "internalType": "address",
          "name": "",
          "type": "address"
        }
      ],
      "name": "addressToEnsName",
      "outputs": [
        {
          "internalType": "string",
          "name": "",
          "type": "string"
        }
      ],
      "stateMutability": "view",
      "type": "function"
    },
    {
      "inputs": [],
      "name": "appId",
      "outputs": [
        {
          "internalType": "bytes32",
          "name": "",
          "type": "bytes32"
        }
      ],
      "stateMutability": "view",
      "type": "function"
    },
    {
      "inputs": [
        {
          "internalType": "address",
          "name": "user",
          "type": "address"
        }
      ],
      "name": "banUser",
      "outputs": [],
      "stateMutability": "nonpayable",
      "type": "function"
    },
    {
      "inputs": [],
      "name": "ens",
      "outputs": [
        {
          "internalType": "contract ENS",
          "name": "",
          "type": "address"
        }
      ],
      "stateMutability": "view",
      "type": "function"
    },
    {
      "inputs": [
        {
          "internalType": "string",
          "name": "",
          "type": "string"
        }
      ],
      "name": "ensNameToAddress",
      "outputs": [
        {
          "internalType": "address",
          "name": "",
          "type": "address"
        }
      ],
      "stateMutability": "view",
      "type": "function"
    },
    {
      "inputs": [],
      "name": "ensResolver",
      "outputs": [
        {
          "internalType": "contract PublicResolver",
          "name": "",
          "type": "address"
        }
      ],
      "stateMutability": "view",
      "type": "function"
    },
    {
      "inputs": [
        {
          "internalType": "address",
          "name": "user",
          "type": "address"
        }
      ],
      "name": "getUserMetadata",
      "outputs": [
        {
          "internalType": "string",
          "name": "ensName",
          "type": "string"
        },
        {
          "internalType": "string",
          "name": "metadata",
          "type": "string"
        },
        {
          "internalType": "bool",
          "name": "verified",
          "type": "bool"
        },
        {
          "internalType": "bool",
          "name": "banned",
          "type": "bool"
        },
        {
          "internalType": "bool",
          "name": "hasENS",
          "type": "bool"
        }
      ],
      "stateMutability": "view",
      "type": "function"
    },
    {
      "inputs": [],
      "name": "groupId",
      "outputs": [
        {
          "internalType": "uint256",
          "name": "",
          "type": "uint256"
        }
      ],
      "stateMutability": "view",
      "type": "function"
    },
    {
      "inputs": [
        {
          "internalType": "uint32",
          "name": "origin",
          "type": "uint32"
        },
        {
          "internalType": "bytes32",
          "name": "sender",
          "type": "bytes32"
        },
        {
          "internalType": "bytes",
          "name": "message",
          "type": "bytes"
        }
      ],
      "name": "handle",
      "outputs": [],
      "stateMutability": "nonpayable",
      "type": "function"
    },
    {
      "inputs": [],
      "name": "hyperlaneMailbox",
      "outputs": [
        {
          "internalType": "contract IMailbox",
          "name": "",
          "type": "address"
        }
      ],
      "stateMutability": "view",
      "type": "function"
    },
    {
      "inputs": [
        {
          "internalType": "address",
          "name": "",
          "type": "address"
        }
      ],
      "name": "isBanned",
      "outputs": [
        {
          "internalType": "bool",
          "name": "",
          "type": "bool"
        }
      ],
      "stateMutability": "view",
      "type": "function"
    },
    {
      "inputs": [
        {
          "internalType": "string",
          "name": "ensName",
          "type": "string"
        }
      ],
      "name": "isENSNameAvailable",
      "outputs": [
        {
          "internalType": "bool",
          "name": "",
          "type": "bool"
        }
      ],
      "stateMutability": "view",
      "type": "function"
    },
    {
      "inputs": [
        {
          "internalType": "address",
          "name": "user",
          "type": "address"
        }
      ],
      "name": "isVerified",
      "outputs": [
        {
          "internalType": "bool",
          "name": "",
          "type": "bool"
        }
      ],
      "stateMutability": "view",
      "type": "function"
    },
    {
      "inputs": [
        {
          "internalType": "address",
          "name": "user",
          "type": "address"
        }
      ],
      "name": "lookupAddress",
      "outputs": [
        {
          "internalType": "string",
          "name": "",
          "type": "string"
        }
      ],
      "stateMutability": "view",
      "type": "function"
    },
    {
      "inputs": [
        {
          "internalType": "string",
          "name": "ensName",
          "type": "string"
        }
      ],
      "name": "lookupENSName",
      "outputs": [
        {
          "internalType": "address",
          "name": "",
          "type": "address"
        }
      ],
      "stateMutability": "view",
      "type": "function"
    },
    {
      "inputs": [
        {
          "internalType": "uint256",
          "name": "",
          "type": "uint256"
        }
      ],
      "name": "nullifierHashes",
      "outputs": [
        {
          "internalType": "bool",
          "name": "",
          "type": "bool"
        }
      ],
      "stateMutability": "view",
      "type": "function"
    },
    {
      "inputs": [],
      "name": "owner",
      "outputs": [
        {
          "internalType": "address",
          "name": "",
          "type": "address"
        }
      ],
      "stateMutability": "view",
      "type": "function"
    },
    {
      "inputs": [],
      "name": "pause",
      "outputs": [],
      "stateMutability": "nonpayable",
      "type": "function"
    },
    {
      "inputs": [],
      "name": "paused",
      "outputs": [
        {
          "internalType": "bool",
          "name": "",
          "type": "bool"
        }
      ],
      "stateMutability": "view",
      "type": "function"
    },
    {
      "inputs": [
        {
          "internalType": "string",
          "name": "ensName",
          "type": "string"
        }
      ],
      "name": "registerENSName",
      "outputs": [],
      "stateMutability": "nonpayable",
      "type": "function"
    },
    {
      "inputs": [],
      "name": "releaseENSName",
      "outputs": [],
      "stateMutability": "nonpayable",
      "type": "function"
    },
    {
      "inputs": [],
      "name": "renounceOwnership",
      "outputs": [],
      "stateMutability": "nonpayable",
      "type": "function"
    },
    {
      "inputs": [
        {
          "internalType": "string",
          "name": "ensName",
          "type": "string"
        },
        {
          "internalType": "string",
          "name": "metadataCID",
          "type": "string"
        }
      ],
      "name": "setENSAndMetadata",
      "outputs": [],
      "stateMutability": "nonpayable",
      "type": "function"
    },
    {
      "inputs": [
        {
          "internalType": "address",
          "name": "newOwner",
          "type": "address"
        }
      ],
      "name": "transferOwnership",
      "outputs": [],
      "stateMutability": "nonpayable",
      "type": "function"
    },
    {
      "inputs": [
        {
          "internalType": "address",
          "name": "user",
          "type": "address"
        }
      ],
      "name": "unbanUser",
      "outputs": [],
      "stateMutability": "nonpayable",
      "type": "function"
    },
    {
      "inputs": [],
      "name": "unpause",
      "outputs": [],
      "stateMutability": "nonpayable",
      "type": "function"
    },
    {
      "inputs": [
        {
          "internalType": "string",
          "name": "newEnsName",
          "type": "string"
        }
      ],
      "name": "updateENSName",
      "outputs": [],
      "stateMutability": "nonpayable",
      "type": "function"
    },
    {
      "inputs": [
        {
          "internalType": "bytes32",
          "name": "",
          "type": "bytes32"
        }
      ],
      "name": "usedENSNodes",
      "outputs": [
        {
          "internalType": "bool",
          "name": "",
          "type": "bool"
        }
      ],
      "stateMutability": "view",
      "type": "function"
    },
    {
      "inputs": [
        {
          "internalType": "address",
          "name": "",
          "type": "address"
        }
      ],
      "name": "userENS",
      "outputs": [
        {
          "internalType": "string",
          "name": "",
          "type": "string"
        }
      ],
      "stateMutability": "view",
      "type": "function"
    },
    {
      "inputs": [
        {
          "internalType": "address",
          "name": "",
          "type": "address"
        }
      ],
      "name": "userMetadata",
      "outputs": [
        {
          "internalType": "string",
          "name": "",
          "type": "string"
        }
      ],
      "stateMutability": "view",
      "type": "function"
    },
    {
      "inputs": [
        {
          "internalType": "address",
          "name": "",
          "type": "address"
        }
      ],
      "name": "verifiedUsers",
      "outputs": [
        {
          "internalType": "bool",
          "name": "",
          "type": "bool"
        }
      ],
      "stateMutability": "view",
      "type": "function"
    },
    {
      "inputs": [
        {
          "internalType": "uint32",
          "name": "destinationDomain",
          "type": "uint32"
        },
        {
          "internalType": "address",
          "name": "user",
          "type": "address"
        }
      ],
      "name": "verifyCrossChain",
      "outputs": [],
      "stateMutability": "nonpayable",
      "type": "function"
    },
    {
      "inputs": [
        {
          "internalType": "address",
          "name": "signal",
          "type": "address"
        },
        {
          "internalType": "uint256",
          "name": "root",
          "type": "uint256"
        },
        {
          "internalType": "uint256",
          "name": "nullifierHash",
          "type": "uint256"
        },
        {
          "internalType": "uint256[8]",
          "name": "proof",
          "type": "uint256[8]"
        }
      ],
      "name": "verifyIdentity",
      "outputs": [],
      "stateMutability": "nonpayable",
      "type": "function"
    },
    {
      "inputs": [],
      "name": "worldId",
      "outputs": [
        {
          "internalType": "contract IWorldID",
          "name": "",
          "type": "address"
        }
      ],
      "stateMutability": "view",
      "type": "function"
    }
  ],
  "bytecode": "0x61016060409080825234620002435762002551803803809162000023828562000248565b8339810160e08282031262000243578151926001600160a01b038085169283860362000243576020858101516001600160401b03908181116200024357836200006e918901620002a7565b9285880151918211620002435762000088918801620002a7565b906060870151926200009d6080890162000302565b98620000ba60c0620000b260a08c0162000302565b9a0162000302565b9760005490885191338982167f8be0079c531659141344cd1fd0a4f28419497f9722a3daafe3b4186f6b6457e0600080a36001600160a81b0319163360ff60a01b19161760005515801562000238575b80156200022d575b801562000222575b62000213575060805285516200014f83828162000141818301968781519384920162000282565b810103808452018262000248565b51902060a05262000173855191828162000141818301968781519384920162000282565b51902060c05260e052806101009516855280610120941684526101409216825251916122399384620003188539608051848181610cf70152610e33015260a05184610ba8015260c05184611acb015260e051848181610aa90152610cbc01525183818161127f0152611a84015251828181610428015281816109220152818161103c01526112c601525181818161168a01528181611bf30152611cf30152f35b63e6c4247b60e01b8152600490fd5b50868916156200011a565b50868a161562000112565b50868b16156200010a565b600080fd5b601f909101601f19168101906001600160401b038211908210176200026c57604052565b634e487b7160e01b600052604160045260246000fd5b60005b838110620002965750506000910152565b818101518382015260200162000285565b81601f82011215620002435780516001600160401b0381116200026c5760405192620002de601f8301601f19166020018562000248565b818452602082840101116200024357620002ff916020808501910162000282565b90565b51906001600160a01b0382168203620002435756fe608060408181526004918236101561001657600080fd5b600092833560e01c9182630e02a30514611d8c5750816310d86b1f14611d225781631a6e4db414611cde5781631f79a1e914611cb157816331567a3b14611c7657816333bc1e0314611aee57816336b6e82b14611ab35781633f15457f14611a6f5781633f4ba83a146119d557816340163522146119a85781634d12b6951461194157816356d5d4751461163f578163594ad73d146111c55781635c975abb146111a057816365caaecc14610ebc578163715018a614610e62578163753e9ef014610e1e5781637f8d3d9914610bcb57816380afdea814610b905781638456cb5914610b315781638da5cb5b14610b0957816397f735d514610acc578163a0f44c9214610a91578163ace6a20414610951578163adce1c5f1461090d578163b1f72a0b1461086a578163b9209e3314610811578163cb86876d146107a8578163d4618aab1461076d578163d79582f614610716578163e35fe366146106d8578163ef2a876414610629578163f0a35e11146102c6578163f2fde38b146101fa575063fbe04022146101a657600080fd5b346101f65760203660031901126101f6576101f2916101df9082906001600160a01b036101d1611e22565b168152600760205220611ebe565b9051918291602083526020830190611f87565b0390f35b5080fd5b9050346102c25760203660031901126102c257610215611e22565b9061021e612016565b6001600160a01b03918216928315610270575050600054826001600160601b0360a01b821617600055167f8be0079c531659141344cd1fd0a4f28419497f9722a3daafe3b4186f6b6457e0600080a380f35b906020608492519162461bcd60e51b8352820152602660248201527f4f776e61626c653a206e6577206f776e657220697320746865207a65726f206160448201526564647265737360d01b6064820152fd5b8280fd5b828434610626576020806003193601126101f65767ffffffffffffffff9084358281116104ec576102fa9036908701611def565b91909261030561214f565b33855286825260ff868620541661061657821561060657606483116105f6578551908385833760068285019081528290038301909120546001600160a01b03919082166105e6573386526007835261035f87872054611e38565b610574575b86518486823783818681016006815203019020336001600160601b0360a01b82541617905533865260078352868620908411610561576103ae846103a88354611e38565b836120a5565b8386601f82116001146104ff5787916104f4575b508460011b906000198660031b1c19161790555b6008865183810190858783376103fa85828881018b83820152038084520182611e9c565b5190209283875281815261041460ff8989205416156120ea565b83875252858520805460ff191660011790557f00000000000000000000000000000000000000000000000000000000000000001690813b156104f0578480918751938491637737221360e01b83528a83015288602483015281838161047d604482018a8c61212e565b03925af191826104d8575b505061049e575050505163504d179b60e11b8152fd5b808451928337810190600082528033920390207f6215a4766f4451653c62e7f6488ff8f54879fe4eb7f5f9c695b573abad3d6adf8380a380f35b6104e190611e72565b6104ec578387610488565b8380fd5b8480fd5b9050850135896103c2565b828852848820915085601f198116895b878282106105485750501061052e575b5050600184811b0190556103d6565b860135600019600387901b60f8161c19169055888061051f565b8a8501358655600190950194938401938993500161050f565b634e487b7160e01b865260418852602486fd5b33865260078352610586878720611ebe565b8751848183516105998183858801611f64565b810160068152030190206001600160601b0360a01b81541690556105bd339161206e565b7f1356a734f97b5d3041ef9fb91e2997e15e64ecb0bf22561fe5046ea4e3840f618880a3610364565b865163550fcbad60e11b81528890fd5b855163d572cd8d60e01b81528790fd5b855163133d0ae160e11b81528790fd5b855163119be7db60e31b81528790fd5b80fd5b9050346102c257602091826003193601126104ec576106b4936001600160a01b03610652611e22565b1681526007845281812091600385526106c1818320956001815260ff83852054169581526106a161069b6106938560ff818920541697600786522054611e38565b151596611ebe565b97611ebe565b835198899860a08a5260a08a0190611f87565b9188830390890152611f87565b931515908501521515606084015260808301520390f35b5050346101f65760203660031901126101f65760209160ff9082906001600160a01b03610703611e22565b1681526001855220541690519015158152f35b8284346106265760203660031901126106265761073f9082906001600160a01b036101d1611e22565b9081511561075e576101f2925051918291602083526020830190611f87565b51630509b0a560e01b81529050fd5b5050346101f65760203660031901126101f6576101f2916101df9082906001600160a01b0361079a611e22565b168152600360205220611ebe565b8284346106265760203660031901126106265782359067ffffffffffffffff821161062657506020926107dd91369101611fbf565b826107f083519283815193849201611f64565b6006908201908152819003830190205490516001600160a01b039091168152f35b919050346102c25760203660031901126102c2576020926001600160a01b03610838611e22565b1681526001845260ff82822054169283610857575b5050519015158152f35b84528190205460ff16159150388061084d565b82843461062657602092836003193601126101f657803567ffffffffffffffff81116102c25761089c91369101611def565b929091815184848237600681860190815281900386019020546001600160a01b03161592836108d1575b858484519015158152f35b60ff935082946108f887855183819483830196873781018683820152038084520182611e9c565b519020815260088552205416158184806108c6565b5050346101f657816003193601126101f657517f00000000000000000000000000000000000000000000000000000000000000006001600160a01b03168152602090f35b919050346102c257826003193601126102c25761096c61214f565b338352602060078152610980828520611ebe565b92835115610a8357506008906109f583518551908381818901936109a5818387611f64565b810160068152030190206001600160601b0360a01b815416905533875260078352868581206109d48154611e38565b80610a43575b505050610a0283865180938282019586918b51928391611f64565b8101038084520182611e9c565b519020855252822060ff198154169055610a1c339161206e565b7f1356a734f97b5d3041ef9fb91e2997e15e64ecb0bf22561fe5046ea4e3840f618380a380f35b601f8111600114610a5d575060009150555b8638806109da565b90806000918452610a7c601f888620940160051c84016001850161208e565b5555610a55565b8251630509b0a560e01b8152fd5b5050346101f657816003193601126101f657602090517f00000000000000000000000000000000000000000000000000000000000000008152f35b9050346102c25760203660031901126102c25760209260ff918391906001600160a01b03610af8611e22565b168252855220541690519015158152f35b5050346101f657816003193601126101f657905490516001600160a01b039091168152602090f35b5050346101f657816003193601126101f65760207f62e78cea01bee320cd4e420270b5ea74000d11b0c9f74754ebdbfc544b05a25891610b6f612016565b610b7761214f565b835460ff60a01b1916600160a01b17845551338152a180f35b5050346101f657816003193601126101f657602090517f00000000000000000000000000000000000000000000000000000000000000008152f35b919050346102c2576101603660031901126102c257610be8611e22565b6044359036610164116104f057610bfd61214f565b33855260209380855260ff8487205416610e10573386526001855260ff8487205416610e02578286526005855260ff8487205416610df4576001600160a01b03913381841603610de5578451868101916001600160601b03199060601b168252601481528581019181831067ffffffffffffffff841117610dd05782610c9b89610184946109f5948298978c52606082019586918351928391611f64565b51902060081c91865194859384926301aa650960e51b8452602435908401527f000000000000000000000000000000000000000000000000000000000000000060248401526044830152866064830152610100606460848401377f0000000000000000000000000000000000000000000000000000000000000000165afa8015610dc657610d93575b507fb9a56ef3335a4b13b2aa51519b56125ab2316b50d587ad80edfce74fe9a4b7d391610d8d9185526005845280852060ff1990600182825416179055338652600185526001828720918254161790556002845280852090519182918583523395830190612196565b0390a280f35b8381813d8311610dbf575b610da88183611e9c565b810103126104f05751801515036104ec5738610d24565b503d610d9e565b83513d87823e3d90fd5b604184634e487b7160e01b6000525260246000fd5b5083516328f7decb60e21b8152fd5b8351632ec8265960e11b8152fd5b8351630231faf760e31b8152fd5b835163119be7db60e31b8152fd5b5050346101f657816003193601126101f657517f00000000000000000000000000000000000000000000000000000000000000006001600160a01b03168152602090f35b8334610626578060031936011261062657610e7b612016565b600080546001600160a01b0319811682556001600160a01b03167f8be0079c531659141344cd1fd0a4f28419497f9722a3daafe3b4186f6b6457e08280a380f35b828434610626576020806003193601126101f65767ffffffffffffffff84358181116104ec57610eef9036908701611def565b919092610efa61214f565b33855286815260ff868620541661061657821561060657606483116105f657855183858237600681850190815281900382019020546001600160a01b039081166105e65733865260078252610f50878720611ebe565b9283511561119057875183818651610f6b8183858b01611f64565b810160068152030190206001600160601b0360a01b90818154169055885186888237848188810160068152030190209033908254161790553387526007835287872090851161117d57610fc2856103a88354611e38565b8487601f821160011461111b578891611110575b508560011b906000198760031b1c19161790555b60088751838101908688833761100e85828981018c83820152038084520182611e9c565b5190209283885281815261102860ff8a8a205416156120ea565b83885252868620805460ff191660011790557f00000000000000000000000000000000000000000000000000000000000000001690813b1561110c578580918851938491637737221360e01b83528b830152896024830152818381611091604482018b8d61212e565b03925af191826110f8575b50506110b257845163504d179b60e11b81528690fd5b90806110be869361206e565b925193843782019160008352803393039020907fbd202917ae578e676dc0660fbf937fae060bed0635f755124fbf0ac37a74398d8480a480f35b61110190611e72565b6104f057848861109c565b8580fd5b90508601358a610fd6565b828952848920915086601f1981168a5b878282106111645750501061114a575b5050600185811b019055610fea565b870135600019600388901b60f8161c19169055898061113b565b8b8501358655600190950194938401938a93500161112b565b634e487b7160e01b875260418952602487fd5b8751630509b0a560e01b81528990fd5b5050346101f657816003193601126101f65760ff6020925460a01c1690519015158152f35b82843461062657816003193601126106265767ffffffffffffffff9083358281116101f6576111f79036908601611def565b6024358481116104ec5761120e9036908801611def565b909161121861214f565b33855260209388855260ff888720541661162f57811561161f57821561160f578751858101908383833761125a87828681018b83820152038084520182611e9c565b51902088516302571be360e01b81528a81018290526001600160a01b039087816024817f000000000000000000000000000000000000000000000000000000000000000086165afa908115611605579082918a916115c7575b501680151590816115bc575b506115ad577f00000000000000000000000000000000000000000000000000000000000000001690813b156115a95787908a51928391637737221360e01b83528d8301528b602483015281838161131a604482018a8a61212e565b03925af19081611596575b5061133a57875163504d179b60e11b81528990fd5b90879189338852600287528388208984116115835761135d846103a88354611e38565b8389601f8211600114611521578a91611516575b508460011b906000198660031b1c19161790555b3388526003875283882098851161150357506113ab846113a58a54611e38565b8a6120a5565b8697601f851160011461145557611436610d8d9493927fa6bb55ebe8663498f0026933a88f034a448d712aa56f5a12e03c6d00ee76366c92878b9c7f2013570c343af8ab14a9778150e381a0fda34ed6368127a95fd5e7210cbec5bf9b9c9161144a575b508860011b906000198a60031b1c19161790555b84519182918b835233958c84019161212e565b0390a251928392868452339684019161212e565b90508901358d61140f565b80885286882098601f198616895b8181106114ec5750927fa6bb55ebe8663498f0026933a88f034a448d712aa56f5a12e03c6d00ee76366c927f2013570c343af8ab14a9778150e381a0fda34ed6368127a95fd5e7210cbec5bf999a9b6114369389610d8d999897106114d2575b5050600188811b019055611423565b8a013560001960038b901b60f8161c191690558c806114c3565b888301358c556001909b019a918901918901611463565b634e487b7160e01b885260419052602487fd5b90508301358b611371565b828b52898b20915085601f1981168c5b8c82821061156a57505010611550575b5050600184811b019055611385565b840135600019600387901b60f8161c191690558a80611541565b8885013586556001909501949384019389935001611531565b634e487b7160e01b895260418252602489fd5b6115a290979197611e72565b958a611325565b8780fd5b8951622cee3160ea1b81528b90fd5b90503314158c6112bf565b809250898092503d83116115fe575b6115e08183611e9c565b810103126115fa575181811681036115fa5781908d6112b3565b8880fd5b503d6115d6565b8b513d8b823e3d90fd5b875163d3cefccf60e01b81528990fd5b875163133d0ae160e11b81528990fd5b875163119be7db60e31b81528990fd5b919050346102c25760603660031901126102c25761165b611fac565b67ffffffffffffffff9160443583811161110c5761167c9036908601611def565b6001600160a01b03959194907f0000000000000000000000000000000000000000000000000000000000000000871633036119315785016060868203126115a95785359687168097036115a9576020958681013583811161192d57826116e3918301611fbf565b9185820135848111611929576116f99201611fbf565b87895283875260ff858a20541661191957878952600191828852858a208360ff1982541617905560028852858a2090805190858211611906578190611748826117428654611e38565b866120a5565b8a908d601f84116001146118a5579261189a575b5050600019600383901b1c191690841b1790555b878952600387528489209381519384116118875750611793836117428654611e38565b8690601f84116001146117fc57928063ffffffff959381937e2cfc7d08df339fe5057932db3b0c33ea94559b5ecbfc3cfd9c6315076b38ee9a9998968d946117f1575b50501b916000199060031b1c19161790555b5191168152a280f35b0151925038806117d6565b848a52878a209293929190601f1984168b5b8181106118725750917e2cfc7d08df339fe5057932db3b0c33ea94559b5ecbfc3cfd9c6315076b38ee9998979593918563ffffffff98969410611859575b505050811b0190556117e8565b015160001960f88460031b161c1916905538808061184c565b82840151855593860193928a01928a0161180e565b634e487b7160e01b8a5260419052602489fd5b01519050388061175c565b8581528c8120889550929190601f198516908e5b8282106118ef57505084116118d6575b505050811b019055611770565b015160001960f88460031b161c191690553880806118c9565b8385015186558a979095019493840193018e6118b9565b634e487b7160e01b8c526041875260248cfd5b845163119be7db60e31b81528490fd5b8a80fd5b8980fd5b8351635c427cd960e01b81528390fd5b919050346102c25760203660031901126102c25761195d611e22565b611965612016565b6001600160a01b03168084526020929092528220805460ff191690557f26d6a37a4abb33fb6e942eb5bf6c659ea2b3031d99159305ec4fdd0adc7551cf8280a280f35b9050346102c25760203660031901126102c2578160209360ff923581526008855220541690519015158152f35b9050346102c257826003193601126102c2576119ef612016565b82549060ff8260a01c1615611a35575060ff60a01b19168255513381527f5db9ee0a495bf2e6ff9c91a7834c1ba4fdd244a5e8aa4e537bd38aeae4b073aa90602090a180f35b606490602084519162461bcd60e51b8352820152601460248201527314185d5cd8589b194e881b9bdd081c185d5cd95960621b6044820152fd5b5050346101f657816003193601126101f657517f00000000000000000000000000000000000000000000000000000000000000006001600160a01b03168152602090f35b5050346101f657816003193601126101f657602090517f00000000000000000000000000000000000000000000000000000000000000008152f35b9050346102c257816003193601126102c257611b08611fac565b916024356001600160a01b03818116939184900361110c57611b2861214f565b33865260209482865260ff8488205416611c56578487526001865260ff848820541615611c665784875282865260ff8488205416611c56579063ffffffff8787949387825260028652611bef88611bc18989611bb5611ba2838920600384526060858b209580519889968701528501526080840190612196565b601f199384848303016060850152612196565b03908101835282611e9c565b8851998a978896879563fa31de0160e01b875216908501526024840152606060448401526064830190611f87565b03927f0000000000000000000000000000000000000000000000000000000000000000165af1908115611c4d5750611c25578280f35b813d8311611c46575b611c388183611e9c565b810103126106265738808280f35b503d611c2e565b513d85823e3d90fd5b835163119be7db60e31b81528390fd5b835163a95362b560e01b81528390fd5b5050346101f65760203660031901126101f6576101f2916101df9082906001600160a01b03611ca3611e22565b168152600260205220611ebe565b9050346102c25760203660031901126102c2578160209360ff923581526005855220541690519015158152f35b5050346101f657816003193601126101f657517f00000000000000000000000000000000000000000000000000000000000000006001600160a01b03168152602090f35b919050346102c25760203660031901126102c257611d3e611e22565b611d46612016565b6001600160a01b03168084526020929092528220805460ff191660011790557f8f411ad66fd8225d9c3c7c72fd2429139958913fa5c5114dce1c984e069a4f698280a280f35b915092346106265760203660031901126106265783359067ffffffffffffffff82116106265750611dc09036908501611def565b8091833760069082019081528190036020019020546001600160a01b031690811561075e576020925051908152f35b9181601f84011215611e1d5782359167ffffffffffffffff8311611e1d5760208381860195010111611e1d57565b600080fd5b600435906001600160a01b0382168203611e1d57565b90600182811c92168015611e68575b6020831014611e5257565b634e487b7160e01b600052602260045260246000fd5b91607f1691611e47565b67ffffffffffffffff8111611e8657604052565b634e487b7160e01b600052604160045260246000fd5b90601f8019910116810190811067ffffffffffffffff821117611e8657604052565b9060405191826000825492611ed284611e38565b908184526001948581169081600014611f415750600114611efe575b5050611efc92500383611e9c565b565b9093915060005260209081600020936000915b818310611f29575050611efc93508201013880611eee565b85548884018501529485019487945091830191611f11565b915050611efc94506020925060ff191682840152151560051b8201013880611eee565b60005b838110611f775750506000910152565b8181015183820152602001611f67565b90602091611fa081518092818552858086019101611f64565b601f01601f1916010190565b6004359063ffffffff82168203611e1d57565b81601f82011215611e1d5780359067ffffffffffffffff8211611e865760405192611ff4601f8401601f191660200185611e9c565b82845260208383010111611e1d57816000926020809301838601378301015290565b6000546001600160a01b0316330361202a57565b606460405162461bcd60e51b815260206004820152602060248201527f4f776e61626c653a2063616c6c6572206973206e6f7420746865206f776e65726044820152fd5b61208690602060405192828480945193849201611f64565b810103902090565b818110612099575050565b6000815560010161208e565b9190601f81116120b457505050565b611efc926000526020600020906020601f840160051c830193106120e0575b601f0160051c019061208e565b90915081906120d3565b156120f157565b60405162461bcd60e51b8152602060048201526015602482015274115394c81b9bd91948185b1c9958591e481d5cd959605a1b6044820152606490fd5b908060209392818452848401376000828201840152601f01601f1916010190565b60ff60005460a01c1661215e57565b60405162461bcd60e51b815260206004820152601060248201526f14185d5cd8589b194e881c185d5cd95960821b6044820152606490fd5b90600092918054916121a783611e38565b91828252600193848116908160001461220957506001146121c9575b50505050565b90919394506000526020928360002092846000945b8386106121f55750505050010190388080806121c3565b8054858701830152940193859082016121de565b9294505050602093945060ff191683830152151560051b010190388080806121c356fea164736f6c6343000813000a",
  "linkReferences": {},
  "deployedLinkReferences": {}
}