{
  "_format": "hh-sol-artifact-1",
  "contractName": "MentalHealthEvents",
  "sourceName": "contracts/MentalHealthEvents.sol",
  "abi": [
    {
      "inputs": [
        {
          "internalType": "address",
          "name": "_identityContract",
          "type": "address"
        }
      ],
      "stateMutability": "nonpayable",
      "type": "constructor"
    },
    {
      "inputs": [],
      "name": "AlreadyJoined",
      "type": "error"
    },
    {
      "inputs": [],
      "name": "EventNotActive",
      "type": "error"
    },
    {
      "inputs": [],
      "name": "IdentityRequired",
      "type": "error"
    },
    {
      "inputs": [],
      "name": "InvalidIdentityContract",
      "type": "error"
    },
    {
      "inputs": [],
      "name": "InvalidTime",
      "type": "error"
    },
    {
      "inputs": [],
      "name": "UnauthorizedAccess",
      "type": "error"
    },
    {
      "anonymous": false,
      "inputs": [
        {
          "indexed": true,
          "internalType": "uint256",
          "name": "eventId",
          "type": "uint256"
        },
        {
          "indexed": false,
          "internalType": "string",
          "name": "name",
          "type": "string"
        },
        {
          "indexed": false,
          "internalType": "address",
          "name": "creator",
          "type": "address"
        },
        {
          "indexed": false,
          "internalType": "string",
          "name": "category",
          "type": "string"
        }
      ],
      "name": "EventCreated",
      "type": "event"
    },
    {
      "anonymous": false,
      "inputs": [
        {
          "indexed": true,
          "internalType": "uint256",
          "name": "eventId",
          "type": "uint256"
        }
      ],
      "name": "EventEnded",
      "type": "event"
    },
    {
      "anonymous": false,
      "inputs": [
        {
          "indexed": true,
          "internalType": "uint256",
          "name": "eventId",
          "type": "uint256"
        },
        {
          "indexed": false,
          "internalType": "string",
          "name": "name",
          "type": "string"
        },
        {
          "indexed": false,
          "internalType": "string",
          "name": "description",
          "type": "string"
        }
      ],
      "name": "EventUpdated",
      "type": "event"
    },
    {
      "anonymous": false,
      "inputs": [
        {
          "indexed": true,
          "internalType": "address",
          "name": "previousOwner",
          "type": "address"
        },
        {
          "indexed": true,
          "internalType": "address",
          "name": "newOwner",
          "type": "address"
        }
      ],
      "name": "OwnershipTransferred",
      "type": "event"
    },
    {
      "anonymous": false,
      "inputs": [
        {
          "indexed": true,
          "internalType": "uint256",
          "name": "eventId",
          "type": "uint256"
        },
        {
          "indexed": false,
          "internalType": "address",
          "name": "participant",
          "type": "address"
        }
      ],
      "name": "ParticipantJoined",
      "type": "event"
    },
    {
      "inputs": [
        {
          "internalType": "bytes",
          "name": "",
          "type": "bytes"
        }
      ],
      "name": "checkUpkeep",
      "outputs": [
        {
          "internalType": "bool",
          "name": "upkeepNeeded",
          "type": "bool"
        },
        {
          "internalType": "bytes",
          "name": "performData",
          "type": "bytes"
        }
      ],
      "stateMutability": "view",
      "type": "function"
    },
    {
      "inputs": [
        {
          "internalType": "string",
          "name": "name",
          "type": "string"
        },
        {
          "internalType": "string",
          "name": "description",
          "type": "string"
        },
        {
          "internalType": "uint256",
          "name": "startTime",
          "type": "uint256"
        },
        {
          "internalType": "uint256",
          "name": "endTime",
          "type": "uint256"
        },
        {
          "internalType": "bool",
          "name": "requiresIdentity",
          "type": "bool"
        },
        {
          "internalType": "string",
          "name": "category",
          "type": "string"
        },
        {
          "internalType": "string",
          "name": "filecoinCID",
          "type": "string"
        }
      ],
      "name": "createEvent",
      "outputs": [
        {
          "internalType": "uint256",
          "name": "",
          "type": "uint256"
        }
      ],
      "stateMutability": "nonpayable",
      "type": "function"
    },
    {
      "inputs": [],
      "name": "eventCount",
      "outputs": [
        {
          "internalType": "uint256",
          "name": "",
          "type": "uint256"
        }
      ],
      "stateMutability": "view",
      "type": "function"
    },
    {
      "inputs": [
        {
          "internalType": "uint256",
          "name": "",
          "type": "uint256"
        }
      ],
      "name": "events",
      "outputs": [
        {
          "internalType": "string",
          "name": "name",
          "type": "string"
        },
        {
          "internalType": "string",
          "name": "description",
          "type": "string"
        },
        {
          "internalType": "uint256",
          "name": "startTime",
          "type": "uint256"
        },
        {
          "internalType": "uint256",
          "name": "endTime",
          "type": "uint256"
        },
        {
          "internalType": "address",
          "name": "creator",
          "type": "address"
        },
        {
          "internalType": "bool",
          "name": "requiresIdentity",
          "type": "bool"
        },
        {
          "internalType": "uint256",
          "name": "participantCount",
          "type": "uint256"
        },
        {
          "internalType": "bool",
          "name": "isActive",
          "type": "bool"
        },
        {
          "internalType": "string",
          "name": "category",
          "type": "string"
        },
        {
          "internalType": "string",
          "name": "filecoinCID",
          "type": "string"
        }
      ],
      "stateMutability": "view",
      "type": "function"
    },
    {
      "inputs": [
        {
          "internalType": "uint256",
          "name": "eventId",
          "type": "uint256"
        }
      ],
      "name": "getEventParticipants",
      "outputs": [
        {
          "internalType": "address[]",
          "name": "",
          "type": "address[]"
        },
        {
          "internalType": "uint256",
          "name": "",
          "type": "uint256"
        }
      ],
      "stateMutability": "view",
      "type": "function"
    },
    {
      "inputs": [
        {
          "internalType": "address",
          "name": "user",
          "type": "address"
        }
      ],
      "name": "getUserEvents",
      "outputs": [
        {
          "internalType": "uint256[]",
          "name": "",
          "type": "uint256[]"
        }
      ],
      "stateMutability": "view",
      "type": "function"
    },
    {
      "inputs": [],
      "name": "identityContract",
      "outputs": [
        {
          "internalType": "contract MentalHealthIdentity",
          "name": "",
          "type": "address"
        }
      ],
      "stateMutability": "view",
      "type": "function"
    },
    {
      "inputs": [
        {
          "internalType": "uint256",
          "name": "eventId",
          "type": "uint256"
        },
        {
          "internalType": "address",
          "name": "user",
          "type": "address"
        }
      ],
      "name": "isParticipant",
      "outputs": [
        {
          "internalType": "bool",
          "name": "",
          "type": "bool"
        }
      ],
      "stateMutability": "view",
      "type": "function"
    },
    {
      "inputs": [
        {
          "internalType": "uint256",
          "name": "eventId",
          "type": "uint256"
        }
      ],
      "name": "joinEvent",
      "outputs": [],
      "stateMutability": "nonpayable",
      "type": "function"
    },
    {
      "inputs": [],
      "name": "owner",
      "outputs": [
        {
          "internalType": "address",
          "name": "",
          "type": "address"
        }
      ],
      "stateMutability": "view",
      "type": "function"
    },
    {
      "inputs": [
        {
          "internalType": "bytes",
          "name": "performData",
          "type": "bytes"
        }
      ],
      "name": "performUpkeep",
      "outputs": [],
      "stateMutability": "nonpayable",
      "type": "function"
    },
    {
      "inputs": [],
      "name": "renounceOwnership",
      "outputs": [],
      "stateMutability": "nonpayable",
      "type": "function"
    },
    {
      "inputs": [
        {
          "internalType": "address",
          "name": "newOwner",
          "type": "address"
        }
      ],
      "name": "transferOwnership",
      "outputs": [],
      "stateMutability": "nonpayable",
      "type": "function"
    },
    {
      "inputs": [
        {
          "internalType": "uint256",
          "name": "eventId",
          "type": "uint256"
        },
        {
          "internalType": "string",
          "name": "name",
          "type": "string"
        },
        {
          "internalType": "string",
          "name": "description",
          "type": "string"
        }
      ],
      "name": "updateEvent",
      "outputs": [],
      "stateMutability": "nonpayable",
      "type": "function"
    },
    {
      "inputs": [
        {
          "internalType": "address",
          "name": "",
          "type": "address"
        },
        {
          "internalType": "uint256",
          "name": "",
          "type": "uint256"
        }
      ],
      "name": "userEvents",
      "outputs": [
        {
          "internalType": "uint256",
          "name": "",
          "type": "uint256"
        }
      ],
      "stateMutability": "view",
      "type": "function"
    }
  ],
  "bytecode": "0x6080346100c457601f61167538819003918201601f19168301916001600160401b038311848410176100c9578084926020946040528339810103126100c457516001600160a01b03808216918290036100c4576000549060018060a01b0319913383821617600055604051913391167f8be0079c531659141344cd1fd0a4f28419497f9722a3daafe3b4186f6b6457e0600080a36001805582156100b55750600554161760055560405161159590816100e08239f35b636c9d663f60e11b8152600490fd5b600080fd5b634e487b7160e01b600052604160045260246000fdfe6080604052600436101561001257600080fd5b60003560e01c80630b7914301461107f578063171e5ba214610fcb57806338d361e214610e4f5780634585e33b14610dce57806367031bae14610da5578063699280c214610a8d5780636e04ff0d14610a52578063715018a6146109f957806371be2e4a146109db578063758d9b89146109865780638da5cb5b1461095d578063adfae39914610304578063b50e0182146101e8578063bdfc98931461018f5763f2fde38b146100c157600080fd5b3461018a57602036600319011261018a576100da6112ad565b6100e2611390565b6001600160a01b0390811690811561013657600054826bffffffffffffffffffffffff60a01b821617600055167f8be0079c531659141344cd1fd0a4f28419497f9722a3daafe3b4186f6b6457e0600080a3005b60405162461bcd60e51b815260206004820152602660248201527f4f776e61626c653a206e6577206f776e657220697320746865207a65726f206160448201526564647265737360d01b6064820152608490fd5b600080fd5b3461018a57604036600319011261018a576101a86112ad565b6001600160a01b031660009081526003602052604090208054602435919082101561018a576020916101d991611362565b90549060031b1c604051908152f35b3461018a5760208060031936011261018a57600435600052600281526040600020906006820154906102198261155d565b61022660405191826111a6565b8281526102328361155d565b8282019190601f1901368337600091600560009601955b82518110156102b6576001600160a01b03806102658386611574565b511660005287865260ff6040600020541661028a575b50610285906113e8565b610249565b81946102af9161029d6102859487611574565b51166102a98287611574565b526113e8565b939061027b565b84838388604051926040840190604085525180915260608401929060005b8181106102e75750505082938301520390f35b82516001600160a01b0316855293860193918601916001016102d4565b3461018a5760e036600319011261018a576004356001600160401b03811161018a5761033490369060040161130c565b6024356001600160401b03811161018a5761035390369060040161130c565b60843590811515820361018a5760a4356001600160401b03811161018a5761037f90369060040161130c565b9060c4356001600160401b03811161018a5761039f90369060040161130c565b906103a8611447565b426044351180159061094f575b61093d57600454936103c6856113e8565b60045584600052600260205260406000209186516001600160401b0381116106da576103f2845461116c565b601f81116108f9575b50806020601f821160011461089157600091610886575b508160011b916000199060031b1c19161783555b8051906001600160401b0382116106da578190610446600186015461116c565b601f8111610833575b50602090601f83116001146107c1576000926107b6575b50508160011b916000199060031b1c19161760018301555b604435600283015560643560038301556004820180546001600160a81b0319163360ff60a01b19161791151560a01b60ff60a01b1691909117905560078101805460ff1916600117905582516001600160401b0381116106da576104e5600883015461116c565b601f811161076b575b506020601f82116001146106fb579080600993926000916106f0575b508160011b916000199060031b1c19161760088201555b01908051906001600160401b0382116106da5761053e835461116c565b601f8111610692575b5091849391602096938790601f83116001146105ff5792826105e5936105d296937f56942cf6f49ba314343830c7c5ad9741f13219afaa9006b86f2964168defaba398966000926105f4575b50508160011b916000199060031b1c19161790555b33600052600388526105be86604060002061140d565b60405193849360608552606085019061126d565b903389850152838203604085015261126d565b0390a260018055604051908152f35b015190508b80610593565b90601f1983169184600052896000209260005b8181106106785750936105d296937f56942cf6f49ba314343830c7c5ad9741f13219afaa9006b86f2964168defaba3989693600193836105e5981061065f575b505050811b0190556105a8565b015160001960f88460031b161c191690558b8080610652565b8284015185558a9950600190940193928b01928b01610612565b836000526020600020601f840160051c810191602085106106d0575b601f0160051c01905b8181106106c45750610547565b600081556001016106b7565b90915081906106ae565b634e487b7160e01b600052604160045260246000fd5b90508501518861050a565b6008830160005260206000209060005b601f19841681106107535750916001916009949382601f1981161061073a575b5050811b016008820155610521565b87015160001960f88460031b161c19169055888061072b565b9091602060018192858a01518155019301910161070b565b600883016000526020600020601f830160051c810191602084106107ac575b601f0160051c01905b8181106107a057506104ee565b60008155600101610793565b909150819061078a565b015190508880610466565b9250600185016000526020600020906000935b601f1984168510610818576001945083601f198116106107ff575b505050811b01600183015561047e565b015160001960f88460031b161c191690558880806107ef565b818101518355602094850194600190930192909101906107d4565b909150600185016000526020600020601f840160051c81016020851061087f575b90849392915b601f830160051c8201811061087057505061044f565b6000815585945060010161085a565b5080610854565b905088015189610412565b91508460005260206000206000925b8a601f19841685106108e257506001935082601f198116106108c9575b5050811b018355610426565b8a015160001960f88460031b161c1916905589806108bd565b8101518255602093840193600190920191016108a0565b846000526020600020601f830160051c810160208410610936575b601f830160051c8201811061092a5750506103fb565b60008155600101610914565b5080610914565b6040516337bf561360e11b8152600490fd5b5060443560643511156103b5565b3461018a57600036600319011261018a576000546040516001600160a01b039091168152602090f35b3461018a57604036600319011261018a576024356001600160a01b0381169081900361018a576004356000526002602052600560406000200190600052602052602060ff604060002054166040519015158152f35b3461018a57600036600319011261018a576020600454604051908152f35b3461018a57600036600319011261018a57610a12611390565b600080546001600160a01b0319811682556001600160a01b03167f8be0079c531659141344cd1fd0a4f28419497f9722a3daafe3b4186f6b6457e08280a3005b3461018a57610a60366112c3565b5050610a6a61149d565b90610a896040519283921515835260406020840152604083019061126d565b0390f35b3461018a57606036600319011261018a576004356001600160401b0360243581811161018a57610ac190369060040161130c565b9060443581811161018a57610ada90369060040161130c565b836000526020916002835260406000209060018060a01b036004830154163303610d935760ff60078301541615610d81578451918183116106da57610b1f815461116c565b92601f93848111610d3e575b508086858211600114610cda57600091610ccf575b508160011b916000199060031b1c19161781555b60018091019284519283116106da57610b6d845461116c565b818111610c89575b5085908311600114610bfb57928280610bde97947f33f8c430773844a4aedb1f4741bdae3d406368be5a3f9064ff11c2c55f5e80b2999794610beb97600093610bf0575b501b916000199060031b1c19161790555b60405194859460408652604086019061126d565b918483039085015261126d565b0390a2005b86015192508c610bb9565b601f9291921982169084600052866000209160005b818110610c74575092610beb9592610bde989592827f33f8c430773844a4aedb1f4741bdae3d406368be5a3f9064ff11c2c55f5e80b29b999610610c5b575b5050811b019055610bca565b85015160001960f88460031b161c191690558a80610c4f565b87830151845592850192918801918801610c10565b84600052866000208280860160051c820192898710610cc6575b0160051c019083905b828110610cba575050610b75565b60008155018390610cac565b92508192610ca3565b905087015189610b40565b60008481528881209250601f198416905b898b838310610d29575050509083600194939210610d10575b5050811b018155610b54565b89015160001960f88460031b161c191690558980610d04565b84015185556001909401939283019201610ceb565b82600052866000208580840160051c820192898510610d78575b0160051c01905b818110610d6c5750610b2b565b60008155600101610d5f565b92508192610d58565b6040516301e1837960e31b8152600490fd5b604051631a27eac360e11b8152600490fd5b3461018a57600036600319011261018a576005546040516001600160a01b039091168152602090f35b3461018a576020610dde366112c3565b908092918101031261018a57358060005260026020526040600020600781019081549060ff82169081610e40575b50610e1357005b60ff191690557f60ec355296fe18fa9035fd377bd45120aad5d6ca18619a7b72cbd175771eca0a600080a2005b60039150015442101584610e0c565b3461018a5760208060031936011261018a5760043590610e6d611447565b816000526002815260406000209060ff60078301541615610d8157600382015442101561093d57600582013360005280825260ff60406000205416610fba5760ff600484015460a01c16610f27575b7f7dd8cb04159701bc1976c246434d7d96812782e7489e6c5c34db49a388fe9e80926006913360005283526040600020600160ff1982541617905501610f0281546113e8565b90553360005260038152610f1a83604060002061140d565b604051338152a260018055005b6005546040516371aff1b360e11b8152336004820152908390829060249082906001600160a01b03165afa908115610fae57600091610f78575b50610ebc5760405163d6fba88560e01b8152600490fd5b90508281813d8311610fa7575b610f8f81836111a6565b8101031261018a5751801515810361018a5785610f61565b503d610f85565b6040513d6000823e3d90fd5b604051621d934160e11b8152600490fd5b3461018a5760208060031936011261018a576001600160a01b03610fed6112ad565b1660005260038152604060002060405190818382549182815201908192600052846000209060005b8682821061106b57868661102b828803836111a6565b604051928392818401908285525180915260408401929160005b82811061105457505050500390f35b835185528695509381019392810192600101611045565b835485529093019260019283019201611015565b3461018a57602036600319011261018a5760043560005260026020526111116040600020610a896110af826111c7565b9161115d6110bf600183016111c7565b916002810154906003810154600482015460ff600684015491816007860154169361111f6110fb60096110f460088a016111c7565b98016111c7565b996040519d8e9d8e61014090818152019061126d565b8d810360208f01529061126d565b9660408c015260608b015260018060a01b03811660808b015260a01c16151560a089015260c0880152151560e087015285820361010087015261126d565b9083820361012085015261126d565b90600182811c9216801561119c575b602083101461118657565b634e487b7160e01b600052602260045260246000fd5b91607f169161117b565b90601f801991011681019081106001600160401b038211176106da57604052565b90604051918260008254926111db8461116c565b90818452600194858116908160001461124a5750600114611207575b5050611205925003836111a6565b565b9093915060005260209081600020936000915b818310611232575050611205935082010138806111f7565b8554888401850152948501948794509183019161121a565b91505061120594506020925060ff191682840152151560051b82010138806111f7565b919082519283825260005b848110611299575050826000602080949584010152601f8019910116010190565b602081830181015184830182015201611278565b600435906001600160a01b038216820361018a57565b90602060031983011261018a576004356001600160401b039283821161018a578060238301121561018a57816004013593841161018a576024848301011161018a576024019190565b81601f8201121561018a578035906001600160401b0382116106da5760405192611340601f8401601f1916602001856111a6565b8284526020838301011161018a57816000926020809301838601378301015290565b805482101561137a5760005260206000200190600090565b634e487b7160e01b600052603260045260246000fd5b6000546001600160a01b031633036113a457565b606460405162461bcd60e51b815260206004820152602060248201527f4f776e61626c653a2063616c6c6572206973206e6f7420746865206f776e65726044820152fd5b60001981146113f75760010190565b634e487b7160e01b600052601160045260246000fd5b8054680100000000000000008110156106da5761142f91600182018155611362565b819291549060031b91821b91600019901b1916179055565b600260015414611458576002600155565b60405162461bcd60e51b815260206004820152601f60248201527f5265656e7472616e637947756172643a207265656e7472616e742063616c6c006044820152606490fd5b6000906004918254905b8181106114ed57505060405160009260208201906001600160401b038211838310176114d857506040526000815290565b604190634e487b7160e01b6000525260246000fd5b806000526020600281526040908160002060ff600782015416908161154e575b5061152257505061151d906113e8565b6114a7565b9080929593505194818601528452808401918483106001600160401b038411176114d857505260019190565b6003915001544210153861150d565b6001600160401b0381116106da5760051b60200190565b805182101561137a5760209160051b01019056fea164736f6c6343000813000a",
  "linkReferences": {},
  "deployedLinkReferences": {}
}