{
  "_format": "hh-sol-artifact-1",
  "contractName": "PostNFT",
  "sourceName": "contracts/PostNFT.sol",
  "abi": [
    {
      "inputs": [
        {
          "internalType": "address",
          "name": "_buddyVerification",
          "type": "address"
        }
      ],
      "stateMutability": "nonpayable",
      "type": "constructor"
    },
    {
      "inputs": [],
      "name": "DeletedPost",
      "type": "error"
    },
    {
      "inputs": [],
      "name": "EmptyContent",
      "type": "error"
    },
    {
      "inputs": [],
      "name": "InvalidAddress",
      "type": "error"
    },
    {
      "inputs": [],
      "name": "NotBuddy",
      "type": "error"
    },
    {
      "inputs": [],
      "name": "PostAlreadyLiked",
      "type": "error"
    },
    {
      "inputs": [],
      "name": "PostDoesNotExist",
      "type": "error"
    },
    {
      "inputs": [],
      "name": "PostNotLiked",
      "type": "error"
    },
    {
      "inputs": [],
      "name": "UnauthorizedAccess",
      "type": "error"
    },
    {
      "anonymous": false,
      "inputs": [
        {
          "indexed": true,
          "internalType": "address",
          "name": "owner",
          "type": "address"
        },
        {
          "indexed": true,
          "internalType": "address",
          "name": "approved",
          "type": "address"
        },
        {
          "indexed": true,
          "internalType": "uint256",
          "name": "tokenId",
          "type": "uint256"
        }
      ],
      "name": "Approval",
      "type": "event"
    },
    {
      "anonymous": false,
      "inputs": [
        {
          "indexed": true,
          "internalType": "address",
          "name": "owner",
          "type": "address"
        },
        {
          "indexed": true,
          "internalType": "address",
          "name": "operator",
          "type": "address"
        },
        {
          "indexed": false,
          "internalType": "bool",
          "name": "approved",
          "type": "bool"
        }
      ],
      "name": "ApprovalForAll",
      "type": "event"
    },
    {
      "anonymous": false,
      "inputs": [
        {
          "indexed": false,
          "internalType": "uint256",
          "name": "_fromTokenId",
          "type": "uint256"
        },
        {
          "indexed": false,
          "internalType": "uint256",
          "name": "_toTokenId",
          "type": "uint256"
        }
      ],
      "name": "BatchMetadataUpdate",
      "type": "event"
    },
    {
      "anonymous": false,
      "inputs": [
        {
          "indexed": true,
          "internalType": "uint256",
          "name": "tokenId",
          "type": "uint256"
        },
        {
          "indexed": true,
          "internalType": "address",
          "name": "commenter",
          "type": "address"
        },
        {
          "indexed": false,
          "internalType": "uint256",
          "name": "commentIndex",
          "type": "uint256"
        }
      ],
      "name": "CommentAdded",
      "type": "event"
    },
    {
      "anonymous": false,
      "inputs": [
        {
          "indexed": true,
          "internalType": "uint256",
          "name": "tokenId",
          "type": "uint256"
        },
        {
          "indexed": false,
          "internalType": "uint256",
          "name": "commentIndex",
          "type": "uint256"
        }
      ],
      "name": "CommentDeleted",
      "type": "event"
    },
    {
      "anonymous": false,
      "inputs": [
        {
          "indexed": true,
          "internalType": "uint256",
          "name": "tokenId",
          "type": "uint256"
        },
        {
          "indexed": false,
          "internalType": "uint256",
          "name": "commentIndex",
          "type": "uint256"
        },
        {
          "indexed": false,
          "internalType": "string",
          "name": "newContent",
          "type": "string"
        }
      ],
      "name": "CommentUpdated",
      "type": "event"
    },
    {
      "anonymous": false,
      "inputs": [
        {
          "indexed": false,
          "internalType": "uint256",
          "name": "_tokenId",
          "type": "uint256"
        }
      ],
      "name": "MetadataUpdate",
      "type": "event"
    },
    {
      "anonymous": false,
      "inputs": [
        {
          "indexed": true,
          "internalType": "address",
          "name": "previousOwner",
          "type": "address"
        },
        {
          "indexed": true,
          "internalType": "address",
          "name": "newOwner",
          "type": "address"
        }
      ],
      "name": "OwnershipTransferred",
      "type": "event"
    },
    {
      "anonymous": false,
      "inputs": [
        {
          "indexed": true,
          "internalType": "uint256",
          "name": "tokenId",
          "type": "uint256"
        },
        {
          "indexed": true,
          "internalType": "address",
          "name": "author",
          "type": "address"
        },
        {
          "indexed": false,
          "internalType": "string",
          "name": "category",
          "type": "string"
        }
      ],
      "name": "PostCreated",
      "type": "event"
    },
    {
      "anonymous": false,
      "inputs": [
        {
          "indexed": true,
          "internalType": "uint256",
          "name": "tokenId",
          "type": "uint256"
        }
      ],
      "name": "PostDeleted",
      "type": "event"
    },
    {
      "anonymous": false,
      "inputs": [
        {
          "indexed": true,
          "internalType": "uint256",
          "name": "tokenId",
          "type": "uint256"
        },
        {
          "indexed": true,
          "internalType": "address",
          "name": "liker",
          "type": "address"
        }
      ],
      "name": "PostLiked",
      "type": "event"
    },
    {
      "anonymous": false,
      "inputs": [
        {
          "indexed": true,
          "internalType": "uint256",
          "name": "tokenId",
          "type": "uint256"
        },
        {
          "indexed": true,
          "internalType": "address",
          "name": "unliker",
          "type": "address"
        }
      ],
      "name": "PostUnliked",
      "type": "event"
    },
    {
      "anonymous": false,
      "inputs": [
        {
          "indexed": true,
          "internalType": "uint256",
          "name": "tokenId",
          "type": "uint256"
        },
        {
          "indexed": false,
          "internalType": "string",
          "name": "content",
          "type": "string"
        },
        {
          "indexed": false,
          "internalType": "string",
          "name": "imageURI",
          "type": "string"
        }
      ],
      "name": "PostUpdated",
      "type": "event"
    },
    {
      "anonymous": false,
      "inputs": [
        {
          "indexed": true,
          "internalType": "address",
          "name": "from",
          "type": "address"
        },
        {
          "indexed": true,
          "internalType": "address",
          "name": "to",
          "type": "address"
        },
        {
          "indexed": true,
          "internalType": "uint256",
          "name": "tokenId",
          "type": "uint256"
        }
      ],
      "name": "Transfer",
      "type": "event"
    },
    {
      "inputs": [
        {
          "internalType": "uint256",
          "name": "tokenId",
          "type": "uint256"
        },
        {
          "internalType": "string",
          "name": "content",
          "type": "string"
        }
      ],
      "name": "addComment",
      "outputs": [],
      "stateMutability": "nonpayable",
      "type": "function"
    },
    {
      "inputs": [
        {
          "internalType": "address",
          "name": "to",
          "type": "address"
        },
        {
          "internalType": "uint256",
          "name": "tokenId",
          "type": "uint256"
        }
      ],
      "name": "approve",
      "outputs": [],
      "stateMutability": "nonpayable",
      "type": "function"
    },
    {
      "inputs": [
        {
          "internalType": "address",
          "name": "owner",
          "type": "address"
        }
      ],
      "name": "balanceOf",
      "outputs": [
        {
          "internalType": "uint256",
          "name": "",
          "type": "uint256"
        }
      ],
      "stateMutability": "view",
      "type": "function"
    },
    {
      "inputs": [],
      "name": "buddyVerification",
      "outputs": [
        {
          "internalType": "contract IBuddyVerification",
          "name": "",
          "type": "address"
        }
      ],
      "stateMutability": "view",
      "type": "function"
    },
    {
      "inputs": [
        {
          "internalType": "uint256",
          "name": "",
          "type": "uint256"
        },
        {
          "internalType": "uint256",
          "name": "",
          "type": "uint256"
        }
      ],
      "name": "comments",
      "outputs": [
        {
          "internalType": "address",
          "name": "commenter",
          "type": "address"
        },
        {
          "internalType": "string",
          "name": "content",
          "type": "string"
        },
        {
          "internalType": "uint256",
          "name": "timestamp",
          "type": "uint256"
        },
        {
          "internalType": "bool",
          "name": "isDeleted",
          "type": "bool"
        }
      ],
      "stateMutability": "view",
      "type": "function"
    },
    {
      "inputs": [
        {
          "internalType": "string",
          "name": "content",
          "type": "string"
        },
        {
          "internalType": "string",
          "name": "imageURI",
          "type": "string"
        },
        {
          "internalType": "bool",
          "name": "isBuddyOnly",
          "type": "bool"
        },
        {
          "internalType": "string",
          "name": "category",
          "type": "string"
        },
        {
          "internalType": "string",
          "name": "metadataURI",
          "type": "string"
        }
      ],
      "name": "createPost",
      "outputs": [
        {
          "internalType": "uint256",
          "name": "",
          "type": "uint256"
        }
      ],
      "stateMutability": "nonpayable",
      "type": "function"
    },
    {
      "inputs": [
        {
          "internalType": "uint256",
          "name": "tokenId",
          "type": "uint256"
        },
        {
          "internalType": "uint256",
          "name": "commentIndex",
          "type": "uint256"
        }
      ],
      "name": "deleteComment",
      "outputs": [],
      "stateMutability": "nonpayable",
      "type": "function"
    },
    {
      "inputs": [
        {
          "internalType": "uint256",
          "name": "tokenId",
          "type": "uint256"
        }
      ],
      "name": "deletePost",
      "outputs": [],
      "stateMutability": "nonpayable",
      "type": "function"
    },
    {
      "inputs": [
        {
          "internalType": "uint256",
          "name": "tokenId",
          "type": "uint256"
        }
      ],
      "name": "getApproved",
      "outputs": [
        {
          "internalType": "address",
          "name": "",
          "type": "address"
        }
      ],
      "stateMutability": "view",
      "type": "function"
    },
    {
      "inputs": [
        {
          "internalType": "uint256",
          "name": "tokenId",
          "type": "uint256"
        }
      ],
      "name": "getPost",
      "outputs": [
        {
          "internalType": "string",
          "name": "content",
          "type": "string"
        },
        {
          "internalType": "string",
          "name": "imageURI",
          "type": "string"
        },
        {
          "internalType": "address",
          "name": "author",
          "type": "address"
        },
        {
          "internalType": "uint256",
          "name": "timestamp",
          "type": "uint256"
        },
        {
          "internalType": "uint256",
          "name": "likes",
          "type": "uint256"
        },
        {
          "internalType": "bool",
          "name": "isBuddyOnly",
          "type": "bool"
        },
        {
          "internalType": "string",
          "name": "category",
          "type": "string"
        },
        {
          "internalType": "uint256",
          "name": "commentCount",
          "type": "uint256"
        }
      ],
      "stateMutability": "view",
      "type": "function"
    },
    {
      "inputs": [
        {
          "internalType": "uint256",
          "name": "tokenId",
          "type": "uint256"
        }
      ],
      "name": "getPostComments",
      "outputs": [
        {
          "components": [
            {
              "internalType": "address",
              "name": "commenter",
              "type": "address"
            },
            {
              "internalType": "string",
              "name": "content",
              "type": "string"
            },
            {
              "internalType": "uint256",
              "name": "timestamp",
              "type": "uint256"
            },
            {
              "internalType": "bool",
              "name": "isDeleted",
              "type": "bool"
            }
          ],
          "internalType": "struct Comment[]",
          "name": "",
          "type": "tuple[]"
        }
      ],
      "stateMutability": "view",
      "type": "function"
    },
    {
      "inputs": [
        {
          "internalType": "uint256",
          "name": "tokenId",
          "type": "uint256"
        },
        {
          "internalType": "address",
          "name": "user",
          "type": "address"
        }
      ],
      "name": "getUserComments",
      "outputs": [
        {
          "internalType": "uint256[]",
          "name": "",
          "type": "uint256[]"
        }
      ],
      "stateMutability": "view",
      "type": "function"
    },
    {
      "inputs": [
        {
          "internalType": "address",
          "name": "user",
          "type": "address"
        }
      ],
      "name": "getUserPosts",
      "outputs": [
        {
          "internalType": "uint256[]",
          "name": "",
          "type": "uint256[]"
        }
      ],
      "stateMutability": "view",
      "type": "function"
    },
    {
      "inputs": [
        {
          "internalType": "address",
          "name": "owner",
          "type": "address"
        },
        {
          "internalType": "address",
          "name": "operator",
          "type": "address"
        }
      ],
      "name": "isApprovedForAll",
      "outputs": [
        {
          "internalType": "bool",
          "name": "",
          "type": "bool"
        }
      ],
      "stateMutability": "view",
      "type": "function"
    },
    {
      "inputs": [
        {
          "internalType": "uint256",
          "name": "tokenId",
          "type": "uint256"
        }
      ],
      "name": "likePost",
      "outputs": [],
      "stateMutability": "nonpayable",
      "type": "function"
    },
    {
      "inputs": [],
      "name": "name",
      "outputs": [
        {
          "internalType": "string",
          "name": "",
          "type": "string"
        }
      ],
      "stateMutability": "view",
      "type": "function"
    },
    {
      "inputs": [],
      "name": "owner",
      "outputs": [
        {
          "internalType": "address",
          "name": "",
          "type": "address"
        }
      ],
      "stateMutability": "view",
      "type": "function"
    },
    {
      "inputs": [
        {
          "internalType": "uint256",
          "name": "tokenId",
          "type": "uint256"
        }
      ],
      "name": "ownerOf",
      "outputs": [
        {
          "internalType": "address",
          "name": "",
          "type": "address"
        }
      ],
      "stateMutability": "view",
      "type": "function"
    },
    {
      "inputs": [
        {
          "internalType": "uint256",
          "name": "",
          "type": "uint256"
        },
        {
          "internalType": "address",
          "name": "",
          "type": "address"
        }
      ],
      "name": "postLikes",
      "outputs": [
        {
          "internalType": "bool",
          "name": "",
          "type": "bool"
        }
      ],
      "stateMutability": "view",
      "type": "function"
    },
    {
      "inputs": [
        {
          "internalType": "uint256",
          "name": "",
          "type": "uint256"
        }
      ],
      "name": "posts",
      "outputs": [
        {
          "internalType": "string",
          "name": "content",
          "type": "string"
        },
        {
          "internalType": "string",
          "name": "imageURI",
          "type": "string"
        },
        {
          "internalType": "address",
          "name": "author",
          "type": "address"
        },
        {
          "internalType": "uint256",
          "name": "timestamp",
          "type": "uint256"
        },
        {
          "internalType": "uint256",
          "name": "likes",
          "type": "uint256"
        },
        {
          "internalType": "bool",
          "name": "isBuddyOnly",
          "type": "bool"
        },
        {
          "internalType": "bool",
          "name": "isDeleted",
          "type": "bool"
        },
        {
          "internalType": "string",
          "name": "category",
          "type": "string"
        },
        {
          "internalType": "uint256",
          "name": "commentCount",
          "type": "uint256"
        }
      ],
      "stateMutability": "view",
      "type": "function"
    },
    {
      "inputs": [],
      "name": "renounceOwnership",
      "outputs": [],
      "stateMutability": "nonpayable",
      "type": "function"
    },
    {
      "inputs": [
        {
          "internalType": "address",
          "name": "from",
          "type": "address"
        },
        {
          "internalType": "address",
          "name": "to",
          "type": "address"
        },
        {
          "internalType": "uint256",
          "name": "tokenId",
          "type": "uint256"
        }
      ],
      "name": "safeTransferFrom",
      "outputs": [],
      "stateMutability": "nonpayable",
      "type": "function"
    },
    {
      "inputs": [
        {
          "internalType": "address",
          "name": "from",
          "type": "address"
        },
        {
          "internalType": "address",
          "name": "to",
          "type": "address"
        },
        {
          "internalType": "uint256",
          "name": "tokenId",
          "type": "uint256"
        },
        {
          "internalType": "bytes",
          "name": "data",
          "type": "bytes"
        }
      ],
      "name": "safeTransferFrom",
      "outputs": [],
      "stateMutability": "nonpayable",
      "type": "function"
    },
    {
      "inputs": [
        {
          "internalType": "address",
          "name": "operator",
          "type": "address"
        },
        {
          "internalType": "bool",
          "name": "approved",
          "type": "bool"
        }
      ],
      "name": "setApprovalForAll",
      "outputs": [],
      "stateMutability": "nonpayable",
      "type": "function"
    },
    {
      "inputs": [
        {
          "internalType": "address",
          "name": "_buddyVerification",
          "type": "address"
        }
      ],
      "name": "setBuddyVerification",
      "outputs": [],
      "stateMutability": "nonpayable",
      "type": "function"
    },
    {
      "inputs": [
        {
          "internalType": "bytes4",
          "name": "interfaceId",
          "type": "bytes4"
        }
      ],
      "name": "supportsInterface",
      "outputs": [
        {
          "internalType": "bool",
          "name": "",
          "type": "bool"
        }
      ],
      "stateMutability": "view",
      "type": "function"
    },
    {
      "inputs": [],
      "name": "symbol",
      "outputs": [
        {
          "internalType": "string",
          "name": "",
          "type": "string"
        }
      ],
      "stateMutability": "view",
      "type": "function"
    },
    {
      "inputs": [
        {
          "internalType": "uint256",
          "name": "tokenId",
          "type": "uint256"
        }
      ],
      "name": "tokenURI",
      "outputs": [
        {
          "internalType": "string",
          "name": "",
          "type": "string"
        }
      ],
      "stateMutability": "view",
      "type": "function"
    },
    {
      "inputs": [
        {
          "internalType": "address",
          "name": "from",
          "type": "address"
        },
        {
          "internalType": "address",
          "name": "to",
          "type": "address"
        },
        {
          "internalType": "uint256",
          "name": "tokenId",
          "type": "uint256"
        }
      ],
      "name": "transferFrom",
      "outputs": [],
      "stateMutability": "nonpayable",
      "type": "function"
    },
    {
      "inputs": [
        {
          "internalType": "address",
          "name": "newOwner",
          "type": "address"
        }
      ],
      "name": "transferOwnership",
      "outputs": [],
      "stateMutability": "nonpayable",
      "type": "function"
    },
    {
      "inputs": [
        {
          "internalType": "uint256",
          "name": "tokenId",
          "type": "uint256"
        }
      ],
      "name": "unlikePost",
      "outputs": [],
      "stateMutability": "nonpayable",
      "type": "function"
    },
    {
      "inputs": [
        {
          "internalType": "uint256",
          "name": "tokenId",
          "type": "uint256"
        },
        {
          "internalType": "uint256",
          "name": "commentIndex",
          "type": "uint256"
        },
        {
          "internalType": "string",
          "name": "newContent",
          "type": "string"
        }
      ],
      "name": "updateComment",
      "outputs": [],
      "stateMutability": "nonpayable",
      "type": "function"
    },
    {
      "inputs": [
        {
          "internalType": "uint256",
          "name": "tokenId",
          "type": "uint256"
        },
        {
          "internalType": "string",
          "name": "content",
          "type": "string"
        },
        {
          "internalType": "string",
          "name": "imageURI",
          "type": "string"
        },
        {
          "internalType": "string",
          "name": "metadataURI",
          "type": "string"
        }
      ],
      "name": "updatePost",
      "outputs": [],
      "stateMutability": "nonpayable",
      "type": "function"
    },
    {
      "inputs": [
        {
          "internalType": "uint256",
          "name": "",
          "type": "uint256"
        },
        {
          "internalType": "address",
          "name": "",
          "type": "address"
        },
        {
          "internalType": "uint256",
          "name": "",
          "type": "uint256"
        }
      ],
      "name": "userCommentIndexes",
      "outputs": [
        {
          "internalType": "uint256",
          "name": "",
          "type": "uint256"
        }
      ],
      "stateMutability": "view",
      "type": "function"
    },
    {
      "inputs": [
        {
          "internalType": "address",
          "name": "",
          "type": "address"
        }
      ],
      "name": "userPostCount",
      "outputs": [
        {
          "internalType": "uint256",
          "name": "",
          "type": "uint256"
        }
      ],
      "stateMutability": "view",
      "type": "function"
    },
    {
      "inputs": [
        {
          "internalType": "address",
          "name": "",
          "type": "address"
        },
        {
          "internalType": "uint256",
          "name": "",
          "type": "uint256"
        }
      ],
      "name": "userPosts",
      "outputs": [
        {
          "internalType": "uint256",
          "name": "",
          "type": "uint256"
        }
      ],
      "stateMutability": "view",
      "type": "function"
    }
  ],
  "bytecode": "0x608034620003c6576001600160401b0390601f1990601f90620034c7388190038381018516830186811184821017620003b057839282916040528339602092839181010312620003c657516001600160a01b038082169590939091869003620003c6576200006c620003cb565b92601284527113595b9d185b081219585b1d1a08141bdcdd60721b8185015262000095620003cb565b90600382526204d48560ec1b81830152845196848811620003b0576000978854966001978881811c91168015620003a5575b8582101462000391579081878493116200033e575b508490878311600114620002dd578b92620002d1575b5050600019600383901b1c191690871b1788555b8251948511620002bd5785548681811c91168015620002b2575b838210146200029e5790818587969594931162000245575b5081938511600114620001e05750508692620001d4575b5050600019600383901b1c191690821b1781555b60075460018060a01b03199333858316176007557f8be0079c531659141344cd1fd0a4f28419497f9722a3daafe3b4186f6b6457e0604051943393169180a36008558215620001c5575060105416176010556040516130db9081620003ec8239f35b63e6c4247b60e01b8152600490fd5b0151905038806200014f565b869593929193168589528389209389905b8282106200022b575050841162000211575b505050811b01815562000163565b015160001960f88460031b161c1916905538808062000203565b8484015186558897909501949384019390810190620001f1565b9091929394508689528289208580880160051c82019285891062000294575b9188978a9297969594930160051c01915b8281106200028557505062000138565b8b815588975089910162000275565b9250819262000264565b634e487b7160e01b89526022600452602489fd5b90607f169062000120565b634e487b7160e01b88526041600452602488fd5b015190503880620000f2565b90848a9416918c8052868d20928d5b888282106200032757505084116200030d575b505050811b01885562000106565b015160001960f88460031b161c19169055388080620002ff565b8385015186558d97909501949384019301620002ec565b9091508a8052848b208780850160051c82019287861062000387575b918b91869594930160051c01915b82811062000378575050620000dc565b8d81558594508b910162000368565b925081926200035a565b634e487b7160e01b8b52602260045260248bfd5b90607f1690620000c7565b634e487b7160e01b600052604160045260246000fd5b600080fd5b60408051919082016001600160401b03811183821017620003b05760405256fe608080604052600436101561001357600080fd5b60003560e01c90816301ffc9a7146123ce5750806306fdde031461232b578063081812fc1461230d578063094cd5ee1461225a578063095ea7b3146120e05780630b1e7f831461200d578063121253e714611db357806312f27be614611d2c57806323b872dd14611d085780632f2ac27f14611cb257806331a4bcb514611bbb57806340731c2414611a7f57806342842e0e14611a4c578063435ad13f14611a235780634834ddbd146119e057806360cd13ea146119a65780636352211e1461197657806370a08231146118df578063715018a614611882578063725009d3146117985780638064d149146117405780638da5cb5b1461171757806395d89b41146116385780639a2194a9146115b4578063a22cb465146114d9578063aa7e568314611169578063b88d4fde146110e7578063c87b56dd14611071578063ca1f0cad14611024578063cc05adb014610cb9578063ceb13c2c146105d5578063d524ff7614610458578063e985e9c514610402578063f2fde38b1461033e578063fa188de9146102325763fc6c776f146101ab57600080fd5b3461022d576101b936612720565b90600052600c602052604060002090815481101561022d576101da91612736565b5080546001600160a01b03166101f26001830161256c565b9160ff600360028301549201541661021c6040519485948552608060208601526080850190612453565b916040840152151560608301520390f35b600080fd5b3461022d5760208060031936011261022d576004356000818152600260205260409020549091906001600160a01b03161561032c5781600052600a815260ff60056040600020015460081c1661031a5781600052600b8152604060002033600052815260ff604060002054161561030857600a9082600052600b81526040600020336000528152604060002060ff198154169055826000525260046040600020016102dd8154612de4565b905533907f82092d1196022c48d901e5dc4b17451dbce942b8a9ded42fc6f2a4a5e8fd89b9600080a3005b604051635024179d60e01b8152600490fd5b604051634b4845bf60e01b8152600490fd5b60405163091e12db60e21b8152600490fd5b3461022d57602036600319011261022d57610357612493565b61035f612752565b6001600160a01b039081169081156103ae57600754826001600160601b0360a01b821617600755167f8be0079c531659141344cd1fd0a4f28419497f9722a3daafe3b4186f6b6457e0600080a3005b60405162461bcd60e51b815260206004820152602660248201527f4f776e61626c653a206e6577206f776e657220697320746865207a65726f206160448201526564647265737360d01b6064820152608490fd5b3461022d57604036600319011261022d5761041b612493565b6104236124a9565b9060018060a01b03809116600052600560205260406000209116600052602052602060ff604060002054166040519015158152f35b3461022d5760208060031936011261022d576004356000818152600260205260409020546001600160a01b03161561032c57600052600c815260406000208054906001600160401b0382116105bf578290604051926104bc838260051b018561254b565b8084528284018092600052836000206000915b8383106105665750505050604051918083019381845251809452604083019360408160051b85010192916000955b82871061050a5785850386f35b909192938280600192603f19898203018552875190848060a01b0382511681526105408383015160808086850152830190612453565b9160408101516040830152606080910151151591015296019201960195929190926104fd565b60048660019260409998995161057b81612515565b848060a01b03865416815261059185870161256c565b838201526002860154604082015260ff600387015416151560608201528152019201920191909594956104cf565b634e487b7160e01b600052604160045260246000fd5b3461022d5760a036600319011261022d576004356001600160401b03811161022d57610605903690600401612664565b6024356001600160401b03811161022d57610624903690600401612664565b6044359182151580930361022d576064356001600160401b03811161022d57610651903690600401612664565b906084356001600160401b03811161022d57610671903690600401612664565b93600260085414610c74576002600855815115610c6257610693600954612b49565b9384600955604051926106a5846124f9565b835260208301523360408301524260608301526000608083015260a0820152600060c08201528160e0820152600061010082015282600052600a60205260406000209080518051906001600160401b0382116105bf57819061070785546124bf565b601f8111610c12575b50602090601f8311600114610bac57600092610ba1575b50508160011b916000199060031b1c19161782555b60208101518051906001600160401b0382116105bf57819061076160018601546124bf565b601f8111610b4e575b50602090601f8311600114610adc57600092610ad1575b50508160011b916000199060031b1c19161760018301555b6002820160018060a01b036040830151166001600160601b0360a01b8254161790556060810151600383015560808101516004830155600582016107ef60a08301511515829060ff801983541691151516179055565b60c0820151815461ff00191690151560081b61ff001617905560e08101518051906001600160401b0382116105bf5761082b60068501546124bf565b601f8111610a8a575b50602090601f8311600114610a145791806007949261010094600092610a09575b50508160011b916000199060031b1c19161760068501555b015191015533600052600e602052610889826040600020612b6e565b33600052600f60205260406000206108a18154612b49565b90556040516108af81612530565b6000815233156109c55760209361097861097361097e936108ee6108e888600052600260205260018060a01b0360406000205416151590565b15612baa565b600087815260026020526040902054610911906001600160a01b031615156108e8565b336000526003885260406000206001815401905586600052600288526040600020336001600160601b0360a01b825416179055863360007fddf252ad1be2c89b69c2b068fc378daa952ba7f163c4a11628f55a4df523b3ef8180a4863361299e565b61290c565b83612bf6565b817f8e40a51278abe2f4b410c0a96ff0bdd024b22666ca334062bf72afd596984bd6604051858152806109b5339588830190612453565b0390a36001600855604051908152f35b606460405162461bcd60e51b815260206004820152602060248201527f4552433732313a206d696e7420746f20746865207a65726f20616464726573736044820152fd5b015190508980610855565b906006850160005260206000209160005b601f1985168110610a72575092600794926001926101009583601f19811610610a59575b505050811b01600685015561086d565b015160001960f88460031b161c19169055898080610a49565b91926020600181928685015181550194019201610a25565b600685016000526020600020601f840160051c810160208510610aca575b601f830160051c82018110610abe575050610834565b60008155600101610aa8565b5080610aa8565b015190508780610781565b9250600185016000526020600020906000935b601f1984168510610b33576001945083601f19811610610b1a575b505050811b016001830155610799565b015160001960f88460031b161c19169055878080610b0a565b81810151835560209485019460019093019290910190610aef565b909150600185016000526020600020601f840160051c810160208510610b9a575b90849392915b601f830160051c82018110610b8b57505061076a565b60008155859450600101610b75565b5080610b6f565b015190508780610727565b6000868152602081209350601f198516905b818110610bfa5750908460019594939210610be1575b505050811b01825561073c565b015160001960f88460031b161c19169055878080610bd4565b92936020600181928786015181550195019301610bbe565b909150846000526020600020601f840160051c810160208510610c5b575b90849392915b601f830160051c82018110610c4c575050610710565b60008155859450600101610c36565b5080610c30565b604051633459b81b60e11b8152600490fd5b60405162461bcd60e51b815260206004820152601f60248201527f5265656e7472616e637947756172643a207265656e7472616e742063616c6c006044820152606490fd5b3461022d57608036600319011261022d576004356001600160401b0360243581811161022d57610ced903690600401612664565b9060443581811161022d57610d06903690600401612664565b60643582811161022d57610d1e903690600401612664565b6000858152600260205260409020546001600160a01b03161561032c5784600052602092600a845260ff60056040600020015460081c1661031a576000868152600a855260409020600201546001600160a01b0316330361101257845115610c625785600052600a84526040600020908551918183116105bf57610da281546124bf565b92601f93848111610fcf575b508087858211600114610f6b57600091610f60575b508160011b916000199060031b1c19161781555b60018091019285519283116105bf57610df084546124bf565b818111610f1a575b5086908311600114610e885793610e6b969383807ffcc96ab7382d1c4bc7fd817ee5ec518a9bae200bb3d1396c725178b00a2488b49a9895610e5795610e7899600093610e7d575b501b916000199060031b1c19161790555b88612bf6565b604051948594604086526040860190612453565b9184830390850152612453565b0390a2005b88015192508e610e40565b601f9291921982169084600052876000209160005b818110610f0557509383610e789793610e6b9a9793610e57967ffcc96ab7382d1c4bc7fd817ee5ec518a9bae200bb3d1396c725178b00a2488b49d9b9810610eec575b5050811b019055610e51565b87015160001960f88460031b161c191690558c80610ee0565b88830151845592850192918901918901610e9d565b84600052876000208280860160051c8201928a8710610f57575b0160051c019083905b828110610f4b575050610df8565b60008155018390610f3d565b92508192610f34565b90508801518a610dc3565b60008481528981209250601f198416905b8a8c838310610fba575050509083600194939210610fa1575b5050811b018155610dd7565b8a015160001960f88460031b161c191690558a80610f95565b84015185556001909401939283019201610f7c565b82600052876000208580840160051c8201928a8510611009575b0160051c01905b818110610ffd5750610dae565b60008155600101610ff0565b92508192610fe9565b604051631a27eac360e11b8152600490fd5b3461022d57604036600319011261022d5761103d6124a9565b600435600052600b60205260406000209060018060a01b0316600052602052602060ff604060002054166040519015158152f35b3461022d57602036600319011261022d576004356000818152600260205260409020546110a8906001600160a01b031615156127aa565b60005260066020526110e36110c0604060002061256c565b60006040516110ce81612530565b52604051918291602083526020830190612453565b0390f35b3461022d57608036600319011261022d57611100612493565b6111086124a9565b90606435906044356001600160401b03831161022d573660238401121561022d576111679361114461097394369060248160040135910161262d565b926111576111528433612930565b612857565b611162838383612df1565b612abe565b005b3461022d57604036600319011261022d576001600160401b0360043560243582811161022d5761119d903690600401612664565b6000828152600260205260409020546001600160a01b03161561032c5781600052602090600a825260ff60056040600020015460081c1661031a5782600052600a825260406000209060ff60058301541680611455575b61144357805115610c625783600052600c835260406000208054956040519261121c84612515565b3384528584019081526040840191428352606085019360008552600160401b8a10156105bf576112538a6001928382018155612736565b96909661142d5760018060a01b039051166001600160601b0360a01b875416178655808601925180519283116105bf5761128d84546124bf565b601f81116113e4575b508890601f8411600114611351579383806003957f6db8224f097dc6c6ae63ca3ddbf1f10ba57f39d6f23ebbfaae4730bd64eb5b259c9b999561130d999560079c99600094611346575b50501b9160001990871b1c19161790555b51600284015551151591019060ff801983541691151516179055565b84600052600d8352604060002033600052835261132e866040600020612b6e565b016113398154612b49565b90556040519384523393a3005b0151925038806112e0565b90601f93929319831691856000528a6000209260005b8181106113cf57509361130d979360079a979360039793837f6db8224f097dc6c6ae63ca3ddbf1f10ba57f39d6f23ebbfaae4730bd64eb5b259f9e9c98106113b7575b505050811b0190556112f1565b015160001983891b60f8161c191690558e80806113aa565b82840151855593860193928c01928c01611367565b8460005289600020601f850160051c8101918b8610611423575b601f0160051c019083905b828110611417575050611296565b60008155018390611409565b90915081906113fe565b634e487b7160e01b600052600060045260246000fd5b604051633af8b6a160e21b8152600490fd5b506010546040516353ea3d7560e01b8152336004820152908490829060249082906001600160a01b03165afa9081156114cd57600091611497575b50156111f4565b90508381813d83116114c6575b6114ae818361254b565b8101031261022d5751801515810361022d5786611490565b503d6114a4565b6040513d6000823e3d90fd5b3461022d57604036600319011261022d576114f2612493565b602435908115159081830361022d576001600160a01b03169133831461156f576115419033600052600560205260406000208460005260205260406000209060ff801983541691151516179055565b6040519081527f17307eab39ab6107e8899845ad3d59bd9653f200f220920489ca2b5937696c3160203392a3005b60405162461bcd60e51b815260206004820152601960248201527f4552433732313a20617070726f766520746f2063616c6c6572000000000000006044820152606490fd5b3461022d5760208060031936011261022d576001600160a01b036115d6612493565b16600052600e8152604060002090604051908181845491828152019360005281600020916000905b828210611621576110e3856116158189038261254b565b60405191829182612682565b8354865294850194600193840193909101906115fe565b3461022d57600036600319011261022d576040516000600180549061165c826124bf565b808552918181169081156116f05750600114611697575b6110e3846116838186038261254b565b604051918291602083526020830190612453565b600081815292507fb10e2d527612073b26eecdfd717e6a320cf44b4afac2b0732d9fcbe2b7fa0cf65b8284106116d857505050810160200161168382611673565b805460208587018101919091529093019281016116c0565b60ff191660208087019190915292151560051b850190920192506116839150839050611673565b3461022d57600036600319011261022d576007546040516001600160a01b039091168152602090f35b3461022d57604036600319011261022d57611759612493565b6001600160a01b03166000908152600e602052604090208054602435919082101561022d5760209161178a916126f2565b90546040519160031b1c8152f35b3461022d5760208060031936011261022d576004356000818152600260205260409020549091906001600160a01b03161561032c5781600052600a815260ff60056040600020015460081c1661031a5781600052600b8152604060002033600052815260ff6040600020541661187057600a9082600052600b815260406000203360005281526040600020600160ff19825416179055826000525260046040600020016118458154612b49565b905533907fcf765d6f163c9b0d832e2a94f4c8e9bffd32a2c3ca5fdbb8cc67b5fe1441f413600080a3005b6040516348abc35960e11b8152600490fd5b3461022d57600036600319011261022d5761189b612752565b600780546001600160a01b031981169091556000906001600160a01b03167f8be0079c531659141344cd1fd0a4f28419497f9722a3daafe3b4186f6b6457e08280a3005b3461022d57602036600319011261022d576001600160a01b03611900612493565b16801561191f5760005260036020526020604060002054604051908152f35b60405162461bcd60e51b815260206004820152602960248201527f4552433732313a2061646472657373207a65726f206973206e6f7420612076616044820152683634b21037bbb732b960b91b6064820152608490fd5b3461022d57602036600319011261022d5760206119946004356127f6565b6040516001600160a01b039091168152f35b3461022d57602036600319011261022d576001600160a01b036119c7612493565b16600052600f6020526020604060002054604051908152f35b3461022d57602036600319011261022d576119f9612493565b611a01612752565b601080546001600160a01b0319166001600160a01b0392909216919091179055005b3461022d57600036600319011261022d576010546040516001600160a01b039091168152602090f35b3461022d57611167610973611a60366126bd565b9060405192611a6e84612530565b600084526111576111528433612930565b3461022d57602036600319011261022d576004356000818152600260205260409020546001600160a01b03161561032c57600052600a6020526040600020604051611ac9816124f9565b611ad28261256c565b8152611ae06001830161256c565b9160208201928352611bb160018060a01b03918260028201541690604085019182526003810154916060860192835260048201546080870190815260058301549060ff60a08901928181161515845260081c16151560c0890152611b8f6007611b4b6006870161256c565b958660e08c015201549761010099898b820152519a51945116955191519251151593611b816040519b8b8d9c8d528c0190612453565b908a820360208c0152612453565b9460408901526060880152608087015260a086015284820360c0860152612453565b9060e08301520390f35b3461022d57611bc936612720565b6000828152600260205260409020546001600160a01b03161561032c57816000526020600c81526040600020548210156110125782600052600c8152611c13826040600020612736565b50546001600160a01b031633036110125782600052600c815260ff6003611c3e846040600020612736565b5001541661031a577fc6b2d4e6419b51b39d2ad53d5a6a61d41ce28ebe9867877d8c3a95a0602614f39183600052600c82526003611c80826040600020612736565b5001600160ff1982541617905583600052600a82526007604060002001611ca78154612de4565b9055604051908152a2005b3461022d57606036600319011261022d57611ccb6124a9565b60443590600435600052600d60205260406000209060018060a01b03166000526020526040600020805482101561022d5760209161178a916126f2565b3461022d57611167611d19366126bd565b91611d276111528433612930565b612df1565b3461022d57604036600319011261022d57611d456124a9565b600435600052602090600d825260406000209060018060a01b03166000528152604060002090604051908181845491828152019360005281600020916000905b828210611d9c576110e3856116158189038261254b565b835486529485019460019384019390910190611d85565b3461022d57606036600319011261022d576024356004356001600160401b0360443581811161022d57611dea903690600401612664565b6000838152600260205260409020549093906001600160a01b03161561032c5782600052602091600a835260ff60056040600020015460081c1661031a5783600052600c83526040600020548210156110125783600052600c8352611e53826040600020612736565b50546001600160a01b031633036110125783600052600c835260ff6003611e7e846040600020612736565b5001541661031a57845115610c625783600052600c8352611ea3826040600020612736565b509060018092019186519182116105bf57611ebe83546124bf565b601f8111611fc4575b5084601f8311600114611f3a57918080610e7895937f1778554700248c3c6347292cab7592a8e316075236a03dfc85b859e4ca6131c7999a95600093611f2f575b501b916000199060031b1c19161790555b6040805194859485528401526040830190612453565b86015192508b611f08565b601f9291921982169084600052866000209160005b818110611faf5750918391610e7896947f1778554700248c3c6347292cab7592a8e316075236a03dfc85b859e4ca6131c79a9b969410611f96575b5050811b019055611f19565b85015160001960f88460031b161c191690558980611f8a565b8a830151845592850192918801918801611f4f565b8360005285600020601f840160051c810191878510612003575b601f0160051c019082905b828110611ff7575050611ec7565b60008155018290611fe9565b9091508190611fde565b3461022d57602036600319011261022d57600435600052600a602052612095604060002061203a8161256c565b906120d561204a6001830161256c565b9160018060a01b036002820154169060ff600382015460048301546005840154916120a3600761207c6006880161256c565b960154986040519b8c9b8c6101208091528d0190612453565b908b820360208d0152612453565b9560408a015260608901526080880152818116151560a088015260081c16151560c086015284820360e0860152612453565b906101008301520390f35b3461022d57604036600319011261022d576120f9612493565b602435906001600160a01b038080612110856127f6565b1692169180831461220b578033149081156121e6575b501561217b57600083815260046020526040902080546001600160a01b03191683179055612153836127f6565b167f8c5be1e5ebec7d5bd14f71427d1e84f3dd0314c0f7b2291e5b200ac8c7c3b925600080a4005b60405162461bcd60e51b815260206004820152603d60248201527f4552433732313a20617070726f76652063616c6c6572206973206e6f7420746f60448201527f6b656e206f776e6572206f7220617070726f76656420666f7220616c6c0000006064820152608490fd5b9050600052600560205260406000203360005260205260ff6040600020541684612126565b60405162461bcd60e51b815260206004820152602160248201527f4552433732313a20617070726f76616c20746f2063757272656e74206f776e656044820152603960f91b6064820152608490fd5b3461022d57602036600319011261022d576004356000818152600260205260409020546001600160a01b03161561032c5780600052600a60205260ff60056040600020015460081c1661031a576000818152600a60205260409020600201546001600160a01b031633036110125780600052600a602052600560406000200161010061ff00198254161790557f32d67e2131cd025eb20e7256680e338dedbe17b28943a11681860a9271ad119d600080a2005b3461022d57602036600319011261022d576020611994600435612819565b3461022d57600036600319011261022d576040516000805461234c816124bf565b808452906001908181169081156116f05750600114612375576110e3846116838186038261254b565b600080805292507f290decd9548b62a8d60345a988386fc84ba6bc95484008f6362f93160ef3e5635b8284106123b657505050810160200161168382611673565b8054602085870181019190915290930192810161239e565b3461022d57602036600319011261022d576004359063ffffffff60e01b821680920361022d57602091632483248360e11b8114908115612410575b5015158152f35b6380ac58cd60e01b811491508115612442575b8115612431575b5083612409565b6301ffc9a760e01b1490508361242a565b635b5e139f60e01b81149150612423565b919082519283825260005b84811061247f575050826000602080949584010152601f8019910116010190565b60208183018101518483018201520161245e565b600435906001600160a01b038216820361022d57565b602435906001600160a01b038216820361022d57565b90600182811c921680156124ef575b60208310146124d957565b634e487b7160e01b600052602260045260246000fd5b91607f16916124ce565b61012081019081106001600160401b038211176105bf57604052565b608081019081106001600160401b038211176105bf57604052565b602081019081106001600160401b038211176105bf57604052565b90601f801991011681019081106001600160401b038211176105bf57604052565b9060405191826000825492612580846124bf565b9081845260019485811690816000146125ef57506001146125ac575b50506125aa9250038361254b565b565b9093915060005260209081600020936000915b8183106125d75750506125aa9350820101388061259c565b855488840185015294850194879450918301916125bf565b9150506125aa94506020925060ff191682840152151560051b820101388061259c565b6001600160401b0381116105bf57601f01601f191660200190565b92919261263982612612565b91612647604051938461254b565b82948184528183011161022d578281602093846000960137010152565b9080601f8301121561022d5781602061267f9335910161262d565b90565b6020908160408183019282815285518094520193019160005b8281106126a9575050505090565b83518552938101939281019260010161269b565b606090600319011261022d576001600160a01b0390600435828116810361022d5791602435908116810361022d579060443590565b805482101561270a5760005260206000200190600090565b634e487b7160e01b600052603260045260246000fd5b604090600319011261022d576004359060243590565b805482101561270a5760005260206000209060021b0190600090565b6007546001600160a01b0316330361276657565b606460405162461bcd60e51b815260206004820152602060248201527f4f776e61626c653a2063616c6c6572206973206e6f7420746865206f776e65726044820152fd5b156127b157565b60405162461bcd60e51b815260206004820152601860248201527f4552433732313a20696e76616c696420746f6b656e20494400000000000000006044820152606490fd5b6000908152600260205260409020546001600160a01b031661267f8115156127aa565b60008181526002602052604090205461283c906001600160a01b031615156127aa565b6000908152600460205260409020546001600160a01b031690565b1561285e57565b60405162461bcd60e51b815260206004820152602d60248201527f4552433732313a2063616c6c6572206973206e6f7420746f6b656e206f776e6560448201526c1c881bdc88185c1c1c9bdd9959609a1b6064820152608490fd5b60809060208152603260208201527f4552433732313a207472616e7366657220746f206e6f6e20455243373231526560408201527131b2b4bb32b91034b6b83632b6b2b73a32b960711b60608201520190565b1561291357565b60405162461bcd60e51b81528061292c600482016128b9565b0390fd5b906001600160a01b038080612944846127f6565b16931691838314938415612977575b508315612961575b50505090565b61296d91929350612819565b161438808061295b565b909350600052600560205260406000208260005260205260ff604060002054169238612953565b9192600092909190803b15612ab4576129ec946040518092630a85bd0160e11b9485835233600484015287602484015260448301526080606483015281878160209a8b966084830190612453565b03926001600160a01b03165af1849181612a70575b50612a5f575050503d600014612a57573d612a1b81612612565b90612a29604051928361254b565b81528091833d92013e5b80519182612a545760405162461bcd60e51b81528061292c600482016128b9565b01fd5b506060612a33565b6001600160e01b0319161492509050565b9091508581813d8311612aad575b612a88818361254b565b81010312612aa957516001600160e01b031981168103612aa9579038612a01565b8480fd5b503d612a7e565b5050915050600190565b9293600093909291803b15612b3e57948491612b189660405180948193630a85bd0160e11b9788845233600485015260018060a01b0380921660248501526044840152608060648401528260209b8c976084830190612453565b0393165af1849181612a705750612a5f575050503d600014612a57573d612a1b81612612565b505050915050600190565b6000198114612b585760010190565b634e487b7160e01b600052601160045260246000fd5b90815491600160401b8310156105bf5782612b919160016125aa950181556126f2565b90919082549060031b91821b91600019901b1916179055565b15612bb157565b60405162461bcd60e51b815260206004820152601c60248201527f4552433732313a20746f6b656e20616c7265616479206d696e746564000000006044820152606490fd5b6000818152600260205260409020549192916001600160a01b031615612d88576000908082526020916006835260408120908551906001600160401b038211612d7457612c4383546124bf565b601f8111612d31575b508490601f8311600114612cad57907ff8e1a15aba9398e019f0b49df1a4fde98ee17ae345cb5f6b5e2c27f5033e8ce7969783612ca2575b50508160011b916000199060031b1c19161790555b604051908152a1565b015190503880612c84565b9196601f198816848452868420935b818110612d1a57509160019391897ff8e1a15aba9398e019f0b49df1a4fde98ee17ae345cb5f6b5e2c27f5033e8ce7999a9410612d01575b505050811b019055612c99565b015160001960f88460031b161c19169055388080612cf4565b929387600181928786015181550195019301612cbc565b838252858220601f840160051c810191878510612d6a575b601f0160051c01905b818110612d5f5750612c4c565b828155600101612d52565b9091508190612d49565b634e487b7160e01b81526041600452602490fd5b60405162461bcd60e51b815260206004820152602e60248201527f45524337323155524953746f726167653a2055524920736574206f66206e6f6e60448201526d32bc34b9ba32b73a103a37b5b2b760911b6064820152608490fd5b8015612b58576000190190565b90612e1b939291612e01836127f6565b6001600160a01b0395918616928692909183168414613074565b169384156130235781612e3891612e31856127f6565b1614613074565b600090828252600494602091868352604094858520976001600160601b0360a01b98898154169055828652600398898652878720996000199a8b8154019055858852888820916001928381540190558489526002885289892087828254161790558487877fddf252ad1be2c89b69c2b068fc378daa952ba7f163c4a11628f55a4df523b3ef8c80a4600a885289892060ff600582015460081c1615612ee7575b50505050505050505050509050565b600201805490911687179055848852600e87528888208689528989209b89845b612f56575b505050505050612f2190600f95969798612b6e565b8452828252848420612f338154612de4565b905583525220612f438154612b49565b9055803880808080808080808080612ed8565b82548082101561301d5787612f6b83866126f2565b905490871b1c14612f865750612f8090612b49565b84612f07565b90918093949550819e969e019081116130095790612b91612faa612fb793866126f2565b905490871b1c91856126f2565b81548015612ff657600f999a9b9c509080612f2196959493920192612fdc84846126f2565b81939154921b1b1916905555989796958192388080612f0c565b634e487b7160e01b8a5260318d5260248afd5b50634e487b7160e01b8a5260118d5260248afd5b50612f0c565b60405162461bcd60e51b8152602060048201526024808201527f4552433732313a207472616e7366657220746f20746865207a65726f206164646044820152637265737360e01b6064820152608490fd5b1561307b57565b60405162461bcd60e51b815260206004820152602560248201527f4552433732313a207472616e736665722066726f6d20696e636f72726563742060448201526437bbb732b960d91b6064820152608490fdfea164736f6c6343000813000a",
  "linkReferences": {},
  "deployedLinkReferences": {}
}