{"contracts/ServareNFT.sol":{"SurfoodNFT":{"abi":[{"inputs":[],"stateMutability":"nonpayable","type":"constructor"},{"inputs":[],"name":"AccessControlBadConfirmation","type":"error"},{"inputs":[{"internalType":"address","name":"account","type":"address"},{"internalType":"bytes32","name":"neededRole","type":"bytes32"}],"name":"AccessControlUnauthorizedAccount","type":"error"},{"inputs":[{"internalType":"address","name":"sender","type":"address"},{"internalType":"uint256","name":"tokenId","type":"uint256"},{"internalType":"address","name":"owner","type":"address"}],"name":"ERC721IncorrectOwner","type":"error"},{"inputs":[{"internalType":"address","name":"operator","type":"address"},{"internalType":"uint256","name":"tokenId","type":"uint256"}],"name":"ERC721InsufficientApproval","type":"error"},{"inputs":[{"internalType":"address","name":"approver","type":"address"}],"name":"ERC721InvalidApprover","type":"error"},{"inputs":[{"internalType":"address","name":"operator","type":"address"}],"name":"ERC721InvalidOperator","type":"error"},{"inputs":[{"internalType":"address","name":"owner","type":"address"}],"name":"ERC721InvalidOwner","type":"error"},{"inputs":[{"internalType":"address","name":"receiver","type":"address"}],"name":"ERC721InvalidReceiver","type":"error"},{"inputs":[{"internalType":"address","name":"sender","type":"address"}],"name":"ERC721InvalidSender","type":"error"},{"inputs":[{"internalType":"uint256","name":"tokenId","type":"uint256"}],"name":"ERC721NonexistentToken","type":"error"},{"inputs":[{"internalType":"address","name":"owner","type":"address"}],"name":"OwnableInvalidOwner","type":"error"},{"inputs":[{"internalType":"address","name":"account","type":"address"}],"name":"OwnableUnauthorizedAccount","type":"error"},{"anonymous":false,"inputs":[{"indexed":true,"internalType":"address","name":"owner","type":"address"},{"indexed":true,"internalType":"address","name":"approved","type":"address"},{"indexed":true,"internalType":"uint256","name":"tokenId","type":"uint256"}],"name":"Approval","type":"event"},{"anonymous":false,"inputs":[{"indexed":true,"internalType":"address","name":"owner","type":"address"},{"indexed":true,"internalType":"address","name":"operator","type":"address"},{"indexed":false,"internalType":"bool","name":"approved","type":"bool"}],"name":"ApprovalForAll","type":"event"},{"anonymous":false,"inputs":[{"indexed":true,"internalType":"address","name":"previousOwner","type":"address"},{"indexed":true,"internalType":"address","name":"newOwner","type":"address"}],"name":"OwnershipTransferred","type":"event"},{"anonymous":false,"inputs":[{"indexed":true,"internalType":"uint256","name":"tokenId","type":"uint256"},{"indexed":false,"internalType":"address","name":"producer","type":"address"},{"indexed":false,"internalType":"string","name":"name","type":"string"},{"indexed":false,"internalType":"uint256","name":"quantity","type":"uint256"},{"indexed":false,"internalType":"string","name":"category","type":"string"}],"name":"ProductCreated","type":"event"},{"anonymous":false,"inputs":[{"indexed":true,"internalType":"uint256","name":"tokenId","type":"uint256"},{"indexed":false,"internalType":"uint256","name":"price","type":"uint256"},{"indexed":false,"internalType":"uint256","name":"timestamp","type":"uint256"}],"name":"ProductListed","type":"event"},{"anonymous":false,"inputs":[{"indexed":true,"internalType":"uint256","name":"tokenId","type":"uint256"}],"name":"ProductUnlisted","type":"event"},{"anonymous":false,"inputs":[{"indexed":true,"internalType":"uint256","name":"tokenId","type":"uint256"},{"indexed":false,"internalType":"enum SurfoodNFT.ProductQuality","name":"quality","type":"uint8"},{"indexed":false,"internalType":"uint256","name":"timestamp","type":"uint256"}],"name":"QualityUpdated","type":"event"},{"anonymous":false,"inputs":[{"indexed":true,"internalType":"bytes32","name":"role","type":"bytes32"},{"indexed":true,"internalType":"bytes32","name":"previousAdminRole","type":"bytes32"},{"indexed":true,"internalType":"bytes32","name":"newAdminRole","type":"bytes32"}],"name":"RoleAdminChanged","type":"event"},{"anonymous":false,"inputs":[{"indexed":true,"internalType":"bytes32","name":"role","type":"bytes32"},{"indexed":true,"internalType":"address","name":"account","type":"address"},{"indexed":true,"internalType":"address","name":"sender","type":"address"}],"name":"RoleGranted","type":"event"},{"anonymous":false,"inputs":[{"indexed":true,"internalType":"bytes32","name":"role","type":"bytes32"},{"indexed":true,"internalType":"address","name":"account","type":"address"},{"indexed":true,"internalType":"address","name":"sender","type":"address"}],"name":"RoleRevoked","type":"event"},{"anonymous":false,"inputs":[{"indexed":true,"internalType":"uint256","name":"tokenId","type":"uint256"},{"indexed":false,"internalType":"string","name":"eventType","type":"string"},{"indexed":false,"internalType":"string","name":"location","type":"string"},{"indexed":false,"internalType":"uint256","name":"timestamp","type":"uint256"}],"name":"SupplyChainEventAdded","type":"event"},{"anonymous":false,"inputs":[{"indexed":true,"internalType":"address","name":"from","type":"address"},{"indexed":true,"internalType":"address","name":"to","type":"address"},{"indexed":true,"internalType":"uint256","name":"tokenId","type":"uint256"}],"name":"Transfer","type":"event"},{"inputs":[],"name":"DEFAULT_ADMIN_ROLE","outputs":[{"internalType":"bytes32","name":"","type":"bytes32"}],"stateMutability":"view","type":"function"},{"inputs":[],"name":"PRODUCER_ROLE","outputs":[{"internalType":"bytes32","name":"","type":"bytes32"}],"stateMutability":"view","type":"function"},{"inputs":[],"name":"VERIFIER_ROLE","outputs":[{"internalType":"bytes32","name":"","type":"bytes32"}],"stateMutability":"view","type":"function"},{"inputs":[{"internalType":"uint256","name":"tokenId","type":"uint256"},{"internalType":"string","name":"eventType","type":"string"},{"internalType":"string","name":"location","type":"string"},{"internalType":"string","name":"handlerName","type":"string"},{"internalType":"bytes32","name":"ipfsDataHash","type":"bytes32"},{"internalType":"string[]","name":"sensorKeys","type":"string[]"},{"internalType":"string[]","name":"sensorValues","type":"string[]"}],"name":"addSupplyChainEvent","outputs":[],"stateMutability":"nonpayable","type":"function"},{"inputs":[{"internalType":"address","name":"to","type":"address"},{"internalType":"uint256","name":"tokenId","type":"uint256"}],"name":"approve","outputs":[],"stateMutability":"nonpayable","type":"function"},{"inputs":[{"internalType":"address","name":"owner","type":"address"}],"name":"balanceOf","outputs":[{"internalType":"uint256","name":"","type":"uint256"}],"stateMutability":"view","type":"function"},{"inputs":[{"internalType":"string","name":"name","type":"string"},{"internalType":"string","name":"description","type":"string"},{"internalType":"uint256","name":"quantity","type":"uint256"},{"internalType":"string","name":"location","type":"string"},{"internalType":"uint256","name":"expiryDate","type":"uint256"},{"internalType":"string","name":"productionDate","type":"string"},{"internalType":"string","name":"category","type":"string"},{"internalType":"string","name":"imageURI","type":"string"},{"internalType":"uint256","name":"price","type":"uint256"},{"internalType":"bytes32","name":"ipfsMetadataHash","type":"bytes32"},{"internalType":"uint256","name":"carbonFootprint","type":"uint256"}],"name":"createFoodProduct","outputs":[{"internalType":"uint256","name":"","type":"uint256"}],"stateMutability":"nonpayable","type":"function"},{"inputs":[{"internalType":"uint256","name":"tokenId","type":"uint256"}],"name":"exists","outputs":[{"internalType":"bool","name":"","type":"bool"}],"stateMutability":"view","type":"function"},{"inputs":[{"internalType":"uint256","name":"","type":"uint256"}],"name":"foodProducts","outputs":[{"internalType":"string","name":"name","type":"string"},{"internalType":"string","name":"description","type":"string"},{"internalType":"uint256","name":"quantity","type":"uint256"},{"internalType":"string","name":"location","type":"string"},{"internalType":"uint256","name":"expiryDate","type":"uint256"},{"internalType":"string","name":"productionDate","type":"string"},{"internalType":"string","name":"category","type":"string"},{"internalType":"string","name":"imageURI","type":"string"},{"internalType":"uint256","name":"price","type":"uint256"},{"internalType":"bool","name":"isListed","type":"bool"},{"internalType":"address","name":"producer","type":"address"},{"internalType":"bool","name":"isVerified","type":"bool"},{"internalType":"uint256","name":"eventCount","type":"uint256"},{"internalType":"bytes32","name":"ipfsMetadataHash","type":"bytes32"},{"internalType":"enum SurfoodNFT.ProductQuality","name":"quality","type":"uint8"},{"internalType":"uint256","name":"carbonFootprint","type":"uint256"},{"internalType":"bool","name":"exists","type":"bool"}],"stateMutability":"view","type":"function"},{"inputs":[{"internalType":"uint256","name":"tokenId","type":"uint256"}],"name":"getApproved","outputs":[{"internalType":"address","name":"","type":"address"}],"stateMutability":"view","type":"function"},{"inputs":[{"internalType":"uint256","name":"tokenId","type":"uint256"}],"name":"getProduct","outputs":[{"internalType":"string","name":"name","type":"string"},{"internalType":"string","name":"description","type":"string"},{"internalType":"uint256","name":"quantity","type":"uint256"},{"internalType":"string","name":"location","type":"string"},{"internalType":"uint256","name":"expiryDate","type":"uint256"},{"internalType":"string","name":"productionDate","type":"string"},{"internalType":"string","name":"category","type":"string"},{"internalType":"string","name":"imageURI","type":"string"},{"internalType":"uint256","name":"price","type":"uint256"},{"internalType":"bool","name":"isListed","type":"bool"},{"internalType":"address","name":"producer","type":"address"},{"internalType":"bool","name":"isVerified","type":"bool"},{"internalType":"bytes32","name":"ipfsMetadataHash","type":"bytes32"},{"internalType":"enum SurfoodNFT.ProductQuality","name":"quality","type":"uint8"},{"internalType":"uint256","name":"carbonFootprint","type":"uint256"}],"stateMutability":"view","type":"function"},{"inputs":[],"name":"getProductCount","outputs":[{"internalType":"uint256","name":"","type":"uint256"}],"stateMutability":"view","type":"function"},{"inputs":[{"internalType":"address","name":"producer","type":"address"}],"name":"getProductsByProducer","outputs":[{"internalType":"uint256[]","name":"productsArray","type":"uint256[]"}],"stateMutability":"view","type":"function"},{"inputs":[{"internalType":"bytes32","name":"role","type":"bytes32"}],"name":"getRoleAdmin","outputs":[{"internalType":"bytes32","name":"","type":"bytes32"}],"stateMutability":"view","type":"function"},{"inputs":[{"internalType":"bytes32","name":"role","type":"bytes32"},{"internalType":"address","name":"account","type":"address"}],"name":"grantRole","outputs":[],"stateMutability":"nonpayable","type":"function"},{"inputs":[{"internalType":"bytes32","name":"role","type":"bytes32"},{"internalType":"address","name":"account","type":"address"}],"name":"hasRole","outputs":[{"internalType":"bool","name":"","type":"bool"}],"stateMutability":"view","type":"function"},{"inputs":[{"internalType":"address","name":"owner","type":"address"},{"internalType":"address","name":"operator","type":"address"}],"name":"isApprovedForAll","outputs":[{"internalType":"bool","name":"","type":"bool"}],"stateMutability":"view","type":"function"},{"inputs":[{"internalType":"uint256","name":"tokenId","type":"uint256"}],"name":"isListedProduct","outputs":[{"internalType":"bool","name":"","type":"bool"}],"stateMutability":"view","type":"function"},{"inputs":[{"internalType":"uint256","name":"tokenId","type":"uint256"}],"name":"isValidProduct","outputs":[{"internalType":"bool","name":"","type":"bool"}],"stateMutability":"view","type":"function"},{"inputs":[],"name":"name","outputs":[{"internalType":"string","name":"","type":"string"}],"stateMutability":"view","type":"function"},{"inputs":[],"name":"owner","outputs":[{"internalType":"address","name":"","type":"address"}],"stateMutability":"view","type":"function"},{"inputs":[{"internalType":"uint256","name":"tokenId","type":"uint256"}],"name":"ownerOf","outputs":[{"internalType":"address","name":"","type":"address"}],"stateMutability":"view","type":"function"},{"inputs":[],"name":"renounceOwnership","outputs":[],"stateMutability":"nonpayable","type":"function"},{"inputs":[{"internalType":"bytes32","name":"role","type":"bytes32"},{"internalType":"address","name":"callerConfirmation","type":"address"}],"name":"renounceRole","outputs":[],"stateMutability":"nonpayable","type":"function"},{"inputs":[{"internalType":"bytes32","name":"role","type":"bytes32"},{"internalType":"address","name":"account","type":"address"}],"name":"revokeRole","outputs":[],"stateMutability":"nonpayable","type":"function"},{"inputs":[{"internalType":"address","name":"from","type":"address"},{"internalType":"address","name":"to","type":"address"},{"internalType":"uint256","name":"tokenId","type":"uint256"}],"name":"safeTransferFrom","outputs":[],"stateMutability":"nonpayable","type":"function"},{"inputs":[{"internalType":"address","name":"from","type":"address"},{"internalType":"address","name":"to","type":"address"},{"internalType":"uint256","name":"tokenId","type":"uint256"},{"internalType":"bytes","name":"data","type":"bytes"}],"name":"safeTransferFrom","outputs":[],"stateMutability":"nonpayable","type":"function"},{"inputs":[{"internalType":"address","name":"operator","type":"address"},{"internalType":"bool","name":"approved","type":"bool"}],"name":"setApprovalForAll","outputs":[],"stateMutability":"nonpayable","type":"function"},{"inputs":[{"internalType":"bytes4","name":"interfaceId","type":"bytes4"}],"name":"supportsInterface","outputs":[{"internalType":"bool","name":"","type":"bool"}],"stateMutability":"view","type":"function"},{"inputs":[],"name":"symbol","outputs":[{"internalType":"string","name":"","type":"string"}],"stateMutability":"view","type":"function"},{"inputs":[{"internalType":"uint256","name":"tokenId","type":"uint256"},{"internalType":"bool","name":"isListed","type":"bool"},{"internalType":"uint256","name":"newPrice","type":"uint256"}],"name":"toggleProductListing","outputs":[],"stateMutability":"nonpayable","type":"function"},{"inputs":[{"internalType":"uint256","name":"tokenId","type":"uint256"}],"name":"tokenURI","outputs":[{"internalType":"string","name":"","type":"string"}],"stateMutability":"view","type":"function"},{"inputs":[{"internalType":"address","name":"from","type":"address"},{"internalType":"address","name":"to","type":"address"},{"internalType":"uint256","name":"tokenId","type":"uint256"}],"name":"transferFrom","outputs":[],"stateMutability":"nonpayable","type":"function"},{"inputs":[{"internalType":"address","name":"newOwner","type":"address"}],"name":"transferOwnership","outputs":[],"stateMutability":"nonpayable","type":"function"},{"inputs":[{"internalType":"uint256","name":"tokenId","type":"uint256"},{"internalType":"enum SurfoodNFT.ProductQuality","name":"quality","type":"uint8"}],"name":"updateQuality","outputs":[],"stateMutability":"nonpayable","type":"function"},{"inputs":[{"internalType":"address","name":"","type":"address"}],"name":"verifiedProducers","outputs":[{"internalType":"bool","name":"","type":"bool"}],"stateMutability":"view","type":"function"}],"evm":{"bytecode":{"linkReferences":{},"object":"608034620003a1576040906001600160401b03818301818111838210176200038b578352600782526020916614dd5c999bdbd960ca1b83820152835191848301838110828211176200038b578552600492838152631193d3d160e21b8582015282519082821162000376576000958654926001958685811c951680156200036b575b8386101462000358578190601f9586811162000305575b508390868311600114620002a1578a9262000295575b5050600019600383901b1c191690861b1787555b8151938411620002825784548581811c9116801562000277575b82821014620002645790818486959493116200020d575b5080928411600114620001a55750869262000199575b5050600019600383901b1c191690821b1790555b331562000184575060078054336001600160a01b0319821681179092556001600160a01b03167f8be0079c531659141344cd1fd0a4f28419497f9722a3daafe3b4186f6b6457e08380a36200017233620003a6565b5060085551612e369081620004398239f35b9151631e4fbdf760e01b815291820152602490fd5b01519050388062000109565b9190859450601f1984168589528389209389905b828210620001f35750508411620001d9575b505050811b0190556200011d565b015160001960f88460031b161c19169055388080620001cb565b8484015186558897909501949384019390810190620001b9565b90919293508588528188208480870160051c8201928488106200025a575b9187968992969594930160051c01915b8281106200024b575050620000f3565b8a81558796508891016200023b565b925081926200022b565b634e487b7160e01b885260228752602488fd5b90607f1690620000dc565b634e487b7160e01b875260418652602487fd5b015190503880620000ae565b8a8052848b208994509190601f1984168c5b87828210620002ee5750508411620002d4575b505050811b018755620000c2565b015160001960f88460031b161c19169055388080620002c6565b8385015186558c97909501949384019301620002b3565b909150898052838a208680850160051c8201928686106200034e575b918a91869594930160051c01915b8281106200033f57505062000098565b8c81558594508a91016200032f565b9250819262000321565b634e487b7160e01b895260228852602489fd5b94607f169462000081565b604185634e487b7160e01b6000525260246000fd5b634e487b7160e01b600052604160045260246000fd5b600080fd5b6001600160a01b031660008181527f54cdd369e4e8a8515e52ca72ec816c2101831ad1f18bf44102ed171459c9b4f8602052604081205490919060ff16620004345781805260066020526040822081835260205260408220600160ff1982541617905533917f2f8788117e7eff1d82e926ec794901d17c78024a50270940304540a733656f0d8180a4600190565b509056fe608080604052600436101561001357600080fd5b60003560e01c90816301ffc9a7146124375750806306fdde0314612394578063081812fc14612356578063095ea7b31461226f5780631bf9826a1461164157806323b872dd1461162a578063248a9ca3146115fb5780632f2ff15d146115bc57806335ef88991461143d57806336568abe146113f657806342842e0e146113c857806344b0ceed146113aa5780634a348da91461138c5780634f558e791461136e57806356cb2462146113465780635c2fa7e4146111c357806360f7f09e146110745780636352211e1461104457806370a0823114610feb578063715018a614610f8e578063731db76714610ed05780638da5cb5b14610ea757806391d1485414610e5a57806395d89b4114610d7b578063a217fddf14610d5f578063a22cb46514610cb4578063b88d4fde14610c49578063b9db15b414610ad4578063bdefd4e4146103e1578063c87b56dd1461038a578063cb3e1fe71461034f578063d547741f1461030e578063e155d6f6146102cf578063e7705db614610294578063e985e9c51461023e5763f2fde38b146101ab57600080fd5b34610239576020366003190112610239576101c4612504565b6101cc6128f5565b6001600160a01b0390811690811561022057600754826bffffffffffffffffffffffff60a01b821617600755167f8be0079c531659141344cd1fd0a4f28419497f9722a3daafe3b4186f6b6457e0600080a3005b604051631e4fbdf760e01b815260006004820152602490fd5b600080fd5b3461023957604036600319011261023957610257612504565b61025f61251a565b9060018060a01b03809116600052600560205260406000209116600052602052602060ff604060002054166040519015158152f35b346102395760003660031901126102395760206040517f0ce23c3e399818cfee81a7ab0880f714e53d7672b08df0fa62f2843416e1ea098152f35b34610239576020366003190112610239576001600160a01b036102f0612504565b16600052600a602052602060ff604060002054166040519015158152f35b346102395760403660031901126102395761034d60043561032d61251a565b908060005260066020526103486001604060002001546127ba565b61287e565b005b346102395760003660031901126102395760206040517f8eb467f061ca67f42a2d2ca4a346fc9fb645efc0ba75056ee9f71c3a0ccc10a88152f35b34610239576020366003190112610239576103a6600435612aa7565b5060006040516103b581612530565b526103dd6040516103c581612530565b600081526040519182916020835260208301906124df565b0390f35b346102395760e0366003190112610239576024356001600160401b038111610239576104119036906004016125be565b6044356001600160401b038111610239576104309036906004016125be565b6064356001600160401b0381116102395761044f9036906004016125be565b60a4356001600160401b0381116102395761046e90369060040161273a565b9260c4356001600160401b0381116102395761048e90369060040161273a565b3360009081527fe298173fb715fb8b47cba95afe542599cde89075e978203baa0c87bd3333a43960205260409020549091906104cc9060ff16612d71565b6104df6104da600435612c31565b612dbd565b8451825103610a9657805115610a51576004356000526009602052604060002093600b850154600052600a850160205260406000209342855582516001600160401b038111610786576105356001870154612611565b601f8111610a0a575b50806020601f821160011461099d57600091610992575b508160011b916000199060031b1c19161760018601555b81516001600160401b038111610786576105896002870154612611565b601f811161094b575b50806020601f82116001146108de576000916108d3575b508160011b916000199060031b1c19161760028601555b8051906001600160401b0382116107865781906105e06003880154612611565b601f8111610880575b50602090601f831160011461080e57600092610803575b50508160011b916000199060031b1c19161760038501555b608435600485015560005b865181101561079c576106368185612d47565b5161065a6020610646848b612d47565b5181604051938285809451938492016124bc565b810160058a01815203019020908051906001600160401b038211610786576106828354612611565b601f8111610742575b50602090601f83116001146106d3576106c394939291600091836106c8575b50508160011b916000199060031b1c1916179055612d22565b610623565b015190508b806106aa565b908360005260206000209160005b601f198516811061072a57509183916001936106c3979695601f19811610610711575b505050811b019055612d22565b015160001960f88460031b161c191690558b8080610704565b919260206001819286850151815501940192016106e1565b836000526020600020601f840160051c81016020851061077f575b601f830160051c8201811061077357505061068b565b6000815560010161075d565b508061075d565b634e487b7160e01b600052604160045260246000fd5b506107f27fb125a635359523c8c263eceff3818c33f0a52d99e6d765bb6a0b0dc946fee12c9186600b600181830154019101556107e4604051946060865260608601906124df565b9084820360208601526124df565b9142604082015280600435930390a2005b015190508880610600565b9250600387016000526020600020906000935b601f1984168510610865576001945083601f1981161061084c575b505050811b016003850155610618565b015160001960f88460031b161c1916905588808061083c565b81810151835560209485019460019093019290910190610821565b909150600387016000526020600020601f840160051c8101602085106108cc575b90849392915b601f830160051c820181106108bd5750506105e9565b600081558594506001016108a7565b50806108a1565b9050830151896105a9565b91506002870160005260206000206000925b601f1983168410610933576001935082601f1981161061091a575b5050811b0160028601556105c0565b85015160001960f88460031b161c19169055898061090b565b858101518255602093840193600190920191016108f0565b600287016000526020600020601f830160051c81016020841061098b575b601f830160051c8201811061097f575050610592565b60008155600101610969565b5080610969565b905084015189610555565b91506001870160005260206000206000925b601f19831684106109f2576001935082601f198116106109d9575b5050811b01600186015561056c565b86015160001960f88460031b161c1916905589806109ca565b868101518255602093840193600190920191016109af565b600187016000526020600020601f830160051c810160208410610a4a575b601f830160051c82018110610a3e57505061053e565b60008155600101610a28565b5080610a28565b60405162461bcd60e51b815260206004820152601a60248201527f4576656e7420747970652063616e6e6f7420626520656d7074790000000000006044820152606490fd5b60405162461bcd60e51b8152602060048201526016602482015275082e4e4c2f2e640d8cadccee8d040dad2e6dac2e8c6d60531b6044820152606490fd5b3461023957602036600319011261023957600435610af181612c31565b610afa90612dbd565b600052600960205260406000206002810154906004810154916008820154906009830154600c840154600d85015460ff1691600e86015493610b3b8761264b565b96610b486001820161264b565b98610b556003830161264b565b90610b626005840161264b565b91610b6f6006850161264b565b93600701610b7c9061264b565b946040519c8d9c8d6101e09081815201610b95916124df565b8d810360208f0152610ba6916124df565b9060408d01528b810360608d0152610bbd916124df565b9060808b015289810360a08b0152610bd4916124df565b88810360c08a0152610be5916124df565b87810360e0890152610bf6916124df565b9461010087015260ff81161515610120870152600160a01b600190038160081c1661014087015260a81c60ff1615156101608601526101808501526101a08401610c3f916126f1565b6101c08301520390f35b3461023957608036600319011261023957610c62612504565b610c6a61251a565b90604435606435926001600160401b038411610239573660238501121561023957610ca261034d943690602481600401359101612587565b92610cae838383612921565b33612ae2565b3461023957604036600319011261023957610ccd612504565b610cd5612714565b6001600160a01b03909116908115610d4657336000526005602052604060002082600052602052610d168160406000209060ff801983541691151516179055565b60405190151581527f17307eab39ab6107e8899845ad3d59bd9653f200f220920489ca2b5937696c3160203392a3005b604051630b61174360e31b815260048101839052602490fd5b3461023957600036600319011261023957602060405160008152f35b346102395760003660031901126102395760405160006001805490610d9f82612611565b80855291818116908115610e335750600114610dda575b6103dd84610dc68186038261254b565b6040519182916020835260208301906124df565b600081815292507fb10e2d527612073b26eecdfd717e6a320cf44b4afac2b0732d9fcbe2b7fa0cf65b828410610e1b575050508101602001610dc682610db6565b80546020858701810191909152909301928101610e03565b60ff191660208087019190915292151560051b85019092019250610dc69150839050610db6565b3461023957604036600319011261023957610e7361251a565b600435600052600660205260406000209060018060a01b0316600052602052602060ff604060002054166040519015158152f35b34610239576000366003190112610239576007546040516001600160a01b039091168152602090f35b34610239576040366003190112610239576004356024356004811015610239573360009081527fe298173fb715fb8b47cba95afe542599cde89075e978203baa0c87bd3333a439602052604090819020547fc8bf5df8e37a2cde1ab3af715ff64ba9051cb27fccca8c4751bd0409a1c71fd89290610f509060ff16612d71565b610f5c6104da85612c31565b836000526009602052600d826000200160ff1981541660ff8316179055610f85825180926126f1565b426020820152a2005b3461023957600036600319011261023957610fa76128f5565b600780546001600160a01b031981169091556000906001600160a01b03167f8be0079c531659141344cd1fd0a4f28419497f9722a3daafe3b4186f6b6457e08280a3005b34610239576020366003190112610239576001600160a01b0361100c612504565b16801561102b5760005260036020526020604060002054604051908152f35b6040516322718ad960e21b815260006004820152602490fd5b34610239576020366003190112610239576020611062600435612aa7565b6040516001600160a01b039091168152f35b3461023957606036600319011261023957600435611090612714565b604435906110a06104da84612c31565b6110a983612aa7565b336001600160a01b039091160361118c578260005260096020526040600020906110e281600984019060ff801983541691151516179055565b1561116357811561112557817f97a2fd16610057b24c11ef7212218f5c3aea1276a8c3d5f2dc824b5b122b0dfc92600860409301558151908152426020820152a2005b60405162461bcd60e51b81526020600482015260166024820152755072696365206d75737420626520706f73697469766560501b6044820152606490fd5b50507f600fe75b22e3fed1948261ab5f0b5b5f149ce6242e5bf06daf884c2756ed6c83600080a2005b60405162461bcd60e51b815260206004820152600f60248201526e2737ba103a37b5b2b71037bbb732b960891b6044820152606490fd5b3461023957602036600319011261023957600435600052600960205260406000206111ed8161264b565b906111fa6001820161264b565b906002810154926003820161120e9061264b565b600483015492906112216005830161264b565b9361122e6006840161264b565b9461123b6007850161264b565b95600885015496600986015491600b87015493600c88015495600d89015460ff1697600e8a015499600f015460ff169a6040519e8f9e8f926102208085528401611284916124df565b8381036020850152611295916124df565b91604001528d80820390606001526112ac916124df565b9060808d01528b810360a08d01526112c3916124df565b8a810360c08c01526112d4916124df565b89810360e08b01526112e5916124df565b9661010089015260ff81161515610120890152600160a01b600190038160081c1661014089015260a81c60ff1615156101608801526101808701526101a08601526101c08501611334916126f1565b6101e084015215156102008301520390f35b34610239576020366003190112610239576020611364600435612cfd565b6040519015158152f35b34610239576020366003190112610239576020611364600435612c31565b34610239576000366003190112610239576020600854604051908152f35b34610239576020366003190112610239576020611364600435612cb5565b346102395761034d6113d9366125dc565b90604051926113e784612530565b60008452610cae838383612921565b346102395760403660031901126102395761140f61251a565b336001600160a01b0382160361142b5761034d9060043561287e565b60405163334bd91960e11b8152600490fd5b346102395760208060031936011261023957611457612504565b9060006001928360088054915b8281111561155e575061147684612723565b92611484604051948561254b565b84845261149085612723565b8487019590601f19013687376114e0575b5050509160409391935192818401908285525180915260408401949160005b8281106114cd5785870386f35b83518752958101959281019284016114c0565b600091875b848111156114f45750506114a1565b6114fd81612c31565b80611537575b611516575b61151190612d22565b6114e5565b9261152f8185611529611511948a612d47565b52612d22565b939050611508565b5060008181526009808a52604090912001546001600160a01b0384811691841c1614611503565b61156781612c31565b80611595575b611580575b61157b90612d22565b611464565b9361158d61157b91612d22565b949050611572565b5060008181526009808852604090912001546001600160a01b0385811691841c161461156d565b346102395760403660031901126102395761034d6004356115db61251a565b908060005260066020526115f66001604060002001546127ba565b6127fe565b346102395760203660031901126102395760043560005260066020526020600160406000200154604051908152f35b346102395761034d61163b366125dc565b91612921565b3461023957610160366003190112610239576004356001600160401b038111610239576116729036906004016125be565b6024356001600160401b038111610239576116919036906004016125be565b6064356001600160401b038111610239576116b09036906004016125be565b9060a4356001600160401b038111610239576116d09036906004016125be565b9060c4356001600160401b038111610239576116f09036906004016125be565b9160e4356001600160401b038111610239576117109036906004016125be565b3360009081527f328940cd107ca3dbe17884adbbb9d81697f5ffcb53586525db9480be8081f2d5602052604090205490919060ff161561222a578551156121ee57604435156121a95742608435111561215a57600160085401948560085560405161177a81612530565b600081523315612141576000878152600260205260409020546001600160a01b03168015159088908261210a575b3360005260036020526040600020600181540190558160005260026020526040600020336bffffffffffffffffffffffff60a01b82541617905533907fddf252ad1be2c89b69c2b068fc378daa952ba7f163c4a11628f55a4df523b3ef600080a46120f157333b611fd2575b5085600052600960205260406000209387516001600160401b0381116107865761183e8654612611565b601f8111611f8e575b50806020601f8211600114611f2657600091611f1b575b508160011b916000199060031b1c19161785555b8051906001600160401b0382116107865781906118926001880154612611565b601f8111611ec8575b50602090601f8311600114611e5657600092611e4b575b50508160011b916000199060031b1c19161760018501555b60443560028501558051906001600160401b0382116107865781906118f26003870154612611565b601f8111611df8575b50602090601f8311600114611d8657600092611d7b575b50508160011b916000199060031b1c19161760038401555b60843560048401558051906001600160401b0382116107865781906119526005860154612611565b601f8111611d28575b50602090601f8311600114611cb657600092611cab575b50508160011b916000199060031b1c19161760058301555b82516001600160401b038111610786576119a76006840154612611565b601f8111611c64575b50806020601f8211600114611bf757600091611bec575b508160011b916000199060031b1c19161760068301555b805160078301916001600160401b038211610786576119fd8354612611565b601f8111611ba4575b509160209693918695938890601f8311600114611b10579282611ae496937f34854a6a88c16fc1b8c8e7ec924a44b14d32b3b126b466a3054b2b636fe48090989693611afa96600092611b05575b50508160011b916000199060031b1c19161790555b61010435600882015560098101600181546101008260a81b033360081b16906affffffffffffffffffffff60a81b161717905561012435600c8201556001600f600d83019260ff1993838582541617905561014435600e820155019182541617905560405193849333855260808a86015260808501906124df565b90604435604085015283820360608501526124df565b0390a2604051908152f35b015190508c80611a54565b90601f19831691846000528a6000209260005b818110611b8a5750937f34854a6a88c16fc1b8c8e7ec924a44b14d32b3b126b466a3054b2b636fe48090989693611afa969360019383611ae49b9810611b71575b505050811b019055611a69565b015160001960f88460031b161c191690558c8080611b64565b8284015185558b9a50600190940193928c01928c01611b23565b836000526020600020601f840160051c81019160208510611be2575b601f0160051c01905b818110611bd65750611a06565b60008155600101611bc9565b9091508190611bc0565b9050840151876119c7565b91506006840160005260206000206000925b601f1983168410611c4c576001935082601f19811610611c33575b5050811b0160068301556119de565b86015160001960f88460031b161c191690558780611c24565b86810151825560209384019360019092019101611c09565b600684016000526020600020601f830160051c810160208410611ca4575b601f830160051c82018110611c985750506119b0565b60008155600101611c82565b5080611c82565b015190508780611972565b9250600585016000526020600020906000935b601f1984168510611d0d576001945083601f19811610611cf4575b505050811b01600583015561198a565b015160001960f88460031b161c19169055878080611ce4565b81810151835560209485019460019093019290910190611cc9565b909150600585016000526020600020601f840160051c810160208510611d74575b90849392915b601f830160051c82018110611d6557505061195b565b60008155859450600101611d4f565b5080611d49565b015190508880611912565b9250600386016000526020600020906000935b601f1984168510611ddd576001945083601f19811610611dc4575b505050811b01600384015561192a565b015160001960f88460031b161c19169055888080611db4565b81810151835560209485019460019093019290910190611d99565b909150600386016000526020600020601f840160051c810160208510611e44575b90849392915b601f830160051c82018110611e355750506118fb565b60008155859450600101611e1f565b5080611e19565b0151905089806118b2565b9250600187016000526020600020906000935b601f1984168510611ead576001945083601f19811610611e94575b505050811b0160018501556118ca565b015160001960f88460031b161c19169055898080611e84565b81810151835560209485019460019093019290910190611e69565b909150600187016000526020600020601f840160051c810160208510611f14575b90849392915b601f830160051c82018110611f0557505061189b565b60008155859450600101611eef565b5080611ee9565b90508901518a61185e565b91508660005260206000206000925b8b601f1984168510611f7757506001935082601f19811610611f5e575b5050811b018555611872565b8b015160001960f88460031b161c191690558a80611f52565b810151825560209384019360019092019101611f35565b866000526020600020601f830160051c810160208410611fcb575b601f830160051c82018110611fbf575050611847565b60008155600101611fa9565b5080611fa9565b602061200d9160405180938192630a85bd0160e11b8352336004840152600060248401528b60448401526080606484015260848301906124df565b03816000335af1600091816120ac575b50612077573d15612070573d6120328161256c565b90612040604051928361254b565b81523d6000602083013e5b8051908161206b57604051633250574960e11b8152336004820152602490fd5b602001fd5b606061204b565b6001600160e01b03191663757a42ff60e11b016120945787611814565b604051633250574960e11b8152336004820152602490fd5b9091506020813d6020116120e9575b816120c86020938361254b565b8101031261023957516001600160e01b03198116810361023957908961201d565b3d91506120bb565b6040516339e3563760e11b815260006004820152602490fd5b600082815260046020526040902080546001600160a01b0319169055806000526003602052604060002060001981540190556117a8565b604051633250574960e11b815260006004820152602490fd5b60405162461bcd60e51b815260206004820152602160248201527f4578706972792064617465206d75737420626520696e207468652066757475726044820152606560f81b6064820152608490fd5b60405162461bcd60e51b815260206004820152601960248201527f5175616e74697479206d75737420626520706f736974697665000000000000006044820152606490fd5b60405162461bcd60e51b81526020600482015260146024820152734e616d652063616e6e6f7420626520656d70747960601b6044820152606490fd5b60405162461bcd60e51b815260206004820152601760248201527f4d75737420686176652070726f647563657220726f6c650000000000000000006044820152606490fd5b3461023957604036600319011261023957612288612504565b60243561229481612aa7565b33151580612343575b80612316575b6122fe576001600160a01b039283169282918491167f8c5be1e5ebec7d5bd14f71427d1e84f3dd0314c0f7b2291e5b200ac8c7c3b925600080a4600090815260046020526040902080546001600160a01b0319169091179055005b60405163a9fbf51f60e01b8152336004820152602490fd5b5060018060a01b038116600052600560205260406000203360005260205260ff60406000205416156122a3565b506001600160a01b03811633141561229d565b346102395760203660031901126102395760043561237381612aa7565b506000526004602052602060018060a01b0360406000205416604051908152f35b3461023957600036600319011261023957604051600080546123b581612611565b80845290600190818116908115610e3357506001146123de576103dd84610dc68186038261254b565b600080805292507f290decd9548b62a8d60345a988386fc84ba6bc95484008f6362f93160ef3e5635b82841061241f575050508101602001610dc682610db6565b80546020858701810191909152909301928101612407565b34610239576020366003190112610239576004359063ffffffff60e01b821680920361023957602091637965db0b60e01b8114908115612479575b5015158152f35b6380ac58cd60e01b8114915081156124ab575b811561249a575b5083612472565b6301ffc9a760e01b14905083612493565b635b5e139f60e01b8114915061248c565b60005b8381106124cf5750506000910152565b81810151838201526020016124bf565b906020916124f8815180928185528580860191016124bc565b601f01601f1916010190565b600435906001600160a01b038216820361023957565b602435906001600160a01b038216820361023957565b602081019081106001600160401b0382111761078657604052565b90601f801991011681019081106001600160401b0382111761078657604052565b6001600160401b03811161078657601f01601f191660200190565b9291926125938261256c565b916125a1604051938461254b565b829481845281830111610239578281602093846000960137010152565b9080601f83011215610239578160206125d993359101612587565b90565b6060906003190112610239576001600160a01b0390600435828116810361023957916024359081168103610239579060443590565b90600182811c92168015612641575b602083101461262b57565b634e487b7160e01b600052602260045260246000fd5b91607f1691612620565b906040519182600082549261265f84612611565b9081845260019485811690816000146126ce575060011461268b575b50506126899250038361254b565b565b9093915060005260209081600020936000915b8183106126b65750506126899350820101388061267b565b8554888401850152948501948794509183019161269e565b91505061268994506020925060ff191682840152151560051b820101388061267b565b9060048210156126fe5752565b634e487b7160e01b600052602160045260246000fd5b60243590811515820361023957565b6001600160401b0381116107865760051b60200190565b9080601f830112156102395781359061275282612723565b92612760604051948561254b565b828452602092838086019160051b8301019280841161023957848301915b84831061278e5750505050505090565b82356001600160401b0381116102395786916127af848480948901016125be565b81520192019161277e565b80600052600660205260406000203360005260205260ff60406000205416156127e05750565b6044906040519063e2517d3f60e01b82523360048301526024820152fd5b906000918083526006602052604083209160018060a01b03169182845260205260ff604084205416156000146128795780835260066020526040832082845260205260408320600160ff198254161790557f2f8788117e7eff1d82e926ec794901d17c78024a50270940304540a733656f0d339380a4600190565b505090565b906000918083526006602052604083209160018060a01b03169182845260205260ff604084205416600014612879578083526006602052604083208284526020526040832060ff1981541690557ff6391f5c32d9c69d2a47ea670b442974b53935d1edc7fd64eb21e047a839171b339380a4600190565b6007546001600160a01b0316330361290957565b60405163118cdaa760e01b8152336004820152602490fd5b6001600160a01b03918216929091831561214157600092828452826020956002875260409684888820541696879133151580612a11575b509060027fddf252ad1be2c89b69c2b068fc378daa952ba7f163c4a11628f55a4df523b3ef92846129de575b858352600381528b8320805460010190558683525289812080546001600160a01b0319168517905580a416928383036129bd5750505050565b6064945051926364283d7b60e01b8452600484015260248301526044820152fd5b600087815260046020526040902080546001600160a01b0319169055848352600381528b83208054600019019055612984565b91939450915080612a66575b15612a2d57859291879138612958565b878688612a4a576024915190637e27328960e01b82526004820152fd5b604491519063177e802f60e01b82523360048301526024820152fd5b503387148015612a8b575b80612a1d5750858252600481523385898420541614612a1d565b5086825260058152878220338352815260ff8883205416612a71565b6000818152600260205260409020546001600160a01b0316908115612aca575090565b60249060405190637e27328960e01b82526004820152fd5b909192833b612af3575b5050505050565b604051630a85bd0160e11b8082526001600160a01b039384166004830152938316602482015260448101919091526080606482015260209591909316939091908390612b439060848301906124df565b039285816000958187895af1849181612bed575b50612bb7575050503d600014612baf573d612b718161256c565b90612b7f604051928361254b565b81528091843d92013e5b80519283612baa57604051633250574960e11b815260048101849052602490fd5b019050fd5b506060612b89565b919450915063ffffffff60e01b1603612bd557503880808080612aec565b60249060405190633250574960e11b82526004820152fd5b9091508681813d8311612c2a575b612c05818361254b565b81010312612c2657516001600160e01b031981168103612c26579038612b57565b8480fd5b503d612bfb565b6040516331a9108f60e11b815260048101829052602081602481305afa9081612c77575b50612c605750600090565b600052600960205260ff600f604060002001541690565b6020813d8211612cad575b81612c8f6020938361254b565b8101031261023957516001600160a01b038116036102395738612c55565b3d9150612c82565b612cbe81612c31565b15612cf7576000526009602052604060002060018060a01b03600982015460081c1615159081612cec575090565b600491500154421090565b50600090565b612d0681612c31565b15612cf757600052600960205260ff6009604060002001541690565b6000198114612d315760010190565b634e487b7160e01b600052601160045260246000fd5b8051821015612d5b5760209160051b010190565b634e487b7160e01b600052603260045260246000fd5b15612d7857565b60405162461bcd60e51b815260206004820152601760248201527f4d757374206861766520766572696669657220726f6c650000000000000000006044820152606490fd5b15612dc457565b60405162461bcd60e51b8152602060048201526014602482015273151bdad95b88191bd95cc81b9bdd08195e1a5cdd60621b6044820152606490fdfea2646970667358221220f97636d25bbf5d56fb10b6255cff846755145244eca25d1c33cd55281babfb5d64736f6c63430008140033","opcodes":"PUSH1 0x80 CALLVALUE PUSH3 0x3A1 JUMPI PUSH1 0x40 SWAP1 PUSH1 0x1 PUSH1 0x1 PUSH1 0x40 SHL SUB DUP2 DUP4 ADD DUP2 DUP2 GT DUP4 DUP3 LT OR PUSH3 0x38B JUMPI DUP4 MSTORE PUSH1 0x7 DUP3 MSTORE PUSH1 0x20 SWAP2 PUSH7 0x14DD5C999BDBD9 PUSH1 0xCA SHL DUP4 DUP3 ADD MSTORE DUP4 MLOAD SWAP2 DUP5 DUP4 ADD DUP4 DUP2 LT DUP3 DUP3 GT OR PUSH3 0x38B JUMPI DUP6 MSTORE PUSH1 0x4 SWAP3 DUP4 DUP2 MSTORE PUSH4 0x1193D3D1 PUSH1 0xE2 SHL DUP6 DUP3 ADD MSTORE DUP3 MLOAD SWAP1 DUP3 DUP3 GT PUSH3 0x376 JUMPI PUSH1 0x0 SWAP6 DUP7 SLOAD SWAP3 PUSH1 0x1 SWAP6 DUP7 DUP6 DUP2 SHR SWAP6 AND DUP1 ISZERO PUSH3 0x36B JUMPI JUMPDEST DUP4 DUP7 LT EQ PUSH3 0x358 JUMPI DUP2 SWAP1 PUSH1 0x1F SWAP6 DUP7 DUP2 GT PUSH3 0x305 JUMPI JUMPDEST POP DUP4 SWAP1 DUP7 DUP4 GT PUSH1 0x1 EQ PUSH3 0x2A1 JUMPI DUP11 SWAP3 PUSH3 0x295 JUMPI JUMPDEST POP POP PUSH1 0x0 NOT PUSH1 0x3 DUP4 SWAP1 SHL SHR NOT AND SWAP1 DUP7 SHL OR DUP8 SSTORE JUMPDEST DUP2 MLOAD SWAP4 DUP5 GT PUSH3 0x282 JUMPI DUP5 SLOAD DUP6 DUP2 DUP2 SHR SWAP2 AND DUP1 ISZERO PUSH3 0x277 JUMPI JUMPDEST DUP3 DUP3 LT EQ PUSH3 0x264 JUMPI SWAP1 DUP2 DUP5 DUP7 SWAP6 SWAP5 SWAP4 GT PUSH3 0x20D JUMPI JUMPDEST POP DUP1 SWAP3 DUP5 GT PUSH1 0x1 EQ PUSH3 0x1A5 JUMPI POP DUP7 SWAP3 PUSH3 0x199 JUMPI JUMPDEST POP POP PUSH1 0x0 NOT PUSH1 0x3 DUP4 SWAP1 SHL SHR NOT AND SWAP1 DUP3 SHL OR SWAP1 SSTORE JUMPDEST CALLER ISZERO PUSH3 0x184 JUMPI POP PUSH1 0x7 DUP1 SLOAD CALLER PUSH1 0x1 PUSH1 0x1 PUSH1 0xA0 SHL SUB NOT DUP3 AND DUP2 OR SWAP1 SWAP3 SSTORE PUSH1 0x1 PUSH1 0x1 PUSH1 0xA0 SHL SUB AND PUSH32 0x8BE0079C531659141344CD1FD0A4F28419497F9722A3DAAFE3B4186F6B6457E0 DUP4 DUP1 LOG3 PUSH3 0x172 CALLER PUSH3 0x3A6 JUMP JUMPDEST POP PUSH1 0x8 SSTORE MLOAD PUSH2 0x2E36 SWAP1 DUP2 PUSH3 0x439 DUP3 CODECOPY RETURN JUMPDEST SWAP2 MLOAD PUSH4 0x1E4FBDF7 PUSH1 0xE0 SHL DUP2 MSTORE SWAP2 DUP3 ADD MSTORE PUSH1 0x24 SWAP1 REVERT JUMPDEST ADD MLOAD SWAP1 POP CODESIZE DUP1 PUSH3 0x109 JUMP JUMPDEST SWAP2 SWAP1 DUP6 SWAP5 POP PUSH1 0x1F NOT DUP5 AND DUP6 DUP10 MSTORE DUP4 DUP10 KECCAK256 SWAP4 DUP10 SWAP1 JUMPDEST DUP3 DUP3 LT PUSH3 0x1F3 JUMPI POP POP DUP5 GT PUSH3 0x1D9 JUMPI JUMPDEST POP POP POP DUP2 SHL ADD SWAP1 SSTORE PUSH3 0x11D JUMP JUMPDEST ADD MLOAD PUSH1 0x0 NOT PUSH1 0xF8 DUP5 PUSH1 0x3 SHL AND SHR NOT AND SWAP1 SSTORE CODESIZE DUP1 DUP1 PUSH3 0x1CB JUMP JUMPDEST DUP5 DUP5 ADD MLOAD DUP7 SSTORE DUP9 SWAP8 SWAP1 SWAP6 ADD SWAP5 SWAP4 DUP5 ADD SWAP4 SWAP1 DUP2 ADD SWAP1 PUSH3 0x1B9 JUMP JUMPDEST SWAP1 SWAP2 SWAP3 SWAP4 POP DUP6 DUP9 MSTORE DUP2 DUP9 KECCAK256 DUP5 DUP1 DUP8 ADD PUSH1 0x5 SHR DUP3 ADD SWAP3 DUP5 DUP9 LT PUSH3 0x25A JUMPI JUMPDEST SWAP2 DUP8 SWAP7 DUP10 SWAP3 SWAP7 SWAP6 SWAP5 SWAP4 ADD PUSH1 0x5 SHR ADD SWAP2 JUMPDEST DUP3 DUP2 LT PUSH3 0x24B JUMPI POP POP PUSH3 0xF3 JUMP JUMPDEST DUP11 DUP2 SSTORE DUP8 SWAP7 POP DUP9 SWAP2 ADD PUSH3 0x23B JUMP JUMPDEST SWAP3 POP DUP2 SWAP3 PUSH3 0x22B JUMP JUMPDEST PUSH4 0x4E487B71 PUSH1 0xE0 SHL DUP9 MSTORE PUSH1 0x22 DUP8 MSTORE PUSH1 0x24 DUP9 REVERT JUMPDEST SWAP1 PUSH1 0x7F AND SWAP1 PUSH3 0xDC JUMP JUMPDEST PUSH4 0x4E487B71 PUSH1 0xE0 SHL DUP8 MSTORE PUSH1 0x41 DUP7 MSTORE PUSH1 0x24 DUP8 REVERT JUMPDEST ADD MLOAD SWAP1 POP CODESIZE DUP1 PUSH3 0xAE JUMP JUMPDEST DUP11 DUP1 MSTORE DUP5 DUP12 KECCAK256 DUP10 SWAP5 POP SWAP2 SWAP1 PUSH1 0x1F NOT DUP5 AND DUP13 JUMPDEST DUP8 DUP3 DUP3 LT PUSH3 0x2EE JUMPI POP POP DUP5 GT PUSH3 0x2D4 JUMPI JUMPDEST POP POP POP DUP2 SHL ADD DUP8 SSTORE PUSH3 0xC2 JUMP JUMPDEST ADD MLOAD PUSH1 0x0 NOT PUSH1 0xF8 DUP5 PUSH1 0x3 SHL AND SHR NOT AND SWAP1 SSTORE CODESIZE DUP1 DUP1 PUSH3 0x2C6 JUMP JUMPDEST DUP4 DUP6 ADD MLOAD DUP7 SSTORE DUP13 SWAP8 SWAP1 SWAP6 ADD SWAP5 SWAP4 DUP5 ADD SWAP4 ADD PUSH3 0x2B3 JUMP JUMPDEST SWAP1 SWAP2 POP DUP10 DUP1 MSTORE DUP4 DUP11 KECCAK256 DUP7 DUP1 DUP6 ADD PUSH1 0x5 SHR DUP3 ADD SWAP3 DUP7 DUP7 LT PUSH3 0x34E JUMPI JUMPDEST SWAP2 DUP11 SWAP2 DUP7 SWAP6 SWAP5 SWAP4 ADD PUSH1 0x5 SHR ADD SWAP2 JUMPDEST DUP3 DUP2 LT PUSH3 0x33F JUMPI POP POP PUSH3 0x98 JUMP JUMPDEST DUP13 DUP2 SSTORE DUP6 SWAP5 POP DUP11 SWAP2 ADD PUSH3 0x32F JUMP JUMPDEST SWAP3 POP DUP2 SWAP3 PUSH3 0x321 JUMP JUMPDEST PUSH4 0x4E487B71 PUSH1 0xE0 SHL DUP10 MSTORE PUSH1 0x22 DUP9 MSTORE PUSH1 0x24 DUP10 REVERT JUMPDEST SWAP5 PUSH1 0x7F AND SWAP5 PUSH3 0x81 JUMP JUMPDEST PUSH1 0x41 DUP6 PUSH4 0x4E487B71 PUSH1 0xE0 SHL PUSH1 0x0 MSTORE MSTORE PUSH1 0x24 PUSH1 0x0 REVERT JUMPDEST PUSH4 0x4E487B71 PUSH1 0xE0 SHL PUSH1 0x0 MSTORE PUSH1 0x41 PUSH1 0x4 MSTORE PUSH1 0x24 PUSH1 0x0 REVERT JUMPDEST PUSH1 0x0 DUP1 REVERT JUMPDEST PUSH1 0x1 PUSH1 0x1 PUSH1 0xA0 SHL SUB AND PUSH1 0x0 DUP2 DUP2 MSTORE PUSH32 0x54CDD369E4E8A8515E52CA72EC816C2101831AD1F18BF44102ED171459C9B4F8 PUSH1 0x20 MSTORE PUSH1 0x40 DUP2 KECCAK256 SLOAD SWAP1 SWAP2 SWAP1 PUSH1 0xFF AND PUSH3 0x434 JUMPI DUP2 DUP1 MSTORE PUSH1 0x6 PUSH1 0x20 MSTORE PUSH1 0x40 DUP3 KECCAK256 DUP2 DUP4 MSTORE PUSH1 0x20 MSTORE PUSH1 0x40 DUP3 KECCAK256 PUSH1 0x1 PUSH1 0xFF NOT DUP3 SLOAD AND OR SWAP1 SSTORE CALLER SWAP2 PUSH32 0x2F8788117E7EFF1D82E926EC794901D17C78024A50270940304540A733656F0D DUP2 DUP1 LOG4 PUSH1 0x1 SWAP1 JUMP JUMPDEST POP SWAP1 JUMP INVALID PUSH1 0x80 DUP1 PUSH1 0x40 MSTORE PUSH1 0x4 CALLDATASIZE LT ISZERO PUSH2 0x13 JUMPI PUSH1 0x0 DUP1 REVERT JUMPDEST PUSH1 0x0 CALLDATALOAD PUSH1 0xE0 SHR SWAP1 DUP2 PUSH4 0x1FFC9A7 EQ PUSH2 0x2437 JUMPI POP DUP1 PUSH4 0x6FDDE03 EQ PUSH2 0x2394 JUMPI DUP1 PUSH4 0x81812FC EQ PUSH2 0x2356 JUMPI DUP1 PUSH4 0x95EA7B3 EQ PUSH2 0x226F JUMPI DUP1 PUSH4 0x1BF9826A EQ PUSH2 0x1641 JUMPI DUP1 PUSH4 0x23B872DD EQ PUSH2 0x162A JUMPI DUP1 PUSH4 0x248A9CA3 EQ PUSH2 0x15FB JUMPI DUP1 PUSH4 0x2F2FF15D EQ PUSH2 0x15BC JUMPI DUP1 PUSH4 0x35EF8899 EQ PUSH2 0x143D JUMPI DUP1 PUSH4 0x36568ABE EQ PUSH2 0x13F6 JUMPI DUP1 PUSH4 0x42842E0E EQ PUSH2 0x13C8 JUMPI DUP1 PUSH4 0x44B0CEED EQ PUSH2 0x13AA JUMPI DUP1 PUSH4 0x4A348DA9 EQ PUSH2 0x138C JUMPI DUP1 PUSH4 0x4F558E79 EQ PUSH2 0x136E JUMPI DUP1 PUSH4 0x56CB2462 EQ PUSH2 0x1346 JUMPI DUP1 PUSH4 0x5C2FA7E4 EQ PUSH2 0x11C3 JUMPI DUP1 PUSH4 0x60F7F09E EQ PUSH2 0x1074 JUMPI DUP1 PUSH4 0x6352211E EQ PUSH2 0x1044 JUMPI DUP1 PUSH4 0x70A08231 EQ PUSH2 0xFEB JUMPI DUP1 PUSH4 0x715018A6 EQ PUSH2 0xF8E JUMPI DUP1 PUSH4 0x731DB767 EQ PUSH2 0xED0 JUMPI DUP1 PUSH4 0x8DA5CB5B EQ PUSH2 0xEA7 JUMPI DUP1 PUSH4 0x91D14854 EQ PUSH2 0xE5A JUMPI DUP1 PUSH4 0x95D89B41 EQ PUSH2 0xD7B JUMPI DUP1 PUSH4 0xA217FDDF EQ PUSH2 0xD5F JUMPI DUP1 PUSH4 0xA22CB465 EQ PUSH2 0xCB4 JUMPI DUP1 PUSH4 0xB88D4FDE EQ PUSH2 0xC49 JUMPI DUP1 PUSH4 0xB9DB15B4 EQ PUSH2 0xAD4 JUMPI DUP1 PUSH4 0xBDEFD4E4 EQ PUSH2 0x3E1 JUMPI DUP1 PUSH4 0xC87B56DD EQ PUSH2 0x38A JUMPI DUP1 PUSH4 0xCB3E1FE7 EQ PUSH2 0x34F JUMPI DUP1 PUSH4 0xD547741F EQ PUSH2 0x30E JUMPI DUP1 PUSH4 0xE155D6F6 EQ PUSH2 0x2CF JUMPI DUP1 PUSH4 0xE7705DB6 EQ PUSH2 0x294 JUMPI DUP1 PUSH4 0xE985E9C5 EQ PUSH2 0x23E JUMPI PUSH4 0xF2FDE38B EQ PUSH2 0x1AB JUMPI PUSH1 0x0 DUP1 REVERT JUMPDEST CALLVALUE PUSH2 0x239 JUMPI PUSH1 0x20 CALLDATASIZE PUSH1 0x3 NOT ADD SLT PUSH2 0x239 JUMPI PUSH2 0x1C4 PUSH2 0x2504 JUMP JUMPDEST PUSH2 0x1CC PUSH2 0x28F5 JUMP JUMPDEST PUSH1 0x1 PUSH1 0x1 PUSH1 0xA0 SHL SUB SWAP1 DUP2 AND SWAP1 DUP2 ISZERO PUSH2 0x220 JUMPI PUSH1 0x7 SLOAD DUP3 PUSH12 0xFFFFFFFFFFFFFFFFFFFFFFFF PUSH1 0xA0 SHL DUP3 AND OR PUSH1 0x7 SSTORE AND PUSH32 0x8BE0079C531659141344CD1FD0A4F28419497F9722A3DAAFE3B4186F6B6457E0 PUSH1 0x0 DUP1 LOG3 STOP JUMPDEST PUSH1 0x40 MLOAD PUSH4 0x1E4FBDF7 PUSH1 0xE0 SHL DUP2 MSTORE PUSH1 0x0 PUSH1 0x4 DUP3 ADD MSTORE PUSH1 0x24 SWAP1 REVERT JUMPDEST PUSH1 0x0 DUP1 REVERT JUMPDEST CALLVALUE PUSH2 0x239 JUMPI PUSH1 0x40 CALLDATASIZE PUSH1 0x3 NOT ADD SLT PUSH2 0x239 JUMPI PUSH2 0x257 PUSH2 0x2504 JUMP JUMPDEST PUSH2 0x25F PUSH2 0x251A JUMP JUMPDEST SWAP1 PUSH1 0x1 DUP1 PUSH1 0xA0 SHL SUB DUP1 SWAP2 AND PUSH1 0x0 MSTORE PUSH1 0x5 PUSH1 0x20 MSTORE PUSH1 0x40 PUSH1 0x0 KECCAK256 SWAP2 AND PUSH1 0x0 MSTORE PUSH1 0x20 MSTORE PUSH1 0x20 PUSH1 0xFF PUSH1 0x40 PUSH1 0x0 KECCAK256 SLOAD AND PUSH1 0x40 MLOAD SWAP1 ISZERO ISZERO DUP2 MSTORE RETURN JUMPDEST CALLVALUE PUSH2 0x239 JUMPI PUSH1 0x0 CALLDATASIZE PUSH1 0x3 NOT ADD SLT PUSH2 0x239 JUMPI PUSH1 0x20 PUSH1 0x40 MLOAD PUSH32 0xCE23C3E399818CFEE81A7AB0880F714E53D7672B08DF0FA62F2843416E1EA09 DUP2 MSTORE RETURN JUMPDEST CALLVALUE PUSH2 0x239 JUMPI PUSH1 0x20 CALLDATASIZE PUSH1 0x3 NOT ADD SLT PUSH2 0x239 JUMPI PUSH1 0x1 PUSH1 0x1 PUSH1 0xA0 SHL SUB PUSH2 0x2F0 PUSH2 0x2504 JUMP JUMPDEST AND PUSH1 0x0 MSTORE PUSH1 0xA PUSH1 0x20 MSTORE PUSH1 0x20 PUSH1 0xFF PUSH1 0x40 PUSH1 0x0 KECCAK256 SLOAD AND PUSH1 0x40 MLOAD SWAP1 ISZERO ISZERO DUP2 MSTORE RETURN JUMPDEST CALLVALUE PUSH2 0x239 JUMPI PUSH1 0x40 CALLDATASIZE PUSH1 0x3 NOT ADD SLT PUSH2 0x239 JUMPI PUSH2 0x34D PUSH1 0x4 CALLDATALOAD PUSH2 0x32D PUSH2 0x251A JUMP JUMPDEST SWAP1 DUP1 PUSH1 0x0 MSTORE PUSH1 0x6 PUSH1 0x20 MSTORE PUSH2 0x348 PUSH1 0x1 PUSH1 0x40 PUSH1 0x0 KECCAK256 ADD SLOAD PUSH2 0x27BA JUMP JUMPDEST PUSH2 0x287E JUMP JUMPDEST STOP JUMPDEST CALLVALUE PUSH2 0x239 JUMPI PUSH1 0x0 CALLDATASIZE PUSH1 0x3 NOT ADD SLT PUSH2 0x239 JUMPI PUSH1 0x20 PUSH1 0x40 MLOAD PUSH32 0x8EB467F061CA67F42A2D2CA4A346FC9FB645EFC0BA75056EE9F71C3A0CCC10A8 DUP2 MSTORE RETURN JUMPDEST CALLVALUE PUSH2 0x239 JUMPI PUSH1 0x20 CALLDATASIZE PUSH1 0x3 NOT ADD SLT PUSH2 0x239 JUMPI PUSH2 0x3A6 PUSH1 0x4 CALLDATALOAD PUSH2 0x2AA7 JUMP JUMPDEST POP PUSH1 0x0 PUSH1 0x40 MLOAD PUSH2 0x3B5 DUP2 PUSH2 0x2530 JUMP JUMPDEST MSTORE PUSH2 0x3DD PUSH1 0x40 MLOAD PUSH2 0x3C5 DUP2 PUSH2 0x2530 JUMP JUMPDEST PUSH1 0x0 DUP2 MSTORE PUSH1 0x40 MLOAD SWAP2 DUP3 SWAP2 PUSH1 0x20 DUP4 MSTORE PUSH1 0x20 DUP4 ADD SWAP1 PUSH2 0x24DF JUMP JUMPDEST SUB SWAP1 RETURN JUMPDEST CALLVALUE PUSH2 0x239 JUMPI PUSH1 0xE0 CALLDATASIZE PUSH1 0x3 NOT ADD SLT PUSH2 0x239 JUMPI PUSH1 0x24 CALLDATALOAD PUSH1 0x1 PUSH1 0x1 PUSH1 0x40 SHL SUB DUP2 GT PUSH2 0x239 JUMPI PUSH2 0x411 SWAP1 CALLDATASIZE SWAP1 PUSH1 0x4 ADD PUSH2 0x25BE JUMP JUMPDEST PUSH1 0x44 CALLDATALOAD PUSH1 0x1 PUSH1 0x1 PUSH1 0x40 SHL SUB DUP2 GT PUSH2 0x239 JUMPI PUSH2 0x430 SWAP1 CALLDATASIZE SWAP1 PUSH1 0x4 ADD PUSH2 0x25BE JUMP JUMPDEST PUSH1 0x64 CALLDATALOAD PUSH1 0x1 PUSH1 0x1 PUSH1 0x40 SHL SUB DUP2 GT PUSH2 0x239 JUMPI PUSH2 0x44F SWAP1 CALLDATASIZE SWAP1 PUSH1 0x4 ADD PUSH2 0x25BE JUMP JUMPDEST PUSH1 0xA4 CALLDATALOAD PUSH1 0x1 PUSH1 0x1 PUSH1 0x40 SHL SUB DUP2 GT PUSH2 0x239 JUMPI PUSH2 0x46E SWAP1 CALLDATASIZE SWAP1 PUSH1 0x4 ADD PUSH2 0x273A JUMP JUMPDEST SWAP3 PUSH1 0xC4 CALLDATALOAD PUSH1 0x1 PUSH1 0x1 PUSH1 0x40 SHL SUB DUP2 GT PUSH2 0x239 JUMPI PUSH2 0x48E SWAP1 CALLDATASIZE SWAP1 PUSH1 0x4 ADD PUSH2 0x273A JUMP JUMPDEST CALLER PUSH1 0x0 SWAP1 DUP2 MSTORE PUSH32 0xE298173FB715FB8B47CBA95AFE542599CDE89075E978203BAA0C87BD3333A439 PUSH1 0x20 MSTORE PUSH1 0x40 SWAP1 KECCAK256 SLOAD SWAP1 SWAP2 SWAP1 PUSH2 0x4CC SWAP1 PUSH1 0xFF AND PUSH2 0x2D71 JUMP JUMPDEST PUSH2 0x4DF PUSH2 0x4DA PUSH1 0x4 CALLDATALOAD PUSH2 0x2C31 JUMP JUMPDEST PUSH2 0x2DBD JUMP JUMPDEST DUP5 MLOAD DUP3 MLOAD SUB PUSH2 0xA96 JUMPI DUP1 MLOAD ISZERO PUSH2 0xA51 JUMPI PUSH1 0x4 CALLDATALOAD PUSH1 0x0 MSTORE PUSH1 0x9 PUSH1 0x20 MSTORE PUSH1 0x40 PUSH1 0x0 KECCAK256 SWAP4 PUSH1 0xB DUP6 ADD SLOAD PUSH1 0x0 MSTORE PUSH1 0xA DUP6 ADD PUSH1 0x20 MSTORE PUSH1 0x40 PUSH1 0x0 KECCAK256 SWAP4 TIMESTAMP DUP6 SSTORE DUP3 MLOAD PUSH1 0x1 PUSH1 0x1 PUSH1 0x40 SHL SUB DUP2 GT PUSH2 0x786 JUMPI PUSH2 0x535 PUSH1 0x1 DUP8 ADD SLOAD PUSH2 0x2611 JUMP JUMPDEST PUSH1 0x1F DUP2 GT PUSH2 0xA0A JUMPI JUMPDEST POP DUP1 PUSH1 0x20 PUSH1 0x1F DUP3 GT PUSH1 0x1 EQ PUSH2 0x99D JUMPI PUSH1 0x0 SWAP2 PUSH2 0x992 JUMPI JUMPDEST POP DUP2 PUSH1 0x1 SHL SWAP2 PUSH1 0x0 NOT SWAP1 PUSH1 0x3 SHL SHR NOT AND OR PUSH1 0x1 DUP7 ADD SSTORE JUMPDEST DUP2 MLOAD PUSH1 0x1 PUSH1 0x1 PUSH1 0x40 SHL SUB DUP2 GT PUSH2 0x786 JUMPI PUSH2 0x589 PUSH1 0x2 DUP8 ADD SLOAD PUSH2 0x2611 JUMP JUMPDEST PUSH1 0x1F DUP2 GT PUSH2 0x94B JUMPI JUMPDEST POP DUP1 PUSH1 0x20 PUSH1 0x1F DUP3 GT PUSH1 0x1 EQ PUSH2 0x8DE JUMPI PUSH1 0x0 SWAP2 PUSH2 0x8D3 JUMPI JUMPDEST POP DUP2 PUSH1 0x1 SHL SWAP2 PUSH1 0x0 NOT SWAP1 PUSH1 0x3 SHL SHR NOT AND OR PUSH1 0x2 DUP7 ADD SSTORE JUMPDEST DUP1 MLOAD SWAP1 PUSH1 0x1 PUSH1 0x1 PUSH1 0x40 SHL SUB DUP3 GT PUSH2 0x786 JUMPI DUP2 SWAP1 PUSH2 0x5E0 PUSH1 0x3 DUP9 ADD SLOAD PUSH2 0x2611 JUMP JUMPDEST PUSH1 0x1F DUP2 GT PUSH2 0x880 JUMPI JUMPDEST POP PUSH1 0x20 SWAP1 PUSH1 0x1F DUP4 GT PUSH1 0x1 EQ PUSH2 0x80E JUMPI PUSH1 0x0 SWAP3 PUSH2 0x803 JUMPI JUMPDEST POP POP DUP2 PUSH1 0x1 SHL SWAP2 PUSH1 0x0 NOT SWAP1 PUSH1 0x3 SHL SHR NOT AND OR PUSH1 0x3 DUP6 ADD SSTORE JUMPDEST PUSH1 0x84 CALLDATALOAD PUSH1 0x4 DUP6 ADD SSTORE PUSH1 0x0 JUMPDEST DUP7 MLOAD DUP2 LT ISZERO PUSH2 0x79C JUMPI PUSH2 0x636 DUP2 DUP6 PUSH2 0x2D47 JUMP JUMPDEST MLOAD PUSH2 0x65A PUSH1 0x20 PUSH2 0x646 DUP5 DUP12 PUSH2 0x2D47 JUMP JUMPDEST MLOAD DUP2 PUSH1 0x40 MLOAD SWAP4 DUP3 DUP6 DUP1 SWAP5 MLOAD SWAP4 DUP5 SWAP3 ADD PUSH2 0x24BC JUMP JUMPDEST DUP2 ADD PUSH1 0x5 DUP11 ADD DUP2 MSTORE SUB ADD SWAP1 KECCAK256 SWAP1 DUP1 MLOAD SWAP1 PUSH1 0x1 PUSH1 0x1 PUSH1 0x40 SHL SUB DUP3 GT PUSH2 0x786 JUMPI PUSH2 0x682 DUP4 SLOAD PUSH2 0x2611 JUMP JUMPDEST PUSH1 0x1F DUP2 GT PUSH2 0x742 JUMPI JUMPDEST POP PUSH1 0x20 SWAP1 PUSH1 0x1F DUP4 GT PUSH1 0x1 EQ PUSH2 0x6D3 JUMPI PUSH2 0x6C3 SWAP5 SWAP4 SWAP3 SWAP2 PUSH1 0x0 SWAP2 DUP4 PUSH2 0x6C8 JUMPI JUMPDEST POP POP DUP2 PUSH1 0x1 SHL SWAP2 PUSH1 0x0 NOT SWAP1 PUSH1 0x3 SHL SHR NOT AND OR SWAP1 SSTORE PUSH2 0x2D22 JUMP JUMPDEST PUSH2 0x623 JUMP JUMPDEST ADD MLOAD SWAP1 POP DUP12 DUP1 PUSH2 0x6AA JUMP JUMPDEST SWAP1 DUP4 PUSH1 0x0 MSTORE PUSH1 0x20 PUSH1 0x0 KECCAK256 SWAP2 PUSH1 0x0 JUMPDEST PUSH1 0x1F NOT DUP6 AND DUP2 LT PUSH2 0x72A JUMPI POP SWAP2 DUP4 SWAP2 PUSH1 0x1 SWAP4 PUSH2 0x6C3 SWAP8 SWAP7 SWAP6 PUSH1 0x1F NOT DUP2 AND LT PUSH2 0x711 JUMPI JUMPDEST POP POP POP DUP2 SHL ADD SWAP1 SSTORE PUSH2 0x2D22 JUMP JUMPDEST ADD MLOAD PUSH1 0x0 NOT PUSH1 0xF8 DUP5 PUSH1 0x3 SHL AND SHR NOT AND SWAP1 SSTORE DUP12 DUP1 DUP1 PUSH2 0x704 JUMP JUMPDEST SWAP2 SWAP3 PUSH1 0x20 PUSH1 0x1 DUP2 SWAP3 DUP7 DUP6 ADD MLOAD DUP2 SSTORE ADD SWAP5 ADD SWAP3 ADD PUSH2 0x6E1 JUMP JUMPDEST DUP4 PUSH1 0x0 MSTORE PUSH1 0x20 PUSH1 0x0 KECCAK256 PUSH1 0x1F DUP5 ADD PUSH1 0x5 SHR DUP2 ADD PUSH1 0x20 DUP6 LT PUSH2 0x77F JUMPI JUMPDEST PUSH1 0x1F DUP4 ADD PUSH1 0x5 SHR DUP3 ADD DUP2 LT PUSH2 0x773 JUMPI POP POP PUSH2 0x68B JUMP JUMPDEST PUSH1 0x0 DUP2 SSTORE PUSH1 0x1 ADD PUSH2 0x75D JUMP JUMPDEST POP DUP1 PUSH2 0x75D JUMP JUMPDEST PUSH4 0x4E487B71 PUSH1 0xE0 SHL PUSH1 0x0 MSTORE PUSH1 0x41 PUSH1 0x4 MSTORE PUSH1 0x24 PUSH1 0x0 REVERT JUMPDEST POP PUSH2 0x7F2 PUSH32 0xB125A635359523C8C263ECEFF3818C33F0A52D99E6D765BB6A0B0DC946FEE12C SWAP2 DUP7 PUSH1 0xB PUSH1 0x1 DUP2 DUP4 ADD SLOAD ADD SWAP2 ADD SSTORE PUSH2 0x7E4 PUSH1 0x40 MLOAD SWAP5 PUSH1 0x60 DUP7 MSTORE PUSH1 0x60 DUP7 ADD SWAP1 PUSH2 0x24DF JUMP JUMPDEST SWAP1 DUP5 DUP3 SUB PUSH1 0x20 DUP7 ADD MSTORE PUSH2 0x24DF JUMP JUMPDEST SWAP2 TIMESTAMP PUSH1 0x40 DUP3 ADD MSTORE DUP1 PUSH1 0x4 CALLDATALOAD SWAP4 SUB SWAP1 LOG2 STOP JUMPDEST ADD MLOAD SWAP1 POP DUP9 DUP1 PUSH2 0x600 JUMP JUMPDEST SWAP3 POP PUSH1 0x3 DUP8 ADD PUSH1 0x0 MSTORE PUSH1 0x20 PUSH1 0x0 KECCAK256 SWAP1 PUSH1 0x0 SWAP4 JUMPDEST PUSH1 0x1F NOT DUP5 AND DUP6 LT PUSH2 0x865 JUMPI PUSH1 0x1 SWAP5 POP DUP4 PUSH1 0x1F NOT DUP2 AND LT PUSH2 0x84C JUMPI JUMPDEST POP POP POP DUP2 SHL ADD PUSH1 0x3 DUP6 ADD SSTORE PUSH2 0x618 JUMP JUMPDEST ADD MLOAD PUSH1 0x0 NOT PUSH1 0xF8 DUP5 PUSH1 0x3 SHL AND SHR NOT AND SWAP1 SSTORE DUP9 DUP1 DUP1 PUSH2 0x83C JUMP JUMPDEST DUP2 DUP2 ADD MLOAD DUP4 SSTORE PUSH1 0x20 SWAP5 DUP6 ADD SWAP5 PUSH1 0x1 SWAP1 SWAP4 ADD SWAP3 SWAP1 SWAP2 ADD SWAP1 PUSH2 0x821 JUMP JUMPDEST SWAP1 SWAP2 POP PUSH1 0x3 DUP8 ADD PUSH1 0x0 MSTORE PUSH1 0x20 PUSH1 0x0 KECCAK256 PUSH1 0x1F DUP5 ADD PUSH1 0x5 SHR DUP2 ADD PUSH1 0x20 DUP6 LT PUSH2 0x8CC JUMPI JUMPDEST SWAP1 DUP5 SWAP4 SWAP3 SWAP2 JUMPDEST PUSH1 0x1F DUP4 ADD PUSH1 0x5 SHR DUP3 ADD DUP2 LT PUSH2 0x8BD JUMPI POP POP PUSH2 0x5E9 JUMP JUMPDEST PUSH1 0x0 DUP2 SSTORE DUP6 SWAP5 POP PUSH1 0x1 ADD PUSH2 0x8A7 JUMP JUMPDEST POP DUP1 PUSH2 0x8A1 JUMP JUMPDEST SWAP1 POP DUP4 ADD MLOAD DUP10 PUSH2 0x5A9 JUMP JUMPDEST SWAP2 POP PUSH1 0x2 DUP8 ADD PUSH1 0x0 MSTORE PUSH1 0x20 PUSH1 0x0 KECCAK256 PUSH1 0x0 SWAP3 JUMPDEST PUSH1 0x1F NOT DUP4 AND DUP5 LT PUSH2 0x933 JUMPI PUSH1 0x1 SWAP4 POP DUP3 PUSH1 0x1F NOT DUP2 AND LT PUSH2 0x91A JUMPI JUMPDEST POP POP DUP2 SHL ADD PUSH1 0x2 DUP7 ADD SSTORE PUSH2 0x5C0 JUMP JUMPDEST DUP6 ADD MLOAD PUSH1 0x0 NOT PUSH1 0xF8 DUP5 PUSH1 0x3 SHL AND SHR NOT AND SWAP1 SSTORE DUP10 DUP1 PUSH2 0x90B JUMP JUMPDEST DUP6 DUP2 ADD MLOAD DUP3 SSTORE PUSH1 0x20 SWAP4 DUP5 ADD SWAP4 PUSH1 0x1 SWAP1 SWAP3 ADD SWAP2 ADD PUSH2 0x8F0 JUMP JUMPDEST PUSH1 0x2 DUP8 ADD PUSH1 0x0 MSTORE PUSH1 0x20 PUSH1 0x0 KECCAK256 PUSH1 0x1F DUP4 ADD PUSH1 0x5 SHR DUP2 ADD PUSH1 0x20 DUP5 LT PUSH2 0x98B JUMPI JUMPDEST PUSH1 0x1F DUP4 ADD PUSH1 0x5 SHR DUP3 ADD DUP2 LT PUSH2 0x97F JUMPI POP POP PUSH2 0x592 JUMP JUMPDEST PUSH1 0x0 DUP2 SSTORE PUSH1 0x1 ADD PUSH2 0x969 JUMP JUMPDEST POP DUP1 PUSH2 0x969 JUMP JUMPDEST SWAP1 POP DUP5 ADD MLOAD DUP10 PUSH2 0x555 JUMP JUMPDEST SWAP2 POP PUSH1 0x1 DUP8 ADD PUSH1 0x0 MSTORE PUSH1 0x20 PUSH1 0x0 KECCAK256 PUSH1 0x0 SWAP3 JUMPDEST PUSH1 0x1F NOT DUP4 AND DUP5 LT PUSH2 0x9F2 JUMPI PUSH1 0x1 SWAP4 POP DUP3 PUSH1 0x1F NOT DUP2 AND LT PUSH2 0x9D9 JUMPI JUMPDEST POP POP DUP2 SHL ADD PUSH1 0x1 DUP7 ADD SSTORE PUSH2 0x56C JUMP JUMPDEST DUP7 ADD MLOAD PUSH1 0x0 NOT PUSH1 0xF8 DUP5 PUSH1 0x3 SHL AND SHR NOT AND SWAP1 SSTORE DUP10 DUP1 PUSH2 0x9CA JUMP JUMPDEST DUP7 DUP2 ADD MLOAD DUP3 SSTORE PUSH1 0x20 SWAP4 DUP5 ADD SWAP4 PUSH1 0x1 SWAP1 SWAP3 ADD SWAP2 ADD PUSH2 0x9AF JUMP JUMPDEST PUSH1 0x1 DUP8 ADD PUSH1 0x0 MSTORE PUSH1 0x20 PUSH1 0x0 KECCAK256 PUSH1 0x1F DUP4 ADD PUSH1 0x5 SHR DUP2 ADD PUSH1 0x20 DUP5 LT PUSH2 0xA4A JUMPI JUMPDEST PUSH1 0x1F DUP4 ADD PUSH1 0x5 SHR DUP3 ADD DUP2 LT PUSH2 0xA3E JUMPI POP POP PUSH2 0x53E JUMP JUMPDEST PUSH1 0x0 DUP2 SSTORE PUSH1 0x1 ADD PUSH2 0xA28 JUMP JUMPDEST POP DUP1 PUSH2 0xA28 JUMP JUMPDEST PUSH1 0x40 MLOAD PUSH3 0x461BCD PUSH1 0xE5 SHL DUP2 MSTORE PUSH1 0x20 PUSH1 0x4 DUP3 ADD MSTORE PUSH1 0x1A PUSH1 0x24 DUP3 ADD MSTORE PUSH32 0x4576656E7420747970652063616E6E6F7420626520656D707479000000000000 PUSH1 0x44 DUP3 ADD MSTORE PUSH1 0x64 SWAP1 REVERT JUMPDEST PUSH1 0x40 MLOAD PUSH3 0x461BCD PUSH1 0xE5 SHL DUP2 MSTORE PUSH1 0x20 PUSH1 0x4 DUP3 ADD MSTORE PUSH1 0x16 PUSH1 0x24 DUP3 ADD MSTORE PUSH22 0x82E4E4C2F2E640D8CADCCEE8D040DAD2E6DAC2E8C6D PUSH1 0x53 SHL PUSH1 0x44 DUP3 ADD MSTORE PUSH1 0x64 SWAP1 REVERT JUMPDEST CALLVALUE PUSH2 0x239 JUMPI PUSH1 0x20 CALLDATASIZE PUSH1 0x3 NOT ADD SLT PUSH2 0x239 JUMPI PUSH1 0x4 CALLDATALOAD PUSH2 0xAF1 DUP2 PUSH2 0x2C31 JUMP JUMPDEST PUSH2 0xAFA SWAP1 PUSH2 0x2DBD JUMP JUMPDEST PUSH1 0x0 MSTORE PUSH1 0x9 PUSH1 0x20 MSTORE PUSH1 0x40 PUSH1 0x0 KECCAK256 PUSH1 0x2 DUP2 ADD SLOAD SWAP1 PUSH1 0x4 DUP2 ADD SLOAD SWAP2 PUSH1 0x8 DUP3 ADD SLOAD SWAP1 PUSH1 0x9 DUP4 ADD SLOAD PUSH1 0xC DUP5 ADD SLOAD PUSH1 0xD DUP6 ADD SLOAD PUSH1 0xFF AND SWAP2 PUSH1 0xE DUP7 ADD SLOAD SWAP4 PUSH2 0xB3B DUP8 PUSH2 0x264B JUMP JUMPDEST SWAP7 PUSH2 0xB48 PUSH1 0x1 DUP3 ADD PUSH2 0x264B JUMP JUMPDEST SWAP9 PUSH2 0xB55 PUSH1 0x3 DUP4 ADD PUSH2 0x264B JUMP JUMPDEST SWAP1 PUSH2 0xB62 PUSH1 0x5 DUP5 ADD PUSH2 0x264B JUMP JUMPDEST SWAP2 PUSH2 0xB6F PUSH1 0x6 DUP6 ADD PUSH2 0x264B JUMP JUMPDEST SWAP4 PUSH1 0x7 ADD PUSH2 0xB7C SWAP1 PUSH2 0x264B JUMP JUMPDEST SWAP5 PUSH1 0x40 MLOAD SWAP13 DUP14 SWAP13 DUP14 PUSH2 0x1E0 SWAP1 DUP2 DUP2 MSTORE ADD PUSH2 0xB95 SWAP2 PUSH2 0x24DF JUMP JUMPDEST DUP14 DUP2 SUB PUSH1 0x20 DUP16 ADD MSTORE PUSH2 0xBA6 SWAP2 PUSH2 0x24DF JUMP JUMPDEST SWAP1 PUSH1 0x40 DUP14 ADD MSTORE DUP12 DUP2 SUB PUSH1 0x60 DUP14 ADD MSTORE PUSH2 0xBBD SWAP2 PUSH2 0x24DF JUMP JUMPDEST SWAP1 PUSH1 0x80 DUP12 ADD MSTORE DUP10 DUP2 SUB PUSH1 0xA0 DUP12 ADD MSTORE PUSH2 0xBD4 SWAP2 PUSH2 0x24DF JUMP JUMPDEST DUP9 DUP2 SUB PUSH1 0xC0 DUP11 ADD MSTORE PUSH2 0xBE5 SWAP2 PUSH2 0x24DF JUMP JUMPDEST DUP8 DUP2 SUB PUSH1 0xE0 DUP10 ADD MSTORE PUSH2 0xBF6 SWAP2 PUSH2 0x24DF JUMP JUMPDEST SWAP5 PUSH2 0x100 DUP8 ADD MSTORE PUSH1 0xFF DUP2 AND ISZERO ISZERO PUSH2 0x120 DUP8 ADD MSTORE PUSH1 0x1 PUSH1 0xA0 SHL PUSH1 0x1 SWAP1 SUB DUP2 PUSH1 0x8 SHR AND PUSH2 0x140 DUP8 ADD MSTORE PUSH1 0xA8 SHR PUSH1 0xFF AND ISZERO ISZERO PUSH2 0x160 DUP7 ADD MSTORE PUSH2 0x180 DUP6 ADD MSTORE PUSH2 0x1A0 DUP5 ADD PUSH2 0xC3F SWAP2 PUSH2 0x26F1 JUMP JUMPDEST PUSH2 0x1C0 DUP4 ADD MSTORE SUB SWAP1 RETURN JUMPDEST CALLVALUE PUSH2 0x239 JUMPI PUSH1 0x80 CALLDATASIZE PUSH1 0x3 NOT ADD SLT PUSH2 0x239 JUMPI PUSH2 0xC62 PUSH2 0x2504 JUMP JUMPDEST PUSH2 0xC6A PUSH2 0x251A JUMP JUMPDEST SWAP1 PUSH1 0x44 CALLDATALOAD PUSH1 0x64 CALLDATALOAD SWAP3 PUSH1 0x1 PUSH1 0x1 PUSH1 0x40 SHL SUB DUP5 GT PUSH2 0x239 JUMPI CALLDATASIZE PUSH1 0x23 DUP6 ADD SLT ISZERO PUSH2 0x239 JUMPI PUSH2 0xCA2 PUSH2 0x34D SWAP5 CALLDATASIZE SWAP1 PUSH1 0x24 DUP2 PUSH1 0x4 ADD CALLDATALOAD SWAP2 ADD PUSH2 0x2587 JUMP JUMPDEST SWAP3 PUSH2 0xCAE DUP4 DUP4 DUP4 PUSH2 0x2921 JUMP JUMPDEST CALLER PUSH2 0x2AE2 JUMP JUMPDEST CALLVALUE PUSH2 0x239 JUMPI PUSH1 0x40 CALLDATASIZE PUSH1 0x3 NOT ADD SLT PUSH2 0x239 JUMPI PUSH2 0xCCD PUSH2 0x2504 JUMP JUMPDEST PUSH2 0xCD5 PUSH2 0x2714 JUMP JUMPDEST PUSH1 0x1 PUSH1 0x1 PUSH1 0xA0 SHL SUB SWAP1 SWAP2 AND SWAP1 DUP2 ISZERO PUSH2 0xD46 JUMPI CALLER PUSH1 0x0 MSTORE PUSH1 0x5 PUSH1 0x20 MSTORE PUSH1 0x40 PUSH1 0x0 KECCAK256 DUP3 PUSH1 0x0 MSTORE PUSH1 0x20 MSTORE PUSH2 0xD16 DUP2 PUSH1 0x40 PUSH1 0x0 KECCAK256 SWAP1 PUSH1 0xFF DUP1 NOT DUP4 SLOAD AND SWAP2 ISZERO ISZERO AND OR SWAP1 SSTORE JUMP JUMPDEST PUSH1 0x40 MLOAD SWAP1 ISZERO ISZERO DUP2 MSTORE PUSH32 0x17307EAB39AB6107E8899845AD3D59BD9653F200F220920489CA2B5937696C31 PUSH1 0x20 CALLER SWAP3 LOG3 STOP JUMPDEST PUSH1 0x40 MLOAD PUSH4 0xB611743 PUSH1 0xE3 SHL DUP2 MSTORE PUSH1 0x4 DUP2 ADD DUP4 SWAP1 MSTORE PUSH1 0x24 SWAP1 REVERT JUMPDEST CALLVALUE PUSH2 0x239 JUMPI PUSH1 0x0 CALLDATASIZE PUSH1 0x3 NOT ADD SLT PUSH2 0x239 JUMPI PUSH1 0x20 PUSH1 0x40 MLOAD PUSH1 0x0 DUP2 MSTORE RETURN JUMPDEST CALLVALUE PUSH2 0x239 JUMPI PUSH1 0x0 CALLDATASIZE PUSH1 0x3 NOT ADD SLT PUSH2 0x239 JUMPI PUSH1 0x40 MLOAD PUSH1 0x0 PUSH1 0x1 DUP1 SLOAD SWAP1 PUSH2 0xD9F DUP3 PUSH2 0x2611 JUMP JUMPDEST DUP1 DUP6 MSTORE SWAP2 DUP2 DUP2 AND SWAP1 DUP2 ISZERO PUSH2 0xE33 JUMPI POP PUSH1 0x1 EQ PUSH2 0xDDA JUMPI JUMPDEST PUSH2 0x3DD DUP5 PUSH2 0xDC6 DUP2 DUP7 SUB DUP3 PUSH2 0x254B JUMP JUMPDEST PUSH1 0x40 MLOAD SWAP2 DUP3 SWAP2 PUSH1 0x20 DUP4 MSTORE PUSH1 0x20 DUP4 ADD SWAP1 PUSH2 0x24DF JUMP JUMPDEST PUSH1 0x0 DUP2 DUP2 MSTORE SWAP3 POP PUSH32 0xB10E2D527612073B26EECDFD717E6A320CF44B4AFAC2B0732D9FCBE2B7FA0CF6 JUMPDEST DUP3 DUP5 LT PUSH2 0xE1B JUMPI POP POP POP DUP2 ADD PUSH1 0x20 ADD PUSH2 0xDC6 DUP3 PUSH2 0xDB6 JUMP JUMPDEST DUP1 SLOAD PUSH1 0x20 DUP6 DUP8 ADD DUP2 ADD SWAP2 SWAP1 SWAP2 MSTORE SWAP1 SWAP4 ADD SWAP3 DUP2 ADD PUSH2 0xE03 JUMP JUMPDEST PUSH1 0xFF NOT AND PUSH1 0x20 DUP1 DUP8 ADD SWAP2 SWAP1 SWAP2 MSTORE SWAP3 ISZERO ISZERO PUSH1 0x5 SHL DUP6 ADD SWAP1 SWAP3 ADD SWAP3 POP PUSH2 0xDC6 SWAP2 POP DUP4 SWAP1 POP PUSH2 0xDB6 JUMP JUMPDEST CALLVALUE PUSH2 0x239 JUMPI PUSH1 0x40 CALLDATASIZE PUSH1 0x3 NOT ADD SLT PUSH2 0x239 JUMPI PUSH2 0xE73 PUSH2 0x251A JUMP JUMPDEST PUSH1 0x4 CALLDATALOAD PUSH1 0x0 MSTORE PUSH1 0x6 PUSH1 0x20 MSTORE PUSH1 0x40 PUSH1 0x0 KECCAK256 SWAP1 PUSH1 0x1 DUP1 PUSH1 0xA0 SHL SUB AND PUSH1 0x0 MSTORE PUSH1 0x20 MSTORE PUSH1 0x20 PUSH1 0xFF PUSH1 0x40 PUSH1 0x0 KECCAK256 SLOAD AND PUSH1 0x40 MLOAD SWAP1 ISZERO ISZERO DUP2 MSTORE RETURN JUMPDEST CALLVALUE PUSH2 0x239 JUMPI PUSH1 0x0 CALLDATASIZE PUSH1 0x3 NOT ADD SLT PUSH2 0x239 JUMPI PUSH1 0x7 SLOAD PUSH1 0x40 MLOAD PUSH1 0x1 PUSH1 0x1 PUSH1 0xA0 SHL SUB SWAP1 SWAP2 AND DUP2 MSTORE PUSH1 0x20 SWAP1 RETURN JUMPDEST CALLVALUE PUSH2 0x239 JUMPI PUSH1 0x40 CALLDATASIZE PUSH1 0x3 NOT ADD SLT PUSH2 0x239 JUMPI PUSH1 0x4 CALLDATALOAD PUSH1 0x24 CALLDATALOAD PUSH1 0x4 DUP2 LT ISZERO PUSH2 0x239 JUMPI CALLER PUSH1 0x0 SWAP1 DUP2 MSTORE PUSH32 0xE298173FB715FB8B47CBA95AFE542599CDE89075E978203BAA0C87BD3333A439 PUSH1 0x20 MSTORE PUSH1 0x40 SWAP1 DUP2 SWAP1 KECCAK256 SLOAD PUSH32 0xC8BF5DF8E37A2CDE1AB3AF715FF64BA9051CB27FCCCA8C4751BD0409A1C71FD8 SWAP3 SWAP1 PUSH2 0xF50 SWAP1 PUSH1 0xFF AND PUSH2 0x2D71 JUMP JUMPDEST PUSH2 0xF5C PUSH2 0x4DA DUP6 PUSH2 0x2C31 JUMP JUMPDEST DUP4 PUSH1 0x0 MSTORE PUSH1 0x9 PUSH1 0x20 MSTORE PUSH1 0xD DUP3 PUSH1 0x0 KECCAK256 ADD PUSH1 0xFF NOT DUP2 SLOAD AND PUSH1 0xFF DUP4 AND OR SWAP1 SSTORE PUSH2 0xF85 DUP3 MLOAD DUP1 SWAP3 PUSH2 0x26F1 JUMP JUMPDEST TIMESTAMP PUSH1 0x20 DUP3 ADD MSTORE LOG2 STOP JUMPDEST CALLVALUE PUSH2 0x239 JUMPI PUSH1 0x0 CALLDATASIZE PUSH1 0x3 NOT ADD SLT PUSH2 0x239 JUMPI PUSH2 0xFA7 PUSH2 0x28F5 JUMP JUMPDEST PUSH1 0x7 DUP1 SLOAD PUSH1 0x1 PUSH1 0x1 PUSH1 0xA0 SHL SUB NOT DUP2 AND SWAP1 SWAP2 SSTORE PUSH1 0x0 SWAP1 PUSH1 0x1 PUSH1 0x1 PUSH1 0xA0 SHL SUB AND PUSH32 0x8BE0079C531659141344CD1FD0A4F28419497F9722A3DAAFE3B4186F6B6457E0 DUP3 DUP1 LOG3 STOP JUMPDEST CALLVALUE PUSH2 0x239 JUMPI PUSH1 0x20 CALLDATASIZE PUSH1 0x3 NOT ADD SLT PUSH2 0x239 JUMPI PUSH1 0x1 PUSH1 0x1 PUSH1 0xA0 SHL SUB PUSH2 0x100C PUSH2 0x2504 JUMP JUMPDEST AND DUP1 ISZERO PUSH2 0x102B JUMPI PUSH1 0x0 MSTORE PUSH1 0x3 PUSH1 0x20 MSTORE PUSH1 0x20 PUSH1 0x40 PUSH1 0x0 KECCAK256 SLOAD PUSH1 0x40 MLOAD SWAP1 DUP2 MSTORE RETURN JUMPDEST PUSH1 0x40 MLOAD PUSH4 0x22718AD9 PUSH1 0xE2 SHL DUP2 MSTORE PUSH1 0x0 PUSH1 0x4 DUP3 ADD MSTORE PUSH1 0x24 SWAP1 REVERT JUMPDEST CALLVALUE PUSH2 0x239 JUMPI PUSH1 0x20 CALLDATASIZE PUSH1 0x3 NOT ADD SLT PUSH2 0x239 JUMPI PUSH1 0x20 PUSH2 0x1062 PUSH1 0x4 CALLDATALOAD PUSH2 0x2AA7 JUMP JUMPDEST PUSH1 0x40 MLOAD PUSH1 0x1 PUSH1 0x1 PUSH1 0xA0 SHL SUB SWAP1 SWAP2 AND DUP2 MSTORE RETURN JUMPDEST CALLVALUE PUSH2 0x239 JUMPI PUSH1 0x60 CALLDATASIZE PUSH1 0x3 NOT ADD SLT PUSH2 0x239 JUMPI PUSH1 0x4 CALLDATALOAD PUSH2 0x1090 PUSH2 0x2714 JUMP JUMPDEST PUSH1 0x44 CALLDATALOAD SWAP1 PUSH2 0x10A0 PUSH2 0x4DA DUP5 PUSH2 0x2C31 JUMP JUMPDEST PUSH2 0x10A9 DUP4 PUSH2 0x2AA7 JUMP JUMPDEST CALLER PUSH1 0x1 PUSH1 0x1 PUSH1 0xA0 SHL SUB SWAP1 SWAP2 AND SUB PUSH2 0x118C JUMPI DUP3 PUSH1 0x0 MSTORE PUSH1 0x9 PUSH1 0x20 MSTORE PUSH1 0x40 PUSH1 0x0 KECCAK256 SWAP1 PUSH2 0x10E2 DUP2 PUSH1 0x9 DUP5 ADD SWAP1 PUSH1 0xFF DUP1 NOT DUP4 SLOAD AND SWAP2 ISZERO ISZERO AND OR SWAP1 SSTORE JUMP JUMPDEST ISZERO PUSH2 0x1163 JUMPI DUP2 ISZERO PUSH2 0x1125 JUMPI DUP2 PUSH32 0x97A2FD16610057B24C11EF7212218F5C3AEA1276A8C3D5F2DC824B5B122B0DFC SWAP3 PUSH1 0x8 PUSH1 0x40 SWAP4 ADD SSTORE DUP2 MLOAD SWAP1 DUP2 MSTORE TIMESTAMP PUSH1 0x20 DUP3 ADD MSTORE LOG2 STOP JUMPDEST PUSH1 0x40 MLOAD PUSH3 0x461BCD PUSH1 0xE5 SHL DUP2 MSTORE PUSH1 0x20 PUSH1 0x4 DUP3 ADD MSTORE PUSH1 0x16 PUSH1 0x24 DUP3 ADD MSTORE PUSH22 0x5072696365206D75737420626520706F736974697665 PUSH1 0x50 SHL PUSH1 0x44 DUP3 ADD MSTORE PUSH1 0x64 SWAP1 REVERT JUMPDEST POP POP PUSH32 0x600FE75B22E3FED1948261AB5F0B5B5F149CE6242E5BF06DAF884C2756ED6C83 PUSH1 0x0 DUP1 LOG2 STOP JUMPDEST PUSH1 0x40 MLOAD PUSH3 0x461BCD PUSH1 0xE5 SHL DUP2 MSTORE PUSH1 0x20 PUSH1 0x4 DUP3 ADD MSTORE PUSH1 0xF PUSH1 0x24 DUP3 ADD MSTORE PUSH15 0x2737BA103A37B5B2B71037BBB732B9 PUSH1 0x89 SHL PUSH1 0x44 DUP3 ADD MSTORE PUSH1 0x64 SWAP1 REVERT JUMPDEST CALLVALUE PUSH2 0x239 JUMPI PUSH1 0x20 CALLDATASIZE PUSH1 0x3 NOT ADD SLT PUSH2 0x239 JUMPI PUSH1 0x4 CALLDATALOAD PUSH1 0x0 MSTORE PUSH1 0x9 PUSH1 0x20 MSTORE PUSH1 0x40 PUSH1 0x0 KECCAK256 PUSH2 0x11ED DUP2 PUSH2 0x264B JUMP JUMPDEST SWAP1 PUSH2 0x11FA PUSH1 0x1 DUP3 ADD PUSH2 0x264B JUMP JUMPDEST SWAP1 PUSH1 0x2 DUP2 ADD SLOAD SWAP3 PUSH1 0x3 DUP3 ADD PUSH2 0x120E SWAP1 PUSH2 0x264B JUMP JUMPDEST PUSH1 0x4 DUP4 ADD SLOAD SWAP3 SWAP1 PUSH2 0x1221 PUSH1 0x5 DUP4 ADD PUSH2 0x264B JUMP JUMPDEST SWAP4 PUSH2 0x122E PUSH1 0x6 DUP5 ADD PUSH2 0x264B JUMP JUMPDEST SWAP5 PUSH2 0x123B PUSH1 0x7 DUP6 ADD PUSH2 0x264B JUMP JUMPDEST SWAP6 PUSH1 0x8 DUP6 ADD SLOAD SWAP7 PUSH1 0x9 DUP7 ADD SLOAD SWAP2 PUSH1 0xB DUP8 ADD SLOAD SWAP4 PUSH1 0xC DUP9 ADD SLOAD SWAP6 PUSH1 0xD DUP10 ADD SLOAD PUSH1 0xFF AND SWAP8 PUSH1 0xE DUP11 ADD SLOAD SWAP10 PUSH1 0xF ADD SLOAD PUSH1 0xFF AND SWAP11 PUSH1 0x40 MLOAD SWAP15 DUP16 SWAP15 DUP16 SWAP3 PUSH2 0x220 DUP1 DUP6 MSTORE DUP5 ADD PUSH2 0x1284 SWAP2 PUSH2 0x24DF JUMP JUMPDEST DUP4 DUP2 SUB PUSH1 0x20 DUP6 ADD MSTORE PUSH2 0x1295 SWAP2 PUSH2 0x24DF JUMP JUMPDEST SWAP2 PUSH1 0x40 ADD MSTORE DUP14 DUP1 DUP3 SUB SWAP1 PUSH1 0x60 ADD MSTORE PUSH2 0x12AC SWAP2 PUSH2 0x24DF JUMP JUMPDEST SWAP1 PUSH1 0x80 DUP14 ADD MSTORE DUP12 DUP2 SUB PUSH1 0xA0 DUP14 ADD MSTORE PUSH2 0x12C3 SWAP2 PUSH2 0x24DF JUMP JUMPDEST DUP11 DUP2 SUB PUSH1 0xC0 DUP13 ADD MSTORE PUSH2 0x12D4 SWAP2 PUSH2 0x24DF JUMP JUMPDEST DUP10 DUP2 SUB PUSH1 0xE0 DUP12 ADD MSTORE PUSH2 0x12E5 SWAP2 PUSH2 0x24DF JUMP JUMPDEST SWAP7 PUSH2 0x100 DUP10 ADD MSTORE PUSH1 0xFF DUP2 AND ISZERO ISZERO PUSH2 0x120 DUP10 ADD MSTORE PUSH1 0x1 PUSH1 0xA0 SHL PUSH1 0x1 SWAP1 SUB DUP2 PUSH1 0x8 SHR AND PUSH2 0x140 DUP10 ADD MSTORE PUSH1 0xA8 SHR PUSH1 0xFF AND ISZERO ISZERO PUSH2 0x160 DUP9 ADD MSTORE PUSH2 0x180 DUP8 ADD MSTORE PUSH2 0x1A0 DUP7 ADD MSTORE PUSH2 0x1C0 DUP6 ADD PUSH2 0x1334 SWAP2 PUSH2 0x26F1 JUMP JUMPDEST PUSH2 0x1E0 DUP5 ADD MSTORE ISZERO ISZERO PUSH2 0x200 DUP4 ADD MSTORE SUB SWAP1 RETURN JUMPDEST CALLVALUE PUSH2 0x239 JUMPI PUSH1 0x20 CALLDATASIZE PUSH1 0x3 NOT ADD SLT PUSH2 0x239 JUMPI PUSH1 0x20 PUSH2 0x1364 PUSH1 0x4 CALLDATALOAD PUSH2 0x2CFD JUMP JUMPDEST PUSH1 0x40 MLOAD SWAP1 ISZERO ISZERO DUP2 MSTORE RETURN JUMPDEST CALLVALUE PUSH2 0x239 JUMPI PUSH1 0x20 CALLDATASIZE PUSH1 0x3 NOT ADD SLT PUSH2 0x239 JUMPI PUSH1 0x20 PUSH2 0x1364 PUSH1 0x4 CALLDATALOAD PUSH2 0x2C31 JUMP JUMPDEST CALLVALUE PUSH2 0x239 JUMPI PUSH1 0x0 CALLDATASIZE PUSH1 0x3 NOT ADD SLT PUSH2 0x239 JUMPI PUSH1 0x20 PUSH1 0x8 SLOAD PUSH1 0x40 MLOAD SWAP1 DUP2 MSTORE RETURN JUMPDEST CALLVALUE PUSH2 0x239 JUMPI PUSH1 0x20 CALLDATASIZE PUSH1 0x3 NOT ADD SLT PUSH2 0x239 JUMPI PUSH1 0x20 PUSH2 0x1364 PUSH1 0x4 CALLDATALOAD PUSH2 0x2CB5 JUMP JUMPDEST CALLVALUE PUSH2 0x239 JUMPI PUSH2 0x34D PUSH2 0x13D9 CALLDATASIZE PUSH2 0x25DC JUMP JUMPDEST SWAP1 PUSH1 0x40 MLOAD SWAP3 PUSH2 0x13E7 DUP5 PUSH2 0x2530 JUMP JUMPDEST PUSH1 0x0 DUP5 MSTORE PUSH2 0xCAE DUP4 DUP4 DUP4 PUSH2 0x2921 JUMP JUMPDEST CALLVALUE PUSH2 0x239 JUMPI PUSH1 0x40 CALLDATASIZE PUSH1 0x3 NOT ADD SLT PUSH2 0x239 JUMPI PUSH2 0x140F PUSH2 0x251A JUMP JUMPDEST CALLER PUSH1 0x1 PUSH1 0x1 PUSH1 0xA0 SHL SUB DUP3 AND SUB PUSH2 0x142B JUMPI PUSH2 0x34D SWAP1 PUSH1 0x4 CALLDATALOAD PUSH2 0x287E JUMP JUMPDEST PUSH1 0x40 MLOAD PUSH4 0x334BD919 PUSH1 0xE1 SHL DUP2 MSTORE PUSH1 0x4 SWAP1 REVERT JUMPDEST CALLVALUE PUSH2 0x239 JUMPI PUSH1 0x20 DUP1 PUSH1 0x3 NOT CALLDATASIZE ADD SLT PUSH2 0x239 JUMPI PUSH2 0x1457 PUSH2 0x2504 JUMP JUMPDEST SWAP1 PUSH1 0x0 PUSH1 0x1 SWAP3 DUP4 PUSH1 0x8 DUP1 SLOAD SWAP2 JUMPDEST DUP3 DUP2 GT ISZERO PUSH2 0x155E JUMPI POP PUSH2 0x1476 DUP5 PUSH2 0x2723 JUMP JUMPDEST SWAP3 PUSH2 0x1484 PUSH1 0x40 MLOAD SWAP5 DUP6 PUSH2 0x254B JUMP JUMPDEST DUP5 DUP5 MSTORE PUSH2 0x1490 DUP6 PUSH2 0x2723 JUMP JUMPDEST DUP5 DUP8 ADD SWAP6 SWAP1 PUSH1 0x1F NOT ADD CALLDATASIZE DUP8 CALLDATACOPY PUSH2 0x14E0 JUMPI JUMPDEST POP POP POP SWAP2 PUSH1 0x40 SWAP4 SWAP2 SWAP4 MLOAD SWAP3 DUP2 DUP5 ADD SWAP1 DUP3 DUP6 MSTORE MLOAD DUP1 SWAP2 MSTORE PUSH1 0x40 DUP5 ADD SWAP5 SWAP2 PUSH1 0x0 JUMPDEST DUP3 DUP2 LT PUSH2 0x14CD JUMPI DUP6 DUP8 SUB DUP7 RETURN JUMPDEST DUP4 MLOAD DUP8 MSTORE SWAP6 DUP2 ADD SWAP6 SWAP3 DUP2 ADD SWAP3 DUP5 ADD PUSH2 0x14C0 JUMP JUMPDEST PUSH1 0x0 SWAP2 DUP8 JUMPDEST DUP5 DUP2 GT ISZERO PUSH2 0x14F4 JUMPI POP POP PUSH2 0x14A1 JUMP JUMPDEST PUSH2 0x14FD DUP2 PUSH2 0x2C31 JUMP JUMPDEST DUP1 PUSH2 0x1537 JUMPI JUMPDEST PUSH2 0x1516 JUMPI JUMPDEST PUSH2 0x1511 SWAP1 PUSH2 0x2D22 JUMP JUMPDEST PUSH2 0x14E5 JUMP JUMPDEST SWAP3 PUSH2 0x152F DUP2 DUP6 PUSH2 0x1529 PUSH2 0x1511 SWAP5 DUP11 PUSH2 0x2D47 JUMP JUMPDEST MSTORE PUSH2 0x2D22 JUMP JUMPDEST SWAP4 SWAP1 POP PUSH2 0x1508 JUMP JUMPDEST POP PUSH1 0x0 DUP2 DUP2 MSTORE PUSH1 0x9 DUP1 DUP11 MSTORE PUSH1 0x40 SWAP1 SWAP2 KECCAK256 ADD SLOAD PUSH1 0x1 PUSH1 0x1 PUSH1 0xA0 SHL SUB DUP5 DUP2 AND SWAP2 DUP5 SHR AND EQ PUSH2 0x1503 JUMP JUMPDEST PUSH2 0x1567 DUP2 PUSH2 0x2C31 JUMP JUMPDEST DUP1 PUSH2 0x1595 JUMPI JUMPDEST PUSH2 0x1580 JUMPI JUMPDEST PUSH2 0x157B SWAP1 PUSH2 0x2D22 JUMP JUMPDEST PUSH2 0x1464 JUMP JUMPDEST SWAP4 PUSH2 0x158D PUSH2 0x157B SWAP2 PUSH2 0x2D22 JUMP JUMPDEST SWAP5 SWAP1 POP PUSH2 0x1572 JUMP JUMPDEST POP PUSH1 0x0 DUP2 DUP2 MSTORE PUSH1 0x9 DUP1 DUP9 MSTORE PUSH1 0x40 SWAP1 SWAP2 KECCAK256 ADD SLOAD PUSH1 0x1 PUSH1 0x1 PUSH1 0xA0 SHL SUB DUP6 DUP2 AND SWAP2 DUP5 SHR AND EQ PUSH2 0x156D JUMP JUMPDEST CALLVALUE PUSH2 0x239 JUMPI PUSH1 0x40 CALLDATASIZE PUSH1 0x3 NOT ADD SLT PUSH2 0x239 JUMPI PUSH2 0x34D PUSH1 0x4 CALLDATALOAD PUSH2 0x15DB PUSH2 0x251A JUMP JUMPDEST SWAP1 DUP1 PUSH1 0x0 MSTORE PUSH1 0x6 PUSH1 0x20 MSTORE PUSH2 0x15F6 PUSH1 0x1 PUSH1 0x40 PUSH1 0x0 KECCAK256 ADD SLOAD PUSH2 0x27BA JUMP JUMPDEST PUSH2 0x27FE JUMP JUMPDEST CALLVALUE PUSH2 0x239 JUMPI PUSH1 0x20 CALLDATASIZE PUSH1 0x3 NOT ADD SLT PUSH2 0x239 JUMPI PUSH1 0x4 CALLDATALOAD PUSH1 0x0 MSTORE PUSH1 0x6 PUSH1 0x20 MSTORE PUSH1 0x20 PUSH1 0x1 PUSH1 0x40 PUSH1 0x0 KECCAK256 ADD SLOAD PUSH1 0x40 MLOAD SWAP1 DUP2 MSTORE RETURN JUMPDEST CALLVALUE PUSH2 0x239 JUMPI PUSH2 0x34D PUSH2 0x163B CALLDATASIZE PUSH2 0x25DC JUMP JUMPDEST SWAP2 PUSH2 0x2921 JUMP JUMPDEST CALLVALUE PUSH2 0x239 JUMPI PUSH2 0x160 CALLDATASIZE PUSH1 0x3 NOT ADD SLT PUSH2 0x239 JUMPI PUSH1 0x4 CALLDATALOAD PUSH1 0x1 PUSH1 0x1 PUSH1 0x40 SHL SUB DUP2 GT PUSH2 0x239 JUMPI PUSH2 0x1672 SWAP1 CALLDATASIZE SWAP1 PUSH1 0x4 ADD PUSH2 0x25BE JUMP JUMPDEST PUSH1 0x24 CALLDATALOAD PUSH1 0x1 PUSH1 0x1 PUSH1 0x40 SHL SUB DUP2 GT PUSH2 0x239 JUMPI PUSH2 0x1691 SWAP1 CALLDATASIZE SWAP1 PUSH1 0x4 ADD PUSH2 0x25BE JUMP JUMPDEST PUSH1 0x64 CALLDATALOAD PUSH1 0x1 PUSH1 0x1 PUSH1 0x40 SHL SUB DUP2 GT PUSH2 0x239 JUMPI PUSH2 0x16B0 SWAP1 CALLDATASIZE SWAP1 PUSH1 0x4 ADD PUSH2 0x25BE JUMP JUMPDEST SWAP1 PUSH1 0xA4 CALLDATALOAD PUSH1 0x1 PUSH1 0x1 PUSH1 0x40 SHL SUB DUP2 GT PUSH2 0x239 JUMPI PUSH2 0x16D0 SWAP1 CALLDATASIZE SWAP1 PUSH1 0x4 ADD PUSH2 0x25BE JUMP JUMPDEST SWAP1 PUSH1 0xC4 CALLDATALOAD PUSH1 0x1 PUSH1 0x1 PUSH1 0x40 SHL SUB DUP2 GT PUSH2 0x239 JUMPI PUSH2 0x16F0 SWAP1 CALLDATASIZE SWAP1 PUSH1 0x4 ADD PUSH2 0x25BE JUMP JUMPDEST SWAP2 PUSH1 0xE4 CALLDATALOAD PUSH1 0x1 PUSH1 0x1 PUSH1 0x40 SHL SUB DUP2 GT PUSH2 0x239 JUMPI PUSH2 0x1710 SWAP1 CALLDATASIZE SWAP1 PUSH1 0x4 ADD PUSH2 0x25BE JUMP JUMPDEST CALLER PUSH1 0x0 SWAP1 DUP2 MSTORE PUSH32 0x328940CD107CA3DBE17884ADBBB9D81697F5FFCB53586525DB9480BE8081F2D5 PUSH1 0x20 MSTORE PUSH1 0x40 SWAP1 KECCAK256 SLOAD SWAP1 SWAP2 SWAP1 PUSH1 0xFF AND ISZERO PUSH2 0x222A JUMPI DUP6 MLOAD ISZERO PUSH2 0x21EE JUMPI PUSH1 0x44 CALLDATALOAD ISZERO PUSH2 0x21A9 JUMPI TIMESTAMP PUSH1 0x84 CALLDATALOAD GT ISZERO PUSH2 0x215A JUMPI PUSH1 0x1 PUSH1 0x8 SLOAD ADD SWAP5 DUP6 PUSH1 0x8 SSTORE PUSH1 0x40 MLOAD PUSH2 0x177A DUP2 PUSH2 0x2530 JUMP JUMPDEST PUSH1 0x0 DUP2 MSTORE CALLER ISZERO PUSH2 0x2141 JUMPI PUSH1 0x0 DUP8 DUP2 MSTORE PUSH1 0x2 PUSH1 0x20 MSTORE PUSH1 0x40 SWAP1 KECCAK256 SLOAD PUSH1 0x1 PUSH1 0x1 PUSH1 0xA0 SHL SUB AND DUP1 ISZERO ISZERO SWAP1 DUP9 SWAP1 DUP3 PUSH2 0x210A JUMPI JUMPDEST CALLER PUSH1 0x0 MSTORE PUSH1 0x3 PUSH1 0x20 MSTORE PUSH1 0x40 PUSH1 0x0 KECCAK256 PUSH1 0x1 DUP2 SLOAD ADD SWAP1 SSTORE DUP2 PUSH1 0x0 MSTORE PUSH1 0x2 PUSH1 0x20 MSTORE PUSH1 0x40 PUSH1 0x0 KECCAK256 CALLER PUSH12 0xFFFFFFFFFFFFFFFFFFFFFFFF PUSH1 0xA0 SHL DUP3 SLOAD AND OR SWAP1 SSTORE CALLER SWAP1 PUSH32 0xDDF252AD1BE2C89B69C2B068FC378DAA952BA7F163C4A11628F55A4DF523B3EF PUSH1 0x0 DUP1 LOG4 PUSH2 0x20F1 JUMPI CALLER EXTCODESIZE PUSH2 0x1FD2 JUMPI JUMPDEST POP DUP6 PUSH1 0x0 MSTORE PUSH1 0x9 PUSH1 0x20 MSTORE PUSH1 0x40 PUSH1 0x0 KECCAK256 SWAP4 DUP8 MLOAD PUSH1 0x1 PUSH1 0x1 PUSH1 0x40 SHL SUB DUP2 GT PUSH2 0x786 JUMPI PUSH2 0x183E DUP7 SLOAD PUSH2 0x2611 JUMP JUMPDEST PUSH1 0x1F DUP2 GT PUSH2 0x1F8E JUMPI JUMPDEST POP DUP1 PUSH1 0x20 PUSH1 0x1F DUP3 GT PUSH1 0x1 EQ PUSH2 0x1F26 JUMPI PUSH1 0x0 SWAP2 PUSH2 0x1F1B JUMPI JUMPDEST POP DUP2 PUSH1 0x1 SHL SWAP2 PUSH1 0x0 NOT SWAP1 PUSH1 0x3 SHL SHR NOT AND OR DUP6 SSTORE JUMPDEST DUP1 MLOAD SWAP1 PUSH1 0x1 PUSH1 0x1 PUSH1 0x40 SHL SUB DUP3 GT PUSH2 0x786 JUMPI DUP2 SWAP1 PUSH2 0x1892 PUSH1 0x1 DUP9 ADD SLOAD PUSH2 0x2611 JUMP JUMPDEST PUSH1 0x1F DUP2 GT PUSH2 0x1EC8 JUMPI JUMPDEST POP PUSH1 0x20 SWAP1 PUSH1 0x1F DUP4 GT PUSH1 0x1 EQ PUSH2 0x1E56 JUMPI PUSH1 0x0 SWAP3 PUSH2 0x1E4B JUMPI JUMPDEST POP POP DUP2 PUSH1 0x1 SHL SWAP2 PUSH1 0x0 NOT SWAP1 PUSH1 0x3 SHL SHR NOT AND OR PUSH1 0x1 DUP6 ADD SSTORE JUMPDEST PUSH1 0x44 CALLDATALOAD PUSH1 0x2 DUP6 ADD SSTORE DUP1 MLOAD SWAP1 PUSH1 0x1 PUSH1 0x1 PUSH1 0x40 SHL SUB DUP3 GT PUSH2 0x786 JUMPI DUP2 SWAP1 PUSH2 0x18F2 PUSH1 0x3 DUP8 ADD SLOAD PUSH2 0x2611 JUMP JUMPDEST PUSH1 0x1F DUP2 GT PUSH2 0x1DF8 JUMPI JUMPDEST POP PUSH1 0x20 SWAP1 PUSH1 0x1F DUP4 GT PUSH1 0x1 EQ PUSH2 0x1D86 JUMPI PUSH1 0x0 SWAP3 PUSH2 0x1D7B JUMPI JUMPDEST POP POP DUP2 PUSH1 0x1 SHL SWAP2 PUSH1 0x0 NOT SWAP1 PUSH1 0x3 SHL SHR NOT AND OR PUSH1 0x3 DUP5 ADD SSTORE JUMPDEST PUSH1 0x84 CALLDATALOAD PUSH1 0x4 DUP5 ADD SSTORE DUP1 MLOAD SWAP1 PUSH1 0x1 PUSH1 0x1 PUSH1 0x40 SHL SUB DUP3 GT PUSH2 0x786 JUMPI DUP2 SWAP1 PUSH2 0x1952 PUSH1 0x5 DUP7 ADD SLOAD PUSH2 0x2611 JUMP JUMPDEST PUSH1 0x1F DUP2 GT PUSH2 0x1D28 JUMPI JUMPDEST POP PUSH1 0x20 SWAP1 PUSH1 0x1F DUP4 GT PUSH1 0x1 EQ PUSH2 0x1CB6 JUMPI PUSH1 0x0 SWAP3 PUSH2 0x1CAB JUMPI JUMPDEST POP POP DUP2 PUSH1 0x1 SHL SWAP2 PUSH1 0x0 NOT SWAP1 PUSH1 0x3 SHL SHR NOT AND OR PUSH1 0x5 DUP4 ADD SSTORE JUMPDEST DUP3 MLOAD PUSH1 0x1 PUSH1 0x1 PUSH1 0x40 SHL SUB DUP2 GT PUSH2 0x786 JUMPI PUSH2 0x19A7 PUSH1 0x6 DUP5 ADD SLOAD PUSH2 0x2611 JUMP JUMPDEST PUSH1 0x1F DUP2 GT PUSH2 0x1C64 JUMPI JUMPDEST POP DUP1 PUSH1 0x20 PUSH1 0x1F DUP3 GT PUSH1 0x1 EQ PUSH2 0x1BF7 JUMPI PUSH1 0x0 SWAP2 PUSH2 0x1BEC JUMPI JUMPDEST POP DUP2 PUSH1 0x1 SHL SWAP2 PUSH1 0x0 NOT SWAP1 PUSH1 0x3 SHL SHR NOT AND OR PUSH1 0x6 DUP4 ADD SSTORE JUMPDEST DUP1 MLOAD PUSH1 0x7 DUP4 ADD SWAP2 PUSH1 0x1 PUSH1 0x1 PUSH1 0x40 SHL SUB DUP3 GT PUSH2 0x786 JUMPI PUSH2 0x19FD DUP4 SLOAD PUSH2 0x2611 JUMP JUMPDEST PUSH1 0x1F DUP2 GT PUSH2 0x1BA4 JUMPI JUMPDEST POP SWAP2 PUSH1 0x20 SWAP7 SWAP4 SWAP2 DUP7 SWAP6 SWAP4 DUP9 SWAP1 PUSH1 0x1F DUP4 GT PUSH1 0x1 EQ PUSH2 0x1B10 JUMPI SWAP3 DUP3 PUSH2 0x1AE4 SWAP7 SWAP4 PUSH32 0x34854A6A88C16FC1B8C8E7EC924A44B14D32B3B126B466A3054B2B636FE48090 SWAP9 SWAP7 SWAP4 PUSH2 0x1AFA SWAP7 PUSH1 0x0 SWAP3 PUSH2 0x1B05 JUMPI JUMPDEST POP POP DUP2 PUSH1 0x1 SHL SWAP2 PUSH1 0x0 NOT SWAP1 PUSH1 0x3 SHL SHR NOT AND OR SWAP1 SSTORE JUMPDEST PUSH2 0x104 CALLDATALOAD PUSH1 0x8 DUP3 ADD SSTORE PUSH1 0x9 DUP2 ADD PUSH1 0x1 DUP2 SLOAD PUSH2 0x100 DUP3 PUSH1 0xA8 SHL SUB CALLER PUSH1 0x8 SHL AND SWAP1 PUSH11 0xFFFFFFFFFFFFFFFFFFFFFF PUSH1 0xA8 SHL AND OR OR SWAP1 SSTORE PUSH2 0x124 CALLDATALOAD PUSH1 0xC DUP3 ADD SSTORE PUSH1 0x1 PUSH1 0xF PUSH1 0xD DUP4 ADD SWAP3 PUSH1 0xFF NOT SWAP4 DUP4 DUP6 DUP3 SLOAD AND OR SWAP1 SSTORE PUSH2 0x144 CALLDATALOAD PUSH1 0xE DUP3 ADD SSTORE ADD SWAP2 DUP3 SLOAD AND OR SWAP1 SSTORE PUSH1 0x40 MLOAD SWAP4 DUP5 SWAP4 CALLER DUP6 MSTORE PUSH1 0x80 DUP11 DUP7 ADD MSTORE PUSH1 0x80 DUP6 ADD SWAP1 PUSH2 0x24DF JUMP JUMPDEST SWAP1 PUSH1 0x44 CALLDATALOAD PUSH1 0x40 DUP6 ADD MSTORE DUP4 DUP3 SUB PUSH1 0x60 DUP6 ADD MSTORE PUSH2 0x24DF JUMP JUMPDEST SUB SWAP1 LOG2 PUSH1 0x40 MLOAD SWAP1 DUP2 MSTORE RETURN JUMPDEST ADD MLOAD SWAP1 POP DUP13 DUP1 PUSH2 0x1A54 JUMP JUMPDEST SWAP1 PUSH1 0x1F NOT DUP4 AND SWAP2 DUP5 PUSH1 0x0 MSTORE DUP11 PUSH1 0x0 KECCAK256 SWAP3 PUSH1 0x0 JUMPDEST DUP2 DUP2 LT PUSH2 0x1B8A JUMPI POP SWAP4 PUSH32 0x34854A6A88C16FC1B8C8E7EC924A44B14D32B3B126B466A3054B2B636FE48090 SWAP9 SWAP7 SWAP4 PUSH2 0x1AFA SWAP7 SWAP4 PUSH1 0x1 SWAP4 DUP4 PUSH2 0x1AE4 SWAP12 SWAP9 LT PUSH2 0x1B71 JUMPI JUMPDEST POP POP POP DUP2 SHL ADD SWAP1 SSTORE PUSH2 0x1A69 JUMP JUMPDEST ADD MLOAD PUSH1 0x0 NOT PUSH1 0xF8 DUP5 PUSH1 0x3 SHL AND SHR NOT AND SWAP1 SSTORE DUP13 DUP1 DUP1 PUSH2 0x1B64 JUMP JUMPDEST DUP3 DUP5 ADD MLOAD DUP6 SSTORE DUP12 SWAP11 POP PUSH1 0x1 SWAP1 SWAP5 ADD SWAP4 SWAP3 DUP13 ADD SWAP3 DUP13 ADD PUSH2 0x1B23 JUMP JUMPDEST DUP4 PUSH1 0x0 MSTORE PUSH1 0x20 PUSH1 0x0 KECCAK256 PUSH1 0x1F DUP5 ADD PUSH1 0x5 SHR DUP2 ADD SWAP2 PUSH1 0x20 DUP6 LT PUSH2 0x1BE2 JUMPI JUMPDEST PUSH1 0x1F ADD PUSH1 0x5 SHR ADD SWAP1 JUMPDEST DUP2 DUP2 LT PUSH2 0x1BD6 JUMPI POP PUSH2 0x1A06 JUMP JUMPDEST PUSH1 0x0 DUP2 SSTORE PUSH1 0x1 ADD PUSH2 0x1BC9 JUMP JUMPDEST SWAP1 SWAP2 POP DUP2 SWAP1 PUSH2 0x1BC0 JUMP JUMPDEST SWAP1 POP DUP5 ADD MLOAD DUP8 PUSH2 0x19C7 JUMP JUMPDEST SWAP2 POP PUSH1 0x6 DUP5 ADD PUSH1 0x0 MSTORE PUSH1 0x20 PUSH1 0x0 KECCAK256 PUSH1 0x0 SWAP3 JUMPDEST PUSH1 0x1F NOT DUP4 AND DUP5 LT PUSH2 0x1C4C JUMPI PUSH1 0x1 SWAP4 POP DUP3 PUSH1 0x1F NOT DUP2 AND LT PUSH2 0x1C33 JUMPI JUMPDEST POP POP DUP2 SHL ADD PUSH1 0x6 DUP4 ADD SSTORE PUSH2 0x19DE JUMP JUMPDEST DUP7 ADD MLOAD PUSH1 0x0 NOT PUSH1 0xF8 DUP5 PUSH1 0x3 SHL AND SHR NOT AND SWAP1 SSTORE DUP8 DUP1 PUSH2 0x1C24 JUMP JUMPDEST DUP7 DUP2 ADD MLOAD DUP3 SSTORE PUSH1 0x20 SWAP4 DUP5 ADD SWAP4 PUSH1 0x1 SWAP1 SWAP3 ADD SWAP2 ADD PUSH2 0x1C09 JUMP JUMPDEST PUSH1 0x6 DUP5 ADD PUSH1 0x0 MSTORE PUSH1 0x20 PUSH1 0x0 KECCAK256 PUSH1 0x1F DUP4 ADD PUSH1 0x5 SHR DUP2 ADD PUSH1 0x20 DUP5 LT PUSH2 0x1CA4 JUMPI JUMPDEST PUSH1 0x1F DUP4 ADD PUSH1 0x5 SHR DUP3 ADD DUP2 LT PUSH2 0x1C98 JUMPI POP POP PUSH2 0x19B0 JUMP JUMPDEST PUSH1 0x0 DUP2 SSTORE PUSH1 0x1 ADD PUSH2 0x1C82 JUMP JUMPDEST POP DUP1 PUSH2 0x1C82 JUMP JUMPDEST ADD MLOAD SWAP1 POP DUP8 DUP1 PUSH2 0x1972 JUMP JUMPDEST SWAP3 POP PUSH1 0x5 DUP6 ADD PUSH1 0x0 MSTORE PUSH1 0x20 PUSH1 0x0 KECCAK256 SWAP1 PUSH1 0x0 SWAP4 JUMPDEST PUSH1 0x1F NOT DUP5 AND DUP6 LT PUSH2 0x1D0D JUMPI PUSH1 0x1 SWAP5 POP DUP4 PUSH1 0x1F NOT DUP2 AND LT PUSH2 0x1CF4 JUMPI JUMPDEST POP POP POP DUP2 SHL ADD PUSH1 0x5 DUP4 ADD SSTORE PUSH2 0x198A JUMP JUMPDEST ADD MLOAD PUSH1 0x0 NOT PUSH1 0xF8 DUP5 PUSH1 0x3 SHL AND SHR NOT AND SWAP1 SSTORE DUP8 DUP1 DUP1 PUSH2 0x1CE4 JUMP JUMPDEST DUP2 DUP2 ADD MLOAD DUP4 SSTORE PUSH1 0x20 SWAP5 DUP6 ADD SWAP5 PUSH1 0x1 SWAP1 SWAP4 ADD SWAP3 SWAP1 SWAP2 ADD SWAP1 PUSH2 0x1CC9 JUMP JUMPDEST SWAP1 SWAP2 POP PUSH1 0x5 DUP6 ADD PUSH1 0x0 MSTORE PUSH1 0x20 PUSH1 0x0 KECCAK256 PUSH1 0x1F DUP5 ADD PUSH1 0x5 SHR DUP2 ADD PUSH1 0x20 DUP6 LT PUSH2 0x1D74 JUMPI JUMPDEST SWAP1 DUP5 SWAP4 SWAP3 SWAP2 JUMPDEST PUSH1 0x1F DUP4 ADD PUSH1 0x5 SHR DUP3 ADD DUP2 LT PUSH2 0x1D65 JUMPI POP POP PUSH2 0x195B JUMP JUMPDEST PUSH1 0x0 DUP2 SSTORE DUP6 SWAP5 POP PUSH1 0x1 ADD PUSH2 0x1D4F JUMP JUMPDEST POP DUP1 PUSH2 0x1D49 JUMP JUMPDEST ADD MLOAD SWAP1 POP DUP9 DUP1 PUSH2 0x1912 JUMP JUMPDEST SWAP3 POP PUSH1 0x3 DUP7 ADD PUSH1 0x0 MSTORE PUSH1 0x20 PUSH1 0x0 KECCAK256 SWAP1 PUSH1 0x0 SWAP4 JUMPDEST PUSH1 0x1F NOT DUP5 AND DUP6 LT PUSH2 0x1DDD JUMPI PUSH1 0x1 SWAP5 POP DUP4 PUSH1 0x1F NOT DUP2 AND LT PUSH2 0x1DC4 JUMPI JUMPDEST POP POP POP DUP2 SHL ADD PUSH1 0x3 DUP5 ADD SSTORE PUSH2 0x192A JUMP JUMPDEST ADD MLOAD PUSH1 0x0 NOT PUSH1 0xF8 DUP5 PUSH1 0x3 SHL AND SHR NOT AND SWAP1 SSTORE DUP9 DUP1 DUP1 PUSH2 0x1DB4 JUMP JUMPDEST DUP2 DUP2 ADD MLOAD DUP4 SSTORE PUSH1 0x20 SWAP5 DUP6 ADD SWAP5 PUSH1 0x1 SWAP1 SWAP4 ADD SWAP3 SWAP1 SWAP2 ADD SWAP1 PUSH2 0x1D99 JUMP JUMPDEST SWAP1 SWAP2 POP PUSH1 0x3 DUP7 ADD PUSH1 0x0 MSTORE PUSH1 0x20 PUSH1 0x0 KECCAK256 PUSH1 0x1F DUP5 ADD PUSH1 0x5 SHR DUP2 ADD PUSH1 0x20 DUP6 LT PUSH2 0x1E44 JUMPI JUMPDEST SWAP1 DUP5 SWAP4 SWAP3 SWAP2 JUMPDEST PUSH1 0x1F DUP4 ADD PUSH1 0x5 SHR DUP3 ADD DUP2 LT PUSH2 0x1E35 JUMPI POP POP PUSH2 0x18FB JUMP JUMPDEST PUSH1 0x0 DUP2 SSTORE DUP6 SWAP5 POP PUSH1 0x1 ADD PUSH2 0x1E1F JUMP JUMPDEST POP DUP1 PUSH2 0x1E19 JUMP JUMPDEST ADD MLOAD SWAP1 POP DUP10 DUP1 PUSH2 0x18B2 JUMP JUMPDEST SWAP3 POP PUSH1 0x1 DUP8 ADD PUSH1 0x0 MSTORE PUSH1 0x20 PUSH1 0x0 KECCAK256 SWAP1 PUSH1 0x0 SWAP4 JUMPDEST PUSH1 0x1F NOT DUP5 AND DUP6 LT PUSH2 0x1EAD JUMPI PUSH1 0x1 SWAP5 POP DUP4 PUSH1 0x1F NOT DUP2 AND LT PUSH2 0x1E94 JUMPI JUMPDEST POP POP POP DUP2 SHL ADD PUSH1 0x1 DUP6 ADD SSTORE PUSH2 0x18CA JUMP JUMPDEST ADD MLOAD PUSH1 0x0 NOT PUSH1 0xF8 DUP5 PUSH1 0x3 SHL AND SHR NOT AND SWAP1 SSTORE DUP10 DUP1 DUP1 PUSH2 0x1E84 JUMP JUMPDEST DUP2 DUP2 ADD MLOAD DUP4 SSTORE PUSH1 0x20 SWAP5 DUP6 ADD SWAP5 PUSH1 0x1 SWAP1 SWAP4 ADD SWAP3 SWAP1 SWAP2 ADD SWAP1 PUSH2 0x1E69 JUMP JUMPDEST SWAP1 SWAP2 POP PUSH1 0x1 DUP8 ADD PUSH1 0x0 MSTORE PUSH1 0x20 PUSH1 0x0 KECCAK256 PUSH1 0x1F DUP5 ADD PUSH1 0x5 SHR DUP2 ADD PUSH1 0x20 DUP6 LT PUSH2 0x1F14 JUMPI JUMPDEST SWAP1 DUP5 SWAP4 SWAP3 SWAP2 JUMPDEST PUSH1 0x1F DUP4 ADD PUSH1 0x5 SHR DUP3 ADD DUP2 LT PUSH2 0x1F05 JUMPI POP POP PUSH2 0x189B JUMP JUMPDEST PUSH1 0x0 DUP2 SSTORE DUP6 SWAP5 POP PUSH1 0x1 ADD PUSH2 0x1EEF JUMP JUMPDEST POP DUP1 PUSH2 0x1EE9 JUMP JUMPDEST SWAP1 POP DUP10 ADD MLOAD DUP11 PUSH2 0x185E JUMP JUMPDEST SWAP2 POP DUP7 PUSH1 0x0 MSTORE PUSH1 0x20 PUSH1 0x0 KECCAK256 PUSH1 0x0 SWAP3 JUMPDEST DUP12 PUSH1 0x1F NOT DUP5 AND DUP6 LT PUSH2 0x1F77 JUMPI POP PUSH1 0x1 SWAP4 POP DUP3 PUSH1 0x1F NOT DUP2 AND LT PUSH2 0x1F5E JUMPI JUMPDEST POP POP DUP2 SHL ADD DUP6 SSTORE PUSH2 0x1872 JUMP JUMPDEST DUP12 ADD MLOAD PUSH1 0x0 NOT PUSH1 0xF8 DUP5 PUSH1 0x3 SHL AND SHR NOT AND SWAP1 SSTORE DUP11 DUP1 PUSH2 0x1F52 JUMP JUMPDEST DUP2 ADD MLOAD DUP3 SSTORE PUSH1 0x20 SWAP4 DUP5 ADD SWAP4 PUSH1 0x1 SWAP1 SWAP3 ADD SWAP2 ADD PUSH2 0x1F35 JUMP JUMPDEST DUP7 PUSH1 0x0 MSTORE PUSH1 0x20 PUSH1 0x0 KECCAK256 PUSH1 0x1F DUP4 ADD PUSH1 0x5 SHR DUP2 ADD PUSH1 0x20 DUP5 LT PUSH2 0x1FCB JUMPI JUMPDEST PUSH1 0x1F DUP4 ADD PUSH1 0x5 SHR DUP3 ADD DUP2 LT PUSH2 0x1FBF JUMPI POP POP PUSH2 0x1847 JUMP JUMPDEST PUSH1 0x0 DUP2 SSTORE PUSH1 0x1 ADD PUSH2 0x1FA9 JUMP JUMPDEST POP DUP1 PUSH2 0x1FA9 JUMP JUMPDEST PUSH1 0x20 PUSH2 0x200D SWAP2 PUSH1 0x40 MLOAD DUP1 SWAP4 DUP2 SWAP3 PUSH4 0xA85BD01 PUSH1 0xE1 SHL DUP4 MSTORE CALLER PUSH1 0x4 DUP5 ADD MSTORE PUSH1 0x0 PUSH1 0x24 DUP5 ADD MSTORE DUP12 PUSH1 0x44 DUP5 ADD MSTORE PUSH1 0x80 PUSH1 0x64 DUP5 ADD MSTORE PUSH1 0x84 DUP4 ADD SWAP1 PUSH2 0x24DF JUMP JUMPDEST SUB DUP2 PUSH1 0x0 CALLER GAS CALL PUSH1 0x0 SWAP2 DUP2 PUSH2 0x20AC JUMPI JUMPDEST POP PUSH2 0x2077 JUMPI RETURNDATASIZE ISZERO PUSH2 0x2070 JUMPI RETURNDATASIZE PUSH2 0x2032 DUP2 PUSH2 0x256C JUMP JUMPDEST SWAP1 PUSH2 0x2040 PUSH1 0x40 MLOAD SWAP3 DUP4 PUSH2 0x254B JUMP JUMPDEST DUP2 MSTORE RETURNDATASIZE PUSH1 0x0 PUSH1 0x20 DUP4 ADD RETURNDATACOPY JUMPDEST DUP1 MLOAD SWAP1 DUP2 PUSH2 0x206B JUMPI PUSH1 0x40 MLOAD PUSH4 0x32505749 PUSH1 0xE1 SHL DUP2 MSTORE CALLER PUSH1 0x4 DUP3 ADD MSTORE PUSH1 0x24 SWAP1 REVERT JUMPDEST PUSH1 0x20 ADD REVERT JUMPDEST PUSH1 0x60 PUSH2 0x204B JUMP JUMPDEST PUSH1 0x1 PUSH1 0x1 PUSH1 0xE0 SHL SUB NOT AND PUSH4 0x757A42FF PUSH1 0xE1 SHL ADD PUSH2 0x2094 JUMPI DUP8 PUSH2 0x1814 JUMP JUMPDEST PUSH1 0x40 MLOAD PUSH4 0x32505749 PUSH1 0xE1 SHL DUP2 MSTORE CALLER PUSH1 0x4 DUP3 ADD MSTORE PUSH1 0x24 SWAP1 REVERT JUMPDEST SWAP1 SWAP2 POP PUSH1 0x20 DUP2 RETURNDATASIZE PUSH1 0x20 GT PUSH2 0x20E9 JUMPI JUMPDEST DUP2 PUSH2 0x20C8 PUSH1 0x20 SWAP4 DUP4 PUSH2 0x254B JUMP JUMPDEST DUP2 ADD SUB SLT PUSH2 0x239 JUMPI MLOAD PUSH1 0x1 PUSH1 0x1 PUSH1 0xE0 SHL SUB NOT DUP2 AND DUP2 SUB PUSH2 0x239 JUMPI SWAP1 DUP10 PUSH2 0x201D JUMP JUMPDEST RETURNDATASIZE SWAP2 POP PUSH2 0x20BB JUMP JUMPDEST PUSH1 0x40 MLOAD PUSH4 0x39E35637 PUSH1 0xE1 SHL DUP2 MSTORE PUSH1 0x0 PUSH1 0x4 DUP3 ADD MSTORE PUSH1 0x24 SWAP1 REVERT JUMPDEST PUSH1 0x0 DUP3 DUP2 MSTORE PUSH1 0x4 PUSH1 0x20 MSTORE PUSH1 0x40 SWAP1 KECCAK256 DUP1 SLOAD PUSH1 0x1 PUSH1 0x1 PUSH1 0xA0 SHL SUB NOT AND SWAP1 SSTORE DUP1 PUSH1 0x0 MSTORE PUSH1 0x3 PUSH1 0x20 MSTORE PUSH1 0x40 PUSH1 0x0 KECCAK256 PUSH1 0x0 NOT DUP2 SLOAD ADD SWAP1 SSTORE PUSH2 0x17A8 JUMP JUMPDEST PUSH1 0x40 MLOAD PUSH4 0x32505749 PUSH1 0xE1 SHL DUP2 MSTORE PUSH1 0x0 PUSH1 0x4 DUP3 ADD MSTORE PUSH1 0x24 SWAP1 REVERT JUMPDEST PUSH1 0x40 MLOAD PUSH3 0x461BCD PUSH1 0xE5 SHL DUP2 MSTORE PUSH1 0x20 PUSH1 0x4 DUP3 ADD MSTORE PUSH1 0x21 PUSH1 0x24 DUP3 ADD MSTORE PUSH32 0x4578706972792064617465206D75737420626520696E20746865206675747572 PUSH1 0x44 DUP3 ADD MSTORE PUSH1 0x65 PUSH1 0xF8 SHL PUSH1 0x64 DUP3 ADD MSTORE PUSH1 0x84 SWAP1 REVERT JUMPDEST PUSH1 0x40 MLOAD PUSH3 0x461BCD PUSH1 0xE5 SHL DUP2 MSTORE PUSH1 0x20 PUSH1 0x4 DUP3 ADD MSTORE PUSH1 0x19 PUSH1 0x24 DUP3 ADD MSTORE PUSH32 0x5175616E74697479206D75737420626520706F73697469766500000000000000 PUSH1 0x44 DUP3 ADD MSTORE PUSH1 0x64 SWAP1 REVERT JUMPDEST PUSH1 0x40 MLOAD PUSH3 0x461BCD PUSH1 0xE5 SHL DUP2 MSTORE PUSH1 0x20 PUSH1 0x4 DUP3 ADD MSTORE PUSH1 0x14 PUSH1 0x24 DUP3 ADD MSTORE PUSH20 0x4E616D652063616E6E6F7420626520656D707479 PUSH1 0x60 SHL PUSH1 0x44 DUP3 ADD MSTORE PUSH1 0x64 SWAP1 REVERT JUMPDEST PUSH1 0x40 MLOAD PUSH3 0x461BCD PUSH1 0xE5 SHL DUP2 MSTORE PUSH1 0x20 PUSH1 0x4 DUP3 ADD MSTORE PUSH1 0x17 PUSH1 0x24 DUP3 ADD MSTORE PUSH32 0x4D75737420686176652070726F647563657220726F6C65000000000000000000 PUSH1 0x44 DUP3 ADD MSTORE PUSH1 0x64 SWAP1 REVERT JUMPDEST CALLVALUE PUSH2 0x239 JUMPI PUSH1 0x40 CALLDATASIZE PUSH1 0x3 NOT ADD SLT PUSH2 0x239 JUMPI PUSH2 0x2288 PUSH2 0x2504 JUMP JUMPDEST PUSH1 0x24 CALLDATALOAD PUSH2 0x2294 DUP2 PUSH2 0x2AA7 JUMP JUMPDEST CALLER ISZERO ISZERO DUP1 PUSH2 0x2343 JUMPI JUMPDEST DUP1 PUSH2 0x2316 JUMPI JUMPDEST PUSH2 0x22FE JUMPI PUSH1 0x1 PUSH1 0x1 PUSH1 0xA0 SHL SUB SWAP3 DUP4 AND SWAP3 DUP3 SWAP2 DUP5 SWAP2 AND PUSH32 0x8C5BE1E5EBEC7D5BD14F71427D1E84F3DD0314C0F7B2291E5B200AC8C7C3B925 PUSH1 0x0 DUP1 LOG4 PUSH1 0x0 SWAP1 DUP2 MSTORE PUSH1 0x4 PUSH1 0x20 MSTORE PUSH1 0x40 SWAP1 KECCAK256 DUP1 SLOAD PUSH1 0x1 PUSH1 0x1 PUSH1 0xA0 SHL SUB NOT AND SWAP1 SWAP2 OR SWAP1 SSTORE STOP JUMPDEST PUSH1 0x40 MLOAD PUSH4 0xA9FBF51F PUSH1 0xE0 SHL DUP2 MSTORE CALLER PUSH1 0x4 DUP3 ADD MSTORE PUSH1 0x24 SWAP1 REVERT JUMPDEST POP PUSH1 0x1 DUP1 PUSH1 0xA0 SHL SUB DUP2 AND PUSH1 0x0 MSTORE PUSH1 0x5 PUSH1 0x20 MSTORE PUSH1 0x40 PUSH1 0x0 KECCAK256 CALLER PUSH1 0x0 MSTORE PUSH1 0x20 MSTORE PUSH1 0xFF PUSH1 0x40 PUSH1 0x0 KECCAK256 SLOAD AND ISZERO PUSH2 0x22A3 JUMP JUMPDEST POP PUSH1 0x1 PUSH1 0x1 PUSH1 0xA0 SHL SUB DUP2 AND CALLER EQ ISZERO PUSH2 0x229D JUMP JUMPDEST CALLVALUE PUSH2 0x239 JUMPI PUSH1 0x20 CALLDATASIZE PUSH1 0x3 NOT ADD SLT PUSH2 0x239 JUMPI PUSH1 0x4 CALLDATALOAD PUSH2 0x2373 DUP2 PUSH2 0x2AA7 JUMP JUMPDEST POP PUSH1 0x0 MSTORE PUSH1 0x4 PUSH1 0x20 MSTORE PUSH1 0x20 PUSH1 0x1 DUP1 PUSH1 0xA0 SHL SUB PUSH1 0x40 PUSH1 0x0 KECCAK256 SLOAD AND PUSH1 0x40 MLOAD SWAP1 DUP2 MSTORE RETURN JUMPDEST CALLVALUE PUSH2 0x239 JUMPI PUSH1 0x0 CALLDATASIZE PUSH1 0x3 NOT ADD SLT PUSH2 0x239 JUMPI PUSH1 0x40 MLOAD PUSH1 0x0 DUP1 SLOAD PUSH2 0x23B5 DUP2 PUSH2 0x2611 JUMP JUMPDEST DUP1 DUP5 MSTORE SWAP1 PUSH1 0x1 SWAP1 DUP2 DUP2 AND SWAP1 DUP2 ISZERO PUSH2 0xE33 JUMPI POP PUSH1 0x1 EQ PUSH2 0x23DE JUMPI PUSH2 0x3DD DUP5 PUSH2 0xDC6 DUP2 DUP7 SUB DUP3 PUSH2 0x254B JUMP JUMPDEST PUSH1 0x0 DUP1 DUP1 MSTORE SWAP3 POP PUSH32 0x290DECD9548B62A8D60345A988386FC84BA6BC95484008F6362F93160EF3E563 JUMPDEST DUP3 DUP5 LT PUSH2 0x241F JUMPI POP POP POP DUP2 ADD PUSH1 0x20 ADD PUSH2 0xDC6 DUP3 PUSH2 0xDB6 JUMP JUMPDEST DUP1 SLOAD PUSH1 0x20 DUP6 DUP8 ADD DUP2 ADD SWAP2 SWAP1 SWAP2 MSTORE SWAP1 SWAP4 ADD SWAP3 DUP2 ADD PUSH2 0x2407 JUMP JUMPDEST CALLVALUE PUSH2 0x239 JUMPI PUSH1 0x20 CALLDATASIZE PUSH1 0x3 NOT ADD SLT PUSH2 0x239 JUMPI PUSH1 0x4 CALLDATALOAD SWAP1 PUSH4 0xFFFFFFFF PUSH1 0xE0 SHL DUP3 AND DUP1 SWAP3 SUB PUSH2 0x239 JUMPI PUSH1 0x20 SWAP2 PUSH4 0x7965DB0B PUSH1 0xE0 SHL DUP2 EQ SWAP1 DUP2 ISZERO PUSH2 0x2479 JUMPI JUMPDEST POP ISZERO ISZERO DUP2 MSTORE RETURN JUMPDEST PUSH4 0x80AC58CD PUSH1 0xE0 SHL DUP2 EQ SWAP2 POP DUP2 ISZERO PUSH2 0x24AB JUMPI JUMPDEST DUP2 ISZERO PUSH2 0x249A JUMPI JUMPDEST POP DUP4 PUSH2 0x2472 JUMP JUMPDEST PUSH4 0x1FFC9A7 PUSH1 0xE0 SHL EQ SWAP1 POP DUP4 PUSH2 0x2493 JUMP JUMPDEST PUSH4 0x5B5E139F PUSH1 0xE0 SHL DUP2 EQ SWAP2 POP PUSH2 0x248C JUMP JUMPDEST PUSH1 0x0 JUMPDEST DUP4 DUP2 LT PUSH2 0x24CF JUMPI POP POP PUSH1 0x0 SWAP2 ADD MSTORE JUMP JUMPDEST DUP2 DUP2 ADD MLOAD DUP4 DUP3 ADD MSTORE PUSH1 0x20 ADD PUSH2 0x24BF JUMP JUMPDEST SWAP1 PUSH1 0x20 SWAP2 PUSH2 0x24F8 DUP2 MLOAD DUP1 SWAP3 DUP2 DUP6 MSTORE DUP6 DUP1 DUP7 ADD SWAP2 ADD PUSH2 0x24BC JUMP JUMPDEST PUSH1 0x1F ADD PUSH1 0x1F NOT AND ADD ADD SWAP1 JUMP JUMPDEST PUSH1 0x4 CALLDATALOAD SWAP1 PUSH1 0x1 PUSH1 0x1 PUSH1 0xA0 SHL SUB DUP3 AND DUP3 SUB PUSH2 0x239 JUMPI JUMP JUMPDEST PUSH1 0x24 CALLDATALOAD SWAP1 PUSH1 0x1 PUSH1 0x1 PUSH1 0xA0 SHL SUB DUP3 AND DUP3 SUB PUSH2 0x239 JUMPI JUMP JUMPDEST PUSH1 0x20 DUP2 ADD SWAP1 DUP2 LT PUSH1 0x1 PUSH1 0x1 PUSH1 0x40 SHL SUB DUP3 GT OR PUSH2 0x786 JUMPI PUSH1 0x40 MSTORE JUMP JUMPDEST SWAP1 PUSH1 0x1F DUP1 NOT SWAP2 ADD AND DUP2 ADD SWAP1 DUP2 LT PUSH1 0x1 PUSH1 0x1 PUSH1 0x40 SHL SUB DUP3 GT OR PUSH2 0x786 JUMPI PUSH1 0x40 MSTORE JUMP JUMPDEST PUSH1 0x1 PUSH1 0x1 PUSH1 0x40 SHL SUB DUP2 GT PUSH2 0x786 JUMPI PUSH1 0x1F ADD PUSH1 0x1F NOT AND PUSH1 0x20 ADD SWAP1 JUMP JUMPDEST SWAP3 SWAP2 SWAP3 PUSH2 0x2593 DUP3 PUSH2 0x256C JUMP JUMPDEST SWAP2 PUSH2 0x25A1 PUSH1 0x40 MLOAD SWAP4 DUP5 PUSH2 0x254B JUMP JUMPDEST DUP3 SWAP5 DUP2 DUP5 MSTORE DUP2 DUP4 ADD GT PUSH2 0x239 JUMPI DUP3 DUP2 PUSH1 0x20 SWAP4 DUP5 PUSH1 0x0 SWAP7 ADD CALLDATACOPY ADD ADD MSTORE JUMP JUMPDEST SWAP1 DUP1 PUSH1 0x1F DUP4 ADD SLT ISZERO PUSH2 0x239 JUMPI DUP2 PUSH1 0x20 PUSH2 0x25D9 SWAP4 CALLDATALOAD SWAP2 ADD PUSH2 0x2587 JUMP JUMPDEST SWAP1 JUMP JUMPDEST PUSH1 0x60 SWAP1 PUSH1 0x3 NOT ADD SLT PUSH2 0x239 JUMPI PUSH1 0x1 PUSH1 0x1 PUSH1 0xA0 SHL SUB SWAP1 PUSH1 0x4 CALLDATALOAD DUP3 DUP2 AND DUP2 SUB PUSH2 0x239 JUMPI SWAP2 PUSH1 0x24 CALLDATALOAD SWAP1 DUP2 AND DUP2 SUB PUSH2 0x239 JUMPI SWAP1 PUSH1 0x44 CALLDATALOAD SWAP1 JUMP JUMPDEST SWAP1 PUSH1 0x1 DUP3 DUP2 SHR SWAP3 AND DUP1 ISZERO PUSH2 0x2641 JUMPI JUMPDEST PUSH1 0x20 DUP4 LT EQ PUSH2 0x262B JUMPI JUMP JUMPDEST PUSH4 0x4E487B71 PUSH1 0xE0 SHL PUSH1 0x0 MSTORE PUSH1 0x22 PUSH1 0x4 MSTORE PUSH1 0x24 PUSH1 0x0 REVERT JUMPDEST SWAP2 PUSH1 0x7F AND SWAP2 PUSH2 0x2620 JUMP JUMPDEST SWAP1 PUSH1 0x40 MLOAD SWAP2 DUP3 PUSH1 0x0 DUP3 SLOAD SWAP3 PUSH2 0x265F DUP5 PUSH2 0x2611 JUMP JUMPDEST SWAP1 DUP2 DUP5 MSTORE PUSH1 0x1 SWAP5 DUP6 DUP2 AND SWAP1 DUP2 PUSH1 0x0 EQ PUSH2 0x26CE JUMPI POP PUSH1 0x1 EQ PUSH2 0x268B JUMPI JUMPDEST POP POP PUSH2 0x2689 SWAP3 POP SUB DUP4 PUSH2 0x254B JUMP JUMPDEST JUMP JUMPDEST SWAP1 SWAP4 SWAP2 POP PUSH1 0x0 MSTORE PUSH1 0x20 SWAP1 DUP2 PUSH1 0x0 KECCAK256 SWAP4 PUSH1 0x0 SWAP2 JUMPDEST DUP2 DUP4 LT PUSH2 0x26B6 JUMPI POP POP PUSH2 0x2689 SWAP4 POP DUP3 ADD ADD CODESIZE DUP1 PUSH2 0x267B JUMP JUMPDEST DUP6 SLOAD DUP9 DUP5 ADD DUP6 ADD MSTORE SWAP5 DUP6 ADD SWAP5 DUP8 SWAP5 POP SWAP2 DUP4 ADD SWAP2 PUSH2 0x269E JUMP JUMPDEST SWAP2 POP POP PUSH2 0x2689 SWAP5 POP PUSH1 0x20 SWAP3 POP PUSH1 0xFF NOT AND DUP3 DUP5 ADD MSTORE ISZERO ISZERO PUSH1 0x5 SHL DUP3 ADD ADD CODESIZE DUP1 PUSH2 0x267B JUMP JUMPDEST SWAP1 PUSH1 0x4 DUP3 LT ISZERO PUSH2 0x26FE JUMPI MSTORE JUMP JUMPDEST PUSH4 0x4E487B71 PUSH1 0xE0 SHL PUSH1 0x0 MSTORE PUSH1 0x21 PUSH1 0x4 MSTORE PUSH1 0x24 PUSH1 0x0 REVERT JUMPDEST PUSH1 0x24 CALLDATALOAD SWAP1 DUP2 ISZERO ISZERO DUP3 SUB PUSH2 0x239 JUMPI JUMP JUMPDEST PUSH1 0x1 PUSH1 0x1 PUSH1 0x40 SHL SUB DUP2 GT PUSH2 0x786 JUMPI PUSH1 0x5 SHL PUSH1 0x20 ADD SWAP1 JUMP JUMPDEST SWAP1 DUP1 PUSH1 0x1F DUP4 ADD SLT ISZERO PUSH2 0x239 JUMPI DUP2 CALLDATALOAD SWAP1 PUSH2 0x2752 DUP3 PUSH2 0x2723 JUMP JUMPDEST SWAP3 PUSH2 0x2760 PUSH1 0x40 MLOAD SWAP5 DUP6 PUSH2 0x254B JUMP JUMPDEST DUP3 DUP5 MSTORE PUSH1 0x20 SWAP3 DUP4 DUP1 DUP7 ADD SWAP2 PUSH1 0x5 SHL DUP4 ADD ADD SWAP3 DUP1 DUP5 GT PUSH2 0x239 JUMPI DUP5 DUP4 ADD SWAP2 JUMPDEST DUP5 DUP4 LT PUSH2 0x278E JUMPI POP POP POP POP POP POP SWAP1 JUMP JUMPDEST DUP3 CALLDATALOAD PUSH1 0x1 PUSH1 0x1 PUSH1 0x40 SHL SUB DUP2 GT PUSH2 0x239 JUMPI DUP7 SWAP2 PUSH2 0x27AF DUP5 DUP5 DUP1 SWAP5 DUP10 ADD ADD PUSH2 0x25BE JUMP JUMPDEST DUP2 MSTORE ADD SWAP3 ADD SWAP2 PUSH2 0x277E JUMP JUMPDEST DUP1 PUSH1 0x0 MSTORE PUSH1 0x6 PUSH1 0x20 MSTORE PUSH1 0x40 PUSH1 0x0 KECCAK256 CALLER PUSH1 0x0 MSTORE PUSH1 0x20 MSTORE PUSH1 0xFF PUSH1 0x40 PUSH1 0x0 KECCAK256 SLOAD AND ISZERO PUSH2 0x27E0 JUMPI POP JUMP JUMPDEST PUSH1 0x44 SWAP1 PUSH1 0x40 MLOAD SWAP1 PUSH4 0xE2517D3F PUSH1 0xE0 SHL DUP3 MSTORE CALLER PUSH1 0x4 DUP4 ADD MSTORE PUSH1 0x24 DUP3 ADD MSTORE REVERT JUMPDEST SWAP1 PUSH1 0x0 SWAP2 DUP1 DUP4 MSTORE PUSH1 0x6 PUSH1 0x20 MSTORE PUSH1 0x40 DUP4 KECCAK256 SWAP2 PUSH1 0x1 DUP1 PUSH1 0xA0 SHL SUB AND SWAP2 DUP3 DUP5 MSTORE PUSH1 0x20 MSTORE PUSH1 0xFF PUSH1 0x40 DUP5 KECCAK256 SLOAD AND ISZERO PUSH1 0x0 EQ PUSH2 0x2879 JUMPI DUP1 DUP4 MSTORE PUSH1 0x6 PUSH1 0x20 MSTORE PUSH1 0x40 DUP4 KECCAK256 DUP3 DUP5 MSTORE PUSH1 0x20 MSTORE PUSH1 0x40 DUP4 KECCAK256 PUSH1 0x1 PUSH1 0xFF NOT DUP3 SLOAD AND OR SWAP1 SSTORE PUSH32 0x2F8788117E7EFF1D82E926EC794901D17C78024A50270940304540A733656F0D CALLER SWAP4 DUP1 LOG4 PUSH1 0x1 SWAP1 JUMP JUMPDEST POP POP SWAP1 JUMP JUMPDEST SWAP1 PUSH1 0x0 SWAP2 DUP1 DUP4 MSTORE PUSH1 0x6 PUSH1 0x20 MSTORE PUSH1 0x40 DUP4 KECCAK256 SWAP2 PUSH1 0x1 DUP1 PUSH1 0xA0 SHL SUB AND SWAP2 DUP3 DUP5 MSTORE PUSH1 0x20 MSTORE PUSH1 0xFF PUSH1 0x40 DUP5 KECCAK256 SLOAD AND PUSH1 0x0 EQ PUSH2 0x2879 JUMPI DUP1 DUP4 MSTORE PUSH1 0x6 PUSH1 0x20 MSTORE PUSH1 0x40 DUP4 KECCAK256 DUP3 DUP5 MSTORE PUSH1 0x20 MSTORE PUSH1 0x40 DUP4 KECCAK256 PUSH1 0xFF NOT DUP2 SLOAD AND SWAP1 SSTORE PUSH32 0xF6391F5C32D9C69D2A47EA670B442974B53935D1EDC7FD64EB21E047A839171B CALLER SWAP4 DUP1 LOG4 PUSH1 0x1 SWAP1 JUMP JUMPDEST PUSH1 0x7 SLOAD PUSH1 0x1 PUSH1 0x1 PUSH1 0xA0 SHL SUB AND CALLER SUB PUSH2 0x2909 JUMPI JUMP JUMPDEST PUSH1 0x40 MLOAD PUSH4 0x118CDAA7 PUSH1 0xE0 SHL DUP2 MSTORE CALLER PUSH1 0x4 DUP3 ADD MSTORE PUSH1 0x24 SWAP1 REVERT JUMPDEST PUSH1 0x1 PUSH1 0x1 PUSH1 0xA0 SHL SUB SWAP2 DUP3 AND SWAP3 SWAP1 SWAP2 DUP4 ISZERO PUSH2 0x2141 JUMPI PUSH1 0x0 SWAP3 DUP3 DUP5 MSTORE DUP3 PUSH1 0x20 SWAP6 PUSH1 0x2 DUP8 MSTORE PUSH1 0x40 SWAP7 DUP5 DUP9 DUP9 KECCAK256 SLOAD AND SWAP7 DUP8 SWAP2 CALLER ISZERO ISZERO DUP1 PUSH2 0x2A11 JUMPI JUMPDEST POP SWAP1 PUSH1 0x2 PUSH32 0xDDF252AD1BE2C89B69C2B068FC378DAA952BA7F163C4A11628F55A4DF523B3EF SWAP3 DUP5 PUSH2 0x29DE JUMPI JUMPDEST DUP6 DUP4 MSTORE PUSH1 0x3 DUP2 MSTORE DUP12 DUP4 KECCAK256 DUP1 SLOAD PUSH1 0x1 ADD SWAP1 SSTORE DUP7 DUP4 MSTORE MSTORE DUP10 DUP2 KECCAK256 DUP1 SLOAD PUSH1 0x1 PUSH1 0x1 PUSH1 0xA0 SHL SUB NOT AND DUP6 OR SWAP1 SSTORE DUP1 LOG4 AND SWAP3 DUP4 DUP4 SUB PUSH2 0x29BD JUMPI POP POP POP POP JUMP JUMPDEST PUSH1 0x64 SWAP5 POP MLOAD SWAP3 PUSH4 0x64283D7B PUSH1 0xE0 SHL DUP5 MSTORE PUSH1 0x4 DUP5 ADD MSTORE PUSH1 0x24 DUP4 ADD MSTORE PUSH1 0x44 DUP3 ADD MSTORE REVERT JUMPDEST PUSH1 0x0 DUP8 DUP2 MSTORE PUSH1 0x4 PUSH1 0x20 MSTORE PUSH1 0x40 SWAP1 KECCAK256 DUP1 SLOAD PUSH1 0x1 PUSH1 0x1 PUSH1 0xA0 SHL SUB NOT AND SWAP1 SSTORE DUP5 DUP4 MSTORE PUSH1 0x3 DUP2 MSTORE DUP12 DUP4 KECCAK256 DUP1 SLOAD PUSH1 0x0 NOT ADD SWAP1 SSTORE PUSH2 0x2984 JUMP JUMPDEST SWAP2 SWAP4 SWAP5 POP SWAP2 POP DUP1 PUSH2 0x2A66 JUMPI JUMPDEST ISZERO PUSH2 0x2A2D JUMPI DUP6 SWAP3 SWAP2 DUP8 SWAP2 CODESIZE PUSH2 0x2958 JUMP JUMPDEST DUP8 DUP7 DUP9 PUSH2 0x2A4A JUMPI PUSH1 0x24 SWAP2 MLOAD SWAP1 PUSH4 0x7E273289 PUSH1 0xE0 SHL DUP3 MSTORE PUSH1 0x4 DUP3 ADD MSTORE REVERT JUMPDEST PUSH1 0x44 SWAP2 MLOAD SWAP1 PUSH4 0x177E802F PUSH1 0xE0 SHL DUP3 MSTORE CALLER PUSH1 0x4 DUP4 ADD MSTORE PUSH1 0x24 DUP3 ADD MSTORE REVERT JUMPDEST POP CALLER DUP8 EQ DUP1 ISZERO PUSH2 0x2A8B JUMPI JUMPDEST DUP1 PUSH2 0x2A1D JUMPI POP DUP6 DUP3 MSTORE PUSH1 0x4 DUP2 MSTORE CALLER DUP6 DUP10 DUP5 KECCAK256 SLOAD AND EQ PUSH2 0x2A1D JUMP JUMPDEST POP DUP7 DUP3 MSTORE PUSH1 0x5 DUP2 MSTORE DUP8 DUP3 KECCAK256 CALLER DUP4 MSTORE DUP2 MSTORE PUSH1 0xFF DUP9 DUP4 KECCAK256 SLOAD AND PUSH2 0x2A71 JUMP JUMPDEST PUSH1 0x0 DUP2 DUP2 MSTORE PUSH1 0x2 PUSH1 0x20 MSTORE PUSH1 0x40 SWAP1 KECCAK256 SLOAD PUSH1 0x1 PUSH1 0x1 PUSH1 0xA0 SHL SUB AND SWAP1 DUP2 ISZERO PUSH2 0x2ACA JUMPI POP SWAP1 JUMP JUMPDEST PUSH1 0x24 SWAP1 PUSH1 0x40 MLOAD SWAP1 PUSH4 0x7E273289 PUSH1 0xE0 SHL DUP3 MSTORE PUSH1 0x4 DUP3 ADD MSTORE REVERT JUMPDEST SWAP1 SWAP2 SWAP3 DUP4 EXTCODESIZE PUSH2 0x2AF3 JUMPI JUMPDEST POP POP POP POP POP JUMP JUMPDEST PUSH1 0x40 MLOAD PUSH4 0xA85BD01 PUSH1 0xE1 SHL DUP1 DUP3 MSTORE PUSH1 0x1 PUSH1 0x1 PUSH1 0xA0 SHL SUB SWAP4 DUP5 AND PUSH1 0x4 DUP4 ADD MSTORE SWAP4 DUP4 AND PUSH1 0x24 DUP3 ADD MSTORE PUSH1 0x44 DUP2 ADD SWAP2 SWAP1 SWAP2 MSTORE PUSH1 0x80 PUSH1 0x64 DUP3 ADD MSTORE PUSH1 0x20 SWAP6 SWAP2 SWAP1 SWAP4 AND SWAP4 SWAP1 SWAP2 SWAP1 DUP4 SWAP1 PUSH2 0x2B43 SWAP1 PUSH1 0x84 DUP4 ADD SWAP1 PUSH2 0x24DF JUMP JUMPDEST SUB SWAP3 DUP6 DUP2 PUSH1 0x0 SWAP6 DUP2 DUP8 DUP10 GAS CALL DUP5 SWAP2 DUP2 PUSH2 0x2BED JUMPI JUMPDEST POP PUSH2 0x2BB7 JUMPI POP POP POP RETURNDATASIZE PUSH1 0x0 EQ PUSH2 0x2BAF JUMPI RETURNDATASIZE PUSH2 0x2B71 DUP2 PUSH2 0x256C JUMP JUMPDEST SWAP1 PUSH2 0x2B7F PUSH1 0x40 MLOAD SWAP3 DUP4 PUSH2 0x254B JUMP JUMPDEST DUP2 MSTORE DUP1 SWAP2 DUP5 RETURNDATASIZE SWAP3 ADD RETURNDATACOPY JUMPDEST DUP1 MLOAD SWAP3 DUP4 PUSH2 0x2BAA JUMPI PUSH1 0x40 MLOAD PUSH4 0x32505749 PUSH1 0xE1 SHL DUP2 MSTORE PUSH1 0x4 DUP2 ADD DUP5 SWAP1 MSTORE PUSH1 0x24 SWAP1 REVERT JUMPDEST ADD SWAP1 POP REVERT JUMPDEST POP PUSH1 0x60 PUSH2 0x2B89 JUMP JUMPDEST SWAP2 SWAP5 POP SWAP2 POP PUSH4 0xFFFFFFFF PUSH1 0xE0 SHL AND SUB PUSH2 0x2BD5 JUMPI POP CODESIZE DUP1 DUP1 DUP1 DUP1 PUSH2 0x2AEC JUMP JUMPDEST PUSH1 0x24 SWAP1 PUSH1 0x40 MLOAD SWAP1 PUSH4 0x32505749 PUSH1 0xE1 SHL DUP3 MSTORE PUSH1 0x4 DUP3 ADD MSTORE REVERT JUMPDEST SWAP1 SWAP2 POP DUP7 DUP2 DUP2 RETURNDATASIZE DUP4 GT PUSH2 0x2C2A JUMPI JUMPDEST PUSH2 0x2C05 DUP2 DUP4 PUSH2 0x254B JUMP JUMPDEST DUP2 ADD SUB SLT PUSH2 0x2C26 JUMPI MLOAD PUSH1 0x1 PUSH1 0x1 PUSH1 0xE0 SHL SUB NOT DUP2 AND DUP2 SUB PUSH2 0x2C26 JUMPI SWAP1 CODESIZE PUSH2 0x2B57 JUMP JUMPDEST DUP5 DUP1 REVERT JUMPDEST POP RETURNDATASIZE PUSH2 0x2BFB JUMP JUMPDEST PUSH1 0x40 MLOAD PUSH4 0x31A9108F PUSH1 0xE1 SHL DUP2 MSTORE PUSH1 0x4 DUP2 ADD DUP3 SWAP1 MSTORE PUSH1 0x20 DUP2 PUSH1 0x24 DUP2 ADDRESS GAS STATICCALL SWAP1 DUP2 PUSH2 0x2C77 JUMPI JUMPDEST POP PUSH2 0x2C60 JUMPI POP PUSH1 0x0 SWAP1 JUMP JUMPDEST PUSH1 0x0 MSTORE PUSH1 0x9 PUSH1 0x20 MSTORE PUSH1 0xFF PUSH1 0xF PUSH1 0x40 PUSH1 0x0 KECCAK256 ADD SLOAD AND SWAP1 JUMP JUMPDEST PUSH1 0x20 DUP2 RETURNDATASIZE DUP3 GT PUSH2 0x2CAD JUMPI JUMPDEST DUP2 PUSH2 0x2C8F PUSH1 0x20 SWAP4 DUP4 PUSH2 0x254B JUMP JUMPDEST DUP2 ADD SUB SLT PUSH2 0x239 JUMPI MLOAD PUSH1 0x1 PUSH1 0x1 PUSH1 0xA0 SHL SUB DUP2 AND SUB PUSH2 0x239 JUMPI CODESIZE PUSH2 0x2C55 JUMP JUMPDEST RETURNDATASIZE SWAP2 POP PUSH2 0x2C82 JUMP JUMPDEST PUSH2 0x2CBE DUP2 PUSH2 0x2C31 JUMP JUMPDEST ISZERO PUSH2 0x2CF7 JUMPI PUSH1 0x0 MSTORE PUSH1 0x9 PUSH1 0x20 MSTORE PUSH1 0x40 PUSH1 0x0 KECCAK256 PUSH1 0x1 DUP1 PUSH1 0xA0 SHL SUB PUSH1 0x9 DUP3 ADD SLOAD PUSH1 0x8 SHR AND ISZERO ISZERO SWAP1 DUP2 PUSH2 0x2CEC JUMPI POP SWAP1 JUMP JUMPDEST PUSH1 0x4 SWAP2 POP ADD SLOAD TIMESTAMP LT SWAP1 JUMP JUMPDEST POP PUSH1 0x0 SWAP1 JUMP JUMPDEST PUSH2 0x2D06 DUP2 PUSH2 0x2C31 JUMP JUMPDEST ISZERO PUSH2 0x2CF7 JUMPI PUSH1 0x0 MSTORE PUSH1 0x9 PUSH1 0x20 MSTORE PUSH1 0xFF PUSH1 0x9 PUSH1 0x40 PUSH1 0x0 KECCAK256 ADD SLOAD AND SWAP1 JUMP JUMPDEST PUSH1 0x0 NOT DUP2 EQ PUSH2 0x2D31 JUMPI PUSH1 0x1 ADD SWAP1 JUMP JUMPDEST PUSH4 0x4E487B71 PUSH1 0xE0 SHL PUSH1 0x0 MSTORE PUSH1 0x11 PUSH1 0x4 MSTORE PUSH1 0x24 PUSH1 0x0 REVERT JUMPDEST DUP1 MLOAD DUP3 LT ISZERO PUSH2 0x2D5B JUMPI PUSH1 0x20 SWAP2 PUSH1 0x5 SHL ADD ADD SWAP1 JUMP JUMPDEST PUSH4 0x4E487B71 PUSH1 0xE0 SHL PUSH1 0x0 MSTORE PUSH1 0x32 PUSH1 0x4 MSTORE PUSH1 0x24 PUSH1 0x0 REVERT JUMPDEST ISZERO PUSH2 0x2D78 JUMPI JUMP JUMPDEST PUSH1 0x40 MLOAD PUSH3 0x461BCD PUSH1 0xE5 SHL DUP2 MSTORE PUSH1 0x20 PUSH1 0x4 DUP3 ADD MSTORE PUSH1 0x17 PUSH1 0x24 DUP3 ADD MSTORE PUSH32 0x4D757374206861766520766572696669657220726F6C65000000000000000000 PUSH1 0x44 DUP3 ADD MSTORE PUSH1 0x64 SWAP1 REVERT JUMPDEST ISZERO PUSH2 0x2DC4 JUMPI JUMP JUMPDEST PUSH1 0x40 MLOAD PUSH3 0x461BCD PUSH1 0xE5 SHL DUP2 MSTORE PUSH1 0x20 PUSH1 0x4 DUP3 ADD MSTORE PUSH1 0x14 PUSH1 0x24 DUP3 ADD MSTORE PUSH20 0x151BDAD95B88191BD95CC81B9BDD08195E1A5CDD PUSH1 0x62 SHL PUSH1 0x44 DUP3 ADD MSTORE PUSH1 0x64 SWAP1 REVERT INVALID LOG2 PUSH5 0x6970667358 0x22 SLT KECCAK256 0xF9 PUSH23 0x36D25BBF5D56FB10B6255CFF846755145244ECA25D1C33 0xCD SSTORE 0x28 SHL 0xAB 0xFB 0x5D PUSH5 0x736F6C6343 STOP ADDMOD EQ STOP CALLER "},"methodIdentifiers":{"DEFAULT_ADMIN_ROLE()":"a217fddf","PRODUCER_ROLE()":"cb3e1fe7","VERIFIER_ROLE()":"e7705db6","addSupplyChainEvent(uint256,string,string,string,bytes32,string[],string[])":"bdefd4e4","approve(address,uint256)":"095ea7b3","balanceOf(address)":"70a08231","createFoodProduct(string,string,uint256,string,uint256,string,string,string,uint256,bytes32,uint256)":"1bf9826a","exists(uint256)":"4f558e79","foodProducts(uint256)":"5c2fa7e4","getApproved(uint256)":"081812fc","getProduct(uint256)":"b9db15b4","getProductCount()":"4a348da9","getProductsByProducer(address)":"35ef8899","getRoleAdmin(bytes32)":"248a9ca3","grantRole(bytes32,address)":"2f2ff15d","hasRole(bytes32,address)":"91d14854","isApprovedForAll(address,address)":"e985e9c5","isListedProduct(uint256)":"56cb2462","isValidProduct(uint256)":"44b0ceed","name()":"06fdde03","owner()":"8da5cb5b","ownerOf(uint256)":"6352211e","renounceOwnership()":"715018a6","renounceRole(bytes32,address)":"36568abe","revokeRole(bytes32,address)":"d547741f","safeTransferFrom(address,address,uint256)":"42842e0e","safeTransferFrom(address,address,uint256,bytes)":"b88d4fde","setApprovalForAll(address,bool)":"a22cb465","supportsInterface(bytes4)":"01ffc9a7","symbol()":"95d89b41","toggleProductListing(uint256,bool,uint256)":"60f7f09e","tokenURI(uint256)":"c87b56dd","transferFrom(address,address,uint256)":"23b872dd","transferOwnership(address)":"f2fde38b","updateQuality(uint256,uint8)":"731db767","verifiedProducers(address)":"e155d6f6"}}}}}