{"contracts/ServareMarketplace.sol":{"ServareMarketplace":{"abi":[{"inputs":[{"internalType":"address","name":"_nftContract","type":"address"},{"internalType":"address","name":"_vetToken","type":"address"},{"internalType":"address","name":"_feeCollector","type":"address"}],"stateMutability":"nonpayable","type":"constructor"},{"inputs":[],"name":"AccessControlBadConfirmation","type":"error"},{"inputs":[{"internalType":"address","name":"account","type":"address"},{"internalType":"bytes32","name":"neededRole","type":"bytes32"}],"name":"AccessControlUnauthorizedAccount","type":"error"},{"inputs":[],"name":"ReentrancyGuardReentrantCall","type":"error"},{"anonymous":false,"inputs":[{"indexed":true,"internalType":"uint256","name":"tokenId","type":"uint256"},{"indexed":true,"internalType":"address","name":"winner","type":"address"},{"indexed":false,"internalType":"uint256","name":"amount","type":"uint256"}],"name":"AuctionFinalized","type":"event"},{"anonymous":false,"inputs":[{"indexed":true,"internalType":"uint256","name":"tokenId","type":"uint256"},{"indexed":true,"internalType":"address","name":"bidder","type":"address"},{"indexed":false,"internalType":"uint256","name":"amount","type":"uint256"}],"name":"BidPlaced","type":"event"},{"anonymous":false,"inputs":[{"indexed":true,"internalType":"uint256","name":"tokenId","type":"uint256"},{"indexed":true,"internalType":"address","name":"seller","type":"address"},{"indexed":false,"internalType":"uint256","name":"price","type":"uint256"},{"indexed":false,"internalType":"enum ServareMarketplace.ListingType","name":"listingType","type":"uint8"}],"name":"Listed","type":"event"},{"anonymous":false,"inputs":[{"indexed":true,"internalType":"bytes32","name":"role","type":"bytes32"},{"indexed":true,"internalType":"bytes32","name":"previousAdminRole","type":"bytes32"},{"indexed":true,"internalType":"bytes32","name":"newAdminRole","type":"bytes32"}],"name":"RoleAdminChanged","type":"event"},{"anonymous":false,"inputs":[{"indexed":true,"internalType":"bytes32","name":"role","type":"bytes32"},{"indexed":true,"internalType":"address","name":"account","type":"address"},{"indexed":true,"internalType":"address","name":"sender","type":"address"}],"name":"RoleGranted","type":"event"},{"anonymous":false,"inputs":[{"indexed":true,"internalType":"bytes32","name":"role","type":"bytes32"},{"indexed":true,"internalType":"address","name":"account","type":"address"},{"indexed":true,"internalType":"address","name":"sender","type":"address"}],"name":"RoleRevoked","type":"event"},{"anonymous":false,"inputs":[{"indexed":true,"internalType":"uint256","name":"tokenId","type":"uint256"},{"indexed":true,"internalType":"address","name":"seller","type":"address"},{"indexed":true,"internalType":"address","name":"buyer","type":"address"},{"indexed":false,"internalType":"uint256","name":"price","type":"uint256"}],"name":"Sale","type":"event"},{"inputs":[],"name":"DEFAULT_ADMIN_ROLE","outputs":[{"internalType":"bytes32","name":"","type":"bytes32"}],"stateMutability":"view","type":"function"},{"inputs":[{"internalType":"uint256","name":"","type":"uint256"},{"internalType":"address","name":"","type":"address"}],"name":"bids","outputs":[{"internalType":"uint256","name":"","type":"uint256"}],"stateMutability":"view","type":"function"},{"inputs":[{"internalType":"uint256","name":"tokenId","type":"uint256"}],"name":"buyItem","outputs":[],"stateMutability":"nonpayable","type":"function"},{"inputs":[{"internalType":"uint256","name":"tokenId","type":"uint256"}],"name":"cancelListing","outputs":[],"stateMutability":"nonpayable","type":"function"},{"inputs":[],"name":"feeCollector","outputs":[{"internalType":"address","name":"","type":"address"}],"stateMutability":"view","type":"function"},{"inputs":[{"internalType":"uint256","name":"tokenId","type":"uint256"}],"name":"finalizeAuction","outputs":[],"stateMutability":"nonpayable","type":"function"},{"inputs":[{"internalType":"uint256","name":"tokenId","type":"uint256"},{"internalType":"address","name":"bidder","type":"address"}],"name":"getActiveBids","outputs":[{"internalType":"uint256","name":"","type":"uint256"}],"stateMutability":"view","type":"function"},{"inputs":[{"internalType":"uint256","name":"tokenId","type":"uint256"}],"name":"getListing","outputs":[{"internalType":"address","name":"seller","type":"address"},{"internalType":"uint256","name":"price","type":"uint256"},{"internalType":"bool","name":"isActive","type":"bool"},{"internalType":"uint256","name":"listedAt","type":"uint256"},{"internalType":"enum ServareMarketplace.ListingType","name":"listingType","type":"uint8"},{"internalType":"uint256","name":"auctionEndTime","type":"uint256"},{"internalType":"address","name":"highestBidder","type":"address"},{"internalType":"uint256","name":"highestBid","type":"uint256"}],"stateMutability":"view","type":"function"},{"inputs":[{"internalType":"bytes32","name":"role","type":"bytes32"}],"name":"getRoleAdmin","outputs":[{"internalType":"bytes32","name":"","type":"bytes32"}],"stateMutability":"view","type":"function"},{"inputs":[{"internalType":"bytes32","name":"role","type":"bytes32"},{"internalType":"address","name":"account","type":"address"}],"name":"grantRole","outputs":[],"stateMutability":"nonpayable","type":"function"},{"inputs":[{"internalType":"bytes32","name":"role","type":"bytes32"},{"internalType":"address","name":"account","type":"address"}],"name":"hasRole","outputs":[{"internalType":"bool","name":"","type":"bool"}],"stateMutability":"view","type":"function"},{"inputs":[{"internalType":"uint256","name":"tokenId","type":"uint256"},{"internalType":"uint256","name":"price","type":"uint256"},{"internalType":"enum ServareMarketplace.ListingType","name":"listingType","type":"uint8"},{"internalType":"uint256","name":"auctionDuration","type":"uint256"}],"name":"listItem","outputs":[],"stateMutability":"nonpayable","type":"function"},{"inputs":[{"internalType":"uint256","name":"","type":"uint256"}],"name":"listings","outputs":[{"internalType":"uint256","name":"tokenId","type":"uint256"},{"internalType":"address","name":"seller","type":"address"},{"internalType":"uint256","name":"price","type":"uint256"},{"internalType":"bool","name":"isActive","type":"bool"},{"internalType":"uint256","name":"listedAt","type":"uint256"},{"internalType":"enum ServareMarketplace.ListingType","name":"listingType","type":"uint8"},{"internalType":"uint256","name":"auctionEndTime","type":"uint256"},{"internalType":"address","name":"highestBidder","type":"address"},{"internalType":"uint256","name":"highestBid","type":"uint256"}],"stateMutability":"view","type":"function"},{"inputs":[],"name":"nftContract","outputs":[{"internalType":"contract IERC721","name":"","type":"address"}],"stateMutability":"view","type":"function"},{"inputs":[{"internalType":"uint256","name":"tokenId","type":"uint256"},{"internalType":"uint256","name":"amount","type":"uint256"}],"name":"placeBid","outputs":[],"stateMutability":"nonpayable","type":"function"},{"inputs":[],"name":"platformFee","outputs":[{"internalType":"uint256","name":"","type":"uint256"}],"stateMutability":"view","type":"function"},{"inputs":[{"internalType":"bytes32","name":"role","type":"bytes32"},{"internalType":"address","name":"callerConfirmation","type":"address"}],"name":"renounceRole","outputs":[],"stateMutability":"nonpayable","type":"function"},{"inputs":[{"internalType":"bytes32","name":"role","type":"bytes32"},{"internalType":"address","name":"account","type":"address"}],"name":"revokeRole","outputs":[],"stateMutability":"nonpayable","type":"function"},{"inputs":[{"internalType":"bytes4","name":"interfaceId","type":"bytes4"}],"name":"supportsInterface","outputs":[{"internalType":"bool","name":"","type":"bool"}],"stateMutability":"view","type":"function"},{"inputs":[{"internalType":"address","name":"newCollector","type":"address"}],"name":"updateFeeCollector","outputs":[],"stateMutability":"nonpayable","type":"function"},{"inputs":[{"internalType":"uint256","name":"tokenId","type":"uint256"},{"internalType":"uint256","name":"newPrice","type":"uint256"}],"name":"updateListingPrice","outputs":[],"stateMutability":"nonpayable","type":"function"},{"inputs":[{"internalType":"uint256","name":"newFee","type":"uint256"}],"name":"updatePlatformFee","outputs":[],"stateMutability":"nonpayable","type":"function"},{"inputs":[],"name":"vetToken","outputs":[{"internalType":"contract IERC20","name":"","type":"address"}],"stateMutability":"view","type":"function"},{"inputs":[{"internalType":"uint256","name":"tokenId","type":"uint256"}],"name":"withdrawBid","outputs":[],"stateMutability":"nonpayable","type":"function"}],"evm":{"bytecode":{"linkReferences":{},"object":"6080346200010957601f62001be538819003918201601f191683019291906001600160401b038411838510176200010e5781606092849260409687528339810103126200010957620000518162000124565b6200006c83620000646020850162000124565b930162000124565b916000926001845560fa60065560018060a01b0380928160018060a01b031995168560025416176002551683600354161760035516906007541617600755808052600160205260ff82600181842001549283815281812033825260205220541615620000ed5750620000de3362000139565b5051611a199081620001cc8239f35b604491519063e2517d3f60e01b82523360048301526024820152fd5b600080fd5b634e487b7160e01b600052604160045260246000fd5b51906001600160a01b03821682036200010957565b6001600160a01b031660008181527fa6eef7e35abe7026729641147f7915573c7e97b47efa546f5f6e3230263bcb49602052604081205490919060ff16620001c75781805260016020526040822081835260205260408220600160ff1982541617905533917f2f8788117e7eff1d82e926ec794901d17c78024a50270940304540a733656f0d8180a4600190565b509056fe6080604081815260048036101561001557600080fd5b600092833560e01c90816301ffc9a714611578575080630eaaf4c8146113d4578063107a274a14611343578063248a9ca31461131a57806326232a2e146112fb5780632f2ff15d146112d2578063305a67a8146110cd578063340a8c7b1461104657806336568abe146110865780633f1ffcec1461104657806357c90de514610dc357806391d1485414610d7e5780639b0993a214610d55578063a217fddf14610d3a578063aa0b598814610cc0578063aaf788411461096a578063c415b95c14610941578063c46049431461085e578063d2c35ce8146107bd578063d547741f1461077f578063d56d229d14610752578063de74e57b146106b9578063e7fb74c7146104495763e80838631461012b57600080fd5b346104455760209081600319360112610341578035916101496117c1565b8285528181528385209360038501805461016560ff82166117e4565b60ff600588015416600281101561043257600161018291146118f2565b610192600688015442101561196b565b60ff1916905560078501805490936001600160a01b03918891908316156103a35760088801978854906101d56127106101cd60065485611825565b04809361184e565b91848861021788600354168960075416948b5194858094819363a9059cbb60e01b998a84528d840160209093929193604081019460018060a01b031681520152565b03925af1908115610399579161023b8a94926102719694899161037c575b50611873565b86886001816003541694015416918a519687958694859384528a840160209093929193604081019460018060a01b031681520152565b03925af1908115610372579061028e918491610345575b506118b5565b8260025416908387541690823b156103415785516323b872dd60e01b8152309181019182526001600160a01b039092166020820152604081018990529091839183919082908490829060600103925af180156103375761031f575b50507f4d9113a1377d665eaa1f9168a9c9080f2e488cb820b10149de3d6d2e0f2780c793541694549051908152a35b6001815580f35b61032890611756565b6103335786386102e9565b8680fd5b84513d84823e3d90fd5b8380fd5b6103659150873d891161036b575b61035d8183611780565b81019061185b565b38610288565b503d610353565b85513d85823e3d90fd5b6103939150863d881161036b5761035d8183611780565b38610235565b88513d88823e3d90fd5b93509594919350600181600254169501541693803b1561042e5783516323b872dd60e01b8152309381019384526001600160a01b0390951660208401526040830191909152849184919082908490829060600103925af1908115610425575061040e575b5050610318565b61041790611756565b610422578038610407565b80fd5b513d84823e3d90fd5b8580fd5b634e487b7160e01b895260218652602489fd5b8280fd5b50346104455760209182600319360112610341578135906104686117c1565b81855282845280852093600385019161048460ff8454166117e4565b60ff60058701541660028110156106a65761066357866001600288015497818060a01b03918291015416966127106104be6006548b611825565b04916104ca838b61184e565b60035460075487516323b872dd60e01b808252338783019081529286166001600160a01b031660208401526040830197909752918991839186169082908a90829060600103925af1908115610659579161052f899261056a9489916106425750611873565b6003548851878152338782019081526001600160a01b038f16602082015260408101939093529384929186169183918a918391606090910190565b03925af1908115610638579061058691869161062157506118b5565b6002541691823b15610341578451908152309181019182523360208301526040820188905291839183919082908490829060600103925af1801561061757610603575b50507f88863d5e20f64464b554931394e2e4b6f09c10015147215bf26b3ba5070acebe9260ff198154169055519485523394a46001815580f35b61060c90611756565b6103335786386105c9565b83513d84823e3d90fd5b6103659150883d8a1161036b5761035d8183611780565b86513d87823e3d90fd5b6103939150843d861161036b5761035d8183611780565b87513d88823e3d90fd5b5162461bcd60e51b815280850191909152601960248201527f4e6f742061206669786564207072696365206c697374696e67000000000000006044820152606490fd5b634e487b7160e01b885260218652602488fd5b503461044557602036600319011261044557816101209382358152826020522080549261074060018060a01b0391826001850154169460028501549060ff600387015416908601549160ff60058801541693600860068901549760078a0154169801549881519a8b5260208b015289015215156060880152608087015260a08601906115cc565b60c084015260e0830152610100820152f35b50503461077b578160031936011261077b5760025490516001600160a01b039091168152602090f35b5080fd5b5090346104455780600319360112610445576107b991356107b460016107a36115ef565b93838752816020528620015461161b565b6116df565b5080f35b50346104455760203660031901126104455780356001600160a01b03811692908390036108595783805260016020528084203360005260205261080660ff8260002054166119ab565b82156108245750506001600160601b0360a01b600754161760075580f35b906020606492519162461bcd60e51b8352820152600f60248201526e496e76616c6964206164647265737360881b6044820152fd5b600080fd5b5090346104455761086e36611605565b92908452806020528184209160018060a01b0360018401541633036109115761089d60ff6003850154166117e4565b60ff60058401541660028110156108fe576108bb5750506002015580f35b906020606492519162461bcd60e51b8352820152601b60248201527f43616e6e6f74207570646174652061756374696f6e20707269636500000000006044820152fd5b634e487b7160e01b865260218352602486fd5b906020606492519162461bcd60e51b8352820152600a6024820152692737ba1039b2b63632b960b11b6044820152fd5b50503461077b578160031936011261077b5760075490516001600160a01b039091168152602090f35b5034610445576080366003190112610445578035906024928335936044359260028410156103335761099a6117c1565b60025483516331a9108f60e11b81528281018790526020936001600160a01b039290919083169085818481855afa908115610cb6578b91610c99575b508333911603610c655784829187519283809263020604bf60e21b82528c898301525afa908115610c5b578a91610c2e575b508230911603610bed5760018603610be7576064354201804211610bd5575b855191610120830183811067ffffffffffffffff821117610bc1578b928984938c878f8c968e528282528d888d89850199338b52838601948552606086019660018852610100608088019742895260a081019b8c5260c081019c8d5260e081019e8f52019d8e528352522099518a558a60018b01975116966001600160601b0360a01b97888254161790555160028a015560038901915115159160ff199260ff848354169116179055518a890155600588019251916002831015610bae5750825460ff909216911617905551600685015590516007840180549092169085161790555160089091015560025488929116803b156104455784516323b872dd60e01b81523392810192835230602084015260408301889052918391839182908490829060600103925af1801561033757610b9a575b50507fd827f730b707fc2a464705c98023b0c215fa45822662b3ad03d66c46d057aec492610b909183519687528601906115cc565b3393a36001815580f35b610ba390611756565b61042e578538610b5b565b90508f60218b634e487b7160e01b835252fd5b50634e487b7160e01b600090815260418652fd5b50634e487b7160e01b89526011835288fd5b88610a27565b6018915060649385519362461bcd60e51b85528401528201527f4d61726b6574706c616365206e6f7420617070726f76656400000000000000006044820152fd5b610c4e9150853d8711610c54575b610c468183611780565b8101906117a2565b38610a08565b503d610c3c565b86513d8c823e3d90fd5b855162461bcd60e51b8152808501869052600f818401526e2737ba103a37b5b2b71037bbb732b960891b6044820152606490fd5b610cb09150863d8811610c5457610c468183611780565b386109d6565b87513d8d823e3d90fd5b503461044557602036600319011261044557803591838052600160205280842033600052602052610cf760ff8260002054166119ab565b6103e88311610d0857505060065580f35b906020606492519162461bcd60e51b8352820152600c60248201526b08ccaca40e8dede40d0d2ced60a31b6044820152fd5b50503461077b578160031936011261077b5751908152602090f35b50503461077b578160031936011261077b5760035490516001600160a01b039091168152602090f35b503461044557816003193601126104455781602093610d9b6115ef565b9235815260018552209060018060a01b0316600052825260ff81600020541690519015158152f35b50903461044557610dd336611605565b929091610dde6117c1565b828552602091808352818620610dfa60ff6003830154166117e4565b60ff6005820154166002811015611033576001610e1791146118f2565b600681015442101561100157600881019182549182881115610fd05760070180549092899187916001600160a01b0391821680610f44575b505060035487516323b872dd60e01b815233868201908152306020820152604081018d90529094859390921691839182906060015b03925af1908115610f3a578991610f1d575b5015610ee457507f0e54eff26401bf69b81b26f60bd85ef47f5d85275c1d268d84f68d6897431c479392918691336001600160601b0360a01b82541617905555519384523393a36001815580f35b835162461bcd60e51b81529081018590526013602482015272109a59081d1c985b9cd9995c8819985a5b1959606a1b6044820152606490fd5b610f349150863d881161036b5761035d8183611780565b38610e96565b85513d8b823e3d90fd5b600354895163a9059cbb60e01b81526001600160a01b039092168783019081526020810193909352929390929091839185169082908790829060400103925af1908115610fc65791610fa2610e84928a948691610fa9575b5061192f565b9038610e4f565b610fc09150853d871161036b5761035d8183611780565b38610f9c565b87513d85823e3d90fd5b845162461bcd60e51b8152808301879052600b60248201526a42696420746f6f206c6f7760a81b6044820152606490fd5b5082606492519162461bcd60e51b8352820152600d60248201526c105d58dd1a5bdb88195b991959609a1b6044820152fd5b634e487b7160e01b885260218352602488fd5b5034610445578160031936011261044557816020936110636115ef565b9235815260058552209060018060a01b0316600052825280600020549051908152f35b5091903461077b578060031936011261077b576110a16115ef565b90336001600160a01b038316036110be57506107b99192356116df565b5163334bd91960e11b81528390fd5b50346104455760209081600319360112610341578035906110ec6117c1565b818552808352838520906003820161110760ff8254166117e4565b60018301546001600160a01b03949085169033821480156112b6575b156112825788908660025416803b156104455789516323b872dd60e01b8152308782019081526001600160a01b0390951660208601526040850192909252909283919082908490829060600103925af1801561127857611265575b50805460ff19169055600582015460ff1660028110156112525760011480611243575b6111ae575b856001815580f35b6003546007830154600890930154865163a9059cbb60e01b81529385166001600160a01b0316928401928352602083015291928492849291169082908890829060400103925af19182156112365761120f93508492611219575b505061192f565b38808080806111a6565b61122f9250803d1061036b5761035d8183611780565b3880611208565b50505051903d90823e3d90fd5b508260078301541615156111a1565b634e487b7160e01b875260218252602487fd5b61127190979197611756565b953861117e565b87513d8a823e3d90fd5b875162461bcd60e51b8152808501889052600e60248201526d139bdd08185d5d1a1bdc9a5e995960921b6044820152606490fd5b5088805260018752878920338a52875260ff888a205416611123565b5090346104455780600319360112610445576107b991356112f660016107a36115ef565b61165f565b50503461077b578160031936011261077b576020906006549051908152f35b503461044557602036600319011261044557816020936001923581528285522001549051908152f35b50903461044557602036600319011261044557806101009383358152836020522060018060a01b036113c3816001840154169460028401549460ff600386015416918501549060ff600587015416926008600688015496600789015416970154978251998a5260208a0152151590880152606087015260808601906115cc565b60a084015260c083015260e0820152f35b50903461044557602090816003193601126103415782356113f36117c1565b80855283835261140a60068387200154421161196b565b808552838352818520600701546001600160a01b03908116331461153557818652600584528286203387528452828620549182156114fd5786526005845282862033808852908552838720879055600354845163a9059cbb60e01b81528781019283526020830194909452859284928390036040019183918a91165af19081156114f35785916114d6575b50156114a357836001815580f35b5162461bcd60e51b815291820152600f60248201526e151c985b9cd9995c8819985a5b1959608a1b604482015260649150fd5b6114ed9150833d851161036b5761035d8183611780565b38611495565b82513d87823e3d90fd5b835162461bcd60e51b815280870186905260126024820152714e6f2062696420746f20776974686472617760701b6044820152606490fd5b50505162461bcd60e51b815291820152601e60248201527f48696768657374206269646465722063616e6e6f742077697468647261770000604482015260649150fd5b92505034610445576020366003190112610445573563ffffffff60e01b81168091036104455760209250637965db0b60e01b81149081156115bb575b5015158152f35b6301ffc9a760e01b149050386115b4565b9060028210156115d95752565b634e487b7160e01b600052602160045260246000fd5b602435906001600160a01b038216820361085957565b6040906003190112610859576004359060243590565b80600052600160205260406000203360005260205260ff60406000205416156116415750565b6044906040519063e2517d3f60e01b82523360048301526024820152fd5b906000918083526001602052604083209160018060a01b03169182845260205260ff604084205416156000146116da5780835260016020526040832082845260205260408320600160ff198254161790557f2f8788117e7eff1d82e926ec794901d17c78024a50270940304540a733656f0d339380a4600190565b505090565b906000918083526001602052604083209160018060a01b03169182845260205260ff6040842054166000146116da578083526001602052604083208284526020526040832060ff1981541690557ff6391f5c32d9c69d2a47ea670b442974b53935d1edc7fd64eb21e047a839171b339380a4600190565b67ffffffffffffffff811161176a57604052565b634e487b7160e01b600052604160045260246000fd5b90601f8019910116810190811067ffffffffffffffff82111761176a57604052565b9081602091031261085957516001600160a01b03811681036108595790565b6002600054146117d2576002600055565b604051633ee5aeb560e01b8152600490fd5b156117eb57565b60405162461bcd60e51b81526020600482015260126024820152714c697374696e67206e6f742061637469766560701b6044820152606490fd5b8181029291811591840414171561183857565b634e487b7160e01b600052601160045260246000fd5b9190820391821161183857565b90816020910312610859575180151581036108595790565b1561187a57565b60405162461bcd60e51b8152602060048201526013602482015272119959481d1c985b9cd9995c8819985a5b1959606a1b6044820152606490fd5b156118bc57565b60405162461bcd60e51b815260206004820152600e60248201526d14185e5b595b9d0819985a5b195960921b6044820152606490fd5b156118f957565b60405162461bcd60e51b815260206004820152600e60248201526d2737ba1030b71030bab1ba34b7b760911b6044820152606490fd5b1561193657565b60405162461bcd60e51b815260206004820152600d60248201526c1499599d5b990819985a5b1959609a1b6044820152606490fd5b1561197257565b60405162461bcd60e51b8152602060048201526011602482015270105d58dd1a5bdb881b9bdd08195b991959607a1b6044820152606490fd5b156119b257565b60405162461bcd60e51b81526020600482015260096024820152682737ba1030b236b4b760b91b6044820152606490fdfea26469706673582212202d8f681c5a7aeaac8d0d281b3d0af409c0be7a7563eb918fac736afcd76ff0cc64736f6c63430008140033","opcodes":"PUSH1 0x80 CALLVALUE PUSH3 0x109 JUMPI PUSH1 0x1F PUSH3 0x1BE5 CODESIZE DUP2 SWAP1 SUB SWAP2 DUP3 ADD PUSH1 0x1F NOT AND DUP4 ADD SWAP3 SWAP2 SWAP1 PUSH1 0x1 PUSH1 0x1 PUSH1 0x40 SHL SUB DUP5 GT DUP4 DUP6 LT OR PUSH3 0x10E JUMPI DUP2 PUSH1 0x60 SWAP3 DUP5 SWAP3 PUSH1 0x40 SWAP7 DUP8 MSTORE DUP4 CODECOPY DUP2 ADD SUB SLT PUSH3 0x109 JUMPI PUSH3 0x51 DUP2 PUSH3 0x124 JUMP JUMPDEST PUSH3 0x6C DUP4 PUSH3 0x64 PUSH1 0x20 DUP6 ADD PUSH3 0x124 JUMP JUMPDEST SWAP4 ADD PUSH3 0x124 JUMP JUMPDEST SWAP2 PUSH1 0x0 SWAP3 PUSH1 0x1 DUP5 SSTORE PUSH1 0xFA PUSH1 0x6 SSTORE PUSH1 0x1 DUP1 PUSH1 0xA0 SHL SUB DUP1 SWAP3 DUP2 PUSH1 0x1 DUP1 PUSH1 0xA0 SHL SUB NOT SWAP6 AND DUP6 PUSH1 0x2 SLOAD AND OR PUSH1 0x2 SSTORE AND DUP4 PUSH1 0x3 SLOAD AND OR PUSH1 0x3 SSTORE AND SWAP1 PUSH1 0x7 SLOAD AND OR PUSH1 0x7 SSTORE DUP1 DUP1 MSTORE PUSH1 0x1 PUSH1 0x20 MSTORE PUSH1 0xFF DUP3 PUSH1 0x1 DUP2 DUP5 KECCAK256 ADD SLOAD SWAP3 DUP4 DUP2 MSTORE DUP2 DUP2 KECCAK256 CALLER DUP3 MSTORE PUSH1 0x20 MSTORE KECCAK256 SLOAD AND ISZERO PUSH3 0xED JUMPI POP PUSH3 0xDE CALLER PUSH3 0x139 JUMP JUMPDEST POP MLOAD PUSH2 0x1A19 SWAP1 DUP2 PUSH3 0x1CC DUP3 CODECOPY RETURN JUMPDEST PUSH1 0x44 SWAP2 MLOAD SWAP1 PUSH4 0xE2517D3F PUSH1 0xE0 SHL DUP3 MSTORE CALLER PUSH1 0x4 DUP4 ADD MSTORE PUSH1 0x24 DUP3 ADD MSTORE REVERT JUMPDEST PUSH1 0x0 DUP1 REVERT JUMPDEST PUSH4 0x4E487B71 PUSH1 0xE0 SHL PUSH1 0x0 MSTORE PUSH1 0x41 PUSH1 0x4 MSTORE PUSH1 0x24 PUSH1 0x0 REVERT JUMPDEST MLOAD SWAP1 PUSH1 0x1 PUSH1 0x1 PUSH1 0xA0 SHL SUB DUP3 AND DUP3 SUB PUSH3 0x109 JUMPI JUMP JUMPDEST PUSH1 0x1 PUSH1 0x1 PUSH1 0xA0 SHL SUB AND PUSH1 0x0 DUP2 DUP2 MSTORE PUSH32 0xA6EEF7E35ABE7026729641147F7915573C7E97B47EFA546F5F6E3230263BCB49 PUSH1 0x20 MSTORE PUSH1 0x40 DUP2 KECCAK256 SLOAD SWAP1 SWAP2 SWAP1 PUSH1 0xFF AND PUSH3 0x1C7 JUMPI DUP2 DUP1 MSTORE PUSH1 0x1 PUSH1 0x20 MSTORE PUSH1 0x40 DUP3 KECCAK256 DUP2 DUP4 MSTORE PUSH1 0x20 MSTORE PUSH1 0x40 DUP3 KECCAK256 PUSH1 0x1 PUSH1 0xFF NOT DUP3 SLOAD AND OR SWAP1 SSTORE CALLER SWAP2 PUSH32 0x2F8788117E7EFF1D82E926EC794901D17C78024A50270940304540A733656F0D DUP2 DUP1 LOG4 PUSH1 0x1 SWAP1 JUMP JUMPDEST POP SWAP1 JUMP INVALID PUSH1 0x80 PUSH1 0x40 DUP2 DUP2 MSTORE PUSH1 0x4 DUP1 CALLDATASIZE LT ISZERO PUSH2 0x15 JUMPI PUSH1 0x0 DUP1 REVERT JUMPDEST PUSH1 0x0 SWAP3 DUP4 CALLDATALOAD PUSH1 0xE0 SHR SWAP1 DUP2 PUSH4 0x1FFC9A7 EQ PUSH2 0x1578 JUMPI POP DUP1 PUSH4 0xEAAF4C8 EQ PUSH2 0x13D4 JUMPI DUP1 PUSH4 0x107A274A EQ PUSH2 0x1343 JUMPI DUP1 PUSH4 0x248A9CA3 EQ PUSH2 0x131A JUMPI DUP1 PUSH4 0x26232A2E EQ PUSH2 0x12FB JUMPI DUP1 PUSH4 0x2F2FF15D EQ PUSH2 0x12D2 JUMPI DUP1 PUSH4 0x305A67A8 EQ PUSH2 0x10CD JUMPI DUP1 PUSH4 0x340A8C7B EQ PUSH2 0x1046 JUMPI DUP1 PUSH4 0x36568ABE EQ PUSH2 0x1086 JUMPI DUP1 PUSH4 0x3F1FFCEC EQ PUSH2 0x1046 JUMPI DUP1 PUSH4 0x57C90DE5 EQ PUSH2 0xDC3 JUMPI DUP1 PUSH4 0x91D14854 EQ PUSH2 0xD7E JUMPI DUP1 PUSH4 0x9B0993A2 EQ PUSH2 0xD55 JUMPI DUP1 PUSH4 0xA217FDDF EQ PUSH2 0xD3A JUMPI DUP1 PUSH4 0xAA0B5988 EQ PUSH2 0xCC0 JUMPI DUP1 PUSH4 0xAAF78841 EQ PUSH2 0x96A JUMPI DUP1 PUSH4 0xC415B95C EQ PUSH2 0x941 JUMPI DUP1 PUSH4 0xC4604943 EQ PUSH2 0x85E JUMPI DUP1 PUSH4 0xD2C35CE8 EQ PUSH2 0x7BD JUMPI DUP1 PUSH4 0xD547741F EQ PUSH2 0x77F JUMPI DUP1 PUSH4 0xD56D229D EQ PUSH2 0x752 JUMPI DUP1 PUSH4 0xDE74E57B EQ PUSH2 0x6B9 JUMPI DUP1 PUSH4 0xE7FB74C7 EQ PUSH2 0x449 JUMPI PUSH4 0xE8083863 EQ PUSH2 0x12B JUMPI PUSH1 0x0 DUP1 REVERT JUMPDEST CALLVALUE PUSH2 0x445 JUMPI PUSH1 0x20 SWAP1 DUP2 PUSH1 0x3 NOT CALLDATASIZE ADD SLT PUSH2 0x341 JUMPI DUP1 CALLDATALOAD SWAP2 PUSH2 0x149 PUSH2 0x17C1 JUMP JUMPDEST DUP3 DUP6 MSTORE DUP2 DUP2 MSTORE DUP4 DUP6 KECCAK256 SWAP4 PUSH1 0x3 DUP6 ADD DUP1 SLOAD PUSH2 0x165 PUSH1 0xFF DUP3 AND PUSH2 0x17E4 JUMP JUMPDEST PUSH1 0xFF PUSH1 0x5 DUP9 ADD SLOAD AND PUSH1 0x2 DUP2 LT ISZERO PUSH2 0x432 JUMPI PUSH1 0x1 PUSH2 0x182 SWAP2 EQ PUSH2 0x18F2 JUMP JUMPDEST PUSH2 0x192 PUSH1 0x6 DUP9 ADD SLOAD TIMESTAMP LT ISZERO PUSH2 0x196B JUMP JUMPDEST PUSH1 0xFF NOT AND SWAP1 SSTORE PUSH1 0x7 DUP6 ADD DUP1 SLOAD SWAP1 SWAP4 PUSH1 0x1 PUSH1 0x1 PUSH1 0xA0 SHL SUB SWAP2 DUP9 SWAP2 SWAP1 DUP4 AND ISZERO PUSH2 0x3A3 JUMPI PUSH1 0x8 DUP9 ADD SWAP8 DUP9 SLOAD SWAP1 PUSH2 0x1D5 PUSH2 0x2710 PUSH2 0x1CD PUSH1 0x6 SLOAD DUP6 PUSH2 0x1825 JUMP JUMPDEST DIV DUP1 SWAP4 PUSH2 0x184E JUMP JUMPDEST SWAP2 DUP5 DUP9 PUSH2 0x217 DUP9 PUSH1 0x3 SLOAD AND DUP10 PUSH1 0x7 SLOAD AND SWAP5 DUP12 MLOAD SWAP5 DUP6 DUP1 SWAP5 DUP2 SWAP4 PUSH4 0xA9059CBB PUSH1 0xE0 SHL SWAP10 DUP11 DUP5 MSTORE DUP14 DUP5 ADD PUSH1 0x20 SWAP1 SWAP4 SWAP3 SWAP2 SWAP4 PUSH1 0x40 DUP2 ADD SWAP5 PUSH1 0x1 DUP1 PUSH1 0xA0 SHL SUB AND DUP2 MSTORE ADD MSTORE JUMP JUMPDEST SUB SWAP3 GAS CALL SWAP1 DUP2 ISZERO PUSH2 0x399 JUMPI SWAP2 PUSH2 0x23B DUP11 SWAP5 SWAP3 PUSH2 0x271 SWAP7 SWAP5 DUP10 SWAP2 PUSH2 0x37C JUMPI JUMPDEST POP PUSH2 0x1873 JUMP JUMPDEST DUP7 DUP9 PUSH1 0x1 DUP2 PUSH1 0x3 SLOAD AND SWAP5 ADD SLOAD AND SWAP2 DUP11 MLOAD SWAP7 DUP8 SWAP6 DUP7 SWAP5 DUP6 SWAP4 DUP5 MSTORE DUP11 DUP5 ADD PUSH1 0x20 SWAP1 SWAP4 SWAP3 SWAP2 SWAP4 PUSH1 0x40 DUP2 ADD SWAP5 PUSH1 0x1 DUP1 PUSH1 0xA0 SHL SUB AND DUP2 MSTORE ADD MSTORE JUMP JUMPDEST SUB SWAP3 GAS CALL SWAP1 DUP2 ISZERO PUSH2 0x372 JUMPI SWAP1 PUSH2 0x28E SWAP2 DUP5 SWAP2 PUSH2 0x345 JUMPI JUMPDEST POP PUSH2 0x18B5 JUMP JUMPDEST DUP3 PUSH1 0x2 SLOAD AND SWAP1 DUP4 DUP8 SLOAD AND SWAP1 DUP3 EXTCODESIZE ISZERO PUSH2 0x341 JUMPI DUP6 MLOAD PUSH4 0x23B872DD PUSH1 0xE0 SHL DUP2 MSTORE ADDRESS SWAP2 DUP2 ADD SWAP2 DUP3 MSTORE PUSH1 0x1 PUSH1 0x1 PUSH1 0xA0 SHL SUB SWAP1 SWAP3 AND PUSH1 0x20 DUP3 ADD MSTORE PUSH1 0x40 DUP2 ADD DUP10 SWAP1 MSTORE SWAP1 SWAP2 DUP4 SWAP2 DUP4 SWAP2 SWAP1 DUP3 SWAP1 DUP5 SWAP1 DUP3 SWAP1 PUSH1 0x60 ADD SUB SWAP3 GAS CALL DUP1 ISZERO PUSH2 0x337 JUMPI PUSH2 0x31F JUMPI JUMPDEST POP POP PUSH32 0x4D9113A1377D665EAA1F9168A9C9080F2E488CB820B10149DE3D6D2E0F2780C7 SWAP4 SLOAD AND SWAP5 SLOAD SWAP1 MLOAD SWAP1 DUP2 MSTORE LOG3 JUMPDEST PUSH1 0x1 DUP2 SSTORE DUP1 RETURN JUMPDEST PUSH2 0x328 SWAP1 PUSH2 0x1756 JUMP JUMPDEST PUSH2 0x333 JUMPI DUP7 CODESIZE PUSH2 0x2E9 JUMP JUMPDEST DUP7 DUP1 REVERT JUMPDEST DUP5 MLOAD RETURNDATASIZE DUP5 DUP3 RETURNDATACOPY RETURNDATASIZE SWAP1 REVERT JUMPDEST DUP4 DUP1 REVERT JUMPDEST PUSH2 0x365 SWAP2 POP DUP8 RETURNDATASIZE DUP10 GT PUSH2 0x36B JUMPI JUMPDEST PUSH2 0x35D DUP2 DUP4 PUSH2 0x1780 JUMP JUMPDEST DUP2 ADD SWAP1 PUSH2 0x185B JUMP JUMPDEST CODESIZE PUSH2 0x288 JUMP JUMPDEST POP RETURNDATASIZE PUSH2 0x353 JUMP JUMPDEST DUP6 MLOAD RETURNDATASIZE DUP6 DUP3 RETURNDATACOPY RETURNDATASIZE SWAP1 REVERT JUMPDEST PUSH2 0x393 SWAP2 POP DUP7 RETURNDATASIZE DUP9 GT PUSH2 0x36B JUMPI PUSH2 0x35D DUP2 DUP4 PUSH2 0x1780 JUMP JUMPDEST CODESIZE PUSH2 0x235 JUMP JUMPDEST DUP9 MLOAD RETURNDATASIZE DUP9 DUP3 RETURNDATACOPY RETURNDATASIZE SWAP1 REVERT JUMPDEST SWAP4 POP SWAP6 SWAP5 SWAP2 SWAP4 POP PUSH1 0x1 DUP2 PUSH1 0x2 SLOAD AND SWAP6 ADD SLOAD AND SWAP4 DUP1 EXTCODESIZE ISZERO PUSH2 0x42E JUMPI DUP4 MLOAD PUSH4 0x23B872DD PUSH1 0xE0 SHL DUP2 MSTORE ADDRESS SWAP4 DUP2 ADD SWAP4 DUP5 MSTORE PUSH1 0x1 PUSH1 0x1 PUSH1 0xA0 SHL SUB SWAP1 SWAP6 AND PUSH1 0x20 DUP5 ADD MSTORE PUSH1 0x40 DUP4 ADD SWAP2 SWAP1 SWAP2 MSTORE DUP5 SWAP2 DUP5 SWAP2 SWAP1 DUP3 SWAP1 DUP5 SWAP1 DUP3 SWAP1 PUSH1 0x60 ADD SUB SWAP3 GAS CALL SWAP1 DUP2 ISZERO PUSH2 0x425 JUMPI POP PUSH2 0x40E JUMPI JUMPDEST POP POP PUSH2 0x318 JUMP JUMPDEST PUSH2 0x417 SWAP1 PUSH2 0x1756 JUMP JUMPDEST PUSH2 0x422 JUMPI DUP1 CODESIZE PUSH2 0x407 JUMP JUMPDEST DUP1 REVERT JUMPDEST MLOAD RETURNDATASIZE DUP5 DUP3 RETURNDATACOPY RETURNDATASIZE SWAP1 REVERT JUMPDEST DUP6 DUP1 REVERT JUMPDEST PUSH4 0x4E487B71 PUSH1 0xE0 SHL DUP10 MSTORE PUSH1 0x21 DUP7 MSTORE PUSH1 0x24 DUP10 REVERT JUMPDEST DUP3 DUP1 REVERT JUMPDEST POP CALLVALUE PUSH2 0x445 JUMPI PUSH1 0x20 SWAP2 DUP3 PUSH1 0x3 NOT CALLDATASIZE ADD SLT PUSH2 0x341 JUMPI DUP2 CALLDATALOAD SWAP1 PUSH2 0x468 PUSH2 0x17C1 JUMP JUMPDEST DUP2 DUP6 MSTORE DUP3 DUP5 MSTORE DUP1 DUP6 KECCAK256 SWAP4 PUSH1 0x3 DUP6 ADD SWAP2 PUSH2 0x484 PUSH1 0xFF DUP5 SLOAD AND PUSH2 0x17E4 JUMP JUMPDEST PUSH1 0xFF PUSH1 0x5 DUP8 ADD SLOAD AND PUSH1 0x2 DUP2 LT ISZERO PUSH2 0x6A6 JUMPI PUSH2 0x663 JUMPI DUP7 PUSH1 0x1 PUSH1 0x2 DUP9 ADD SLOAD SWAP8 DUP2 DUP1 PUSH1 0xA0 SHL SUB SWAP2 DUP3 SWAP2 ADD SLOAD AND SWAP7 PUSH2 0x2710 PUSH2 0x4BE PUSH1 0x6 SLOAD DUP12 PUSH2 0x1825 JUMP JUMPDEST DIV SWAP2 PUSH2 0x4CA DUP4 DUP12 PUSH2 0x184E JUMP JUMPDEST PUSH1 0x3 SLOAD PUSH1 0x7 SLOAD DUP8 MLOAD PUSH4 0x23B872DD PUSH1 0xE0 SHL DUP1 DUP3 MSTORE CALLER DUP8 DUP4 ADD SWAP1 DUP2 MSTORE SWAP3 DUP7 AND PUSH1 0x1 PUSH1 0x1 PUSH1 0xA0 SHL SUB AND PUSH1 0x20 DUP5 ADD MSTORE PUSH1 0x40 DUP4 ADD SWAP8 SWAP1 SWAP8 MSTORE SWAP2 DUP10 SWAP2 DUP4 SWAP2 DUP7 AND SWAP1 DUP3 SWAP1 DUP11 SWAP1 DUP3 SWAP1 PUSH1 0x60 ADD SUB SWAP3 GAS CALL SWAP1 DUP2 ISZERO PUSH2 0x659 JUMPI SWAP2 PUSH2 0x52F DUP10 SWAP3 PUSH2 0x56A SWAP5 DUP10 SWAP2 PUSH2 0x642 JUMPI POP PUSH2 0x1873 JUMP JUMPDEST PUSH1 0x3 SLOAD DUP9 MLOAD DUP8 DUP2 MSTORE CALLER DUP8 DUP3 ADD SWAP1 DUP2 MSTORE PUSH1 0x1 PUSH1 0x1 PUSH1 0xA0 SHL SUB DUP16 AND PUSH1 0x20 DUP3 ADD MSTORE PUSH1 0x40 DUP2 ADD SWAP4 SWAP1 SWAP4 MSTORE SWAP4 DUP5 SWAP3 SWAP2 DUP7 AND SWAP2 DUP4 SWAP2 DUP11 SWAP2 DUP4 SWAP2 PUSH1 0x60 SWAP1 SWAP2 ADD SWAP1 JUMP JUMPDEST SUB SWAP3 GAS CALL SWAP1 DUP2 ISZERO PUSH2 0x638 JUMPI SWAP1 PUSH2 0x586 SWAP2 DUP7 SWAP2 PUSH2 0x621 JUMPI POP PUSH2 0x18B5 JUMP JUMPDEST PUSH1 0x2 SLOAD AND SWAP2 DUP3 EXTCODESIZE ISZERO PUSH2 0x341 JUMPI DUP5 MLOAD SWAP1 DUP2 MSTORE ADDRESS SWAP2 DUP2 ADD SWAP2 DUP3 MSTORE CALLER PUSH1 0x20 DUP4 ADD MSTORE PUSH1 0x40 DUP3 ADD DUP9 SWAP1 MSTORE SWAP2 DUP4 SWAP2 DUP4 SWAP2 SWAP1 DUP3 SWAP1 DUP5 SWAP1 DUP3 SWAP1 PUSH1 0x60 ADD SUB SWAP3 GAS CALL DUP1 ISZERO PUSH2 0x617 JUMPI PUSH2 0x603 JUMPI JUMPDEST POP POP PUSH32 0x88863D5E20F64464B554931394E2E4B6F09C10015147215BF26B3BA5070ACEBE SWAP3 PUSH1 0xFF NOT DUP2 SLOAD AND SWAP1 SSTORE MLOAD SWAP5 DUP6 MSTORE CALLER SWAP5 LOG4 PUSH1 0x1 DUP2 SSTORE DUP1 RETURN JUMPDEST PUSH2 0x60C SWAP1 PUSH2 0x1756 JUMP JUMPDEST PUSH2 0x333 JUMPI DUP7 CODESIZE PUSH2 0x5C9 JUMP JUMPDEST DUP4 MLOAD RETURNDATASIZE DUP5 DUP3 RETURNDATACOPY RETURNDATASIZE SWAP1 REVERT JUMPDEST PUSH2 0x365 SWAP2 POP DUP9 RETURNDATASIZE DUP11 GT PUSH2 0x36B JUMPI PUSH2 0x35D DUP2 DUP4 PUSH2 0x1780 JUMP JUMPDEST DUP7 MLOAD RETURNDATASIZE DUP8 DUP3 RETURNDATACOPY RETURNDATASIZE SWAP1 REVERT JUMPDEST PUSH2 0x393 SWAP2 POP DUP5 RETURNDATASIZE DUP7 GT PUSH2 0x36B JUMPI PUSH2 0x35D DUP2 DUP4 PUSH2 0x1780 JUMP JUMPDEST DUP8 MLOAD RETURNDATASIZE DUP9 DUP3 RETURNDATACOPY RETURNDATASIZE SWAP1 REVERT JUMPDEST MLOAD PUSH3 0x461BCD PUSH1 0xE5 SHL DUP2 MSTORE DUP1 DUP6 ADD SWAP2 SWAP1 SWAP2 MSTORE PUSH1 0x19 PUSH1 0x24 DUP3 ADD MSTORE PUSH32 0x4E6F742061206669786564207072696365206C697374696E6700000000000000 PUSH1 0x44 DUP3 ADD MSTORE PUSH1 0x64 SWAP1 REVERT JUMPDEST PUSH4 0x4E487B71 PUSH1 0xE0 SHL DUP9 MSTORE PUSH1 0x21 DUP7 MSTORE PUSH1 0x24 DUP9 REVERT JUMPDEST POP CALLVALUE PUSH2 0x445 JUMPI PUSH1 0x20 CALLDATASIZE PUSH1 0x3 NOT ADD SLT PUSH2 0x445 JUMPI DUP2 PUSH2 0x120 SWAP4 DUP3 CALLDATALOAD DUP2 MSTORE DUP3 PUSH1 0x20 MSTORE KECCAK256 DUP1 SLOAD SWAP3 PUSH2 0x740 PUSH1 0x1 DUP1 PUSH1 0xA0 SHL SUB SWAP2 DUP3 PUSH1 0x1 DUP6 ADD SLOAD AND SWAP5 PUSH1 0x2 DUP6 ADD SLOAD SWAP1 PUSH1 0xFF PUSH1 0x3 DUP8 ADD SLOAD AND SWAP1 DUP7 ADD SLOAD SWAP2 PUSH1 0xFF PUSH1 0x5 DUP9 ADD SLOAD AND SWAP4 PUSH1 0x8 PUSH1 0x6 DUP10 ADD SLOAD SWAP8 PUSH1 0x7 DUP11 ADD SLOAD AND SWAP9 ADD SLOAD SWAP9 DUP2 MLOAD SWAP11 DUP12 MSTORE PUSH1 0x20 DUP12 ADD MSTORE DUP10 ADD MSTORE ISZERO ISZERO PUSH1 0x60 DUP9 ADD MSTORE PUSH1 0x80 DUP8 ADD MSTORE PUSH1 0xA0 DUP7 ADD SWAP1 PUSH2 0x15CC JUMP JUMPDEST PUSH1 0xC0 DUP5 ADD MSTORE PUSH1 0xE0 DUP4 ADD MSTORE PUSH2 0x100 DUP3 ADD MSTORE RETURN JUMPDEST POP POP CALLVALUE PUSH2 0x77B JUMPI DUP2 PUSH1 0x3 NOT CALLDATASIZE ADD SLT PUSH2 0x77B JUMPI PUSH1 0x2 SLOAD SWAP1 MLOAD PUSH1 0x1 PUSH1 0x1 PUSH1 0xA0 SHL SUB SWAP1 SWAP2 AND DUP2 MSTORE PUSH1 0x20 SWAP1 RETURN JUMPDEST POP DUP1 REVERT JUMPDEST POP SWAP1 CALLVALUE PUSH2 0x445 JUMPI DUP1 PUSH1 0x3 NOT CALLDATASIZE ADD SLT PUSH2 0x445 JUMPI PUSH2 0x7B9 SWAP2 CALLDATALOAD PUSH2 0x7B4 PUSH1 0x1 PUSH2 0x7A3 PUSH2 0x15EF JUMP JUMPDEST SWAP4 DUP4 DUP8 MSTORE DUP2 PUSH1 0x20 MSTORE DUP7 KECCAK256 ADD SLOAD PUSH2 0x161B JUMP JUMPDEST PUSH2 0x16DF JUMP JUMPDEST POP DUP1 RETURN JUMPDEST POP CALLVALUE PUSH2 0x445 JUMPI PUSH1 0x20 CALLDATASIZE PUSH1 0x3 NOT ADD SLT PUSH2 0x445 JUMPI DUP1 CALLDATALOAD PUSH1 0x1 PUSH1 0x1 PUSH1 0xA0 SHL SUB DUP2 AND SWAP3 SWAP1 DUP4 SWAP1 SUB PUSH2 0x859 JUMPI DUP4 DUP1 MSTORE PUSH1 0x1 PUSH1 0x20 MSTORE DUP1 DUP5 KECCAK256 CALLER PUSH1 0x0 MSTORE PUSH1 0x20 MSTORE PUSH2 0x806 PUSH1 0xFF DUP3 PUSH1 0x0 KECCAK256 SLOAD AND PUSH2 0x19AB JUMP JUMPDEST DUP3 ISZERO PUSH2 0x824 JUMPI POP POP PUSH1 0x1 PUSH1 0x1 PUSH1 0x60 SHL SUB PUSH1 0xA0 SHL PUSH1 0x7 SLOAD AND OR PUSH1 0x7 SSTORE DUP1 RETURN JUMPDEST SWAP1 PUSH1 0x20 PUSH1 0x64 SWAP3 MLOAD SWAP2 PUSH3 0x461BCD PUSH1 0xE5 SHL DUP4 MSTORE DUP3 ADD MSTORE PUSH1 0xF PUSH1 0x24 DUP3 ADD MSTORE PUSH15 0x496E76616C69642061646472657373 PUSH1 0x88 SHL PUSH1 0x44 DUP3 ADD MSTORE REVERT JUMPDEST PUSH1 0x0 DUP1 REVERT JUMPDEST POP SWAP1 CALLVALUE PUSH2 0x445 JUMPI PUSH2 0x86E CALLDATASIZE PUSH2 0x1605 JUMP JUMPDEST SWAP3 SWAP1 DUP5 MSTORE DUP1 PUSH1 0x20 MSTORE DUP2 DUP5 KECCAK256 SWAP2 PUSH1 0x1 DUP1 PUSH1 0xA0 SHL SUB PUSH1 0x1 DUP5 ADD SLOAD AND CALLER SUB PUSH2 0x911 JUMPI PUSH2 0x89D PUSH1 0xFF PUSH1 0x3 DUP6 ADD SLOAD AND PUSH2 0x17E4 JUMP JUMPDEST PUSH1 0xFF PUSH1 0x5 DUP5 ADD SLOAD AND PUSH1 0x2 DUP2 LT ISZERO PUSH2 0x8FE JUMPI PUSH2 0x8BB JUMPI POP POP PUSH1 0x2 ADD SSTORE DUP1 RETURN JUMPDEST SWAP1 PUSH1 0x20 PUSH1 0x64 SWAP3 MLOAD SWAP2 PUSH3 0x461BCD PUSH1 0xE5 SHL DUP4 MSTORE DUP3 ADD MSTORE PUSH1 0x1B PUSH1 0x24 DUP3 ADD MSTORE PUSH32 0x43616E6E6F74207570646174652061756374696F6E2070726963650000000000 PUSH1 0x44 DUP3 ADD MSTORE REVERT JUMPDEST PUSH4 0x4E487B71 PUSH1 0xE0 SHL DUP7 MSTORE PUSH1 0x21 DUP4 MSTORE PUSH1 0x24 DUP7 REVERT JUMPDEST SWAP1 PUSH1 0x20 PUSH1 0x64 SWAP3 MLOAD SWAP2 PUSH3 0x461BCD PUSH1 0xE5 SHL DUP4 MSTORE DUP3 ADD MSTORE PUSH1 0xA PUSH1 0x24 DUP3 ADD MSTORE PUSH10 0x2737BA1039B2B63632B9 PUSH1 0xB1 SHL PUSH1 0x44 DUP3 ADD MSTORE REVERT JUMPDEST POP POP CALLVALUE PUSH2 0x77B JUMPI DUP2 PUSH1 0x3 NOT CALLDATASIZE ADD SLT PUSH2 0x77B JUMPI PUSH1 0x7 SLOAD SWAP1 MLOAD PUSH1 0x1 PUSH1 0x1 PUSH1 0xA0 SHL SUB SWAP1 SWAP2 AND DUP2 MSTORE PUSH1 0x20 SWAP1 RETURN JUMPDEST POP CALLVALUE PUSH2 0x445 JUMPI PUSH1 0x80 CALLDATASIZE PUSH1 0x3 NOT ADD SLT PUSH2 0x445 JUMPI DUP1 CALLDATALOAD SWAP1 PUSH1 0x24 SWAP3 DUP4 CALLDATALOAD SWAP4 PUSH1 0x44 CALLDATALOAD SWAP3 PUSH1 0x2 DUP5 LT ISZERO PUSH2 0x333 JUMPI PUSH2 0x99A PUSH2 0x17C1 JUMP JUMPDEST PUSH1 0x2 SLOAD DUP4 MLOAD PUSH4 0x31A9108F PUSH1 0xE1 SHL DUP2 MSTORE DUP3 DUP2 ADD DUP8 SWAP1 MSTORE PUSH1 0x20 SWAP4 PUSH1 0x1 PUSH1 0x1 PUSH1 0xA0 SHL SUB SWAP3 SWAP1 SWAP2 SWAP1 DUP4 AND SWAP1 DUP6 DUP2 DUP5 DUP2 DUP6 GAS STATICCALL SWAP1 DUP2 ISZERO PUSH2 0xCB6 JUMPI DUP12 SWAP2 PUSH2 0xC99 JUMPI JUMPDEST POP DUP4 CALLER SWAP2 AND SUB PUSH2 0xC65 JUMPI DUP5 DUP3 SWAP2 DUP8 MLOAD SWAP3 DUP4 DUP1 SWAP3 PUSH4 0x20604BF PUSH1 0xE2 SHL DUP3 MSTORE DUP13 DUP10 DUP4 ADD MSTORE GAS STATICCALL SWAP1 DUP2 ISZERO PUSH2 0xC5B JUMPI DUP11 SWAP2 PUSH2 0xC2E JUMPI JUMPDEST POP DUP3 ADDRESS SWAP2 AND SUB PUSH2 0xBED JUMPI PUSH1 0x1 DUP7 SUB PUSH2 0xBE7 JUMPI PUSH1 0x64 CALLDATALOAD TIMESTAMP ADD DUP1 TIMESTAMP GT PUSH2 0xBD5 JUMPI JUMPDEST DUP6 MLOAD SWAP2 PUSH2 0x120 DUP4 ADD DUP4 DUP2 LT PUSH8 0xFFFFFFFFFFFFFFFF DUP3 GT OR PUSH2 0xBC1 JUMPI DUP12 SWAP3 DUP10 DUP5 SWAP4 DUP13 DUP8 DUP16 DUP13 SWAP7 DUP15 MSTORE DUP3 DUP3 MSTORE DUP14 DUP9 DUP14 DUP10 DUP6 ADD SWAP10 CALLER DUP12 MSTORE DUP4 DUP7 ADD SWAP5 DUP6 MSTORE PUSH1 0x60 DUP7 ADD SWAP7 PUSH1 0x1 DUP9 MSTORE PUSH2 0x100 PUSH1 0x80 DUP9 ADD SWAP8 TIMESTAMP DUP10 MSTORE PUSH1 0xA0 DUP2 ADD SWAP12 DUP13 MSTORE PUSH1 0xC0 DUP2 ADD SWAP13 DUP14 MSTORE PUSH1 0xE0 DUP2 ADD SWAP15 DUP16 MSTORE ADD SWAP14 DUP15 MSTORE DUP4 MSTORE MSTORE KECCAK256 SWAP10 MLOAD DUP11 SSTORE DUP11 PUSH1 0x1 DUP12 ADD SWAP8 MLOAD AND SWAP7 PUSH1 0x1 PUSH1 0x1 PUSH1 0x60 SHL SUB PUSH1 0xA0 SHL SWAP8 DUP9 DUP3 SLOAD AND OR SWAP1 SSTORE MLOAD PUSH1 0x2 DUP11 ADD SSTORE PUSH1 0x3 DUP10 ADD SWAP2 MLOAD ISZERO ISZERO SWAP2 PUSH1 0xFF NOT SWAP3 PUSH1 0xFF DUP5 DUP4 SLOAD AND SWAP2 AND OR SWAP1 SSTORE MLOAD DUP11 DUP10 ADD SSTORE PUSH1 0x5 DUP9 ADD SWAP3 MLOAD SWAP2 PUSH1 0x2 DUP4 LT ISZERO PUSH2 0xBAE JUMPI POP DUP3 SLOAD PUSH1 0xFF SWAP1 SWAP3 AND SWAP2 AND OR SWAP1 SSTORE MLOAD PUSH1 0x6 DUP6 ADD SSTORE SWAP1 MLOAD PUSH1 0x7 DUP5 ADD DUP1 SLOAD SWAP1 SWAP3 AND SWAP1 DUP6 AND OR SWAP1 SSTORE MLOAD PUSH1 0x8 SWAP1 SWAP2 ADD SSTORE PUSH1 0x2 SLOAD DUP9 SWAP3 SWAP2 AND DUP1 EXTCODESIZE ISZERO PUSH2 0x445 JUMPI DUP5 MLOAD PUSH4 0x23B872DD PUSH1 0xE0 SHL DUP2 MSTORE CALLER SWAP3 DUP2 ADD SWAP3 DUP4 MSTORE ADDRESS PUSH1 0x20 DUP5 ADD MSTORE PUSH1 0x40 DUP4 ADD DUP9 SWAP1 MSTORE SWAP2 DUP4 SWAP2 DUP4 SWAP2 DUP3 SWAP1 DUP5 SWAP1 DUP3 SWAP1 PUSH1 0x60 ADD SUB SWAP3 GAS CALL DUP1 ISZERO PUSH2 0x337 JUMPI PUSH2 0xB9A JUMPI JUMPDEST POP POP PUSH32 0xD827F730B707FC2A464705C98023B0C215FA45822662B3AD03D66C46D057AEC4 SWAP3 PUSH2 0xB90 SWAP2 DUP4 MLOAD SWAP7 DUP8 MSTORE DUP7 ADD SWAP1 PUSH2 0x15CC JUMP JUMPDEST CALLER SWAP4 LOG3 PUSH1 0x1 DUP2 SSTORE DUP1 RETURN JUMPDEST PUSH2 0xBA3 SWAP1 PUSH2 0x1756 JUMP JUMPDEST PUSH2 0x42E JUMPI DUP6 CODESIZE PUSH2 0xB5B JUMP JUMPDEST SWAP1 POP DUP16 PUSH1 0x21 DUP12 PUSH4 0x4E487B71 PUSH1 0xE0 SHL DUP4 MSTORE MSTORE REVERT JUMPDEST POP PUSH4 0x4E487B71 PUSH1 0xE0 SHL PUSH1 0x0 SWAP1 DUP2 MSTORE PUSH1 0x41 DUP7 MSTORE REVERT JUMPDEST POP PUSH4 0x4E487B71 PUSH1 0xE0 SHL DUP10 MSTORE PUSH1 0x11 DUP4 MSTORE DUP9 REVERT JUMPDEST DUP9 PUSH2 0xA27 JUMP JUMPDEST PUSH1 0x18 SWAP2 POP PUSH1 0x64 SWAP4 DUP6 MLOAD SWAP4 PUSH3 0x461BCD PUSH1 0xE5 SHL DUP6 MSTORE DUP5 ADD MSTORE DUP3 ADD MSTORE PUSH32 0x4D61726B6574706C616365206E6F7420617070726F7665640000000000000000 PUSH1 0x44 DUP3 ADD MSTORE REVERT JUMPDEST PUSH2 0xC4E SWAP2 POP DUP6 RETURNDATASIZE DUP8 GT PUSH2 0xC54 JUMPI JUMPDEST PUSH2 0xC46 DUP2 DUP4 PUSH2 0x1780 JUMP JUMPDEST DUP2 ADD SWAP1 PUSH2 0x17A2 JUMP JUMPDEST CODESIZE PUSH2 0xA08 JUMP JUMPDEST POP RETURNDATASIZE PUSH2 0xC3C JUMP JUMPDEST DUP7 MLOAD RETURNDATASIZE DUP13 DUP3 RETURNDATACOPY RETURNDATASIZE SWAP1 REVERT JUMPDEST DUP6 MLOAD PUSH3 0x461BCD PUSH1 0xE5 SHL DUP2 MSTORE DUP1 DUP6 ADD DUP7 SWAP1 MSTORE PUSH1 0xF DUP2 DUP5 ADD MSTORE PUSH15 0x2737BA103A37B5B2B71037BBB732B9 PUSH1 0x89 SHL PUSH1 0x44 DUP3 ADD MSTORE PUSH1 0x64 SWAP1 REVERT JUMPDEST PUSH2 0xCB0 SWAP2 POP DUP7 RETURNDATASIZE DUP9 GT PUSH2 0xC54 JUMPI PUSH2 0xC46 DUP2 DUP4 PUSH2 0x1780 JUMP JUMPDEST CODESIZE PUSH2 0x9D6 JUMP JUMPDEST DUP8 MLOAD RETURNDATASIZE DUP14 DUP3 RETURNDATACOPY RETURNDATASIZE SWAP1 REVERT JUMPDEST POP CALLVALUE PUSH2 0x445 JUMPI PUSH1 0x20 CALLDATASIZE PUSH1 0x3 NOT ADD SLT PUSH2 0x445 JUMPI DUP1 CALLDATALOAD SWAP2 DUP4 DUP1 MSTORE PUSH1 0x1 PUSH1 0x20 MSTORE DUP1 DUP5 KECCAK256 CALLER PUSH1 0x0 MSTORE PUSH1 0x20 MSTORE PUSH2 0xCF7 PUSH1 0xFF DUP3 PUSH1 0x0 KECCAK256 SLOAD AND PUSH2 0x19AB JUMP JUMPDEST PUSH2 0x3E8 DUP4 GT PUSH2 0xD08 JUMPI POP POP PUSH1 0x6 SSTORE DUP1 RETURN JUMPDEST SWAP1 PUSH1 0x20 PUSH1 0x64 SWAP3 MLOAD SWAP2 PUSH3 0x461BCD PUSH1 0xE5 SHL DUP4 MSTORE DUP3 ADD MSTORE PUSH1 0xC PUSH1 0x24 DUP3 ADD MSTORE PUSH12 0x8CCACA40E8DEDE40D0D2CED PUSH1 0xA3 SHL PUSH1 0x44 DUP3 ADD MSTORE REVERT JUMPDEST POP POP CALLVALUE PUSH2 0x77B JUMPI DUP2 PUSH1 0x3 NOT CALLDATASIZE ADD SLT PUSH2 0x77B JUMPI MLOAD SWAP1 DUP2 MSTORE PUSH1 0x20 SWAP1 RETURN JUMPDEST POP POP CALLVALUE PUSH2 0x77B JUMPI DUP2 PUSH1 0x3 NOT CALLDATASIZE ADD SLT PUSH2 0x77B JUMPI PUSH1 0x3 SLOAD SWAP1 MLOAD PUSH1 0x1 PUSH1 0x1 PUSH1 0xA0 SHL SUB SWAP1 SWAP2 AND DUP2 MSTORE PUSH1 0x20 SWAP1 RETURN JUMPDEST POP CALLVALUE PUSH2 0x445 JUMPI DUP2 PUSH1 0x3 NOT CALLDATASIZE ADD SLT PUSH2 0x445 JUMPI DUP2 PUSH1 0x20 SWAP4 PUSH2 0xD9B PUSH2 0x15EF JUMP JUMPDEST SWAP3 CALLDATALOAD DUP2 MSTORE PUSH1 0x1 DUP6 MSTORE KECCAK256 SWAP1 PUSH1 0x1 DUP1 PUSH1 0xA0 SHL SUB AND PUSH1 0x0 MSTORE DUP3 MSTORE PUSH1 0xFF DUP2 PUSH1 0x0 KECCAK256 SLOAD AND SWAP1 MLOAD SWAP1 ISZERO ISZERO DUP2 MSTORE RETURN JUMPDEST POP SWAP1 CALLVALUE PUSH2 0x445 JUMPI PUSH2 0xDD3 CALLDATASIZE PUSH2 0x1605 JUMP JUMPDEST SWAP3 SWAP1 SWAP2 PUSH2 0xDDE PUSH2 0x17C1 JUMP JUMPDEST DUP3 DUP6 MSTORE PUSH1 0x20 SWAP2 DUP1 DUP4 MSTORE DUP2 DUP7 KECCAK256 PUSH2 0xDFA PUSH1 0xFF PUSH1 0x3 DUP4 ADD SLOAD AND PUSH2 0x17E4 JUMP JUMPDEST PUSH1 0xFF PUSH1 0x5 DUP3 ADD SLOAD AND PUSH1 0x2 DUP2 LT ISZERO PUSH2 0x1033 JUMPI PUSH1 0x1 PUSH2 0xE17 SWAP2 EQ PUSH2 0x18F2 JUMP JUMPDEST PUSH1 0x6 DUP2 ADD SLOAD TIMESTAMP LT ISZERO PUSH2 0x1001 JUMPI PUSH1 0x8 DUP2 ADD SWAP2 DUP3 SLOAD SWAP2 DUP3 DUP9 GT ISZERO PUSH2 0xFD0 JUMPI PUSH1 0x7 ADD DUP1 SLOAD SWAP1 SWAP3 DUP10 SWAP2 DUP8 SWAP2 PUSH1 0x1 PUSH1 0x1 PUSH1 0xA0 SHL SUB SWAP2 DUP3 AND DUP1 PUSH2 0xF44 JUMPI JUMPDEST POP POP PUSH1 0x3 SLOAD DUP8 MLOAD PUSH4 0x23B872DD PUSH1 0xE0 SHL DUP2 MSTORE CALLER DUP7 DUP3 ADD SWAP1 DUP2 MSTORE ADDRESS PUSH1 0x20 DUP3 ADD MSTORE PUSH1 0x40 DUP2 ADD DUP14 SWAP1 MSTORE SWAP1 SWAP5 DUP6 SWAP4 SWAP1 SWAP3 AND SWAP2 DUP4 SWAP2 DUP3 SWAP1 PUSH1 0x60 ADD JUMPDEST SUB SWAP3 GAS CALL SWAP1 DUP2 ISZERO PUSH2 0xF3A JUMPI DUP10 SWAP2 PUSH2 0xF1D JUMPI JUMPDEST POP ISZERO PUSH2 0xEE4 JUMPI POP PUSH32 0xE54EFF26401BF69B81B26F60BD85EF47F5D85275C1D268D84F68D6897431C47 SWAP4 SWAP3 SWAP2 DUP7 SWAP2 CALLER PUSH1 0x1 PUSH1 0x1 PUSH1 0x60 SHL SUB PUSH1 0xA0 SHL DUP3 SLOAD AND OR SWAP1 SSTORE SSTORE MLOAD SWAP4 DUP5 MSTORE CALLER SWAP4 LOG3 PUSH1 0x1 DUP2 SSTORE DUP1 RETURN JUMPDEST DUP4 MLOAD PUSH3 0x461BCD PUSH1 0xE5 SHL DUP2 MSTORE SWAP1 DUP2 ADD DUP6 SWAP1 MSTORE PUSH1 0x13 PUSH1 0x24 DUP3 ADD MSTORE PUSH19 0x109A59081D1C985B9CD9995C8819985A5B1959 PUSH1 0x6A SHL PUSH1 0x44 DUP3 ADD MSTORE PUSH1 0x64 SWAP1 REVERT JUMPDEST PUSH2 0xF34 SWAP2 POP DUP7 RETURNDATASIZE DUP9 GT PUSH2 0x36B JUMPI PUSH2 0x35D DUP2 DUP4 PUSH2 0x1780 JUMP JUMPDEST CODESIZE PUSH2 0xE96 JUMP JUMPDEST DUP6 MLOAD RETURNDATASIZE DUP12 DUP3 RETURNDATACOPY RETURNDATASIZE SWAP1 REVERT JUMPDEST PUSH1 0x3 SLOAD DUP10 MLOAD PUSH4 0xA9059CBB PUSH1 0xE0 SHL DUP2 MSTORE PUSH1 0x1 PUSH1 0x1 PUSH1 0xA0 SHL SUB SWAP1 SWAP3 AND DUP8 DUP4 ADD SWAP1 DUP2 MSTORE PUSH1 0x20 DUP2 ADD SWAP4 SWAP1 SWAP4 MSTORE SWAP3 SWAP4 SWAP1 SWAP3 SWAP1 SWAP2 DUP4 SWAP2 DUP6 AND SWAP1 DUP3 SWAP1 DUP8 SWAP1 DUP3 SWAP1 PUSH1 0x40 ADD SUB SWAP3 GAS CALL SWAP1 DUP2 ISZERO PUSH2 0xFC6 JUMPI SWAP2 PUSH2 0xFA2 PUSH2 0xE84 SWAP3 DUP11 SWAP5 DUP7 SWAP2 PUSH2 0xFA9 JUMPI JUMPDEST POP PUSH2 0x192F JUMP JUMPDEST SWAP1 CODESIZE PUSH2 0xE4F JUMP JUMPDEST PUSH2 0xFC0 SWAP2 POP DUP6 RETURNDATASIZE DUP8 GT PUSH2 0x36B JUMPI PUSH2 0x35D DUP2 DUP4 PUSH2 0x1780 JUMP JUMPDEST CODESIZE PUSH2 0xF9C JUMP JUMPDEST DUP8 MLOAD RETURNDATASIZE DUP6 DUP3 RETURNDATACOPY RETURNDATASIZE SWAP1 REVERT JUMPDEST DUP5 MLOAD PUSH3 0x461BCD PUSH1 0xE5 SHL DUP2 MSTORE DUP1 DUP4 ADD DUP8 SWAP1 MSTORE PUSH1 0xB PUSH1 0x24 DUP3 ADD MSTORE PUSH11 0x42696420746F6F206C6F77 PUSH1 0xA8 SHL PUSH1 0x44 DUP3 ADD MSTORE PUSH1 0x64 SWAP1 REVERT JUMPDEST POP DUP3 PUSH1 0x64 SWAP3 MLOAD SWAP2 PUSH3 0x461BCD PUSH1 0xE5 SHL DUP4 MSTORE DUP3 ADD MSTORE PUSH1 0xD PUSH1 0x24 DUP3 ADD MSTORE PUSH13 0x105D58DD1A5BDB88195B991959 PUSH1 0x9A SHL PUSH1 0x44 DUP3 ADD MSTORE REVERT JUMPDEST PUSH4 0x4E487B71 PUSH1 0xE0 SHL DUP9 MSTORE PUSH1 0x21 DUP4 MSTORE PUSH1 0x24 DUP9 REVERT JUMPDEST POP CALLVALUE PUSH2 0x445 JUMPI DUP2 PUSH1 0x3 NOT CALLDATASIZE ADD SLT PUSH2 0x445 JUMPI DUP2 PUSH1 0x20 SWAP4 PUSH2 0x1063 PUSH2 0x15EF JUMP JUMPDEST SWAP3 CALLDATALOAD DUP2 MSTORE PUSH1 0x5 DUP6 MSTORE KECCAK256 SWAP1 PUSH1 0x1 DUP1 PUSH1 0xA0 SHL SUB AND PUSH1 0x0 MSTORE DUP3 MSTORE DUP1 PUSH1 0x0 KECCAK256 SLOAD SWAP1 MLOAD SWAP1 DUP2 MSTORE RETURN JUMPDEST POP SWAP2 SWAP1 CALLVALUE PUSH2 0x77B JUMPI DUP1 PUSH1 0x3 NOT CALLDATASIZE ADD SLT PUSH2 0x77B JUMPI PUSH2 0x10A1 PUSH2 0x15EF JUMP JUMPDEST SWAP1 CALLER PUSH1 0x1 PUSH1 0x1 PUSH1 0xA0 SHL SUB DUP4 AND SUB PUSH2 0x10BE JUMPI POP PUSH2 0x7B9 SWAP2 SWAP3 CALLDATALOAD PUSH2 0x16DF JUMP JUMPDEST MLOAD PUSH4 0x334BD919 PUSH1 0xE1 SHL DUP2 MSTORE DUP4 SWAP1 REVERT JUMPDEST POP CALLVALUE PUSH2 0x445 JUMPI PUSH1 0x20 SWAP1 DUP2 PUSH1 0x3 NOT CALLDATASIZE ADD SLT PUSH2 0x341 JUMPI DUP1 CALLDATALOAD SWAP1 PUSH2 0x10EC PUSH2 0x17C1 JUMP JUMPDEST DUP2 DUP6 MSTORE DUP1 DUP4 MSTORE DUP4 DUP6 KECCAK256 SWAP1 PUSH1 0x3 DUP3 ADD PUSH2 0x1107 PUSH1 0xFF DUP3 SLOAD AND PUSH2 0x17E4 JUMP JUMPDEST PUSH1 0x1 DUP4 ADD SLOAD PUSH1 0x1 PUSH1 0x1 PUSH1 0xA0 SHL SUB SWAP5 SWAP1 DUP6 AND SWAP1 CALLER DUP3 EQ DUP1 ISZERO PUSH2 0x12B6 JUMPI JUMPDEST ISZERO PUSH2 0x1282 JUMPI DUP9 SWAP1 DUP7 PUSH1 0x2 SLOAD AND DUP1 EXTCODESIZE ISZERO PUSH2 0x445 JUMPI DUP10 MLOAD PUSH4 0x23B872DD PUSH1 0xE0 SHL DUP2 MSTORE ADDRESS DUP8 DUP3 ADD SWAP1 DUP2 MSTORE PUSH1 0x1 PUSH1 0x1 PUSH1 0xA0 SHL SUB SWAP1 SWAP6 AND PUSH1 0x20 DUP7 ADD MSTORE PUSH1 0x40 DUP6 ADD SWAP3 SWAP1 SWAP3 MSTORE SWAP1 SWAP3 DUP4 SWAP2 SWAP1 DUP3 SWAP1 DUP5 SWAP1 DUP3 SWAP1 PUSH1 0x60 ADD SUB SWAP3 GAS CALL DUP1 ISZERO PUSH2 0x1278 JUMPI PUSH2 0x1265 JUMPI JUMPDEST POP DUP1 SLOAD PUSH1 0xFF NOT AND SWAP1 SSTORE PUSH1 0x5 DUP3 ADD SLOAD PUSH1 0xFF AND PUSH1 0x2 DUP2 LT ISZERO PUSH2 0x1252 JUMPI PUSH1 0x1 EQ DUP1 PUSH2 0x1243 JUMPI JUMPDEST PUSH2 0x11AE JUMPI JUMPDEST DUP6 PUSH1 0x1 DUP2 SSTORE DUP1 RETURN JUMPDEST PUSH1 0x3 SLOAD PUSH1 0x7 DUP4 ADD SLOAD PUSH1 0x8 SWAP1 SWAP4 ADD SLOAD DUP7 MLOAD PUSH4 0xA9059CBB PUSH1 0xE0 SHL DUP2 MSTORE SWAP4 DUP6 AND PUSH1 0x1 PUSH1 0x1 PUSH1 0xA0 SHL SUB AND SWAP3 DUP5 ADD SWAP3 DUP4 MSTORE PUSH1 0x20 DUP4 ADD MSTORE SWAP2 SWAP3 DUP5 SWAP3 DUP5 SWAP3 SWAP2 AND SWAP1 DUP3 SWAP1 DUP9 SWAP1 DUP3 SWAP1 PUSH1 0x40 ADD SUB SWAP3 GAS CALL SWAP2 DUP3 ISZERO PUSH2 0x1236 JUMPI PUSH2 0x120F SWAP4 POP DUP5 SWAP3 PUSH2 0x1219 JUMPI JUMPDEST POP POP PUSH2 0x192F JUMP JUMPDEST CODESIZE DUP1 DUP1 DUP1 DUP1 PUSH2 0x11A6 JUMP JUMPDEST PUSH2 0x122F SWAP3 POP DUP1 RETURNDATASIZE LT PUSH2 0x36B JUMPI PUSH2 0x35D DUP2 DUP4 PUSH2 0x1780 JUMP JUMPDEST CODESIZE DUP1 PUSH2 0x1208 JUMP JUMPDEST POP POP POP MLOAD SWAP1 RETURNDATASIZE SWAP1 DUP3 RETURNDATACOPY RETURNDATASIZE SWAP1 REVERT JUMPDEST POP DUP3 PUSH1 0x7 DUP4 ADD SLOAD AND ISZERO ISZERO PUSH2 0x11A1 JUMP JUMPDEST PUSH4 0x4E487B71 PUSH1 0xE0 SHL DUP8 MSTORE PUSH1 0x21 DUP3 MSTORE PUSH1 0x24 DUP8 REVERT JUMPDEST PUSH2 0x1271 SWAP1 SWAP8 SWAP2 SWAP8 PUSH2 0x1756 JUMP JUMPDEST SWAP6 CODESIZE PUSH2 0x117E JUMP JUMPDEST DUP8 MLOAD RETURNDATASIZE DUP11 DUP3 RETURNDATACOPY RETURNDATASIZE SWAP1 REVERT JUMPDEST DUP8 MLOAD PUSH3 0x461BCD PUSH1 0xE5 SHL DUP2 MSTORE DUP1 DUP6 ADD DUP9 SWAP1 MSTORE PUSH1 0xE PUSH1 0x24 DUP3 ADD MSTORE PUSH14 0x139BDD08185D5D1A1BDC9A5E9959 PUSH1 0x92 SHL PUSH1 0x44 DUP3 ADD MSTORE PUSH1 0x64 SWAP1 REVERT JUMPDEST POP DUP9 DUP1 MSTORE PUSH1 0x1 DUP8 MSTORE DUP8 DUP10 KECCAK256 CALLER DUP11 MSTORE DUP8 MSTORE PUSH1 0xFF DUP9 DUP11 KECCAK256 SLOAD AND PUSH2 0x1123 JUMP JUMPDEST POP SWAP1 CALLVALUE PUSH2 0x445 JUMPI DUP1 PUSH1 0x3 NOT CALLDATASIZE ADD SLT PUSH2 0x445 JUMPI PUSH2 0x7B9 SWAP2 CALLDATALOAD PUSH2 0x12F6 PUSH1 0x1 PUSH2 0x7A3 PUSH2 0x15EF JUMP JUMPDEST PUSH2 0x165F JUMP JUMPDEST POP POP CALLVALUE PUSH2 0x77B JUMPI DUP2 PUSH1 0x3 NOT CALLDATASIZE ADD SLT PUSH2 0x77B JUMPI PUSH1 0x20 SWAP1 PUSH1 0x6 SLOAD SWAP1 MLOAD SWAP1 DUP2 MSTORE RETURN JUMPDEST POP CALLVALUE PUSH2 0x445 JUMPI PUSH1 0x20 CALLDATASIZE PUSH1 0x3 NOT ADD SLT PUSH2 0x445 JUMPI DUP2 PUSH1 0x20 SWAP4 PUSH1 0x1 SWAP3 CALLDATALOAD DUP2 MSTORE DUP3 DUP6 MSTORE KECCAK256 ADD SLOAD SWAP1 MLOAD SWAP1 DUP2 MSTORE RETURN JUMPDEST POP SWAP1 CALLVALUE PUSH2 0x445 JUMPI PUSH1 0x20 CALLDATASIZE PUSH1 0x3 NOT ADD SLT PUSH2 0x445 JUMPI DUP1 PUSH2 0x100 SWAP4 DUP4 CALLDATALOAD DUP2 MSTORE DUP4 PUSH1 0x20 MSTORE KECCAK256 PUSH1 0x1 DUP1 PUSH1 0xA0 SHL SUB PUSH2 0x13C3 DUP2 PUSH1 0x1 DUP5 ADD SLOAD AND SWAP5 PUSH1 0x2 DUP5 ADD SLOAD SWAP5 PUSH1 0xFF PUSH1 0x3 DUP7 ADD SLOAD AND SWAP2 DUP6 ADD SLOAD SWAP1 PUSH1 0xFF PUSH1 0x5 DUP8 ADD SLOAD AND SWAP3 PUSH1 0x8 PUSH1 0x6 DUP9 ADD SLOAD SWAP7 PUSH1 0x7 DUP10 ADD SLOAD AND SWAP8 ADD SLOAD SWAP8 DUP3 MLOAD SWAP10 DUP11 MSTORE PUSH1 0x20 DUP11 ADD MSTORE ISZERO ISZERO SWAP1 DUP9 ADD MSTORE PUSH1 0x60 DUP8 ADD MSTORE PUSH1 0x80 DUP7 ADD SWAP1 PUSH2 0x15CC JUMP JUMPDEST PUSH1 0xA0 DUP5 ADD MSTORE PUSH1 0xC0 DUP4 ADD MSTORE PUSH1 0xE0 DUP3 ADD MSTORE RETURN JUMPDEST POP SWAP1 CALLVALUE PUSH2 0x445 JUMPI PUSH1 0x20 SWAP1 DUP2 PUSH1 0x3 NOT CALLDATASIZE ADD SLT PUSH2 0x341 JUMPI DUP3 CALLDATALOAD PUSH2 0x13F3 PUSH2 0x17C1 JUMP JUMPDEST DUP1 DUP6 MSTORE DUP4 DUP4 MSTORE PUSH2 0x140A PUSH1 0x6 DUP4 DUP8 KECCAK256 ADD SLOAD TIMESTAMP GT PUSH2 0x196B JUMP JUMPDEST DUP1 DUP6 MSTORE DUP4 DUP4 MSTORE DUP2 DUP6 KECCAK256 PUSH1 0x7 ADD SLOAD PUSH1 0x1 PUSH1 0x1 PUSH1 0xA0 SHL SUB SWAP1 DUP2 AND CALLER EQ PUSH2 0x1535 JUMPI DUP2 DUP7 MSTORE PUSH1 0x5 DUP5 MSTORE DUP3 DUP7 KECCAK256 CALLER DUP8 MSTORE DUP5 MSTORE DUP3 DUP7 KECCAK256 SLOAD SWAP2 DUP3 ISZERO PUSH2 0x14FD JUMPI DUP7 MSTORE PUSH1 0x5 DUP5 MSTORE DUP3 DUP7 KECCAK256 CALLER DUP1 DUP9 MSTORE SWAP1 DUP6 MSTORE DUP4 DUP8 KECCAK256 DUP8 SWAP1 SSTORE PUSH1 0x3 SLOAD DUP5 MLOAD PUSH4 0xA9059CBB PUSH1 0xE0 SHL DUP2 MSTORE DUP8 DUP2 ADD SWAP3 DUP4 MSTORE PUSH1 0x20 DUP4 ADD SWAP5 SWAP1 SWAP5 MSTORE DUP6 SWAP3 DUP5 SWAP3 DUP4 SWAP1 SUB PUSH1 0x40 ADD SWAP2 DUP4 SWAP2 DUP11 SWAP2 AND GAS CALL SWAP1 DUP2 ISZERO PUSH2 0x14F3 JUMPI DUP6 SWAP2 PUSH2 0x14D6 JUMPI JUMPDEST POP ISZERO PUSH2 0x14A3 JUMPI DUP4 PUSH1 0x1 DUP2 SSTORE DUP1 RETURN JUMPDEST MLOAD PUSH3 0x461BCD PUSH1 0xE5 SHL DUP2 MSTORE SWAP2 DUP3 ADD MSTORE PUSH1 0xF PUSH1 0x24 DUP3 ADD MSTORE PUSH15 0x151C985B9CD9995C8819985A5B1959 PUSH1 0x8A SHL PUSH1 0x44 DUP3 ADD MSTORE PUSH1 0x64 SWAP2 POP REVERT JUMPDEST PUSH2 0x14ED SWAP2 POP DUP4 RETURNDATASIZE DUP6 GT PUSH2 0x36B JUMPI PUSH2 0x35D DUP2 DUP4 PUSH2 0x1780 JUMP JUMPDEST CODESIZE PUSH2 0x1495 JUMP JUMPDEST DUP3 MLOAD RETURNDATASIZE DUP8 DUP3 RETURNDATACOPY RETURNDATASIZE SWAP1 REVERT JUMPDEST DUP4 MLOAD PUSH3 0x461BCD PUSH1 0xE5 SHL DUP2 MSTORE DUP1 DUP8 ADD DUP7 SWAP1 MSTORE PUSH1 0x12 PUSH1 0x24 DUP3 ADD MSTORE PUSH18 0x4E6F2062696420746F207769746864726177 PUSH1 0x70 SHL PUSH1 0x44 DUP3 ADD MSTORE PUSH1 0x64 SWAP1 REVERT JUMPDEST POP POP MLOAD PUSH3 0x461BCD PUSH1 0xE5 SHL DUP2 MSTORE SWAP2 DUP3 ADD MSTORE PUSH1 0x1E PUSH1 0x24 DUP3 ADD MSTORE PUSH32 0x48696768657374206269646465722063616E6E6F742077697468647261770000 PUSH1 0x44 DUP3 ADD MSTORE PUSH1 0x64 SWAP2 POP REVERT JUMPDEST SWAP3 POP POP CALLVALUE PUSH2 0x445 JUMPI PUSH1 0x20 CALLDATASIZE PUSH1 0x3 NOT ADD SLT PUSH2 0x445 JUMPI CALLDATALOAD PUSH4 0xFFFFFFFF PUSH1 0xE0 SHL DUP2 AND DUP1 SWAP2 SUB PUSH2 0x445 JUMPI PUSH1 0x20 SWAP3 POP PUSH4 0x7965DB0B PUSH1 0xE0 SHL DUP2 EQ SWAP1 DUP2 ISZERO PUSH2 0x15BB JUMPI JUMPDEST POP ISZERO ISZERO DUP2 MSTORE RETURN JUMPDEST PUSH4 0x1FFC9A7 PUSH1 0xE0 SHL EQ SWAP1 POP CODESIZE PUSH2 0x15B4 JUMP JUMPDEST SWAP1 PUSH1 0x2 DUP3 LT ISZERO PUSH2 0x15D9 JUMPI MSTORE JUMP JUMPDEST PUSH4 0x4E487B71 PUSH1 0xE0 SHL PUSH1 0x0 MSTORE PUSH1 0x21 PUSH1 0x4 MSTORE PUSH1 0x24 PUSH1 0x0 REVERT JUMPDEST PUSH1 0x24 CALLDATALOAD SWAP1 PUSH1 0x1 PUSH1 0x1 PUSH1 0xA0 SHL SUB DUP3 AND DUP3 SUB PUSH2 0x859 JUMPI JUMP JUMPDEST PUSH1 0x40 SWAP1 PUSH1 0x3 NOT ADD SLT PUSH2 0x859 JUMPI PUSH1 0x4 CALLDATALOAD SWAP1 PUSH1 0x24 CALLDATALOAD SWAP1 JUMP JUMPDEST DUP1 PUSH1 0x0 MSTORE PUSH1 0x1 PUSH1 0x20 MSTORE PUSH1 0x40 PUSH1 0x0 KECCAK256 CALLER PUSH1 0x0 MSTORE PUSH1 0x20 MSTORE PUSH1 0xFF PUSH1 0x40 PUSH1 0x0 KECCAK256 SLOAD AND ISZERO PUSH2 0x1641 JUMPI POP JUMP JUMPDEST PUSH1 0x44 SWAP1 PUSH1 0x40 MLOAD SWAP1 PUSH4 0xE2517D3F PUSH1 0xE0 SHL DUP3 MSTORE CALLER PUSH1 0x4 DUP4 ADD MSTORE PUSH1 0x24 DUP3 ADD MSTORE REVERT JUMPDEST SWAP1 PUSH1 0x0 SWAP2 DUP1 DUP4 MSTORE PUSH1 0x1 PUSH1 0x20 MSTORE PUSH1 0x40 DUP4 KECCAK256 SWAP2 PUSH1 0x1 DUP1 PUSH1 0xA0 SHL SUB AND SWAP2 DUP3 DUP5 MSTORE PUSH1 0x20 MSTORE PUSH1 0xFF PUSH1 0x40 DUP5 KECCAK256 SLOAD AND ISZERO PUSH1 0x0 EQ PUSH2 0x16DA JUMPI DUP1 DUP4 MSTORE PUSH1 0x1 PUSH1 0x20 MSTORE PUSH1 0x40 DUP4 KECCAK256 DUP3 DUP5 MSTORE PUSH1 0x20 MSTORE PUSH1 0x40 DUP4 KECCAK256 PUSH1 0x1 PUSH1 0xFF NOT DUP3 SLOAD AND OR SWAP1 SSTORE PUSH32 0x2F8788117E7EFF1D82E926EC794901D17C78024A50270940304540A733656F0D CALLER SWAP4 DUP1 LOG4 PUSH1 0x1 SWAP1 JUMP JUMPDEST POP POP SWAP1 JUMP JUMPDEST SWAP1 PUSH1 0x0 SWAP2 DUP1 DUP4 MSTORE PUSH1 0x1 PUSH1 0x20 MSTORE PUSH1 0x40 DUP4 KECCAK256 SWAP2 PUSH1 0x1 DUP1 PUSH1 0xA0 SHL SUB AND SWAP2 DUP3 DUP5 MSTORE PUSH1 0x20 MSTORE PUSH1 0xFF PUSH1 0x40 DUP5 KECCAK256 SLOAD AND PUSH1 0x0 EQ PUSH2 0x16DA JUMPI DUP1 DUP4 MSTORE PUSH1 0x1 PUSH1 0x20 MSTORE PUSH1 0x40 DUP4 KECCAK256 DUP3 DUP5 MSTORE PUSH1 0x20 MSTORE PUSH1 0x40 DUP4 KECCAK256 PUSH1 0xFF NOT DUP2 SLOAD AND SWAP1 SSTORE PUSH32 0xF6391F5C32D9C69D2A47EA670B442974B53935D1EDC7FD64EB21E047A839171B CALLER SWAP4 DUP1 LOG4 PUSH1 0x1 SWAP1 JUMP JUMPDEST PUSH8 0xFFFFFFFFFFFFFFFF DUP2 GT PUSH2 0x176A JUMPI PUSH1 0x40 MSTORE JUMP JUMPDEST PUSH4 0x4E487B71 PUSH1 0xE0 SHL PUSH1 0x0 MSTORE PUSH1 0x41 PUSH1 0x4 MSTORE PUSH1 0x24 PUSH1 0x0 REVERT JUMPDEST SWAP1 PUSH1 0x1F DUP1 NOT SWAP2 ADD AND DUP2 ADD SWAP1 DUP2 LT PUSH8 0xFFFFFFFFFFFFFFFF DUP3 GT OR PUSH2 0x176A JUMPI PUSH1 0x40 MSTORE JUMP JUMPDEST SWAP1 DUP2 PUSH1 0x20 SWAP2 SUB SLT PUSH2 0x859 JUMPI MLOAD PUSH1 0x1 PUSH1 0x1 PUSH1 0xA0 SHL SUB DUP2 AND DUP2 SUB PUSH2 0x859 JUMPI SWAP1 JUMP JUMPDEST PUSH1 0x2 PUSH1 0x0 SLOAD EQ PUSH2 0x17D2 JUMPI PUSH1 0x2 PUSH1 0x0 SSTORE JUMP JUMPDEST PUSH1 0x40 MLOAD PUSH4 0x3EE5AEB5 PUSH1 0xE0 SHL DUP2 MSTORE PUSH1 0x4 SWAP1 REVERT JUMPDEST ISZERO PUSH2 0x17EB JUMPI JUMP JUMPDEST PUSH1 0x40 MLOAD PUSH3 0x461BCD PUSH1 0xE5 SHL DUP2 MSTORE PUSH1 0x20 PUSH1 0x4 DUP3 ADD MSTORE PUSH1 0x12 PUSH1 0x24 DUP3 ADD MSTORE PUSH18 0x4C697374696E67206E6F7420616374697665 PUSH1 0x70 SHL PUSH1 0x44 DUP3 ADD MSTORE PUSH1 0x64 SWAP1 REVERT JUMPDEST DUP2 DUP2 MUL SWAP3 SWAP2 DUP2 ISZERO SWAP2 DUP5 DIV EQ OR ISZERO PUSH2 0x1838 JUMPI JUMP JUMPDEST PUSH4 0x4E487B71 PUSH1 0xE0 SHL PUSH1 0x0 MSTORE PUSH1 0x11 PUSH1 0x4 MSTORE PUSH1 0x24 PUSH1 0x0 REVERT JUMPDEST SWAP2 SWAP1 DUP3 SUB SWAP2 DUP3 GT PUSH2 0x1838 JUMPI JUMP JUMPDEST SWAP1 DUP2 PUSH1 0x20 SWAP2 SUB SLT PUSH2 0x859 JUMPI MLOAD DUP1 ISZERO ISZERO DUP2 SUB PUSH2 0x859 JUMPI SWAP1 JUMP JUMPDEST ISZERO PUSH2 0x187A JUMPI JUMP JUMPDEST PUSH1 0x40 MLOAD PUSH3 0x461BCD PUSH1 0xE5 SHL DUP2 MSTORE PUSH1 0x20 PUSH1 0x4 DUP3 ADD MSTORE PUSH1 0x13 PUSH1 0x24 DUP3 ADD MSTORE PUSH19 0x119959481D1C985B9CD9995C8819985A5B1959 PUSH1 0x6A SHL PUSH1 0x44 DUP3 ADD MSTORE PUSH1 0x64 SWAP1 REVERT JUMPDEST ISZERO PUSH2 0x18BC JUMPI JUMP JUMPDEST PUSH1 0x40 MLOAD PUSH3 0x461BCD PUSH1 0xE5 SHL DUP2 MSTORE PUSH1 0x20 PUSH1 0x4 DUP3 ADD MSTORE PUSH1 0xE PUSH1 0x24 DUP3 ADD MSTORE PUSH14 0x14185E5B595B9D0819985A5B1959 PUSH1 0x92 SHL PUSH1 0x44 DUP3 ADD MSTORE PUSH1 0x64 SWAP1 REVERT JUMPDEST ISZERO PUSH2 0x18F9 JUMPI JUMP JUMPDEST PUSH1 0x40 MLOAD PUSH3 0x461BCD PUSH1 0xE5 SHL DUP2 MSTORE PUSH1 0x20 PUSH1 0x4 DUP3 ADD MSTORE PUSH1 0xE PUSH1 0x24 DUP3 ADD MSTORE PUSH14 0x2737BA1030B71030BAB1BA34B7B7 PUSH1 0x91 SHL PUSH1 0x44 DUP3 ADD MSTORE PUSH1 0x64 SWAP1 REVERT JUMPDEST ISZERO PUSH2 0x1936 JUMPI JUMP JUMPDEST PUSH1 0x40 MLOAD PUSH3 0x461BCD PUSH1 0xE5 SHL DUP2 MSTORE PUSH1 0x20 PUSH1 0x4 DUP3 ADD MSTORE PUSH1 0xD PUSH1 0x24 DUP3 ADD MSTORE PUSH13 0x1499599D5B990819985A5B1959 PUSH1 0x9A SHL PUSH1 0x44 DUP3 ADD MSTORE PUSH1 0x64 SWAP1 REVERT JUMPDEST ISZERO PUSH2 0x1972 JUMPI JUMP JUMPDEST PUSH1 0x40 MLOAD PUSH3 0x461BCD PUSH1 0xE5 SHL DUP2 MSTORE PUSH1 0x20 PUSH1 0x4 DUP3 ADD MSTORE PUSH1 0x11 PUSH1 0x24 DUP3 ADD MSTORE PUSH17 0x105D58DD1A5BDB881B9BDD08195B991959 PUSH1 0x7A SHL PUSH1 0x44 DUP3 ADD MSTORE PUSH1 0x64 SWAP1 REVERT JUMPDEST ISZERO PUSH2 0x19B2 JUMPI JUMP JUMPDEST PUSH1 0x40 MLOAD PUSH3 0x461BCD PUSH1 0xE5 SHL DUP2 MSTORE PUSH1 0x20 PUSH1 0x4 DUP3 ADD MSTORE PUSH1 0x9 PUSH1 0x24 DUP3 ADD MSTORE PUSH9 0x2737BA1030B236B4B7 PUSH1 0xB9 SHL PUSH1 0x44 DUP3 ADD MSTORE PUSH1 0x64 SWAP1 REVERT INVALID LOG2 PUSH5 0x6970667358 0x22 SLT KECCAK256 0x2D DUP16 PUSH9 0x1C5A7AEAAC8D0D281B RETURNDATASIZE EXP DELEGATECALL MULMOD 0xC0 0xBE PUSH27 0x7563EB918FAC736AFCD76FF0CC64736F6C63430008140033000000 "},"methodIdentifiers":{"DEFAULT_ADMIN_ROLE()":"a217fddf","bids(uint256,address)":"3f1ffcec","buyItem(uint256)":"e7fb74c7","cancelListing(uint256)":"305a67a8","feeCollector()":"c415b95c","finalizeAuction(uint256)":"e8083863","getActiveBids(uint256,address)":"340a8c7b","getListing(uint256)":"107a274a","getRoleAdmin(bytes32)":"248a9ca3","grantRole(bytes32,address)":"2f2ff15d","hasRole(bytes32,address)":"91d14854","listItem(uint256,uint256,uint8,uint256)":"aaf78841","listings(uint256)":"de74e57b","nftContract()":"d56d229d","placeBid(uint256,uint256)":"57c90de5","platformFee()":"26232a2e","renounceRole(bytes32,address)":"36568abe","revokeRole(bytes32,address)":"d547741f","supportsInterface(bytes4)":"01ffc9a7","updateFeeCollector(address)":"d2c35ce8","updateListingPrice(uint256,uint256)":"c4604943","updatePlatformFee(uint256)":"aa0b5988","vetToken()":"9b0993a2","withdrawBid(uint256)":"0eaaf4c8"}}}}}