{"contracts/SupplyChainTracking.sol":{"SupplyChainTracking":{"abi":[{"inputs":[{"internalType":"address","name":"_nftContract","type":"address"}],"stateMutability":"nonpayable","type":"constructor"},{"inputs":[],"name":"AccessControlBadConfirmation","type":"error"},{"inputs":[{"internalType":"address","name":"account","type":"address"},{"internalType":"bytes32","name":"neededRole","type":"bytes32"}],"name":"AccessControlUnauthorizedAccount","type":"error"},{"inputs":[],"name":"EnforcedPause","type":"error"},{"inputs":[],"name":"ExpectedPause","type":"error"},{"anonymous":false,"inputs":[{"indexed":true,"internalType":"uint256","name":"tokenId","type":"uint256"},{"indexed":false,"internalType":"string","name":"alertType","type":"string"},{"indexed":false,"internalType":"string","name":"description","type":"string"},{"indexed":false,"internalType":"uint256","name":"timestamp","type":"uint256"}],"name":"AlertTriggered","type":"event"},{"anonymous":false,"inputs":[{"indexed":false,"internalType":"address","name":"account","type":"address"}],"name":"Paused","type":"event"},{"anonymous":false,"inputs":[{"indexed":true,"internalType":"bytes32","name":"role","type":"bytes32"},{"indexed":true,"internalType":"bytes32","name":"previousAdminRole","type":"bytes32"},{"indexed":true,"internalType":"bytes32","name":"newAdminRole","type":"bytes32"}],"name":"RoleAdminChanged","type":"event"},{"anonymous":false,"inputs":[{"indexed":true,"internalType":"bytes32","name":"role","type":"bytes32"},{"indexed":true,"internalType":"address","name":"account","type":"address"},{"indexed":true,"internalType":"address","name":"sender","type":"address"}],"name":"RoleGranted","type":"event"},{"anonymous":false,"inputs":[{"indexed":true,"internalType":"bytes32","name":"role","type":"bytes32"},{"indexed":true,"internalType":"address","name":"account","type":"address"},{"indexed":true,"internalType":"address","name":"sender","type":"address"}],"name":"RoleRevoked","type":"event"},{"anonymous":false,"inputs":[{"indexed":true,"internalType":"uint256","name":"tokenId","type":"uint256"},{"indexed":false,"internalType":"string","name":"location","type":"string"},{"indexed":false,"internalType":"string","name":"status","type":"string"},{"indexed":false,"internalType":"uint256","name":"timestamp","type":"uint256"}],"name":"TrackingUpdated","type":"event"},{"anonymous":false,"inputs":[{"indexed":true,"internalType":"uint256","name":"tokenId","type":"uint256"},{"indexed":true,"internalType":"uint256","name":"trackingIndex","type":"uint256"},{"indexed":false,"internalType":"address","name":"validator","type":"address"},{"indexed":false,"internalType":"bool","name":"isValid","type":"bool"}],"name":"TrackingValidated","type":"event"},{"anonymous":false,"inputs":[{"indexed":false,"internalType":"address","name":"account","type":"address"}],"name":"Unpaused","type":"event"},{"inputs":[],"name":"DEFAULT_ADMIN_ROLE","outputs":[{"internalType":"bytes32","name":"","type":"bytes32"}],"stateMutability":"view","type":"function"},{"inputs":[],"name":"TRACKER_ROLE","outputs":[{"internalType":"bytes32","name":"","type":"bytes32"}],"stateMutability":"view","type":"function"},{"inputs":[],"name":"VALIDATOR_ROLE","outputs":[{"internalType":"bytes32","name":"","type":"bytes32"}],"stateMutability":"view","type":"function"},{"inputs":[{"internalType":"uint256","name":"tokenId","type":"uint256"},{"internalType":"string","name":"location","type":"string"},{"internalType":"string","name":"handler","type":"string"},{"internalType":"string","name":"status","type":"string"},{"internalType":"string[]","name":"envKeys","type":"string[]"},{"internalType":"string[]","name":"envValues","type":"string[]"},{"internalType":"uint256","name":"temperature","type":"uint256"},{"internalType":"uint256","name":"humidity","type":"uint256"}],"name":"addTrackingData","outputs":[],"stateMutability":"nonpayable","type":"function"},{"inputs":[{"internalType":"bytes32","name":"role","type":"bytes32"}],"name":"getRoleAdmin","outputs":[{"internalType":"bytes32","name":"","type":"bytes32"}],"stateMutability":"view","type":"function"},{"inputs":[{"internalType":"uint256","name":"tokenId","type":"uint256"}],"name":"getTrackingHistory","outputs":[{"components":[{"internalType":"uint256","name":"timestamp","type":"uint256"},{"internalType":"string","name":"location","type":"string"},{"internalType":"string","name":"handler","type":"string"},{"internalType":"string","name":"status","type":"string"},{"internalType":"string[]","name":"envKeys","type":"string[]"},{"internalType":"string[]","name":"envValues","type":"string[]"},{"internalType":"uint256","name":"temperature","type":"uint256"},{"internalType":"uint256","name":"humidity","type":"uint256"},{"internalType":"bool","name":"isValidated","type":"bool"},{"internalType":"address","name":"validator","type":"address"}],"internalType":"struct ISupplyChainTracking.TrackingData[]","name":"","type":"tuple[]"}],"stateMutability":"view","type":"function"},{"inputs":[{"internalType":"bytes32","name":"role","type":"bytes32"},{"internalType":"address","name":"account","type":"address"}],"name":"grantRole","outputs":[],"stateMutability":"nonpayable","type":"function"},{"inputs":[{"internalType":"bytes32","name":"role","type":"bytes32"},{"internalType":"address","name":"account","type":"address"}],"name":"hasRole","outputs":[{"internalType":"bool","name":"","type":"bool"}],"stateMutability":"view","type":"function"},{"inputs":[],"name":"nftContract","outputs":[{"internalType":"contract IServareNFT","name":"","type":"address"}],"stateMutability":"view","type":"function"},{"inputs":[],"name":"pause","outputs":[],"stateMutability":"nonpayable","type":"function"},{"inputs":[],"name":"paused","outputs":[{"internalType":"bool","name":"","type":"bool"}],"stateMutability":"view","type":"function"},{"inputs":[{"internalType":"bytes32","name":"role","type":"bytes32"},{"internalType":"address","name":"callerConfirmation","type":"address"}],"name":"renounceRole","outputs":[],"stateMutability":"nonpayable","type":"function"},{"inputs":[{"internalType":"bytes32","name":"role","type":"bytes32"},{"internalType":"address","name":"account","type":"address"}],"name":"revokeRole","outputs":[],"stateMutability":"nonpayable","type":"function"},{"inputs":[{"internalType":"uint256","name":"tokenId","type":"uint256"},{"internalType":"uint256","name":"maxTemperature","type":"uint256"},{"internalType":"uint256","name":"minTemperature","type":"uint256"},{"internalType":"uint256","name":"maxHumidity","type":"uint256"},{"internalType":"uint256","name":"minHumidity","type":"uint256"}],"name":"setThresholds","outputs":[],"stateMutability":"nonpayable","type":"function"},{"inputs":[{"internalType":"bytes4","name":"interfaceId","type":"bytes4"}],"name":"supportsInterface","outputs":[{"internalType":"bool","name":"","type":"bool"}],"stateMutability":"view","type":"function"},{"inputs":[{"internalType":"uint256","name":"","type":"uint256"},{"internalType":"string","name":"","type":"string"}],"name":"thresholds","outputs":[{"internalType":"uint256","name":"","type":"uint256"}],"stateMutability":"view","type":"function"},{"inputs":[{"internalType":"uint256","name":"","type":"uint256"}],"name":"trackingCount","outputs":[{"internalType":"uint256","name":"","type":"uint256"}],"stateMutability":"view","type":"function"},{"inputs":[],"name":"unpause","outputs":[],"stateMutability":"nonpayable","type":"function"},{"inputs":[{"internalType":"uint256","name":"tokenId","type":"uint256"},{"internalType":"uint256","name":"trackingIndex","type":"uint256"},{"internalType":"bool","name":"isValid","type":"bool"},{"internalType":"string","name":"notes","type":"string"}],"name":"validateTrackingData","outputs":[],"stateMutability":"nonpayable","type":"function"}],"evm":{"bytecode":{"linkReferences":{},"object":"60803461008e57601f62001f5338819003918201601f19168301916001600160401b038311848410176100935780849260209460405283398101031261008e57516001600160a01b038116810361008e57600180546001600160a81b03191660089290921b610100600160a81b031691909117905561007d336100a9565b50604051611e1990816200013a8239f35b600080fd5b634e487b7160e01b600052604160045260246000fd5b6001600160a01b031660008181527fad3228b676f7d3cd4284a5443f17f1962b36e491b30a40b2405849e597ba5fb5602052604081205490919060ff1661013557818052816020526040822081835260205260408220600160ff1982541617905533917f2f8788117e7eff1d82e926ec794901d17c78024a50270940304540a733656f0d8180a4600190565b509056fe608080604052600436101561001357600080fd5b60009060e08235811c91826301ffc9a714611644575081631b3aa154146115da578163248a9ca3146115ae5781632f2ff15d1461157f57816336568abe146115455781633f4ba83a146114c15781634e4e3eeb146114865781635c975abb146114635781636dbfc112146113835781638456cb591461131057816391d14854146112d5578163a217fddf146112b9578163c36034e21461103457508063c49baebe14610ff9578063d35d365714610cde578063d547741f14610cab578063d56d229d14610c7e578063dfb7747d146101205763e6e7f0df146100f457600080fd5b3461011d57602036600319011261011d5760406020916004358152600383522054604051908152f35b80fd5b503461011d5761010036600319011261011d576024356001600160401b03811161066a57610152903690600401611722565b6044356001600160401b038111610c7a57610171903690600401611722565b916064356001600160401b03811161066a57610191903690600401611722565b926084356001600160401b038111610c7a576101b190369060040161185e565b9360a4356001600160401b038111610c76576101d190369060040161185e565b906101da611ae8565b7f3ef0725b9d4b3697f60fa4e9def2b6b2b9dee279d2bffdf3252d316fffcb536e8452836020526040842033855260205260ff60408520541615610c38576001546040516331a9108f60e11b81526004803590820152906020908290602490829060081c6001600160a01b03165afa908115610c2d578591610be7575b506001600160a01b031615610baf578551825103610b71576004358452600360205261028f6040852054600260205260408620611a15565b509242845585516001600160401b038111610aa4576102b16001860154611a47565b601f8111610b2d575b50806020601f8211600114610ac3578791610ab8575b508160011b916000199060031b1c19161760018501555b8051906001600160401b038211610aa45781906103076002870154611a47565b601f8111610a54575b50602090601f83116001146109e55787926109da575b50508160011b916000199060031b1c19161760028401555b80516001600160401b0381116109c65761035b6003850154611a47565b601f8111610982575b50806020601f821160011461091857869161090d575b508160011b916000199060031b1c19161760038401555b60c435600584015560e435600684015560078301805460ff19169055835b865181101561051f576103c28184611aa6565b516103e660206103d2848b611aa6565b51816040519382858094519384920161177d565b810160048901815203019020908051906001600160401b03821161050b5761040e8354611a47565b601f81116104ca575b50602090601f831160011461045e5761044e94939291899183610453575b50508160011b916000199060031b1c1916179055611a81565b6103af565b015190503880610435565b908389526020892091895b601f19851681106104b2575091839160019361044e979695601f19811610610499575b505050811b019055611a81565b015160001960f88460031b161c1916905538808061048c565b91926020600181928685015181550194019201610469565b83895260208920601f840160051c810160208510610504575b601f830160051c820181106104f9575050610417565b8a81556001016104e3565b50806104e3565b634e487b7160e01b88526041600452602488fd5b848287600435835260046020526040832060276040516606d617854656d760cc1b92838252600782015220546107b5575b506004358352600460205260408320602b6040516a6d617848756d696469747960a81b92838252600b820152205461066e575b50600154839060081c6001600160a01b0316803b1561066a57819060646040518094819363a25f348d60e01b8352600435600484015260c435602484015260e43560448401525af1801561065f5761062e575b506106287f5cae47c067ff256f643b1e9219c03e853fc25e2d29199fbc6b2de52d6a361b4a9160043585526003602052604085206106148154611a81565b905560405191829160043595429184611aba565b0390a280f35b6001600160401b03819492941161064b57604052916106286105d6565b634e487b7160e01b82526041600452602482fd5b6040513d86823e3d90fd5b5080fd5b602b906004358552600460205260408520604051918252600b820152205460e4351161073c575b60043583526004602052602b60408420604051906a6d696e48756d696469747960a81b8252600b820152205460e435106106d0575b83610583565b6107376040516106df816116cb565b600c81526b48756d6964697479204c6f7760a01b602082015260405190610705826116cb565b602082527f48756d69646974792062656c6f77206d696e696d756d207468726573686f6c646020830152600435611b49565b6106ca565b6107b060405161074b816116cb565b600d81526c090eadad2c8d2e8f24090d2ced609b1b602082015260405190610772826116e6565b602382527f48756d6964697479206578636565646564206d6178696d756d207468726573686020830152621bdb1960ea1b6040830152600435611b49565b610695565b60279060043585526004602052604085206040519182526007820152205460c4351161088e575b60043583526004602052602760408420604051906606d696e54656d760cc1b82526007820152205460c43510610813575b83610550565b610889604051610822816116cb565b600f81526e54656d7065726174757265204c6f7760881b60208201526040519061084b826116e6565b602382527f54656d70657261747572652062656c6f77206d696e696d756d207468726573686020830152621bdb1960ea1b6040830152600435611b49565b61080d565b61090860405161089d816116cb565b601081526f0a8cadae0cae4c2e8eae4ca4090d2ced60831b6020820152604051906108c7826116e6565b602682527f54656d7065726174757265206578636565646564206d6178696d756d20746872602083015265195cda1bdb1960d21b6040830152600435611b49565b6107dc565b90508201513861037a565b91506003850186526020862086925b601f198316841061096a576001935082601f19811610610951575b5050811b016003840155610391565b84015160001960f88460031b161c191690553880610942565b84810151825560209384019360019092019101610927565b60038501865260208620601f830160051c8101602084106109bf575b601f830160051c820181106109b4575050610364565b87815560010161099e565b508061099e565b634e487b7160e01b85526041600452602485fd5b015190503880610326565b9250600286018752602087209087935b601f1984168510610a39576001945083601f19811610610a20575b505050811b01600284015561033e565b015160001960f88460031b161c19169055388080610a10565b818101518355602094850194600190930192909101906109f5565b90915060028601875260208720601f840160051c810160208510610a9d575b90849392915b601f830160051c82018110610a8f575050610310565b898155859450600101610a79565b5080610a73565b634e487b7160e01b86526041600452602486fd5b9050870151386102d0565b91506001860187526020872087925b601f1983168410610b15576001935082601f19811610610afc575b5050811b0160018501556102e7565b89015160001960f88460031b161c191690553880610aed565b89810151825560209384019360019092019101610ad2565b60018601875260208720601f830160051c810160208410610b6a575b601f830160051c82018110610b5f5750506102ba565b888155600101610b49565b5080610b49565b60405162461bcd60e51b8152602060048201526016602482015275082e4e4c2f2e640d8cadccee8d040dad2e6dac2e8c6d60531b6044820152606490fd5b60405162461bcd60e51b815260206004820152601060248201526f125b9d985b1a59081d1bdad95b88125160821b6044820152606490fd5b90506020813d602011610c25575b81610c0260209383611701565b81010312610c2157516001600160a01b0381168103610c215738610257565b8480fd5b3d9150610bf5565b6040513d87823e3d90fd5b60405162461bcd60e51b81526020600482015260166024820152754d757374206861766520747261636b657220726f6c6560501b6044820152606490fd5b8380fd5b8280fd5b503461011d578060031936011261011d5760015460405160089190911c6001600160a01b03168152602090f35b503461011d57610cda610cbd366117a0565b9080845283602052610cd560016040862001546118de565b6119a0565b5080f35b503461011d57608036600319011261011d5760043560243590604435801515809103610c76576001600160401b0390606435828111610ff557610d25903690600401611722565b610d2d611ae8565b7f21702c8af46127c7fa207f89d0b0a8441bb32959a0ac7df790e9ab1a25c98926865260209286845260408720338852845260ff60408820541615610fb057848752600384526040872054861015610f725784875260028452610d938660408920611a15565b50600781019081549160ff8316610f39579060089160018094610100600160a81b0333861b16906affffffffffffffffffffff60a81b161717905501928051928311610f2557610de38454611a47565b601f8111610edf575b508590601f8411600114610e575792807f2fc90722e991f7db6eebbb9e5c753559d57fbc814f1bb18288ee5005f6ca5f899795938193604098968d94610e4c575b50501b916000199060031b1c19161790555b825191338352820152a380f35b015192503880610e2d565b848a52868a209293929190601f1984168b5b818110610eca575091604097959391857f2fc90722e991f7db6eebbb9e5c753559d57fbc814f1bb18288ee5005f6ca5f899a98969410610eb1575b505050811b019055610e3f565b015160001960f88460031b161c19169055388080610ea4565b82840151855593860193928901928901610e69565b848a52868a20601f850160051c810191888610610f1b575b601f0160051c019083905b828110610f10575050610dec565b8b8155018390610f02565b9091508190610ef7565b634e487b7160e01b89526041600452602489fd5b60405162461bcd60e51b8152600481018890526011602482015270105b1c9958591e481d985b1a59185d1959607a1b6044820152606490fd5b60405162461bcd60e51b8152600481018590526016602482015275092dcecc2d8d2c840e8e4c2c6d6d2dcce40d2dcc8caf60531b6044820152606490fd5b60405162461bcd60e51b815260048101859052601860248201527f4d75737420686176652076616c696461746f7220726f6c6500000000000000006044820152606490fd5b8580fd5b503461011d578060031936011261011d5760206040517f21702c8af46127c7fa207f89d0b0a8441bb32959a0ac7df790e9ab1a25c989268152f35b823461011d576020908160031936011261011d5760043590818152600380845260408220549061106382611847565b936110716040519586611701565b828552601f1961108084611847565b0186855b82811061126657505050835b838110611196575050505060405192808401908085528351809252604085018160408460051b880101950193965b8388106110cb5786860387f35b90919293948380600192603f198a82030186528851908151815261115361114061112d61111a61110887870151610140808a8901528701906117c6565b604087015186820360408801526117c6565b60608087015190868303908701526117c6565b60808086015190858303908601526117eb565b60a08085015190848303908501526117eb565b9160c080820151908301528681015187830152610100808201511515908301526101209081878060a01b03910151169101529701930197019690939291936110be565b611261908286526002808952886111b08360408a20611a15565b50916111ba611d1a565b926111c3611d1a565b8154946112108a6005850154946112056006820154976007830154996040519b6111ec8d611699565b8c526111fa60018501611d3d565b908c01528201611d3d565b60408a015201611d3d565b6060870152608086015260a085015260c08401528b83015260ff8116151561010083015260081c6001600160a01b03166101208201526112508289611aa6565b5261125b8188611aa6565b50611a81565b611090565b60405161127281611699565b87815260608084830152806040830152808083015280608083015260a08201528760c0820152878b820152876101008201528761012082015282828a010152018790611084565b823461011d578060031936011261011d57602090604051908152f35b823461011d5760ff60406020926112eb366117a0565b9082528185528282206001600160a01b03909116825284522054604051911615158152f35b823461011d578060031936011261011d57808052806020526040812033825260205261134260ff604083205416611b06565b61134a611ae8565b600160ff19815416176001557f62e78cea01bee320cd4e420270b5ea74000d11b0c9f74754ebdbfc544b05a2586020604051338152a180f35b823461011d5760a036600319011261011d57600480358280526020908382526040842033855282526113bb60ff604086205416611b06565b80845282825260408420604051906606d617854656d760cc1b82526007820152602760243591205580845282825260408420604051906606d696e54656d760cc1b82526007820152602760443591205580845282825260408420604051906a6d617848756d696469747960a81b8252600b820152602b60643591205583525260408120604051906a6d696e48756d696469747960a81b8252600b820152602b60843591205580f35b823461011d578060031936011261011d57602060ff600154166040519015158152f35b823461011d578060031936011261011d5760206040517f3ef0725b9d4b3697f60fa4e9def2b6b2b9dee279d2bffdf3252d316fffcb536e8152f35b823461011d578060031936011261011d5780805280602052604081203382526020526114f360ff604083205416611b06565b60015460ff8116156115335760ff19166001557f5db9ee0a495bf2e6ff9c91a7834c1ba4fdd244a5e8aa4e537bd38aeae4b073aa6020604051338152a180f35b604051638dfc202b60e01b8152600490fd5b823461011d57611554366117a0565b336001600160a01b0382160361156d57610cda916119a0565b60405163334bd91960e11b8152600490fd5b823461011d57610cda611591366117a0565b90808452836020526115a960016040862001546118de565b611922565b823461011d57602036600319011261011d57600160406020926004358152808452200154604051908152f35b823461011d57604036600319011261011d576024356001600160401b03811161066a57602080926040611614611632943690600401611722565b9160043581526004845220826040519483868095519384920161177d565b82019081520301902054604051908152f35b83903461066a57602036600319011261066a5760043563ffffffff60e01b8116809103610c7a5760209250637965db0b60e01b8114908115611688575b5015158152f35b6301ffc9a760e01b14905083611681565b61014081019081106001600160401b038211176116b557604052565b634e487b7160e01b600052604160045260246000fd5b604081019081106001600160401b038211176116b557604052565b606081019081106001600160401b038211176116b557604052565b90601f801991011681019081106001600160401b038211176116b557604052565b81601f82011215611778578035906001600160401b0382116116b55760405192611756601f8401601f191660200185611701565b8284526020838301011161177857816000926020809301838601378301015290565b600080fd5b60005b8381106117905750506000910152565b8181015183820152602001611780565b604090600319011261177857600435906024356001600160a01b03811681036117785790565b906020916117df8151809281855285808601910161177d565b601f01601f1916010190565b908082519081815260208091019281808460051b8301019501936000915b8483106118195750505050505090565b9091929394958480611837600193601f198682030187528a516117c6565b9801930193019194939290611809565b6001600160401b0381116116b55760051b60200190565b9080601f830112156117785781359061187682611847565b926118846040519485611701565b828452602092838086019160051b8301019280841161177857848301915b8483106118b25750505050505090565b82356001600160401b0381116117785786916118d384848094890101611722565b8152019201916118a2565b80600052600060205260406000203360005260205260ff60406000205416156119045750565b6044906040519063e2517d3f60e01b82523360048301526024820152fd5b9060009180835282602052604083209160018060a01b03169182845260205260ff6040842054161560001461199b57808352826020526040832082845260205260408320600160ff198254161790557f2f8788117e7eff1d82e926ec794901d17c78024a50270940304540a733656f0d339380a4600190565b505090565b9060009180835282602052604083209160018060a01b03169182845260205260ff60408420541660001461199b5780835282602052604083208284526020526040832060ff1981541690557ff6391f5c32d9c69d2a47ea670b442974b53935d1edc7fd64eb21e047a839171b339380a4600190565b8054821015611a3157600052600b602060002091020190600090565b634e487b7160e01b600052603260045260246000fd5b90600182811c92168015611a77575b6020831014611a6157565b634e487b7160e01b600052602260045260246000fd5b91607f1691611a56565b6000198114611a905760010190565b634e487b7160e01b600052601160045260246000fd5b8051821015611a315760209160051b010190565b939291611ae390611ad56040936060885260608801906117c6565b9086820360208801526117c6565b930152565b60ff60015416611af457565b60405163d93c066560e01b8152600490fd5b15611b0d57565b60405162461bcd60e51b81526020600482015260146024820152734d75737420686176652061646d696e20726f6c6560601b6044820152606490fd5b9092919260009382855260206003815260408620549560001996878101908111611d0657611b81908683526002845260408320611a15565b5096600a60098901986001998a60ff1982541617905501928551926001600160401b038411611cf257611bb48554611a47565b601f8111611cac575b5081601f8511600114611c2857507f6af8a40f8a661f2ea1898dc041375ba059bc15f9120cb2c9cae247243d14e534979899849392849294611c1d575b501b9260031b1c19161790555b611c18604051928392429184611aba565b0390a2565b880151935038611bfa565b9993929091601f1984169a86845280842093905b8c8210611c95575050837f6af8a40f8a661f2ea1898dc041375ba059bc15f9120cb2c9cae247243d14e534999a9b10611c7d575b505050811b019055611c07565b8701519060f88460031b161c19169055388080611c70565b808784968294958d01518155019501920190611c3c565b858252828220601f860160051c810191848710611ce8575b601f0160051c01908b905b828110611cdd575050611bbd565b838155018b90611ccf565b9091508190611cc4565b634e487b7160e01b81526041600452602490fd5b634e487b7160e01b82526011600452602482fd5b604051602081018181106001600160401b038211176116b5576040526000815290565b9060405191826000825492611d5184611a47565b908184526001948581169081600014611dc05750600114611d7d575b5050611d7b92500383611701565b565b9093915060005260209081600020936000915b818310611da8575050611d7b93508201013880611d6d565b85548884018501529485019487945091830191611d90565b915050611d7b94506020925060ff191682840152151560051b8201013880611d6d56fea26469706673582212204e0fb5653475bca5f216bc033b80837add7ddceaaa3639becbfe3ba4d181746464736f6c63430008140033","opcodes":"PUSH1 0x80 CALLVALUE PUSH2 0x8E JUMPI PUSH1 0x1F PUSH3 0x1F53 CODESIZE DUP2 SWAP1 SUB SWAP2 DUP3 ADD PUSH1 0x1F NOT AND DUP4 ADD SWAP2 PUSH1 0x1 PUSH1 0x1 PUSH1 0x40 SHL SUB DUP4 GT DUP5 DUP5 LT OR PUSH2 0x93 JUMPI DUP1 DUP5 SWAP3 PUSH1 0x20 SWAP5 PUSH1 0x40 MSTORE DUP4 CODECOPY DUP2 ADD SUB SLT PUSH2 0x8E JUMPI MLOAD PUSH1 0x1 PUSH1 0x1 PUSH1 0xA0 SHL SUB DUP2 AND DUP2 SUB PUSH2 0x8E JUMPI PUSH1 0x1 DUP1 SLOAD PUSH1 0x1 PUSH1 0x1 PUSH1 0xA8 SHL SUB NOT AND PUSH1 0x8 SWAP3 SWAP1 SWAP3 SHL PUSH2 0x100 PUSH1 0x1 PUSH1 0xA8 SHL SUB AND SWAP2 SWAP1 SWAP2 OR SWAP1 SSTORE PUSH2 0x7D CALLER PUSH2 0xA9 JUMP JUMPDEST POP PUSH1 0x40 MLOAD PUSH2 0x1E19 SWAP1 DUP2 PUSH3 0x13A DUP3 CODECOPY RETURN JUMPDEST PUSH1 0x0 DUP1 REVERT JUMPDEST PUSH4 0x4E487B71 PUSH1 0xE0 SHL PUSH1 0x0 MSTORE PUSH1 0x41 PUSH1 0x4 MSTORE PUSH1 0x24 PUSH1 0x0 REVERT JUMPDEST PUSH1 0x1 PUSH1 0x1 PUSH1 0xA0 SHL SUB AND PUSH1 0x0 DUP2 DUP2 MSTORE PUSH32 0xAD3228B676F7D3CD4284A5443F17F1962B36E491B30A40B2405849E597BA5FB5 PUSH1 0x20 MSTORE PUSH1 0x40 DUP2 KECCAK256 SLOAD SWAP1 SWAP2 SWAP1 PUSH1 0xFF AND PUSH2 0x135 JUMPI DUP2 DUP1 MSTORE DUP2 PUSH1 0x20 MSTORE PUSH1 0x40 DUP3 KECCAK256 DUP2 DUP4 MSTORE PUSH1 0x20 MSTORE PUSH1 0x40 DUP3 KECCAK256 PUSH1 0x1 PUSH1 0xFF NOT DUP3 SLOAD AND OR SWAP1 SSTORE CALLER SWAP2 PUSH32 0x2F8788117E7EFF1D82E926EC794901D17C78024A50270940304540A733656F0D DUP2 DUP1 LOG4 PUSH1 0x1 SWAP1 JUMP JUMPDEST POP SWAP1 JUMP INVALID PUSH1 0x80 DUP1 PUSH1 0x40 MSTORE PUSH1 0x4 CALLDATASIZE LT ISZERO PUSH2 0x13 JUMPI PUSH1 0x0 DUP1 REVERT JUMPDEST PUSH1 0x0 SWAP1 PUSH1 0xE0 DUP3 CALLDATALOAD DUP2 SHR SWAP2 DUP3 PUSH4 0x1FFC9A7 EQ PUSH2 0x1644 JUMPI POP DUP2 PUSH4 0x1B3AA154 EQ PUSH2 0x15DA JUMPI DUP2 PUSH4 0x248A9CA3 EQ PUSH2 0x15AE JUMPI DUP2 PUSH4 0x2F2FF15D EQ PUSH2 0x157F JUMPI DUP2 PUSH4 0x36568ABE EQ PUSH2 0x1545 JUMPI DUP2 PUSH4 0x3F4BA83A EQ PUSH2 0x14C1 JUMPI DUP2 PUSH4 0x4E4E3EEB EQ PUSH2 0x1486 JUMPI DUP2 PUSH4 0x5C975ABB EQ PUSH2 0x1463 JUMPI DUP2 PUSH4 0x6DBFC112 EQ PUSH2 0x1383 JUMPI DUP2 PUSH4 0x8456CB59 EQ PUSH2 0x1310 JUMPI DUP2 PUSH4 0x91D14854 EQ PUSH2 0x12D5 JUMPI DUP2 PUSH4 0xA217FDDF EQ PUSH2 0x12B9 JUMPI DUP2 PUSH4 0xC36034E2 EQ PUSH2 0x1034 JUMPI POP DUP1 PUSH4 0xC49BAEBE EQ PUSH2 0xFF9 JUMPI DUP1 PUSH4 0xD35D3657 EQ PUSH2 0xCDE JUMPI DUP1 PUSH4 0xD547741F EQ PUSH2 0xCAB JUMPI DUP1 PUSH4 0xD56D229D EQ PUSH2 0xC7E JUMPI DUP1 PUSH4 0xDFB7747D EQ PUSH2 0x120 JUMPI PUSH4 0xE6E7F0DF EQ PUSH2 0xF4 JUMPI PUSH1 0x0 DUP1 REVERT JUMPDEST CALLVALUE PUSH2 0x11D JUMPI PUSH1 0x20 CALLDATASIZE PUSH1 0x3 NOT ADD SLT PUSH2 0x11D JUMPI PUSH1 0x40 PUSH1 0x20 SWAP2 PUSH1 0x4 CALLDATALOAD DUP2 MSTORE PUSH1 0x3 DUP4 MSTORE KECCAK256 SLOAD PUSH1 0x40 MLOAD SWAP1 DUP2 MSTORE RETURN JUMPDEST DUP1 REVERT JUMPDEST POP CALLVALUE PUSH2 0x11D JUMPI PUSH2 0x100 CALLDATASIZE PUSH1 0x3 NOT ADD SLT PUSH2 0x11D JUMPI PUSH1 0x24 CALLDATALOAD PUSH1 0x1 PUSH1 0x1 PUSH1 0x40 SHL SUB DUP2 GT PUSH2 0x66A JUMPI PUSH2 0x152 SWAP1 CALLDATASIZE SWAP1 PUSH1 0x4 ADD PUSH2 0x1722 JUMP JUMPDEST PUSH1 0x44 CALLDATALOAD PUSH1 0x1 PUSH1 0x1 PUSH1 0x40 SHL SUB DUP2 GT PUSH2 0xC7A JUMPI PUSH2 0x171 SWAP1 CALLDATASIZE SWAP1 PUSH1 0x4 ADD PUSH2 0x1722 JUMP JUMPDEST SWAP2 PUSH1 0x64 CALLDATALOAD PUSH1 0x1 PUSH1 0x1 PUSH1 0x40 SHL SUB DUP2 GT PUSH2 0x66A JUMPI PUSH2 0x191 SWAP1 CALLDATASIZE SWAP1 PUSH1 0x4 ADD PUSH2 0x1722 JUMP JUMPDEST SWAP3 PUSH1 0x84 CALLDATALOAD PUSH1 0x1 PUSH1 0x1 PUSH1 0x40 SHL SUB DUP2 GT PUSH2 0xC7A JUMPI PUSH2 0x1B1 SWAP1 CALLDATASIZE SWAP1 PUSH1 0x4 ADD PUSH2 0x185E JUMP JUMPDEST SWAP4 PUSH1 0xA4 CALLDATALOAD PUSH1 0x1 PUSH1 0x1 PUSH1 0x40 SHL SUB DUP2 GT PUSH2 0xC76 JUMPI PUSH2 0x1D1 SWAP1 CALLDATASIZE SWAP1 PUSH1 0x4 ADD PUSH2 0x185E JUMP JUMPDEST SWAP1 PUSH2 0x1DA PUSH2 0x1AE8 JUMP JUMPDEST PUSH32 0x3EF0725B9D4B3697F60FA4E9DEF2B6B2B9DEE279D2BFFDF3252D316FFFCB536E DUP5 MSTORE DUP4 PUSH1 0x20 MSTORE PUSH1 0x40 DUP5 KECCAK256 CALLER DUP6 MSTORE PUSH1 0x20 MSTORE PUSH1 0xFF PUSH1 0x40 DUP6 KECCAK256 SLOAD AND ISZERO PUSH2 0xC38 JUMPI PUSH1 0x1 SLOAD PUSH1 0x40 MLOAD PUSH4 0x31A9108F PUSH1 0xE1 SHL DUP2 MSTORE PUSH1 0x4 DUP1 CALLDATALOAD SWAP1 DUP3 ADD MSTORE SWAP1 PUSH1 0x20 SWAP1 DUP3 SWAP1 PUSH1 0x24 SWAP1 DUP3 SWAP1 PUSH1 0x8 SHR PUSH1 0x1 PUSH1 0x1 PUSH1 0xA0 SHL SUB AND GAS STATICCALL SWAP1 DUP2 ISZERO PUSH2 0xC2D JUMPI DUP6 SWAP2 PUSH2 0xBE7 JUMPI JUMPDEST POP PUSH1 0x1 PUSH1 0x1 PUSH1 0xA0 SHL SUB AND ISZERO PUSH2 0xBAF JUMPI DUP6 MLOAD DUP3 MLOAD SUB PUSH2 0xB71 JUMPI PUSH1 0x4 CALLDATALOAD DUP5 MSTORE PUSH1 0x3 PUSH1 0x20 MSTORE PUSH2 0x28F PUSH1 0x40 DUP6 KECCAK256 SLOAD PUSH1 0x2 PUSH1 0x20 MSTORE PUSH1 0x40 DUP7 KECCAK256 PUSH2 0x1A15 JUMP JUMPDEST POP SWAP3 TIMESTAMP DUP5 SSTORE DUP6 MLOAD PUSH1 0x1 PUSH1 0x1 PUSH1 0x40 SHL SUB DUP2 GT PUSH2 0xAA4 JUMPI PUSH2 0x2B1 PUSH1 0x1 DUP7 ADD SLOAD PUSH2 0x1A47 JUMP JUMPDEST PUSH1 0x1F DUP2 GT PUSH2 0xB2D JUMPI JUMPDEST POP DUP1 PUSH1 0x20 PUSH1 0x1F DUP3 GT PUSH1 0x1 EQ PUSH2 0xAC3 JUMPI DUP8 SWAP2 PUSH2 0xAB8 JUMPI JUMPDEST POP DUP2 PUSH1 0x1 SHL SWAP2 PUSH1 0x0 NOT SWAP1 PUSH1 0x3 SHL SHR NOT AND OR PUSH1 0x1 DUP6 ADD SSTORE JUMPDEST DUP1 MLOAD SWAP1 PUSH1 0x1 PUSH1 0x1 PUSH1 0x40 SHL SUB DUP3 GT PUSH2 0xAA4 JUMPI DUP2 SWAP1 PUSH2 0x307 PUSH1 0x2 DUP8 ADD SLOAD PUSH2 0x1A47 JUMP JUMPDEST PUSH1 0x1F DUP2 GT PUSH2 0xA54 JUMPI JUMPDEST POP PUSH1 0x20 SWAP1 PUSH1 0x1F DUP4 GT PUSH1 0x1 EQ PUSH2 0x9E5 JUMPI DUP8 SWAP3 PUSH2 0x9DA JUMPI JUMPDEST POP POP DUP2 PUSH1 0x1 SHL SWAP2 PUSH1 0x0 NOT SWAP1 PUSH1 0x3 SHL SHR NOT AND OR PUSH1 0x2 DUP5 ADD SSTORE JUMPDEST DUP1 MLOAD PUSH1 0x1 PUSH1 0x1 PUSH1 0x40 SHL SUB DUP2 GT PUSH2 0x9C6 JUMPI PUSH2 0x35B PUSH1 0x3 DUP6 ADD SLOAD PUSH2 0x1A47 JUMP JUMPDEST PUSH1 0x1F DUP2 GT PUSH2 0x982 JUMPI JUMPDEST POP DUP1 PUSH1 0x20 PUSH1 0x1F DUP3 GT PUSH1 0x1 EQ PUSH2 0x918 JUMPI DUP7 SWAP2 PUSH2 0x90D JUMPI JUMPDEST POP DUP2 PUSH1 0x1 SHL SWAP2 PUSH1 0x0 NOT SWAP1 PUSH1 0x3 SHL SHR NOT AND OR PUSH1 0x3 DUP5 ADD SSTORE JUMPDEST PUSH1 0xC4 CALLDATALOAD PUSH1 0x5 DUP5 ADD SSTORE PUSH1 0xE4 CALLDATALOAD PUSH1 0x6 DUP5 ADD SSTORE PUSH1 0x7 DUP4 ADD DUP1 SLOAD PUSH1 0xFF NOT AND SWAP1 SSTORE DUP4 JUMPDEST DUP7 MLOAD DUP2 LT ISZERO PUSH2 0x51F JUMPI PUSH2 0x3C2 DUP2 DUP5 PUSH2 0x1AA6 JUMP JUMPDEST MLOAD PUSH2 0x3E6 PUSH1 0x20 PUSH2 0x3D2 DUP5 DUP12 PUSH2 0x1AA6 JUMP JUMPDEST MLOAD DUP2 PUSH1 0x40 MLOAD SWAP4 DUP3 DUP6 DUP1 SWAP5 MLOAD SWAP4 DUP5 SWAP3 ADD PUSH2 0x177D JUMP JUMPDEST DUP2 ADD PUSH1 0x4 DUP10 ADD DUP2 MSTORE SUB ADD SWAP1 KECCAK256 SWAP1 DUP1 MLOAD SWAP1 PUSH1 0x1 PUSH1 0x1 PUSH1 0x40 SHL SUB DUP3 GT PUSH2 0x50B JUMPI PUSH2 0x40E DUP4 SLOAD PUSH2 0x1A47 JUMP JUMPDEST PUSH1 0x1F DUP2 GT PUSH2 0x4CA JUMPI JUMPDEST POP PUSH1 0x20 SWAP1 PUSH1 0x1F DUP4 GT PUSH1 0x1 EQ PUSH2 0x45E JUMPI PUSH2 0x44E SWAP5 SWAP4 SWAP3 SWAP2 DUP10 SWAP2 DUP4 PUSH2 0x453 JUMPI JUMPDEST POP POP DUP2 PUSH1 0x1 SHL SWAP2 PUSH1 0x0 NOT SWAP1 PUSH1 0x3 SHL SHR NOT AND OR SWAP1 SSTORE PUSH2 0x1A81 JUMP JUMPDEST PUSH2 0x3AF JUMP JUMPDEST ADD MLOAD SWAP1 POP CODESIZE DUP1 PUSH2 0x435 JUMP JUMPDEST SWAP1 DUP4 DUP10 MSTORE PUSH1 0x20 DUP10 KECCAK256 SWAP2 DUP10 JUMPDEST PUSH1 0x1F NOT DUP6 AND DUP2 LT PUSH2 0x4B2 JUMPI POP SWAP2 DUP4 SWAP2 PUSH1 0x1 SWAP4 PUSH2 0x44E SWAP8 SWAP7 SWAP6 PUSH1 0x1F NOT DUP2 AND LT PUSH2 0x499 JUMPI JUMPDEST POP POP POP DUP2 SHL ADD SWAP1 SSTORE PUSH2 0x1A81 JUMP JUMPDEST ADD MLOAD PUSH1 0x0 NOT PUSH1 0xF8 DUP5 PUSH1 0x3 SHL AND SHR NOT AND SWAP1 SSTORE CODESIZE DUP1 DUP1 PUSH2 0x48C JUMP JUMPDEST SWAP2 SWAP3 PUSH1 0x20 PUSH1 0x1 DUP2 SWAP3 DUP7 DUP6 ADD MLOAD DUP2 SSTORE ADD SWAP5 ADD SWAP3 ADD PUSH2 0x469 JUMP JUMPDEST DUP4 DUP10 MSTORE PUSH1 0x20 DUP10 KECCAK256 PUSH1 0x1F DUP5 ADD PUSH1 0x5 SHR DUP2 ADD PUSH1 0x20 DUP6 LT PUSH2 0x504 JUMPI JUMPDEST PUSH1 0x1F DUP4 ADD PUSH1 0x5 SHR DUP3 ADD DUP2 LT PUSH2 0x4F9 JUMPI POP POP PUSH2 0x417 JUMP JUMPDEST DUP11 DUP2 SSTORE PUSH1 0x1 ADD PUSH2 0x4E3 JUMP JUMPDEST POP DUP1 PUSH2 0x4E3 JUMP JUMPDEST PUSH4 0x4E487B71 PUSH1 0xE0 SHL DUP9 MSTORE PUSH1 0x41 PUSH1 0x4 MSTORE PUSH1 0x24 DUP9 REVERT JUMPDEST DUP5 DUP3 DUP8 PUSH1 0x4 CALLDATALOAD DUP4 MSTORE PUSH1 0x4 PUSH1 0x20 MSTORE PUSH1 0x40 DUP4 KECCAK256 PUSH1 0x27 PUSH1 0x40 MLOAD PUSH7 0x6D617854656D7 PUSH1 0xCC SHL SWAP3 DUP4 DUP3 MSTORE PUSH1 0x7 DUP3 ADD MSTORE KECCAK256 SLOAD PUSH2 0x7B5 JUMPI JUMPDEST POP PUSH1 0x4 CALLDATALOAD DUP4 MSTORE PUSH1 0x4 PUSH1 0x20 MSTORE PUSH1 0x40 DUP4 KECCAK256 PUSH1 0x2B PUSH1 0x40 MLOAD PUSH11 0x6D617848756D6964697479 PUSH1 0xA8 SHL SWAP3 DUP4 DUP3 MSTORE PUSH1 0xB DUP3 ADD MSTORE KECCAK256 SLOAD PUSH2 0x66E JUMPI JUMPDEST POP PUSH1 0x1 SLOAD DUP4 SWAP1 PUSH1 0x8 SHR PUSH1 0x1 PUSH1 0x1 PUSH1 0xA0 SHL SUB AND DUP1 EXTCODESIZE ISZERO PUSH2 0x66A JUMPI DUP2 SWAP1 PUSH1 0x64 PUSH1 0x40 MLOAD DUP1 SWAP5 DUP2 SWAP4 PUSH4 0xA25F348D PUSH1 0xE0 SHL DUP4 MSTORE PUSH1 0x4 CALLDATALOAD PUSH1 0x4 DUP5 ADD MSTORE PUSH1 0xC4 CALLDATALOAD PUSH1 0x24 DUP5 ADD MSTORE PUSH1 0xE4 CALLDATALOAD PUSH1 0x44 DUP5 ADD MSTORE GAS CALL DUP1 ISZERO PUSH2 0x65F JUMPI PUSH2 0x62E JUMPI JUMPDEST POP PUSH2 0x628 PUSH32 0x5CAE47C067FF256F643B1E9219C03E853FC25E2D29199FBC6B2DE52D6A361B4A SWAP2 PUSH1 0x4 CALLDATALOAD DUP6 MSTORE PUSH1 0x3 PUSH1 0x20 MSTORE PUSH1 0x40 DUP6 KECCAK256 PUSH2 0x614 DUP2 SLOAD PUSH2 0x1A81 JUMP JUMPDEST SWAP1 SSTORE PUSH1 0x40 MLOAD SWAP2 DUP3 SWAP2 PUSH1 0x4 CALLDATALOAD SWAP6 TIMESTAMP SWAP2 DUP5 PUSH2 0x1ABA JUMP JUMPDEST SUB SWAP1 LOG2 DUP1 RETURN JUMPDEST PUSH1 0x1 PUSH1 0x1 PUSH1 0x40 SHL SUB DUP2 SWAP5 SWAP3 SWAP5 GT PUSH2 0x64B JUMPI PUSH1 0x40 MSTORE SWAP2 PUSH2 0x628 PUSH2 0x5D6 JUMP JUMPDEST PUSH4 0x4E487B71 PUSH1 0xE0 SHL DUP3 MSTORE PUSH1 0x41 PUSH1 0x4 MSTORE PUSH1 0x24 DUP3 REVERT JUMPDEST PUSH1 0x40 MLOAD RETURNDATASIZE DUP7 DUP3 RETURNDATACOPY RETURNDATASIZE SWAP1 REVERT JUMPDEST POP DUP1 REVERT JUMPDEST PUSH1 0x2B SWAP1 PUSH1 0x4 CALLDATALOAD DUP6 MSTORE PUSH1 0x4 PUSH1 0x20 MSTORE PUSH1 0x40 DUP6 KECCAK256 PUSH1 0x40 MLOAD SWAP2 DUP3 MSTORE PUSH1 0xB DUP3 ADD MSTORE KECCAK256 SLOAD PUSH1 0xE4 CALLDATALOAD GT PUSH2 0x73C JUMPI JUMPDEST PUSH1 0x4 CALLDATALOAD DUP4 MSTORE PUSH1 0x4 PUSH1 0x20 MSTORE PUSH1 0x2B PUSH1 0x40 DUP5 KECCAK256 PUSH1 0x40 MLOAD SWAP1 PUSH11 0x6D696E48756D6964697479 PUSH1 0xA8 SHL DUP3 MSTORE PUSH1 0xB DUP3 ADD MSTORE KECCAK256 SLOAD PUSH1 0xE4 CALLDATALOAD LT PUSH2 0x6D0 JUMPI JUMPDEST DUP4 PUSH2 0x583 JUMP JUMPDEST PUSH2 0x737 PUSH1 0x40 MLOAD PUSH2 0x6DF DUP2 PUSH2 0x16CB JUMP JUMPDEST PUSH1 0xC DUP2 MSTORE PUSH12 0x48756D6964697479204C6F77 PUSH1 0xA0 SHL PUSH1 0x20 DUP3 ADD MSTORE PUSH1 0x40 MLOAD SWAP1 PUSH2 0x705 DUP3 PUSH2 0x16CB JUMP JUMPDEST PUSH1 0x20 DUP3 MSTORE PUSH32 0x48756D69646974792062656C6F77206D696E696D756D207468726573686F6C64 PUSH1 0x20 DUP4 ADD MSTORE PUSH1 0x4 CALLDATALOAD PUSH2 0x1B49 JUMP JUMPDEST PUSH2 0x6CA JUMP JUMPDEST PUSH2 0x7B0 PUSH1 0x40 MLOAD PUSH2 0x74B DUP2 PUSH2 0x16CB JUMP JUMPDEST PUSH1 0xD DUP2 MSTORE PUSH13 0x90EADAD2C8D2E8F24090D2CED PUSH1 0x9B SHL PUSH1 0x20 DUP3 ADD MSTORE PUSH1 0x40 MLOAD SWAP1 PUSH2 0x772 DUP3 PUSH2 0x16E6 JUMP JUMPDEST PUSH1 0x23 DUP3 MSTORE PUSH32 0x48756D6964697479206578636565646564206D6178696D756D20746872657368 PUSH1 0x20 DUP4 ADD MSTORE PUSH3 0x1BDB19 PUSH1 0xEA SHL PUSH1 0x40 DUP4 ADD MSTORE PUSH1 0x4 CALLDATALOAD PUSH2 0x1B49 JUMP JUMPDEST PUSH2 0x695 JUMP JUMPDEST PUSH1 0x27 SWAP1 PUSH1 0x4 CALLDATALOAD DUP6 MSTORE PUSH1 0x4 PUSH1 0x20 MSTORE PUSH1 0x40 DUP6 KECCAK256 PUSH1 0x40 MLOAD SWAP2 DUP3 MSTORE PUSH1 0x7 DUP3 ADD MSTORE KECCAK256 SLOAD PUSH1 0xC4 CALLDATALOAD GT PUSH2 0x88E JUMPI JUMPDEST PUSH1 0x4 CALLDATALOAD DUP4 MSTORE PUSH1 0x4 PUSH1 0x20 MSTORE PUSH1 0x27 PUSH1 0x40 DUP5 KECCAK256 PUSH1 0x40 MLOAD SWAP1 PUSH7 0x6D696E54656D7 PUSH1 0xCC SHL DUP3 MSTORE PUSH1 0x7 DUP3 ADD MSTORE KECCAK256 SLOAD PUSH1 0xC4 CALLDATALOAD LT PUSH2 0x813 JUMPI JUMPDEST DUP4 PUSH2 0x550 JUMP JUMPDEST PUSH2 0x889 PUSH1 0x40 MLOAD PUSH2 0x822 DUP2 PUSH2 0x16CB JUMP JUMPDEST PUSH1 0xF DUP2 MSTORE PUSH15 0x54656D7065726174757265204C6F77 PUSH1 0x88 SHL PUSH1 0x20 DUP3 ADD MSTORE PUSH1 0x40 MLOAD SWAP1 PUSH2 0x84B DUP3 PUSH2 0x16E6 JUMP JUMPDEST PUSH1 0x23 DUP3 MSTORE PUSH32 0x54656D70657261747572652062656C6F77206D696E696D756D20746872657368 PUSH1 0x20 DUP4 ADD MSTORE PUSH3 0x1BDB19 PUSH1 0xEA SHL PUSH1 0x40 DUP4 ADD MSTORE PUSH1 0x4 CALLDATALOAD PUSH2 0x1B49 JUMP JUMPDEST PUSH2 0x80D JUMP JUMPDEST PUSH2 0x908 PUSH1 0x40 MLOAD PUSH2 0x89D DUP2 PUSH2 0x16CB JUMP JUMPDEST PUSH1 0x10 DUP2 MSTORE PUSH16 0xA8CADAE0CAE4C2E8EAE4CA4090D2CED PUSH1 0x83 SHL PUSH1 0x20 DUP3 ADD MSTORE PUSH1 0x40 MLOAD SWAP1 PUSH2 0x8C7 DUP3 PUSH2 0x16E6 JUMP JUMPDEST PUSH1 0x26 DUP3 MSTORE PUSH32 0x54656D7065726174757265206578636565646564206D6178696D756D20746872 PUSH1 0x20 DUP4 ADD MSTORE PUSH6 0x195CDA1BDB19 PUSH1 0xD2 SHL PUSH1 0x40 DUP4 ADD MSTORE PUSH1 0x4 CALLDATALOAD PUSH2 0x1B49 JUMP JUMPDEST PUSH2 0x7DC JUMP JUMPDEST SWAP1 POP DUP3 ADD MLOAD CODESIZE PUSH2 0x37A JUMP JUMPDEST SWAP2 POP PUSH1 0x3 DUP6 ADD DUP7 MSTORE PUSH1 0x20 DUP7 KECCAK256 DUP7 SWAP3 JUMPDEST PUSH1 0x1F NOT DUP4 AND DUP5 LT PUSH2 0x96A JUMPI PUSH1 0x1 SWAP4 POP DUP3 PUSH1 0x1F NOT DUP2 AND LT PUSH2 0x951 JUMPI JUMPDEST POP POP DUP2 SHL ADD PUSH1 0x3 DUP5 ADD SSTORE PUSH2 0x391 JUMP JUMPDEST DUP5 ADD MLOAD PUSH1 0x0 NOT PUSH1 0xF8 DUP5 PUSH1 0x3 SHL AND SHR NOT AND SWAP1 SSTORE CODESIZE DUP1 PUSH2 0x942 JUMP JUMPDEST DUP5 DUP2 ADD MLOAD DUP3 SSTORE PUSH1 0x20 SWAP4 DUP5 ADD SWAP4 PUSH1 0x1 SWAP1 SWAP3 ADD SWAP2 ADD PUSH2 0x927 JUMP JUMPDEST PUSH1 0x3 DUP6 ADD DUP7 MSTORE PUSH1 0x20 DUP7 KECCAK256 PUSH1 0x1F DUP4 ADD PUSH1 0x5 SHR DUP2 ADD PUSH1 0x20 DUP5 LT PUSH2 0x9BF JUMPI JUMPDEST PUSH1 0x1F DUP4 ADD PUSH1 0x5 SHR DUP3 ADD DUP2 LT PUSH2 0x9B4 JUMPI POP POP PUSH2 0x364 JUMP JUMPDEST DUP8 DUP2 SSTORE PUSH1 0x1 ADD PUSH2 0x99E JUMP JUMPDEST POP DUP1 PUSH2 0x99E JUMP JUMPDEST PUSH4 0x4E487B71 PUSH1 0xE0 SHL DUP6 MSTORE PUSH1 0x41 PUSH1 0x4 MSTORE PUSH1 0x24 DUP6 REVERT JUMPDEST ADD MLOAD SWAP1 POP CODESIZE DUP1 PUSH2 0x326 JUMP JUMPDEST SWAP3 POP PUSH1 0x2 DUP7 ADD DUP8 MSTORE PUSH1 0x20 DUP8 KECCAK256 SWAP1 DUP8 SWAP4 JUMPDEST PUSH1 0x1F NOT DUP5 AND DUP6 LT PUSH2 0xA39 JUMPI PUSH1 0x1 SWAP5 POP DUP4 PUSH1 0x1F NOT DUP2 AND LT PUSH2 0xA20 JUMPI JUMPDEST POP POP POP DUP2 SHL ADD PUSH1 0x2 DUP5 ADD SSTORE PUSH2 0x33E JUMP JUMPDEST ADD MLOAD PUSH1 0x0 NOT PUSH1 0xF8 DUP5 PUSH1 0x3 SHL AND SHR NOT AND SWAP1 SSTORE CODESIZE DUP1 DUP1 PUSH2 0xA10 JUMP JUMPDEST DUP2 DUP2 ADD MLOAD DUP4 SSTORE PUSH1 0x20 SWAP5 DUP6 ADD SWAP5 PUSH1 0x1 SWAP1 SWAP4 ADD SWAP3 SWAP1 SWAP2 ADD SWAP1 PUSH2 0x9F5 JUMP JUMPDEST SWAP1 SWAP2 POP PUSH1 0x2 DUP7 ADD DUP8 MSTORE PUSH1 0x20 DUP8 KECCAK256 PUSH1 0x1F DUP5 ADD PUSH1 0x5 SHR DUP2 ADD PUSH1 0x20 DUP6 LT PUSH2 0xA9D JUMPI JUMPDEST SWAP1 DUP5 SWAP4 SWAP3 SWAP2 JUMPDEST PUSH1 0x1F DUP4 ADD PUSH1 0x5 SHR DUP3 ADD DUP2 LT PUSH2 0xA8F JUMPI POP POP PUSH2 0x310 JUMP JUMPDEST DUP10 DUP2 SSTORE DUP6 SWAP5 POP PUSH1 0x1 ADD PUSH2 0xA79 JUMP JUMPDEST POP DUP1 PUSH2 0xA73 JUMP JUMPDEST PUSH4 0x4E487B71 PUSH1 0xE0 SHL DUP7 MSTORE PUSH1 0x41 PUSH1 0x4 MSTORE PUSH1 0x24 DUP7 REVERT JUMPDEST SWAP1 POP DUP8 ADD MLOAD CODESIZE PUSH2 0x2D0 JUMP JUMPDEST SWAP2 POP PUSH1 0x1 DUP7 ADD DUP8 MSTORE PUSH1 0x20 DUP8 KECCAK256 DUP8 SWAP3 JUMPDEST PUSH1 0x1F NOT DUP4 AND DUP5 LT PUSH2 0xB15 JUMPI PUSH1 0x1 SWAP4 POP DUP3 PUSH1 0x1F NOT DUP2 AND LT PUSH2 0xAFC JUMPI JUMPDEST POP POP DUP2 SHL ADD PUSH1 0x1 DUP6 ADD SSTORE PUSH2 0x2E7 JUMP JUMPDEST DUP10 ADD MLOAD PUSH1 0x0 NOT PUSH1 0xF8 DUP5 PUSH1 0x3 SHL AND SHR NOT AND SWAP1 SSTORE CODESIZE DUP1 PUSH2 0xAED JUMP JUMPDEST DUP10 DUP2 ADD MLOAD DUP3 SSTORE PUSH1 0x20 SWAP4 DUP5 ADD SWAP4 PUSH1 0x1 SWAP1 SWAP3 ADD SWAP2 ADD PUSH2 0xAD2 JUMP JUMPDEST PUSH1 0x1 DUP7 ADD DUP8 MSTORE PUSH1 0x20 DUP8 KECCAK256 PUSH1 0x1F DUP4 ADD PUSH1 0x5 SHR DUP2 ADD PUSH1 0x20 DUP5 LT PUSH2 0xB6A JUMPI JUMPDEST PUSH1 0x1F DUP4 ADD PUSH1 0x5 SHR DUP3 ADD DUP2 LT PUSH2 0xB5F JUMPI POP POP PUSH2 0x2BA JUMP JUMPDEST DUP9 DUP2 SSTORE PUSH1 0x1 ADD PUSH2 0xB49 JUMP JUMPDEST POP DUP1 PUSH2 0xB49 JUMP JUMPDEST PUSH1 0x40 MLOAD PUSH3 0x461BCD PUSH1 0xE5 SHL DUP2 MSTORE PUSH1 0x20 PUSH1 0x4 DUP3 ADD MSTORE PUSH1 0x16 PUSH1 0x24 DUP3 ADD MSTORE PUSH22 0x82E4E4C2F2E640D8CADCCEE8D040DAD2E6DAC2E8C6D PUSH1 0x53 SHL PUSH1 0x44 DUP3 ADD MSTORE PUSH1 0x64 SWAP1 REVERT JUMPDEST PUSH1 0x40 MLOAD PUSH3 0x461BCD PUSH1 0xE5 SHL DUP2 MSTORE PUSH1 0x20 PUSH1 0x4 DUP3 ADD MSTORE PUSH1 0x10 PUSH1 0x24 DUP3 ADD MSTORE PUSH16 0x125B9D985B1A59081D1BDAD95B881251 PUSH1 0x82 SHL PUSH1 0x44 DUP3 ADD MSTORE PUSH1 0x64 SWAP1 REVERT JUMPDEST SWAP1 POP PUSH1 0x20 DUP2 RETURNDATASIZE PUSH1 0x20 GT PUSH2 0xC25 JUMPI JUMPDEST DUP2 PUSH2 0xC02 PUSH1 0x20 SWAP4 DUP4 PUSH2 0x1701 JUMP JUMPDEST DUP2 ADD SUB SLT PUSH2 0xC21 JUMPI MLOAD PUSH1 0x1 PUSH1 0x1 PUSH1 0xA0 SHL SUB DUP2 AND DUP2 SUB PUSH2 0xC21 JUMPI CODESIZE PUSH2 0x257 JUMP JUMPDEST DUP5 DUP1 REVERT JUMPDEST RETURNDATASIZE SWAP2 POP PUSH2 0xBF5 JUMP JUMPDEST PUSH1 0x40 MLOAD RETURNDATASIZE DUP8 DUP3 RETURNDATACOPY RETURNDATASIZE SWAP1 REVERT JUMPDEST PUSH1 0x40 MLOAD PUSH3 0x461BCD PUSH1 0xE5 SHL DUP2 MSTORE PUSH1 0x20 PUSH1 0x4 DUP3 ADD MSTORE PUSH1 0x16 PUSH1 0x24 DUP3 ADD MSTORE PUSH22 0x4D757374206861766520747261636B657220726F6C65 PUSH1 0x50 SHL PUSH1 0x44 DUP3 ADD MSTORE PUSH1 0x64 SWAP1 REVERT JUMPDEST DUP4 DUP1 REVERT JUMPDEST DUP3 DUP1 REVERT JUMPDEST POP CALLVALUE PUSH2 0x11D JUMPI DUP1 PUSH1 0x3 NOT CALLDATASIZE ADD SLT PUSH2 0x11D JUMPI PUSH1 0x1 SLOAD PUSH1 0x40 MLOAD PUSH1 0x8 SWAP2 SWAP1 SWAP2 SHR PUSH1 0x1 PUSH1 0x1 PUSH1 0xA0 SHL SUB AND DUP2 MSTORE PUSH1 0x20 SWAP1 RETURN JUMPDEST POP CALLVALUE PUSH2 0x11D JUMPI PUSH2 0xCDA PUSH2 0xCBD CALLDATASIZE PUSH2 0x17A0 JUMP JUMPDEST SWAP1 DUP1 DUP5 MSTORE DUP4 PUSH1 0x20 MSTORE PUSH2 0xCD5 PUSH1 0x1 PUSH1 0x40 DUP7 KECCAK256 ADD SLOAD PUSH2 0x18DE JUMP JUMPDEST PUSH2 0x19A0 JUMP JUMPDEST POP DUP1 RETURN JUMPDEST POP CALLVALUE PUSH2 0x11D JUMPI PUSH1 0x80 CALLDATASIZE PUSH1 0x3 NOT ADD SLT PUSH2 0x11D JUMPI PUSH1 0x4 CALLDATALOAD PUSH1 0x24 CALLDATALOAD SWAP1 PUSH1 0x44 CALLDATALOAD DUP1 ISZERO ISZERO DUP1 SWAP2 SUB PUSH2 0xC76 JUMPI PUSH1 0x1 PUSH1 0x1 PUSH1 0x40 SHL SUB SWAP1 PUSH1 0x64 CALLDATALOAD DUP3 DUP2 GT PUSH2 0xFF5 JUMPI PUSH2 0xD25 SWAP1 CALLDATASIZE SWAP1 PUSH1 0x4 ADD PUSH2 0x1722 JUMP JUMPDEST PUSH2 0xD2D PUSH2 0x1AE8 JUMP JUMPDEST PUSH32 0x21702C8AF46127C7FA207F89D0B0A8441BB32959A0AC7DF790E9AB1A25C98926 DUP7 MSTORE PUSH1 0x20 SWAP3 DUP7 DUP5 MSTORE PUSH1 0x40 DUP8 KECCAK256 CALLER DUP9 MSTORE DUP5 MSTORE PUSH1 0xFF PUSH1 0x40 DUP9 KECCAK256 SLOAD AND ISZERO PUSH2 0xFB0 JUMPI DUP5 DUP8 MSTORE PUSH1 0x3 DUP5 MSTORE PUSH1 0x40 DUP8 KECCAK256 SLOAD DUP7 LT ISZERO PUSH2 0xF72 JUMPI DUP5 DUP8 MSTORE PUSH1 0x2 DUP5 MSTORE PUSH2 0xD93 DUP7 PUSH1 0x40 DUP10 KECCAK256 PUSH2 0x1A15 JUMP JUMPDEST POP PUSH1 0x7 DUP2 ADD SWAP1 DUP2 SLOAD SWAP2 PUSH1 0xFF DUP4 AND PUSH2 0xF39 JUMPI SWAP1 PUSH1 0x8 SWAP2 PUSH1 0x1 DUP1 SWAP5 PUSH2 0x100 PUSH1 0x1 PUSH1 0xA8 SHL SUB CALLER DUP7 SHL AND SWAP1 PUSH11 0xFFFFFFFFFFFFFFFFFFFFFF PUSH1 0xA8 SHL AND OR OR SWAP1 SSTORE ADD SWAP3 DUP1 MLOAD SWAP3 DUP4 GT PUSH2 0xF25 JUMPI PUSH2 0xDE3 DUP5 SLOAD PUSH2 0x1A47 JUMP JUMPDEST PUSH1 0x1F DUP2 GT PUSH2 0xEDF JUMPI JUMPDEST POP DUP6 SWAP1 PUSH1 0x1F DUP5 GT PUSH1 0x1 EQ PUSH2 0xE57 JUMPI SWAP3 DUP1 PUSH32 0x2FC90722E991F7DB6EEBBB9E5C753559D57FBC814F1BB18288EE5005F6CA5F89 SWAP8 SWAP6 SWAP4 DUP2 SWAP4 PUSH1 0x40 SWAP9 SWAP7 DUP14 SWAP5 PUSH2 0xE4C JUMPI JUMPDEST POP POP SHL SWAP2 PUSH1 0x0 NOT SWAP1 PUSH1 0x3 SHL SHR NOT AND OR SWAP1 SSTORE JUMPDEST DUP3 MLOAD SWAP2 CALLER DUP4 MSTORE DUP3 ADD MSTORE LOG3 DUP1 RETURN JUMPDEST ADD MLOAD SWAP3 POP CODESIZE DUP1 PUSH2 0xE2D JUMP JUMPDEST DUP5 DUP11 MSTORE DUP7 DUP11 KECCAK256 SWAP3 SWAP4 SWAP3 SWAP2 SWAP1 PUSH1 0x1F NOT DUP5 AND DUP12 JUMPDEST DUP2 DUP2 LT PUSH2 0xECA JUMPI POP SWAP2 PUSH1 0x40 SWAP8 SWAP6 SWAP4 SWAP2 DUP6 PUSH32 0x2FC90722E991F7DB6EEBBB9E5C753559D57FBC814F1BB18288EE5005F6CA5F89 SWAP11 SWAP9 SWAP7 SWAP5 LT PUSH2 0xEB1 JUMPI JUMPDEST POP POP POP DUP2 SHL ADD SWAP1 SSTORE PUSH2 0xE3F JUMP JUMPDEST ADD MLOAD PUSH1 0x0 NOT PUSH1 0xF8 DUP5 PUSH1 0x3 SHL AND SHR NOT AND SWAP1 SSTORE CODESIZE DUP1 DUP1 PUSH2 0xEA4 JUMP JUMPDEST DUP3 DUP5 ADD MLOAD DUP6 SSTORE SWAP4 DUP7 ADD SWAP4 SWAP3 DUP10 ADD SWAP3 DUP10 ADD PUSH2 0xE69 JUMP JUMPDEST DUP5 DUP11 MSTORE DUP7 DUP11 KECCAK256 PUSH1 0x1F DUP6 ADD PUSH1 0x5 SHR DUP2 ADD SWAP2 DUP9 DUP7 LT PUSH2 0xF1B JUMPI JUMPDEST PUSH1 0x1F ADD PUSH1 0x5 SHR ADD SWAP1 DUP4 SWAP1 JUMPDEST DUP3 DUP2 LT PUSH2 0xF10 JUMPI POP POP PUSH2 0xDEC JUMP JUMPDEST DUP12 DUP2 SSTORE ADD DUP4 SWAP1 PUSH2 0xF02 JUMP JUMPDEST SWAP1 SWAP2 POP DUP2 SWAP1 PUSH2 0xEF7 JUMP JUMPDEST PUSH4 0x4E487B71 PUSH1 0xE0 SHL DUP10 MSTORE PUSH1 0x41 PUSH1 0x4 MSTORE PUSH1 0x24 DUP10 REVERT JUMPDEST PUSH1 0x40 MLOAD PUSH3 0x461BCD PUSH1 0xE5 SHL DUP2 MSTORE PUSH1 0x4 DUP2 ADD DUP9 SWAP1 MSTORE PUSH1 0x11 PUSH1 0x24 DUP3 ADD MSTORE PUSH17 0x105B1C9958591E481D985B1A59185D1959 PUSH1 0x7A SHL PUSH1 0x44 DUP3 ADD MSTORE PUSH1 0x64 SWAP1 REVERT JUMPDEST PUSH1 0x40 MLOAD PUSH3 0x461BCD PUSH1 0xE5 SHL DUP2 MSTORE PUSH1 0x4 DUP2 ADD DUP6 SWAP1 MSTORE PUSH1 0x16 PUSH1 0x24 DUP3 ADD MSTORE PUSH22 0x92DCECC2D8D2C840E8E4C2C6D6D2DCCE40D2DCC8CAF PUSH1 0x53 SHL PUSH1 0x44 DUP3 ADD MSTORE PUSH1 0x64 SWAP1 REVERT JUMPDEST PUSH1 0x40 MLOAD PUSH3 0x461BCD PUSH1 0xE5 SHL DUP2 MSTORE PUSH1 0x4 DUP2 ADD DUP6 SWAP1 MSTORE PUSH1 0x18 PUSH1 0x24 DUP3 ADD MSTORE PUSH32 0x4D75737420686176652076616C696461746F7220726F6C650000000000000000 PUSH1 0x44 DUP3 ADD MSTORE PUSH1 0x64 SWAP1 REVERT JUMPDEST DUP6 DUP1 REVERT JUMPDEST POP CALLVALUE PUSH2 0x11D JUMPI DUP1 PUSH1 0x3 NOT CALLDATASIZE ADD SLT PUSH2 0x11D JUMPI PUSH1 0x20 PUSH1 0x40 MLOAD PUSH32 0x21702C8AF46127C7FA207F89D0B0A8441BB32959A0AC7DF790E9AB1A25C98926 DUP2 MSTORE RETURN JUMPDEST DUP3 CALLVALUE PUSH2 0x11D JUMPI PUSH1 0x20 SWAP1 DUP2 PUSH1 0x3 NOT CALLDATASIZE ADD SLT PUSH2 0x11D JUMPI PUSH1 0x4 CALLDATALOAD SWAP1 DUP2 DUP2 MSTORE PUSH1 0x3 DUP1 DUP5 MSTORE PUSH1 0x40 DUP3 KECCAK256 SLOAD SWAP1 PUSH2 0x1063 DUP3 PUSH2 0x1847 JUMP JUMPDEST SWAP4 PUSH2 0x1071 PUSH1 0x40 MLOAD SWAP6 DUP7 PUSH2 0x1701 JUMP JUMPDEST DUP3 DUP6 MSTORE PUSH1 0x1F NOT PUSH2 0x1080 DUP5 PUSH2 0x1847 JUMP JUMPDEST ADD DUP7 DUP6 JUMPDEST DUP3 DUP2 LT PUSH2 0x1266 JUMPI POP POP POP DUP4 JUMPDEST DUP4 DUP2 LT PUSH2 0x1196 JUMPI POP POP POP POP PUSH1 0x40 MLOAD SWAP3 DUP1 DUP5 ADD SWAP1 DUP1 DUP6 MSTORE DUP4 MLOAD DUP1 SWAP3 MSTORE PUSH1 0x40 DUP6 ADD DUP2 PUSH1 0x40 DUP5 PUSH1 0x5 SHL DUP9 ADD ADD SWAP6 ADD SWAP4 SWAP7 JUMPDEST DUP4 DUP9 LT PUSH2 0x10CB JUMPI DUP7 DUP7 SUB DUP8 RETURN JUMPDEST SWAP1 SWAP2 SWAP3 SWAP4 SWAP5 DUP4 DUP1 PUSH1 0x1 SWAP3 PUSH1 0x3F NOT DUP11 DUP3 SUB ADD DUP7 MSTORE DUP9 MLOAD SWAP1 DUP2 MLOAD DUP2 MSTORE PUSH2 0x1153 PUSH2 0x1140 PUSH2 0x112D PUSH2 0x111A PUSH2 0x1108 DUP8 DUP8 ADD MLOAD PUSH2 0x140 DUP1 DUP11 DUP10 ADD MSTORE DUP8 ADD SWAP1 PUSH2 0x17C6 JUMP JUMPDEST PUSH1 0x40 DUP8 ADD MLOAD DUP7 DUP3 SUB PUSH1 0x40 DUP9 ADD MSTORE PUSH2 0x17C6 JUMP JUMPDEST PUSH1 0x60 DUP1 DUP8 ADD MLOAD SWAP1 DUP7 DUP4 SUB SWAP1 DUP8 ADD MSTORE PUSH2 0x17C6 JUMP JUMPDEST PUSH1 0x80 DUP1 DUP7 ADD MLOAD SWAP1 DUP6 DUP4 SUB SWAP1 DUP7 ADD MSTORE PUSH2 0x17EB JUMP JUMPDEST PUSH1 0xA0 DUP1 DUP6 ADD MLOAD SWAP1 DUP5 DUP4 SUB SWAP1 DUP6 ADD MSTORE PUSH2 0x17EB JUMP JUMPDEST SWAP2 PUSH1 0xC0 DUP1 DUP3 ADD MLOAD SWAP1 DUP4 ADD MSTORE DUP7 DUP2 ADD MLOAD DUP8 DUP4 ADD MSTORE PUSH2 0x100 DUP1 DUP3 ADD MLOAD ISZERO ISZERO SWAP1 DUP4 ADD MSTORE PUSH2 0x120 SWAP1 DUP2 DUP8 DUP1 PUSH1 0xA0 SHL SUB SWAP2 ADD MLOAD AND SWAP2 ADD MSTORE SWAP8 ADD SWAP4 ADD SWAP8 ADD SWAP7 SWAP1 SWAP4 SWAP3 SWAP2 SWAP4 PUSH2 0x10BE JUMP JUMPDEST PUSH2 0x1261 SWAP1 DUP3 DUP7 MSTORE PUSH1 0x2 DUP1 DUP10 MSTORE DUP9 PUSH2 0x11B0 DUP4 PUSH1 0x40 DUP11 KECCAK256 PUSH2 0x1A15 JUMP JUMPDEST POP SWAP2 PUSH2 0x11BA PUSH2 0x1D1A JUMP JUMPDEST SWAP3 PUSH2 0x11C3 PUSH2 0x1D1A JUMP JUMPDEST DUP2 SLOAD SWAP5 PUSH2 0x1210 DUP11 PUSH1 0x5 DUP6 ADD SLOAD SWAP5 PUSH2 0x1205 PUSH1 0x6 DUP3 ADD SLOAD SWAP8 PUSH1 0x7 DUP4 ADD SLOAD SWAP10 PUSH1 0x40 MLOAD SWAP12 PUSH2 0x11EC DUP14 PUSH2 0x1699 JUMP JUMPDEST DUP13 MSTORE PUSH2 0x11FA PUSH1 0x1 DUP6 ADD PUSH2 0x1D3D JUMP JUMPDEST SWAP1 DUP13 ADD MSTORE DUP3 ADD PUSH2 0x1D3D JUMP JUMPDEST PUSH1 0x40 DUP11 ADD MSTORE ADD PUSH2 0x1D3D JUMP JUMPDEST PUSH1 0x60 DUP8 ADD MSTORE PUSH1 0x80 DUP7 ADD MSTORE PUSH1 0xA0 DUP6 ADD MSTORE PUSH1 0xC0 DUP5 ADD MSTORE DUP12 DUP4 ADD MSTORE PUSH1 0xFF DUP2 AND ISZERO ISZERO PUSH2 0x100 DUP4 ADD MSTORE PUSH1 0x8 SHR PUSH1 0x1 PUSH1 0x1 PUSH1 0xA0 SHL SUB AND PUSH2 0x120 DUP3 ADD MSTORE PUSH2 0x1250 DUP3 DUP10 PUSH2 0x1AA6 JUMP JUMPDEST MSTORE PUSH2 0x125B DUP2 DUP9 PUSH2 0x1AA6 JUMP JUMPDEST POP PUSH2 0x1A81 JUMP JUMPDEST PUSH2 0x1090 JUMP JUMPDEST PUSH1 0x40 MLOAD PUSH2 0x1272 DUP2 PUSH2 0x1699 JUMP JUMPDEST DUP8 DUP2 MSTORE PUSH1 0x60 DUP1 DUP5 DUP4 ADD MSTORE DUP1 PUSH1 0x40 DUP4 ADD MSTORE DUP1 DUP1 DUP4 ADD MSTORE DUP1 PUSH1 0x80 DUP4 ADD MSTORE PUSH1 0xA0 DUP3 ADD MSTORE DUP8 PUSH1 0xC0 DUP3 ADD MSTORE DUP8 DUP12 DUP3 ADD MSTORE DUP8 PUSH2 0x100 DUP3 ADD MSTORE DUP8 PUSH2 0x120 DUP3 ADD MSTORE DUP3 DUP3 DUP11 ADD ADD MSTORE ADD DUP8 SWAP1 PUSH2 0x1084 JUMP JUMPDEST DUP3 CALLVALUE PUSH2 0x11D JUMPI DUP1 PUSH1 0x3 NOT CALLDATASIZE ADD SLT PUSH2 0x11D JUMPI PUSH1 0x20 SWAP1 PUSH1 0x40 MLOAD SWAP1 DUP2 MSTORE RETURN JUMPDEST DUP3 CALLVALUE PUSH2 0x11D JUMPI PUSH1 0xFF PUSH1 0x40 PUSH1 0x20 SWAP3 PUSH2 0x12EB CALLDATASIZE PUSH2 0x17A0 JUMP JUMPDEST SWAP1 DUP3 MSTORE DUP2 DUP6 MSTORE DUP3 DUP3 KECCAK256 PUSH1 0x1 PUSH1 0x1 PUSH1 0xA0 SHL SUB SWAP1 SWAP2 AND DUP3 MSTORE DUP5 MSTORE KECCAK256 SLOAD PUSH1 0x40 MLOAD SWAP2 AND ISZERO ISZERO DUP2 MSTORE RETURN JUMPDEST DUP3 CALLVALUE PUSH2 0x11D JUMPI DUP1 PUSH1 0x3 NOT CALLDATASIZE ADD SLT PUSH2 0x11D JUMPI DUP1 DUP1 MSTORE DUP1 PUSH1 0x20 MSTORE PUSH1 0x40 DUP2 KECCAK256 CALLER DUP3 MSTORE PUSH1 0x20 MSTORE PUSH2 0x1342 PUSH1 0xFF PUSH1 0x40 DUP4 KECCAK256 SLOAD AND PUSH2 0x1B06 JUMP JUMPDEST PUSH2 0x134A PUSH2 0x1AE8 JUMP JUMPDEST PUSH1 0x1 PUSH1 0xFF NOT DUP2 SLOAD AND OR PUSH1 0x1 SSTORE PUSH32 0x62E78CEA01BEE320CD4E420270B5EA74000D11B0C9F74754EBDBFC544B05A258 PUSH1 0x20 PUSH1 0x40 MLOAD CALLER DUP2 MSTORE LOG1 DUP1 RETURN JUMPDEST DUP3 CALLVALUE PUSH2 0x11D JUMPI PUSH1 0xA0 CALLDATASIZE PUSH1 0x3 NOT ADD SLT PUSH2 0x11D JUMPI PUSH1 0x4 DUP1 CALLDATALOAD DUP3 DUP1 MSTORE PUSH1 0x20 SWAP1 DUP4 DUP3 MSTORE PUSH1 0x40 DUP5 KECCAK256 CALLER DUP6 MSTORE DUP3 MSTORE PUSH2 0x13BB PUSH1 0xFF PUSH1 0x40 DUP7 KECCAK256 SLOAD AND PUSH2 0x1B06 JUMP JUMPDEST DUP1 DUP5 MSTORE DUP3 DUP3 MSTORE PUSH1 0x40 DUP5 KECCAK256 PUSH1 0x40 MLOAD SWAP1 PUSH7 0x6D617854656D7 PUSH1 0xCC SHL DUP3 MSTORE PUSH1 0x7 DUP3 ADD MSTORE PUSH1 0x27 PUSH1 0x24 CALLDATALOAD SWAP2 KECCAK256 SSTORE DUP1 DUP5 MSTORE DUP3 DUP3 MSTORE PUSH1 0x40 DUP5 KECCAK256 PUSH1 0x40 MLOAD SWAP1 PUSH7 0x6D696E54656D7 PUSH1 0xCC SHL DUP3 MSTORE PUSH1 0x7 DUP3 ADD MSTORE PUSH1 0x27 PUSH1 0x44 CALLDATALOAD SWAP2 KECCAK256 SSTORE DUP1 DUP5 MSTORE DUP3 DUP3 MSTORE PUSH1 0x40 DUP5 KECCAK256 PUSH1 0x40 MLOAD SWAP1 PUSH11 0x6D617848756D6964697479 PUSH1 0xA8 SHL DUP3 MSTORE PUSH1 0xB DUP3 ADD MSTORE PUSH1 0x2B PUSH1 0x64 CALLDATALOAD SWAP2 KECCAK256 SSTORE DUP4 MSTORE MSTORE PUSH1 0x40 DUP2 KECCAK256 PUSH1 0x40 MLOAD SWAP1 PUSH11 0x6D696E48756D6964697479 PUSH1 0xA8 SHL DUP3 MSTORE PUSH1 0xB DUP3 ADD MSTORE PUSH1 0x2B PUSH1 0x84 CALLDATALOAD SWAP2 KECCAK256 SSTORE DUP1 RETURN JUMPDEST DUP3 CALLVALUE PUSH2 0x11D JUMPI DUP1 PUSH1 0x3 NOT CALLDATASIZE ADD SLT PUSH2 0x11D JUMPI PUSH1 0x20 PUSH1 0xFF PUSH1 0x1 SLOAD AND PUSH1 0x40 MLOAD SWAP1 ISZERO ISZERO DUP2 MSTORE RETURN JUMPDEST DUP3 CALLVALUE PUSH2 0x11D JUMPI DUP1 PUSH1 0x3 NOT CALLDATASIZE ADD SLT PUSH2 0x11D JUMPI PUSH1 0x20 PUSH1 0x40 MLOAD PUSH32 0x3EF0725B9D4B3697F60FA4E9DEF2B6B2B9DEE279D2BFFDF3252D316FFFCB536E DUP2 MSTORE RETURN JUMPDEST DUP3 CALLVALUE PUSH2 0x11D JUMPI DUP1 PUSH1 0x3 NOT CALLDATASIZE ADD SLT PUSH2 0x11D JUMPI DUP1 DUP1 MSTORE DUP1 PUSH1 0x20 MSTORE PUSH1 0x40 DUP2 KECCAK256 CALLER DUP3 MSTORE PUSH1 0x20 MSTORE PUSH2 0x14F3 PUSH1 0xFF PUSH1 0x40 DUP4 KECCAK256 SLOAD AND PUSH2 0x1B06 JUMP JUMPDEST PUSH1 0x1 SLOAD PUSH1 0xFF DUP2 AND ISZERO PUSH2 0x1533 JUMPI PUSH1 0xFF NOT AND PUSH1 0x1 SSTORE PUSH32 0x5DB9EE0A495BF2E6FF9C91A7834C1BA4FDD244A5E8AA4E537BD38AEAE4B073AA PUSH1 0x20 PUSH1 0x40 MLOAD CALLER DUP2 MSTORE LOG1 DUP1 RETURN JUMPDEST PUSH1 0x40 MLOAD PUSH4 0x8DFC202B PUSH1 0xE0 SHL DUP2 MSTORE PUSH1 0x4 SWAP1 REVERT JUMPDEST DUP3 CALLVALUE PUSH2 0x11D JUMPI PUSH2 0x1554 CALLDATASIZE PUSH2 0x17A0 JUMP JUMPDEST CALLER PUSH1 0x1 PUSH1 0x1 PUSH1 0xA0 SHL SUB DUP3 AND SUB PUSH2 0x156D JUMPI PUSH2 0xCDA SWAP2 PUSH2 0x19A0 JUMP JUMPDEST PUSH1 0x40 MLOAD PUSH4 0x334BD919 PUSH1 0xE1 SHL DUP2 MSTORE PUSH1 0x4 SWAP1 REVERT JUMPDEST DUP3 CALLVALUE PUSH2 0x11D JUMPI PUSH2 0xCDA PUSH2 0x1591 CALLDATASIZE PUSH2 0x17A0 JUMP JUMPDEST SWAP1 DUP1 DUP5 MSTORE DUP4 PUSH1 0x20 MSTORE PUSH2 0x15A9 PUSH1 0x1 PUSH1 0x40 DUP7 KECCAK256 ADD SLOAD PUSH2 0x18DE JUMP JUMPDEST PUSH2 0x1922 JUMP JUMPDEST DUP3 CALLVALUE PUSH2 0x11D JUMPI PUSH1 0x20 CALLDATASIZE PUSH1 0x3 NOT ADD SLT PUSH2 0x11D JUMPI PUSH1 0x1 PUSH1 0x40 PUSH1 0x20 SWAP3 PUSH1 0x4 CALLDATALOAD DUP2 MSTORE DUP1 DUP5 MSTORE KECCAK256 ADD SLOAD PUSH1 0x40 MLOAD SWAP1 DUP2 MSTORE RETURN JUMPDEST DUP3 CALLVALUE PUSH2 0x11D JUMPI PUSH1 0x40 CALLDATASIZE PUSH1 0x3 NOT ADD SLT PUSH2 0x11D JUMPI PUSH1 0x24 CALLDATALOAD PUSH1 0x1 PUSH1 0x1 PUSH1 0x40 SHL SUB DUP2 GT PUSH2 0x66A JUMPI PUSH1 0x20 DUP1 SWAP3 PUSH1 0x40 PUSH2 0x1614 PUSH2 0x1632 SWAP5 CALLDATASIZE SWAP1 PUSH1 0x4 ADD PUSH2 0x1722 JUMP JUMPDEST SWAP2 PUSH1 0x4 CALLDATALOAD DUP2 MSTORE PUSH1 0x4 DUP5 MSTORE KECCAK256 DUP3 PUSH1 0x40 MLOAD SWAP5 DUP4 DUP7 DUP1 SWAP6 MLOAD SWAP4 DUP5 SWAP3 ADD PUSH2 0x177D JUMP JUMPDEST DUP3 ADD SWAP1 DUP2 MSTORE SUB ADD SWAP1 KECCAK256 SLOAD PUSH1 0x40 MLOAD SWAP1 DUP2 MSTORE RETURN JUMPDEST DUP4 SWAP1 CALLVALUE PUSH2 0x66A JUMPI PUSH1 0x20 CALLDATASIZE PUSH1 0x3 NOT ADD SLT PUSH2 0x66A JUMPI PUSH1 0x4 CALLDATALOAD PUSH4 0xFFFFFFFF PUSH1 0xE0 SHL DUP2 AND DUP1 SWAP2 SUB PUSH2 0xC7A JUMPI PUSH1 0x20 SWAP3 POP PUSH4 0x7965DB0B PUSH1 0xE0 SHL DUP2 EQ SWAP1 DUP2 ISZERO PUSH2 0x1688 JUMPI JUMPDEST POP ISZERO ISZERO DUP2 MSTORE RETURN JUMPDEST PUSH4 0x1FFC9A7 PUSH1 0xE0 SHL EQ SWAP1 POP DUP4 PUSH2 0x1681 JUMP JUMPDEST PUSH2 0x140 DUP2 ADD SWAP1 DUP2 LT PUSH1 0x1 PUSH1 0x1 PUSH1 0x40 SHL SUB DUP3 GT OR PUSH2 0x16B5 JUMPI PUSH1 0x40 MSTORE JUMP JUMPDEST PUSH4 0x4E487B71 PUSH1 0xE0 SHL PUSH1 0x0 MSTORE PUSH1 0x41 PUSH1 0x4 MSTORE PUSH1 0x24 PUSH1 0x0 REVERT JUMPDEST PUSH1 0x40 DUP2 ADD SWAP1 DUP2 LT PUSH1 0x1 PUSH1 0x1 PUSH1 0x40 SHL SUB DUP3 GT OR PUSH2 0x16B5 JUMPI PUSH1 0x40 MSTORE JUMP JUMPDEST PUSH1 0x60 DUP2 ADD SWAP1 DUP2 LT PUSH1 0x1 PUSH1 0x1 PUSH1 0x40 SHL SUB DUP3 GT OR PUSH2 0x16B5 JUMPI PUSH1 0x40 MSTORE JUMP JUMPDEST SWAP1 PUSH1 0x1F DUP1 NOT SWAP2 ADD AND DUP2 ADD SWAP1 DUP2 LT PUSH1 0x1 PUSH1 0x1 PUSH1 0x40 SHL SUB DUP3 GT OR PUSH2 0x16B5 JUMPI PUSH1 0x40 MSTORE JUMP JUMPDEST DUP2 PUSH1 0x1F DUP3 ADD SLT ISZERO PUSH2 0x1778 JUMPI DUP1 CALLDATALOAD SWAP1 PUSH1 0x1 PUSH1 0x1 PUSH1 0x40 SHL SUB DUP3 GT PUSH2 0x16B5 JUMPI PUSH1 0x40 MLOAD SWAP3 PUSH2 0x1756 PUSH1 0x1F DUP5 ADD PUSH1 0x1F NOT AND PUSH1 0x20 ADD DUP6 PUSH2 0x1701 JUMP JUMPDEST DUP3 DUP5 MSTORE PUSH1 0x20 DUP4 DUP4 ADD ADD GT PUSH2 0x1778 JUMPI DUP2 PUSH1 0x0 SWAP3 PUSH1 0x20 DUP1 SWAP4 ADD DUP4 DUP7 ADD CALLDATACOPY DUP4 ADD ADD MSTORE SWAP1 JUMP JUMPDEST PUSH1 0x0 DUP1 REVERT JUMPDEST PUSH1 0x0 JUMPDEST DUP4 DUP2 LT PUSH2 0x1790 JUMPI POP POP PUSH1 0x0 SWAP2 ADD MSTORE JUMP JUMPDEST DUP2 DUP2 ADD MLOAD DUP4 DUP3 ADD MSTORE PUSH1 0x20 ADD PUSH2 0x1780 JUMP JUMPDEST PUSH1 0x40 SWAP1 PUSH1 0x3 NOT ADD SLT PUSH2 0x1778 JUMPI PUSH1 0x4 CALLDATALOAD SWAP1 PUSH1 0x24 CALLDATALOAD PUSH1 0x1 PUSH1 0x1 PUSH1 0xA0 SHL SUB DUP2 AND DUP2 SUB PUSH2 0x1778 JUMPI SWAP1 JUMP JUMPDEST SWAP1 PUSH1 0x20 SWAP2 PUSH2 0x17DF DUP2 MLOAD DUP1 SWAP3 DUP2 DUP6 MSTORE DUP6 DUP1 DUP7 ADD SWAP2 ADD PUSH2 0x177D JUMP JUMPDEST PUSH1 0x1F ADD PUSH1 0x1F NOT AND ADD ADD SWAP1 JUMP JUMPDEST SWAP1 DUP1 DUP3 MLOAD SWAP1 DUP2 DUP2 MSTORE PUSH1 0x20 DUP1 SWAP2 ADD SWAP3 DUP2 DUP1 DUP5 PUSH1 0x5 SHL DUP4 ADD ADD SWAP6 ADD SWAP4 PUSH1 0x0 SWAP2 JUMPDEST DUP5 DUP4 LT PUSH2 0x1819 JUMPI POP POP POP POP POP POP SWAP1 JUMP JUMPDEST SWAP1 SWAP2 SWAP3 SWAP4 SWAP5 SWAP6 DUP5 DUP1 PUSH2 0x1837 PUSH1 0x1 SWAP4 PUSH1 0x1F NOT DUP7 DUP3 SUB ADD DUP8 MSTORE DUP11 MLOAD PUSH2 0x17C6 JUMP JUMPDEST SWAP9 ADD SWAP4 ADD SWAP4 ADD SWAP2 SWAP5 SWAP4 SWAP3 SWAP1 PUSH2 0x1809 JUMP JUMPDEST PUSH1 0x1 PUSH1 0x1 PUSH1 0x40 SHL SUB DUP2 GT PUSH2 0x16B5 JUMPI PUSH1 0x5 SHL PUSH1 0x20 ADD SWAP1 JUMP JUMPDEST SWAP1 DUP1 PUSH1 0x1F DUP4 ADD SLT ISZERO PUSH2 0x1778 JUMPI DUP2 CALLDATALOAD SWAP1 PUSH2 0x1876 DUP3 PUSH2 0x1847 JUMP JUMPDEST SWAP3 PUSH2 0x1884 PUSH1 0x40 MLOAD SWAP5 DUP6 PUSH2 0x1701 JUMP JUMPDEST DUP3 DUP5 MSTORE PUSH1 0x20 SWAP3 DUP4 DUP1 DUP7 ADD SWAP2 PUSH1 0x5 SHL DUP4 ADD ADD SWAP3 DUP1 DUP5 GT PUSH2 0x1778 JUMPI DUP5 DUP4 ADD SWAP2 JUMPDEST DUP5 DUP4 LT PUSH2 0x18B2 JUMPI POP POP POP POP POP POP SWAP1 JUMP JUMPDEST DUP3 CALLDATALOAD PUSH1 0x1 PUSH1 0x1 PUSH1 0x40 SHL SUB DUP2 GT PUSH2 0x1778 JUMPI DUP7 SWAP2 PUSH2 0x18D3 DUP5 DUP5 DUP1 SWAP5 DUP10 ADD ADD PUSH2 0x1722 JUMP JUMPDEST DUP2 MSTORE ADD SWAP3 ADD SWAP2 PUSH2 0x18A2 JUMP JUMPDEST DUP1 PUSH1 0x0 MSTORE PUSH1 0x0 PUSH1 0x20 MSTORE PUSH1 0x40 PUSH1 0x0 KECCAK256 CALLER PUSH1 0x0 MSTORE PUSH1 0x20 MSTORE PUSH1 0xFF PUSH1 0x40 PUSH1 0x0 KECCAK256 SLOAD AND ISZERO PUSH2 0x1904 JUMPI POP JUMP JUMPDEST PUSH1 0x44 SWAP1 PUSH1 0x40 MLOAD SWAP1 PUSH4 0xE2517D3F PUSH1 0xE0 SHL DUP3 MSTORE CALLER PUSH1 0x4 DUP4 ADD MSTORE PUSH1 0x24 DUP3 ADD MSTORE REVERT JUMPDEST SWAP1 PUSH1 0x0 SWAP2 DUP1 DUP4 MSTORE DUP3 PUSH1 0x20 MSTORE PUSH1 0x40 DUP4 KECCAK256 SWAP2 PUSH1 0x1 DUP1 PUSH1 0xA0 SHL SUB AND SWAP2 DUP3 DUP5 MSTORE PUSH1 0x20 MSTORE PUSH1 0xFF PUSH1 0x40 DUP5 KECCAK256 SLOAD AND ISZERO PUSH1 0x0 EQ PUSH2 0x199B JUMPI DUP1 DUP4 MSTORE DUP3 PUSH1 0x20 MSTORE PUSH1 0x40 DUP4 KECCAK256 DUP3 DUP5 MSTORE PUSH1 0x20 MSTORE PUSH1 0x40 DUP4 KECCAK256 PUSH1 0x1 PUSH1 0xFF NOT DUP3 SLOAD AND OR SWAP1 SSTORE PUSH32 0x2F8788117E7EFF1D82E926EC794901D17C78024A50270940304540A733656F0D CALLER SWAP4 DUP1 LOG4 PUSH1 0x1 SWAP1 JUMP JUMPDEST POP POP SWAP1 JUMP JUMPDEST SWAP1 PUSH1 0x0 SWAP2 DUP1 DUP4 MSTORE DUP3 PUSH1 0x20 MSTORE PUSH1 0x40 DUP4 KECCAK256 SWAP2 PUSH1 0x1 DUP1 PUSH1 0xA0 SHL SUB AND SWAP2 DUP3 DUP5 MSTORE PUSH1 0x20 MSTORE PUSH1 0xFF PUSH1 0x40 DUP5 KECCAK256 SLOAD AND PUSH1 0x0 EQ PUSH2 0x199B JUMPI DUP1 DUP4 MSTORE DUP3 PUSH1 0x20 MSTORE PUSH1 0x40 DUP4 KECCAK256 DUP3 DUP5 MSTORE PUSH1 0x20 MSTORE PUSH1 0x40 DUP4 KECCAK256 PUSH1 0xFF NOT DUP2 SLOAD AND SWAP1 SSTORE PUSH32 0xF6391F5C32D9C69D2A47EA670B442974B53935D1EDC7FD64EB21E047A839171B CALLER SWAP4 DUP1 LOG4 PUSH1 0x1 SWAP1 JUMP JUMPDEST DUP1 SLOAD DUP3 LT ISZERO PUSH2 0x1A31 JUMPI PUSH1 0x0 MSTORE PUSH1 0xB PUSH1 0x20 PUSH1 0x0 KECCAK256 SWAP2 MUL ADD SWAP1 PUSH1 0x0 SWAP1 JUMP JUMPDEST PUSH4 0x4E487B71 PUSH1 0xE0 SHL PUSH1 0x0 MSTORE PUSH1 0x32 PUSH1 0x4 MSTORE PUSH1 0x24 PUSH1 0x0 REVERT JUMPDEST SWAP1 PUSH1 0x1 DUP3 DUP2 SHR SWAP3 AND DUP1 ISZERO PUSH2 0x1A77 JUMPI JUMPDEST PUSH1 0x20 DUP4 LT EQ PUSH2 0x1A61 JUMPI JUMP JUMPDEST PUSH4 0x4E487B71 PUSH1 0xE0 SHL PUSH1 0x0 MSTORE PUSH1 0x22 PUSH1 0x4 MSTORE PUSH1 0x24 PUSH1 0x0 REVERT JUMPDEST SWAP2 PUSH1 0x7F AND SWAP2 PUSH2 0x1A56 JUMP JUMPDEST PUSH1 0x0 NOT DUP2 EQ PUSH2 0x1A90 JUMPI PUSH1 0x1 ADD SWAP1 JUMP JUMPDEST PUSH4 0x4E487B71 PUSH1 0xE0 SHL PUSH1 0x0 MSTORE PUSH1 0x11 PUSH1 0x4 MSTORE PUSH1 0x24 PUSH1 0x0 REVERT JUMPDEST DUP1 MLOAD DUP3 LT ISZERO PUSH2 0x1A31 JUMPI PUSH1 0x20 SWAP2 PUSH1 0x5 SHL ADD ADD SWAP1 JUMP JUMPDEST SWAP4 SWAP3 SWAP2 PUSH2 0x1AE3 SWAP1 PUSH2 0x1AD5 PUSH1 0x40 SWAP4 PUSH1 0x60 DUP9 MSTORE PUSH1 0x60 DUP9 ADD SWAP1 PUSH2 0x17C6 JUMP JUMPDEST SWAP1 DUP7 DUP3 SUB PUSH1 0x20 DUP9 ADD MSTORE PUSH2 0x17C6 JUMP JUMPDEST SWAP4 ADD MSTORE JUMP JUMPDEST PUSH1 0xFF PUSH1 0x1 SLOAD AND PUSH2 0x1AF4 JUMPI JUMP JUMPDEST PUSH1 0x40 MLOAD PUSH4 0xD93C0665 PUSH1 0xE0 SHL DUP2 MSTORE PUSH1 0x4 SWAP1 REVERT JUMPDEST ISZERO PUSH2 0x1B0D JUMPI JUMP JUMPDEST PUSH1 0x40 MLOAD PUSH3 0x461BCD PUSH1 0xE5 SHL DUP2 MSTORE PUSH1 0x20 PUSH1 0x4 DUP3 ADD MSTORE PUSH1 0x14 PUSH1 0x24 DUP3 ADD MSTORE PUSH20 0x4D75737420686176652061646D696E20726F6C65 PUSH1 0x60 SHL PUSH1 0x44 DUP3 ADD MSTORE PUSH1 0x64 SWAP1 REVERT JUMPDEST SWAP1 SWAP3 SWAP2 SWAP3 PUSH1 0x0 SWAP4 DUP3 DUP6 MSTORE PUSH1 0x20 PUSH1 0x3 DUP2 MSTORE PUSH1 0x40 DUP7 KECCAK256 SLOAD SWAP6 PUSH1 0x0 NOT SWAP7 DUP8 DUP2 ADD SWAP1 DUP2 GT PUSH2 0x1D06 JUMPI PUSH2 0x1B81 SWAP1 DUP7 DUP4 MSTORE PUSH1 0x2 DUP5 MSTORE PUSH1 0x40 DUP4 KECCAK256 PUSH2 0x1A15 JUMP JUMPDEST POP SWAP7 PUSH1 0xA PUSH1 0x9 DUP10 ADD SWAP9 PUSH1 0x1 SWAP10 DUP11 PUSH1 0xFF NOT DUP3 SLOAD AND OR SWAP1 SSTORE ADD SWAP3 DUP6 MLOAD SWAP3 PUSH1 0x1 PUSH1 0x1 PUSH1 0x40 SHL SUB DUP5 GT PUSH2 0x1CF2 JUMPI PUSH2 0x1BB4 DUP6 SLOAD PUSH2 0x1A47 JUMP JUMPDEST PUSH1 0x1F DUP2 GT PUSH2 0x1CAC JUMPI JUMPDEST POP DUP2 PUSH1 0x1F DUP6 GT PUSH1 0x1 EQ PUSH2 0x1C28 JUMPI POP PUSH32 0x6AF8A40F8A661F2EA1898DC041375BA059BC15F9120CB2C9CAE247243D14E534 SWAP8 SWAP9 SWAP10 DUP5 SWAP4 SWAP3 DUP5 SWAP3 SWAP5 PUSH2 0x1C1D JUMPI JUMPDEST POP SHL SWAP3 PUSH1 0x3 SHL SHR NOT AND OR SWAP1 SSTORE JUMPDEST PUSH2 0x1C18 PUSH1 0x40 MLOAD SWAP3 DUP4 SWAP3 TIMESTAMP SWAP2 DUP5 PUSH2 0x1ABA JUMP JUMPDEST SUB SWAP1 LOG2 JUMP JUMPDEST DUP9 ADD MLOAD SWAP4 POP CODESIZE PUSH2 0x1BFA JUMP JUMPDEST SWAP10 SWAP4 SWAP3 SWAP1 SWAP2 PUSH1 0x1F NOT DUP5 AND SWAP11 DUP7 DUP5 MSTORE DUP1 DUP5 KECCAK256 SWAP4 SWAP1 JUMPDEST DUP13 DUP3 LT PUSH2 0x1C95 JUMPI POP POP DUP4 PUSH32 0x6AF8A40F8A661F2EA1898DC041375BA059BC15F9120CB2C9CAE247243D14E534 SWAP10 SWAP11 SWAP12 LT PUSH2 0x1C7D JUMPI JUMPDEST POP POP POP DUP2 SHL ADD SWAP1 SSTORE PUSH2 0x1C07 JUMP JUMPDEST DUP8 ADD MLOAD SWAP1 PUSH1 0xF8 DUP5 PUSH1 0x3 SHL AND SHR NOT AND SWAP1 SSTORE CODESIZE DUP1 DUP1 PUSH2 0x1C70 JUMP JUMPDEST DUP1 DUP8 DUP5 SWAP7 DUP3 SWAP5 SWAP6 DUP14 ADD MLOAD DUP2 SSTORE ADD SWAP6 ADD SWAP3 ADD SWAP1 PUSH2 0x1C3C JUMP JUMPDEST DUP6 DUP3 MSTORE DUP3 DUP3 KECCAK256 PUSH1 0x1F DUP7 ADD PUSH1 0x5 SHR DUP2 ADD SWAP2 DUP5 DUP8 LT PUSH2 0x1CE8 JUMPI JUMPDEST PUSH1 0x1F ADD PUSH1 0x5 SHR ADD SWAP1 DUP12 SWAP1 JUMPDEST DUP3 DUP2 LT PUSH2 0x1CDD JUMPI POP POP PUSH2 0x1BBD JUMP JUMPDEST DUP4 DUP2 SSTORE ADD DUP12 SWAP1 PUSH2 0x1CCF JUMP JUMPDEST SWAP1 SWAP2 POP DUP2 SWAP1 PUSH2 0x1CC4 JUMP JUMPDEST PUSH4 0x4E487B71 PUSH1 0xE0 SHL DUP2 MSTORE PUSH1 0x41 PUSH1 0x4 MSTORE PUSH1 0x24 SWAP1 REVERT JUMPDEST PUSH4 0x4E487B71 PUSH1 0xE0 SHL DUP3 MSTORE PUSH1 0x11 PUSH1 0x4 MSTORE PUSH1 0x24 DUP3 REVERT JUMPDEST PUSH1 0x40 MLOAD PUSH1 0x20 DUP2 ADD DUP2 DUP2 LT PUSH1 0x1 PUSH1 0x1 PUSH1 0x40 SHL SUB DUP3 GT OR PUSH2 0x16B5 JUMPI PUSH1 0x40 MSTORE PUSH1 0x0 DUP2 MSTORE SWAP1 JUMP JUMPDEST SWAP1 PUSH1 0x40 MLOAD SWAP2 DUP3 PUSH1 0x0 DUP3 SLOAD SWAP3 PUSH2 0x1D51 DUP5 PUSH2 0x1A47 JUMP JUMPDEST SWAP1 DUP2 DUP5 MSTORE PUSH1 0x1 SWAP5 DUP6 DUP2 AND SWAP1 DUP2 PUSH1 0x0 EQ PUSH2 0x1DC0 JUMPI POP PUSH1 0x1 EQ PUSH2 0x1D7D JUMPI JUMPDEST POP POP PUSH2 0x1D7B SWAP3 POP SUB DUP4 PUSH2 0x1701 JUMP JUMPDEST JUMP JUMPDEST SWAP1 SWAP4 SWAP2 POP PUSH1 0x0 MSTORE PUSH1 0x20 SWAP1 DUP2 PUSH1 0x0 KECCAK256 SWAP4 PUSH1 0x0 SWAP2 JUMPDEST DUP2 DUP4 LT PUSH2 0x1DA8 JUMPI POP POP PUSH2 0x1D7B SWAP4 POP DUP3 ADD ADD CODESIZE DUP1 PUSH2 0x1D6D JUMP JUMPDEST DUP6 SLOAD DUP9 DUP5 ADD DUP6 ADD MSTORE SWAP5 DUP6 ADD SWAP5 DUP8 SWAP5 POP SWAP2 DUP4 ADD SWAP2 PUSH2 0x1D90 JUMP JUMPDEST SWAP2 POP POP PUSH2 0x1D7B SWAP5 POP PUSH1 0x20 SWAP3 POP PUSH1 0xFF NOT AND DUP3 DUP5 ADD MSTORE ISZERO ISZERO PUSH1 0x5 SHL DUP3 ADD ADD CODESIZE DUP1 PUSH2 0x1D6D JUMP INVALID LOG2 PUSH5 0x6970667358 0x22 SLT KECCAK256 0x4E 0xF 0xB5 PUSH6 0x3475BCA5F216 0xBC SUB EXTCODESIZE DUP1 DUP4 PUSH27 0xDD7DDCEAAA3639BECBFE3BA4D181746464736F6C63430008140033 "},"methodIdentifiers":{"DEFAULT_ADMIN_ROLE()":"a217fddf","TRACKER_ROLE()":"4e4e3eeb","VALIDATOR_ROLE()":"c49baebe","addTrackingData(uint256,string,string,string,string[],string[],uint256,uint256)":"dfb7747d","getRoleAdmin(bytes32)":"248a9ca3","getTrackingHistory(uint256)":"c36034e2","grantRole(bytes32,address)":"2f2ff15d","hasRole(bytes32,address)":"91d14854","nftContract()":"d56d229d","pause()":"8456cb59","paused()":"5c975abb","renounceRole(bytes32,address)":"36568abe","revokeRole(bytes32,address)":"d547741f","setThresholds(uint256,uint256,uint256,uint256,uint256)":"6dbfc112","supportsInterface(bytes4)":"01ffc9a7","thresholds(uint256,string)":"1b3aa154","trackingCount(uint256)":"e6e7f0df","unpause()":"3f4ba83a","validateTrackingData(uint256,uint256,bool,string)":"d35d3657"}}}}}