{"contracts/ServareNFT.sol":{"SurfoodNFT":{"abi":[{"inputs":[],"stateMutability":"nonpayable","type":"constructor"},{"inputs":[],"name":"AccessControlBadConfirmation","type":"error"},{"inputs":[{"internalType":"address","name":"account","type":"address"},{"internalType":"bytes32","name":"neededRole","type":"bytes32"}],"name":"AccessControlUnauthorizedAccount","type":"error"},{"inputs":[{"internalType":"address","name":"sender","type":"address"},{"internalType":"uint256","name":"tokenId","type":"uint256"},{"internalType":"address","name":"owner","type":"address"}],"name":"ERC721IncorrectOwner","type":"error"},{"inputs":[{"internalType":"address","name":"operator","type":"address"},{"internalType":"uint256","name":"tokenId","type":"uint256"}],"name":"ERC721InsufficientApproval","type":"error"},{"inputs":[{"internalType":"address","name":"approver","type":"address"}],"name":"ERC721InvalidApprover","type":"error"},{"inputs":[{"internalType":"address","name":"operator","type":"address"}],"name":"ERC721InvalidOperator","type":"error"},{"inputs":[{"internalType":"address","name":"owner","type":"address"}],"name":"ERC721InvalidOwner","type":"error"},{"inputs":[{"internalType":"address","name":"receiver","type":"address"}],"name":"ERC721InvalidReceiver","type":"error"},{"inputs":[{"internalType":"address","name":"sender","type":"address"}],"name":"ERC721InvalidSender","type":"error"},{"inputs":[{"internalType":"uint256","name":"tokenId","type":"uint256"}],"name":"ERC721NonexistentToken","type":"error"},{"inputs":[{"internalType":"address","name":"owner","type":"address"}],"name":"OwnableInvalidOwner","type":"error"},{"inputs":[{"internalType":"address","name":"account","type":"address"}],"name":"OwnableUnauthorizedAccount","type":"error"},{"anonymous":false,"inputs":[{"indexed":true,"internalType":"address","name":"owner","type":"address"},{"indexed":true,"internalType":"address","name":"approved","type":"address"},{"indexed":true,"internalType":"uint256","name":"tokenId","type":"uint256"}],"name":"Approval","type":"event"},{"anonymous":false,"inputs":[{"indexed":true,"internalType":"address","name":"owner","type":"address"},{"indexed":true,"internalType":"address","name":"operator","type":"address"},{"indexed":false,"internalType":"bool","name":"approved","type":"bool"}],"name":"ApprovalForAll","type":"event"},{"anonymous":false,"inputs":[{"indexed":true,"internalType":"address","name":"previousOwner","type":"address"},{"indexed":true,"internalType":"address","name":"newOwner","type":"address"}],"name":"OwnershipTransferred","type":"event"},{"anonymous":false,"inputs":[{"indexed":true,"internalType":"uint256","name":"tokenId","type":"uint256"},{"indexed":false,"internalType":"address","name":"producer","type":"address"},{"indexed":false,"internalType":"string","name":"name","type":"string"},{"indexed":false,"internalType":"uint256","name":"quantity","type":"uint256"},{"indexed":false,"internalType":"string","name":"category","type":"string"}],"name":"ProductCreated","type":"event"},{"anonymous":false,"inputs":[{"indexed":true,"internalType":"uint256","name":"tokenId","type":"uint256"},{"indexed":false,"internalType":"uint256","name":"price","type":"uint256"},{"indexed":false,"internalType":"uint256","name":"timestamp","type":"uint256"}],"name":"ProductListed","type":"event"},{"anonymous":false,"inputs":[{"indexed":true,"internalType":"uint256","name":"tokenId","type":"uint256"}],"name":"ProductUnlisted","type":"event"},{"anonymous":false,"inputs":[{"indexed":true,"internalType":"uint256","name":"tokenId","type":"uint256"},{"indexed":false,"internalType":"enum SurfoodNFT.ProductQuality","name":"quality","type":"uint8"},{"indexed":false,"internalType":"uint256","name":"timestamp","type":"uint256"}],"name":"QualityUpdated","type":"event"},{"anonymous":false,"inputs":[{"indexed":true,"internalType":"bytes32","name":"role","type":"bytes32"},{"indexed":true,"internalType":"bytes32","name":"previousAdminRole","type":"bytes32"},{"indexed":true,"internalType":"bytes32","name":"newAdminRole","type":"bytes32"}],"name":"RoleAdminChanged","type":"event"},{"anonymous":false,"inputs":[{"indexed":true,"internalType":"bytes32","name":"role","type":"bytes32"},{"indexed":true,"internalType":"address","name":"account","type":"address"},{"indexed":true,"internalType":"address","name":"sender","type":"address"}],"name":"RoleGranted","type":"event"},{"anonymous":false,"inputs":[{"indexed":true,"internalType":"bytes32","name":"role","type":"bytes32"},{"indexed":true,"internalType":"address","name":"account","type":"address"},{"indexed":true,"internalType":"address","name":"sender","type":"address"}],"name":"RoleRevoked","type":"event"},{"anonymous":false,"inputs":[{"indexed":true,"internalType":"uint256","name":"tokenId","type":"uint256"},{"indexed":false,"internalType":"string","name":"eventType","type":"string"},{"indexed":false,"internalType":"string","name":"location","type":"string"},{"indexed":false,"internalType":"uint256","name":"timestamp","type":"uint256"}],"name":"SupplyChainEventAdded","type":"event"},{"anonymous":false,"inputs":[{"indexed":true,"internalType":"address","name":"from","type":"address"},{"indexed":true,"internalType":"address","name":"to","type":"address"},{"indexed":true,"internalType":"uint256","name":"tokenId","type":"uint256"}],"name":"Transfer","type":"event"},{"inputs":[],"name":"DEFAULT_ADMIN_ROLE","outputs":[{"internalType":"bytes32","name":"","type":"bytes32"}],"stateMutability":"view","type":"function"},{"inputs":[],"name":"PRODUCER_ROLE","outputs":[{"internalType":"bytes32","name":"","type":"bytes32"}],"stateMutability":"view","type":"function"},{"inputs":[],"name":"VERIFIER_ROLE","outputs":[{"internalType":"bytes32","name":"","type":"bytes32"}],"stateMutability":"view","type":"function"},{"inputs":[{"internalType":"uint256","name":"tokenId","type":"uint256"},{"internalType":"string","name":"eventType","type":"string"},{"internalType":"string","name":"location","type":"string"},{"internalType":"string","name":"handlerName","type":"string"},{"internalType":"bytes32","name":"ipfsDataHash","type":"bytes32"},{"internalType":"string[]","name":"sensorKeys","type":"string[]"},{"internalType":"string[]","name":"sensorValues","type":"string[]"}],"name":"addSupplyChainEvent","outputs":[],"stateMutability":"nonpayable","type":"function"},{"inputs":[{"internalType":"address","name":"to","type":"address"},{"internalType":"uint256","name":"tokenId","type":"uint256"}],"name":"approve","outputs":[],"stateMutability":"nonpayable","type":"function"},{"inputs":[{"internalType":"address","name":"owner","type":"address"}],"name":"balanceOf","outputs":[{"internalType":"uint256","name":"","type":"uint256"}],"stateMutability":"view","type":"function"},{"inputs":[{"internalType":"string","name":"name","type":"string"},{"internalType":"string","name":"description","type":"string"},{"internalType":"uint256","name":"quantity","type":"uint256"},{"internalType":"string","name":"location","type":"string"},{"internalType":"uint256","name":"expiryDate","type":"uint256"},{"internalType":"string","name":"productionDate","type":"string"},{"internalType":"string","name":"category","type":"string"},{"internalType":"string","name":"imageURI","type":"string"},{"internalType":"uint256","name":"price","type":"uint256"},{"internalType":"bytes32","name":"ipfsMetadataHash","type":"bytes32"},{"internalType":"uint256","name":"carbonFootprint","type":"uint256"}],"name":"createFoodProduct","outputs":[{"internalType":"uint256","name":"","type":"uint256"}],"stateMutability":"nonpayable","type":"function"},{"inputs":[{"internalType":"uint256","name":"tokenId","type":"uint256"}],"name":"exists","outputs":[{"internalType":"bool","name":"","type":"bool"}],"stateMutability":"view","type":"function"},{"inputs":[{"internalType":"uint256","name":"","type":"uint256"}],"name":"foodProducts","outputs":[{"internalType":"string","name":"name","type":"string"},{"internalType":"string","name":"description","type":"string"},{"internalType":"uint256","name":"quantity","type":"uint256"},{"internalType":"string","name":"location","type":"string"},{"internalType":"uint256","name":"expiryDate","type":"uint256"},{"internalType":"string","name":"productionDate","type":"string"},{"internalType":"string","name":"category","type":"string"},{"internalType":"string","name":"imageURI","type":"string"},{"internalType":"uint256","name":"price","type":"uint256"},{"internalType":"bool","name":"isListed","type":"bool"},{"internalType":"address","name":"producer","type":"address"},{"internalType":"bool","name":"isVerified","type":"bool"},{"internalType":"uint256","name":"eventCount","type":"uint256"},{"internalType":"bytes32","name":"ipfsMetadataHash","type":"bytes32"},{"internalType":"enum SurfoodNFT.ProductQuality","name":"quality","type":"uint8"},{"internalType":"uint256","name":"carbonFootprint","type":"uint256"},{"internalType":"bool","name":"exists","type":"bool"}],"stateMutability":"view","type":"function"},{"inputs":[{"internalType":"uint256","name":"tokenId","type":"uint256"}],"name":"getApproved","outputs":[{"internalType":"address","name":"","type":"address"}],"stateMutability":"view","type":"function"},{"inputs":[{"internalType":"uint256","name":"tokenId","type":"uint256"}],"name":"getProduct","outputs":[{"internalType":"string","name":"name","type":"string"},{"internalType":"string","name":"description","type":"string"},{"internalType":"uint256","name":"quantity","type":"uint256"},{"internalType":"string","name":"location","type":"string"},{"internalType":"uint256","name":"expiryDate","type":"uint256"},{"internalType":"string","name":"productionDate","type":"string"},{"internalType":"string","name":"category","type":"string"},{"internalType":"string","name":"imageURI","type":"string"},{"internalType":"uint256","name":"price","type":"uint256"},{"internalType":"bool","name":"isListed","type":"bool"},{"internalType":"address","name":"producer","type":"address"},{"internalType":"bool","name":"isVerified","type":"bool"},{"internalType":"bytes32","name":"ipfsMetadataHash","type":"bytes32"},{"internalType":"enum SurfoodNFT.ProductQuality","name":"quality","type":"uint8"},{"internalType":"uint256","name":"carbonFootprint","type":"uint256"}],"stateMutability":"view","type":"function"},{"inputs":[],"name":"getProductCount","outputs":[{"internalType":"uint256","name":"","type":"uint256"}],"stateMutability":"view","type":"function"},{"inputs":[{"internalType":"address","name":"producer","type":"address"}],"name":"getProductsByProducer","outputs":[{"internalType":"uint256[]","name":"","type":"uint256[]"}],"stateMutability":"view","type":"function"},{"inputs":[{"internalType":"bytes32","name":"role","type":"bytes32"}],"name":"getRoleAdmin","outputs":[{"internalType":"bytes32","name":"","type":"bytes32"}],"stateMutability":"view","type":"function"},{"inputs":[{"internalType":"bytes32","name":"role","type":"bytes32"},{"internalType":"address","name":"account","type":"address"}],"name":"grantRole","outputs":[],"stateMutability":"nonpayable","type":"function"},{"inputs":[{"internalType":"bytes32","name":"role","type":"bytes32"},{"internalType":"address","name":"account","type":"address"}],"name":"hasRole","outputs":[{"internalType":"bool","name":"","type":"bool"}],"stateMutability":"view","type":"function"},{"inputs":[{"internalType":"address","name":"owner","type":"address"},{"internalType":"address","name":"operator","type":"address"}],"name":"isApprovedForAll","outputs":[{"internalType":"bool","name":"","type":"bool"}],"stateMutability":"view","type":"function"},{"inputs":[{"internalType":"uint256","name":"tokenId","type":"uint256"}],"name":"isListedProduct","outputs":[{"internalType":"bool","name":"","type":"bool"}],"stateMutability":"view","type":"function"},{"inputs":[{"internalType":"uint256","name":"tokenId","type":"uint256"}],"name":"isValidProduct","outputs":[{"internalType":"bool","name":"","type":"bool"}],"stateMutability":"view","type":"function"},{"inputs":[],"name":"name","outputs":[{"internalType":"string","name":"","type":"string"}],"stateMutability":"view","type":"function"},{"inputs":[],"name":"owner","outputs":[{"internalType":"address","name":"","type":"address"}],"stateMutability":"view","type":"function"},{"inputs":[{"internalType":"uint256","name":"tokenId","type":"uint256"}],"name":"ownerOf","outputs":[{"internalType":"address","name":"","type":"address"}],"stateMutability":"view","type":"function"},{"inputs":[],"name":"renounceOwnership","outputs":[],"stateMutability":"nonpayable","type":"function"},{"inputs":[{"internalType":"bytes32","name":"role","type":"bytes32"},{"internalType":"address","name":"callerConfirmation","type":"address"}],"name":"renounceRole","outputs":[],"stateMutability":"nonpayable","type":"function"},{"inputs":[{"internalType":"bytes32","name":"role","type":"bytes32"},{"internalType":"address","name":"account","type":"address"}],"name":"revokeRole","outputs":[],"stateMutability":"nonpayable","type":"function"},{"inputs":[{"internalType":"address","name":"from","type":"address"},{"internalType":"address","name":"to","type":"address"},{"internalType":"uint256","name":"tokenId","type":"uint256"}],"name":"safeTransferFrom","outputs":[],"stateMutability":"nonpayable","type":"function"},{"inputs":[{"internalType":"address","name":"from","type":"address"},{"internalType":"address","name":"to","type":"address"},{"internalType":"uint256","name":"tokenId","type":"uint256"},{"internalType":"bytes","name":"data","type":"bytes"}],"name":"safeTransferFrom","outputs":[],"stateMutability":"nonpayable","type":"function"},{"inputs":[{"internalType":"address","name":"operator","type":"address"},{"internalType":"bool","name":"approved","type":"bool"}],"name":"setApprovalForAll","outputs":[],"stateMutability":"nonpayable","type":"function"},{"inputs":[{"internalType":"bytes4","name":"interfaceId","type":"bytes4"}],"name":"supportsInterface","outputs":[{"internalType":"bool","name":"","type":"bool"}],"stateMutability":"view","type":"function"},{"inputs":[],"name":"symbol","outputs":[{"internalType":"string","name":"","type":"string"}],"stateMutability":"view","type":"function"},{"inputs":[{"internalType":"uint256","name":"tokenId","type":"uint256"},{"internalType":"bool","name":"isListed","type":"bool"},{"internalType":"uint256","name":"newPrice","type":"uint256"}],"name":"toggleProductListing","outputs":[],"stateMutability":"nonpayable","type":"function"},{"inputs":[{"internalType":"uint256","name":"tokenId","type":"uint256"}],"name":"tokenURI","outputs":[{"internalType":"string","name":"","type":"string"}],"stateMutability":"view","type":"function"},{"inputs":[{"internalType":"address","name":"from","type":"address"},{"internalType":"address","name":"to","type":"address"},{"internalType":"uint256","name":"tokenId","type":"uint256"}],"name":"transferFrom","outputs":[],"stateMutability":"nonpayable","type":"function"},{"inputs":[{"internalType":"address","name":"newOwner","type":"address"}],"name":"transferOwnership","outputs":[],"stateMutability":"nonpayable","type":"function"},{"inputs":[{"internalType":"uint256","name":"tokenId","type":"uint256"},{"internalType":"enum SurfoodNFT.ProductQuality","name":"quality","type":"uint8"}],"name":"updateQuality","outputs":[],"stateMutability":"nonpayable","type":"function"},{"inputs":[{"internalType":"address","name":"","type":"address"}],"name":"verifiedProducers","outputs":[{"internalType":"bool","name":"","type":"bool"}],"stateMutability":"view","type":"function"}],"evm":{"bytecode":{"linkReferences":{},"object":"608034620003a1576040906001600160401b03818301818111838210176200038b578352600782526020916614dd5c999bdbd960ca1b83820152835191848301838110828211176200038b578552600492838152631193d3d160e21b8582015282519082821162000376576000958654926001958685811c951680156200036b575b8386101462000358578190601f9586811162000305575b508390868311600114620002a1578a9262000295575b5050600019600383901b1c191690861b1787555b8151938411620002825784548581811c9116801562000277575b82821014620002645790818486959493116200020d575b5080928411600114620001a55750869262000199575b5050600019600383901b1c191690821b1790555b331562000184575060078054336001600160a01b0319821681179092556001600160a01b03167f8be0079c531659141344cd1fd0a4f28419497f9722a3daafe3b4186f6b6457e08380a36200017233620003a6565b5060085551612dbc9081620004398239f35b9151631e4fbdf760e01b815291820152602490fd5b01519050388062000109565b9190859450601f1984168589528389209389905b828210620001f35750508411620001d9575b505050811b0190556200011d565b015160001960f88460031b161c19169055388080620001cb565b8484015186558897909501949384019390810190620001b9565b90919293508588528188208480870160051c8201928488106200025a575b9187968992969594930160051c01915b8281106200024b575050620000f3565b8a81558796508891016200023b565b925081926200022b565b634e487b7160e01b885260228752602488fd5b90607f1690620000dc565b634e487b7160e01b875260418652602487fd5b015190503880620000ae565b8a8052848b208994509190601f1984168c5b87828210620002ee5750508411620002d4575b505050811b018755620000c2565b015160001960f88460031b161c19169055388080620002c6565b8385015186558c97909501949384019301620002b3565b909150898052838a208680850160051c8201928686106200034e575b918a91869594930160051c01915b8281106200033f57505062000098565b8c81558594508a91016200032f565b9250819262000321565b634e487b7160e01b895260228852602489fd5b94607f169462000081565b604185634e487b7160e01b6000525260246000fd5b634e487b7160e01b600052604160045260246000fd5b600080fd5b6001600160a01b031660008181527f54cdd369e4e8a8515e52ca72ec816c2101831ad1f18bf44102ed171459c9b4f8602052604081205490919060ff16620004345781805260066020526040822081835260205260408220600160ff1982541617905533917f2f8788117e7eff1d82e926ec794901d17c78024a50270940304540a733656f0d8180a4600190565b509056fe608080604052600436101561001357600080fd5b60003560e01c90816301ffc9a7146123bd5750806306fdde031461231a578063081812fc146122dc578063095ea7b3146121f55780631bf9826a146115c757806323b872dd146115b0578063248a9ca3146115815780632f2ff15d1461154257806335ef88991461143d57806336568abe146113f657806342842e0e146113c857806344b0ceed146113aa5780634a348da91461138c5780634f558e791461136e57806356cb2462146113465780635c2fa7e4146111c357806360f7f09e146110745780636352211e1461104457806370a0823114610feb578063715018a614610f8e578063731db76714610ed05780638da5cb5b14610ea757806391d1485414610e5a57806395d89b4114610d7b578063a217fddf14610d5f578063a22cb46514610cb4578063b88d4fde14610c49578063b9db15b414610ad4578063bdefd4e4146103e1578063c87b56dd1461038a578063cb3e1fe71461034f578063d547741f1461030e578063e155d6f6146102cf578063e7705db614610294578063e985e9c51461023e5763f2fde38b146101ab57600080fd5b34610239576020366003190112610239576101c461248a565b6101cc61287b565b6001600160a01b0390811690811561022057600754826bffffffffffffffffffffffff60a01b821617600755167f8be0079c531659141344cd1fd0a4f28419497f9722a3daafe3b4186f6b6457e0600080a3005b604051631e4fbdf760e01b815260006004820152602490fd5b600080fd5b346102395760403660031901126102395761025761248a565b61025f6124a0565b9060018060a01b03809116600052600560205260406000209116600052602052602060ff604060002054166040519015158152f35b346102395760003660031901126102395760206040517f0ce23c3e399818cfee81a7ab0880f714e53d7672b08df0fa62f2843416e1ea098152f35b34610239576020366003190112610239576001600160a01b036102f061248a565b16600052600a602052602060ff604060002054166040519015158152f35b346102395760403660031901126102395761034d60043561032d6124a0565b90806000526006602052610348600160406000200154612740565b612804565b005b346102395760003660031901126102395760206040517f8eb467f061ca67f42a2d2ca4a346fc9fb645efc0ba75056ee9f71c3a0ccc10a88152f35b34610239576020366003190112610239576103a6600435612a2d565b5060006040516103b5816124b6565b526103dd6040516103c5816124b6565b60008152604051918291602083526020830190612465565b0390f35b346102395760e0366003190112610239576024356001600160401b03811161023957610411903690600401612544565b6044356001600160401b03811161023957610430903690600401612544565b6064356001600160401b0381116102395761044f903690600401612544565b60a4356001600160401b0381116102395761046e9036906004016126c0565b9260c4356001600160401b0381116102395761048e9036906004016126c0565b3360009081527fe298173fb715fb8b47cba95afe542599cde89075e978203baa0c87bd3333a43960205260409020549091906104cc9060ff16612cf7565b6104df6104da600435612bb7565b612d43565b8451825103610a9657805115610a51576004356000526009602052604060002093600b850154600052600a850160205260406000209342855582516001600160401b038111610786576105356001870154612597565b601f8111610a0a575b50806020601f821160011461099d57600091610992575b508160011b916000199060031b1c19161760018601555b81516001600160401b038111610786576105896002870154612597565b601f811161094b575b50806020601f82116001146108de576000916108d3575b508160011b916000199060031b1c19161760028601555b8051906001600160401b0382116107865781906105e06003880154612597565b601f8111610880575b50602090601f831160011461080e57600092610803575b50508160011b916000199060031b1c19161760038501555b608435600485015560005b865181101561079c576106368185612ccd565b5161065a6020610646848b612ccd565b518160405193828580945193849201612442565b810160058a01815203019020908051906001600160401b038211610786576106828354612597565b601f8111610742575b50602090601f83116001146106d3576106c394939291600091836106c8575b50508160011b916000199060031b1c1916179055612ca8565b610623565b015190508b806106aa565b908360005260206000209160005b601f198516811061072a57509183916001936106c3979695601f19811610610711575b505050811b019055612ca8565b015160001960f88460031b161c191690558b8080610704565b919260206001819286850151815501940192016106e1565b836000526020600020601f840160051c81016020851061077f575b601f830160051c8201811061077357505061068b565b6000815560010161075d565b508061075d565b634e487b7160e01b600052604160045260246000fd5b506107f27fb125a635359523c8c263eceff3818c33f0a52d99e6d765bb6a0b0dc946fee12c9186600b600181830154019101556107e460405194606086526060860190612465565b908482036020860152612465565b9142604082015280600435930390a2005b015190508880610600565b9250600387016000526020600020906000935b601f1984168510610865576001945083601f1981161061084c575b505050811b016003850155610618565b015160001960f88460031b161c1916905588808061083c565b81810151835560209485019460019093019290910190610821565b909150600387016000526020600020601f840160051c8101602085106108cc575b90849392915b601f830160051c820181106108bd5750506105e9565b600081558594506001016108a7565b50806108a1565b9050830151896105a9565b91506002870160005260206000206000925b601f1983168410610933576001935082601f1981161061091a575b5050811b0160028601556105c0565b85015160001960f88460031b161c19169055898061090b565b858101518255602093840193600190920191016108f0565b600287016000526020600020601f830160051c81016020841061098b575b601f830160051c8201811061097f575050610592565b60008155600101610969565b5080610969565b905084015189610555565b91506001870160005260206000206000925b601f19831684106109f2576001935082601f198116106109d9575b5050811b01600186015561056c565b86015160001960f88460031b161c1916905589806109ca565b868101518255602093840193600190920191016109af565b600187016000526020600020601f830160051c810160208410610a4a575b601f830160051c82018110610a3e57505061053e565b60008155600101610a28565b5080610a28565b60405162461bcd60e51b815260206004820152601a60248201527f4576656e7420747970652063616e6e6f7420626520656d7074790000000000006044820152606490fd5b60405162461bcd60e51b8152602060048201526016602482015275082e4e4c2f2e640d8cadccee8d040dad2e6dac2e8c6d60531b6044820152606490fd5b3461023957602036600319011261023957600435610af181612bb7565b610afa90612d43565b600052600960205260406000206002810154906004810154916008820154906009830154600c840154600d85015460ff1691600e86015493610b3b876125d1565b96610b48600182016125d1565b98610b55600383016125d1565b90610b62600584016125d1565b91610b6f600685016125d1565b93600701610b7c906125d1565b946040519c8d9c8d6101e09081815201610b9591612465565b8d810360208f0152610ba691612465565b9060408d01528b810360608d0152610bbd91612465565b9060808b015289810360a08b0152610bd491612465565b88810360c08a0152610be591612465565b87810360e0890152610bf691612465565b9461010087015260ff81161515610120870152600160a01b600190038160081c1661014087015260a81c60ff1615156101608601526101808501526101a08401610c3f91612677565b6101c08301520390f35b3461023957608036600319011261023957610c6261248a565b610c6a6124a0565b90604435606435926001600160401b038411610239573660238501121561023957610ca261034d94369060248160040135910161250d565b92610cae8383836128a7565b33612a68565b3461023957604036600319011261023957610ccd61248a565b610cd561269a565b6001600160a01b03909116908115610d4657336000526005602052604060002082600052602052610d168160406000209060ff801983541691151516179055565b60405190151581527f17307eab39ab6107e8899845ad3d59bd9653f200f220920489ca2b5937696c3160203392a3005b604051630b61174360e31b815260048101839052602490fd5b3461023957600036600319011261023957602060405160008152f35b346102395760003660031901126102395760405160006001805490610d9f82612597565b80855291818116908115610e335750600114610dda575b6103dd84610dc6818603826124d1565b604051918291602083526020830190612465565b600081815292507fb10e2d527612073b26eecdfd717e6a320cf44b4afac2b0732d9fcbe2b7fa0cf65b828410610e1b575050508101602001610dc682610db6565b80546020858701810191909152909301928101610e03565b60ff191660208087019190915292151560051b85019092019250610dc69150839050610db6565b3461023957604036600319011261023957610e736124a0565b600435600052600660205260406000209060018060a01b0316600052602052602060ff604060002054166040519015158152f35b34610239576000366003190112610239576007546040516001600160a01b039091168152602090f35b34610239576040366003190112610239576004356024356004811015610239573360009081527fe298173fb715fb8b47cba95afe542599cde89075e978203baa0c87bd3333a439602052604090819020547fc8bf5df8e37a2cde1ab3af715ff64ba9051cb27fccca8c4751bd0409a1c71fd89290610f509060ff16612cf7565b610f5c6104da85612bb7565b836000526009602052600d826000200160ff1981541660ff8316179055610f8582518092612677565b426020820152a2005b3461023957600036600319011261023957610fa761287b565b600780546001600160a01b031981169091556000906001600160a01b03167f8be0079c531659141344cd1fd0a4f28419497f9722a3daafe3b4186f6b6457e08280a3005b34610239576020366003190112610239576001600160a01b0361100c61248a565b16801561102b5760005260036020526020604060002054604051908152f35b6040516322718ad960e21b815260006004820152602490fd5b34610239576020366003190112610239576020611062600435612a2d565b6040516001600160a01b039091168152f35b346102395760603660031901126102395760043561109061269a565b604435906110a06104da84612bb7565b6110a983612a2d565b336001600160a01b039091160361118c578260005260096020526040600020906110e281600984019060ff801983541691151516179055565b1561116357811561112557817f97a2fd16610057b24c11ef7212218f5c3aea1276a8c3d5f2dc824b5b122b0dfc92600860409301558151908152426020820152a2005b60405162461bcd60e51b81526020600482015260166024820152755072696365206d75737420626520706f73697469766560501b6044820152606490fd5b50507f600fe75b22e3fed1948261ab5f0b5b5f149ce6242e5bf06daf884c2756ed6c83600080a2005b60405162461bcd60e51b815260206004820152600f60248201526e2737ba103a37b5b2b71037bbb732b960891b6044820152606490fd5b3461023957602036600319011261023957600435600052600960205260406000206111ed816125d1565b906111fa600182016125d1565b906002810154926003820161120e906125d1565b60048301549290611221600583016125d1565b9361122e600684016125d1565b9461123b600785016125d1565b95600885015496600986015491600b87015493600c88015495600d89015460ff1697600e8a015499600f015460ff169a6040519e8f9e8f92610220808552840161128491612465565b838103602085015261129591612465565b91604001528d80820390606001526112ac91612465565b9060808d01528b810360a08d01526112c391612465565b8a810360c08c01526112d491612465565b89810360e08b01526112e591612465565b9661010089015260ff81161515610120890152600160a01b600190038160081c1661014089015260a81c60ff1615156101608801526101808701526101a08601526101c0850161133491612677565b6101e084015215156102008301520390f35b34610239576020366003190112610239576020611364600435612c83565b6040519015158152f35b34610239576020366003190112610239576020611364600435612bb7565b34610239576000366003190112610239576020600854604051908152f35b34610239576020366003190112610239576020611364600435612c3b565b346102395761034d6113d936612562565b90604051926113e7846124b6565b60008452610cae8383836128a7565b346102395760403660031901126102395761140f6124a0565b336001600160a01b0382160361142b5761034d90600435612804565b60405163334bd91960e11b8152600490fd5b34610239576020806003193601126102395761145761248a565b90600891825490611467826126a9565b9061147560405192836124d1565b828252601f19611484846126a9565b013685840137600090600195865b858111156114d85786886040519082820192808352606051809452604083019360809160005b8281106114c55785870386f35b83518752958101959281019284016114b8565b6114e181612bb7565b8061151b575b6114fa575b6114f590612ca8565b611492565b92611513818561150d6114f59489612ccd565b52612ca8565b9390506114ec565b5060008181526009808952604090912001546001600160a01b0384811691841c16146114e7565b346102395760403660031901126102395761034d6004356115616124a0565b9080600052600660205261157c600160406000200154612740565b612784565b346102395760203660031901126102395760043560005260066020526020600160406000200154604051908152f35b346102395761034d6115c136612562565b916128a7565b3461023957610160366003190112610239576004356001600160401b038111610239576115f8903690600401612544565b6024356001600160401b03811161023957611617903690600401612544565b6064356001600160401b03811161023957611636903690600401612544565b9060a4356001600160401b03811161023957611656903690600401612544565b9060c4356001600160401b03811161023957611676903690600401612544565b9160e4356001600160401b03811161023957611696903690600401612544565b3360009081527f328940cd107ca3dbe17884adbbb9d81697f5ffcb53586525db9480be8081f2d5602052604090205490919060ff16156121b057855115612174576044351561212f574260843511156120e0576001600854019485600855604051611700816124b6565b6000815233156120c7576000878152600260205260409020546001600160a01b031680151590889082612090575b3360005260036020526040600020600181540190558160005260026020526040600020336bffffffffffffffffffffffff60a01b82541617905533907fddf252ad1be2c89b69c2b068fc378daa952ba7f163c4a11628f55a4df523b3ef600080a461207757333b611f58575b5085600052600960205260406000209387516001600160401b038111610786576117c48654612597565b601f8111611f14575b50806020601f8211600114611eac57600091611ea1575b508160011b916000199060031b1c19161785555b8051906001600160401b0382116107865781906118186001880154612597565b601f8111611e4e575b50602090601f8311600114611ddc57600092611dd1575b50508160011b916000199060031b1c19161760018501555b60443560028501558051906001600160401b0382116107865781906118786003870154612597565b601f8111611d7e575b50602090601f8311600114611d0c57600092611d01575b50508160011b916000199060031b1c19161760038401555b60843560048401558051906001600160401b0382116107865781906118d86005860154612597565b601f8111611cae575b50602090601f8311600114611c3c57600092611c31575b50508160011b916000199060031b1c19161760058301555b82516001600160401b0381116107865761192d6006840154612597565b601f8111611bea575b50806020601f8211600114611b7d57600091611b72575b508160011b916000199060031b1c19161760068301555b805160078301916001600160401b038211610786576119838354612597565b601f8111611b2a575b509160209693918695938890601f8311600114611a96579282611a6a96937f34854a6a88c16fc1b8c8e7ec924a44b14d32b3b126b466a3054b2b636fe48090989693611a8096600092611a8b575b50508160011b916000199060031b1c19161790555b61010435600882015560098101600181546101008260a81b033360081b16906affffffffffffffffffffff60a81b161717905561012435600c8201556001600f600d83019260ff1993838582541617905561014435600e820155019182541617905560405193849333855260808a8601526080850190612465565b9060443560408501528382036060850152612465565b0390a2604051908152f35b015190508c806119da565b90601f19831691846000528a6000209260005b818110611b105750937f34854a6a88c16fc1b8c8e7ec924a44b14d32b3b126b466a3054b2b636fe48090989693611a80969360019383611a6a9b9810611af7575b505050811b0190556119ef565b015160001960f88460031b161c191690558c8080611aea565b8284015185558b9a50600190940193928c01928c01611aa9565b836000526020600020601f840160051c81019160208510611b68575b601f0160051c01905b818110611b5c575061198c565b60008155600101611b4f565b9091508190611b46565b90508401518761194d565b91506006840160005260206000206000925b601f1983168410611bd2576001935082601f19811610611bb9575b5050811b016006830155611964565b86015160001960f88460031b161c191690558780611baa565b86810151825560209384019360019092019101611b8f565b600684016000526020600020601f830160051c810160208410611c2a575b601f830160051c82018110611c1e575050611936565b60008155600101611c08565b5080611c08565b0151905087806118f8565b9250600585016000526020600020906000935b601f1984168510611c93576001945083601f19811610611c7a575b505050811b016005830155611910565b015160001960f88460031b161c19169055878080611c6a565b81810151835560209485019460019093019290910190611c4f565b909150600585016000526020600020601f840160051c810160208510611cfa575b90849392915b601f830160051c82018110611ceb5750506118e1565b60008155859450600101611cd5565b5080611ccf565b015190508880611898565b9250600386016000526020600020906000935b601f1984168510611d63576001945083601f19811610611d4a575b505050811b0160038401556118b0565b015160001960f88460031b161c19169055888080611d3a565b81810151835560209485019460019093019290910190611d1f565b909150600386016000526020600020601f840160051c810160208510611dca575b90849392915b601f830160051c82018110611dbb575050611881565b60008155859450600101611da5565b5080611d9f565b015190508980611838565b9250600187016000526020600020906000935b601f1984168510611e33576001945083601f19811610611e1a575b505050811b016001850155611850565b015160001960f88460031b161c19169055898080611e0a565b81810151835560209485019460019093019290910190611def565b909150600187016000526020600020601f840160051c810160208510611e9a575b90849392915b601f830160051c82018110611e8b575050611821565b60008155859450600101611e75565b5080611e6f565b90508901518a6117e4565b91508660005260206000206000925b8b601f1984168510611efd57506001935082601f19811610611ee4575b5050811b0185556117f8565b8b015160001960f88460031b161c191690558a80611ed8565b810151825560209384019360019092019101611ebb565b866000526020600020601f830160051c810160208410611f51575b601f830160051c82018110611f455750506117cd565b60008155600101611f2f565b5080611f2f565b6020611f939160405180938192630a85bd0160e11b8352336004840152600060248401528b6044840152608060648401526084830190612465565b03816000335af160009181612032575b50611ffd573d15611ff6573d611fb8816124f2565b90611fc660405192836124d1565b81523d6000602083013e5b80519081611ff157604051633250574960e11b8152336004820152602490fd5b602001fd5b6060611fd1565b6001600160e01b03191663757a42ff60e11b0161201a578761179a565b604051633250574960e11b8152336004820152602490fd5b9091506020813d60201161206f575b8161204e602093836124d1565b8101031261023957516001600160e01b031981168103610239579089611fa3565b3d9150612041565b6040516339e3563760e11b815260006004820152602490fd5b600082815260046020526040902080546001600160a01b03191690558060005260036020526040600020600019815401905561172e565b604051633250574960e11b815260006004820152602490fd5b60405162461bcd60e51b815260206004820152602160248201527f4578706972792064617465206d75737420626520696e207468652066757475726044820152606560f81b6064820152608490fd5b60405162461bcd60e51b815260206004820152601960248201527f5175616e74697479206d75737420626520706f736974697665000000000000006044820152606490fd5b60405162461bcd60e51b81526020600482015260146024820152734e616d652063616e6e6f7420626520656d70747960601b6044820152606490fd5b60405162461bcd60e51b815260206004820152601760248201527f4d75737420686176652070726f647563657220726f6c650000000000000000006044820152606490fd5b346102395760403660031901126102395761220e61248a565b60243561221a81612a2d565b331515806122c9575b8061229c575b612284576001600160a01b039283169282918491167f8c5be1e5ebec7d5bd14f71427d1e84f3dd0314c0f7b2291e5b200ac8c7c3b925600080a4600090815260046020526040902080546001600160a01b0319169091179055005b60405163a9fbf51f60e01b8152336004820152602490fd5b5060018060a01b038116600052600560205260406000203360005260205260ff6040600020541615612229565b506001600160a01b038116331415612223565b34610239576020366003190112610239576004356122f981612a2d565b506000526004602052602060018060a01b0360406000205416604051908152f35b34610239576000366003190112610239576040516000805461233b81612597565b80845290600190818116908115610e335750600114612364576103dd84610dc6818603826124d1565b600080805292507f290decd9548b62a8d60345a988386fc84ba6bc95484008f6362f93160ef3e5635b8284106123a5575050508101602001610dc682610db6565b8054602085870181019190915290930192810161238d565b34610239576020366003190112610239576004359063ffffffff60e01b821680920361023957602091637965db0b60e01b81149081156123ff575b5015158152f35b6380ac58cd60e01b811491508115612431575b8115612420575b50836123f8565b6301ffc9a760e01b14905083612419565b635b5e139f60e01b81149150612412565b60005b8381106124555750506000910152565b8181015183820152602001612445565b9060209161247e81518092818552858086019101612442565b601f01601f1916010190565b600435906001600160a01b038216820361023957565b602435906001600160a01b038216820361023957565b602081019081106001600160401b0382111761078657604052565b90601f801991011681019081106001600160401b0382111761078657604052565b6001600160401b03811161078657601f01601f191660200190565b929192612519826124f2565b9161252760405193846124d1565b829481845281830111610239578281602093846000960137010152565b9080601f830112156102395781602061255f9335910161250d565b90565b6060906003190112610239576001600160a01b0390600435828116810361023957916024359081168103610239579060443590565b90600182811c921680156125c7575b60208310146125b157565b634e487b7160e01b600052602260045260246000fd5b91607f16916125a6565b90604051918260008254926125e584612597565b9081845260019485811690816000146126545750600114612611575b505061260f925003836124d1565b565b9093915060005260209081600020936000915b81831061263c57505061260f93508201013880612601565b85548884018501529485019487945091830191612624565b91505061260f94506020925060ff191682840152151560051b8201013880612601565b9060048210156126845752565b634e487b7160e01b600052602160045260246000fd5b60243590811515820361023957565b6001600160401b0381116107865760051b60200190565b9080601f83011215610239578135906126d8826126a9565b926126e660405194856124d1565b828452602092838086019160051b8301019280841161023957848301915b8483106127145750505050505090565b82356001600160401b03811161023957869161273584848094890101612544565b815201920191612704565b80600052600660205260406000203360005260205260ff60406000205416156127665750565b6044906040519063e2517d3f60e01b82523360048301526024820152fd5b906000918083526006602052604083209160018060a01b03169182845260205260ff604084205416156000146127ff5780835260066020526040832082845260205260408320600160ff198254161790557f2f8788117e7eff1d82e926ec794901d17c78024a50270940304540a733656f0d339380a4600190565b505090565b906000918083526006602052604083209160018060a01b03169182845260205260ff6040842054166000146127ff578083526006602052604083208284526020526040832060ff1981541690557ff6391f5c32d9c69d2a47ea670b442974b53935d1edc7fd64eb21e047a839171b339380a4600190565b6007546001600160a01b0316330361288f57565b60405163118cdaa760e01b8152336004820152602490fd5b6001600160a01b0391821692909183156120c757600092828452826020956002875260409684888820541696879133151580612997575b509060027fddf252ad1be2c89b69c2b068fc378daa952ba7f163c4a11628f55a4df523b3ef9284612964575b858352600381528b8320805460010190558683525289812080546001600160a01b0319168517905580a416928383036129435750505050565b6064945051926364283d7b60e01b8452600484015260248301526044820152fd5b600087815260046020526040902080546001600160a01b0319169055848352600381528b8320805460001901905561290a565b919394509150806129ec575b156129b3578592918791386128de565b8786886129d0576024915190637e27328960e01b82526004820152fd5b604491519063177e802f60e01b82523360048301526024820152fd5b503387148015612a11575b806129a357508582526004815233858984205416146129a3565b5086825260058152878220338352815260ff88832054166129f7565b6000818152600260205260409020546001600160a01b0316908115612a50575090565b60249060405190637e27328960e01b82526004820152fd5b909192833b612a79575b5050505050565b604051630a85bd0160e11b8082526001600160a01b039384166004830152938316602482015260448101919091526080606482015260209591909316939091908390612ac9906084830190612465565b039285816000958187895af1849181612b73575b50612b3d575050503d600014612b35573d612af7816124f2565b90612b0560405192836124d1565b81528091843d92013e5b80519283612b3057604051633250574960e11b815260048101849052602490fd5b019050fd5b506060612b0f565b919450915063ffffffff60e01b1603612b5b57503880808080612a72565b60249060405190633250574960e11b82526004820152fd5b9091508681813d8311612bb0575b612b8b81836124d1565b81010312612bac57516001600160e01b031981168103612bac579038612add565b8480fd5b503d612b81565b6040516331a9108f60e11b815260048101829052602081602481305afa9081612bfd575b50612be65750600090565b600052600960205260ff600f604060002001541690565b6020813d8211612c33575b81612c15602093836124d1565b8101031261023957516001600160a01b038116036102395738612bdb565b3d9150612c08565b612c4481612bb7565b15612c7d576000526009602052604060002060018060a01b03600982015460081c1615159081612c72575090565b600491500154421090565b50600090565b612c8c81612bb7565b15612c7d57600052600960205260ff6009604060002001541690565b6000198114612cb75760010190565b634e487b7160e01b600052601160045260246000fd5b8051821015612ce15760209160051b010190565b634e487b7160e01b600052603260045260246000fd5b15612cfe57565b60405162461bcd60e51b815260206004820152601760248201527f4d757374206861766520766572696669657220726f6c650000000000000000006044820152606490fd5b15612d4a57565b60405162461bcd60e51b8152602060048201526014602482015273151bdad95b88191bd95cc81b9bdd08195e1a5cdd60621b6044820152606490fdfea264697066735822122078f140b45e99f11e2332e380180e0dfa660e4cb3c777891ce94f40e0f62efae064736f6c63430008140033","opcodes":"PUSH1 0x80 CALLVALUE PUSH3 0x3A1 JUMPI PUSH1 0x40 SWAP1 PUSH1 0x1 PUSH1 0x1 PUSH1 0x40 SHL SUB DUP2 DUP4 ADD DUP2 DUP2 GT DUP4 DUP3 LT OR PUSH3 0x38B JUMPI DUP4 MSTORE PUSH1 0x7 DUP3 MSTORE PUSH1 0x20 SWAP2 PUSH7 0x14DD5C999BDBD9 PUSH1 0xCA SHL DUP4 DUP3 ADD MSTORE DUP4 MLOAD SWAP2 DUP5 DUP4 ADD DUP4 DUP2 LT DUP3 DUP3 GT OR PUSH3 0x38B JUMPI DUP6 MSTORE PUSH1 0x4 SWAP3 DUP4 DUP2 MSTORE PUSH4 0x1193D3D1 PUSH1 0xE2 SHL DUP6 DUP3 ADD MSTORE DUP3 MLOAD SWAP1 DUP3 DUP3 GT PUSH3 0x376 JUMPI PUSH1 0x0 SWAP6 DUP7 SLOAD SWAP3 PUSH1 0x1 SWAP6 DUP7 DUP6 DUP2 SHR SWAP6 AND DUP1 ISZERO PUSH3 0x36B JUMPI JUMPDEST DUP4 DUP7 LT EQ PUSH3 0x358 JUMPI DUP2 SWAP1 PUSH1 0x1F SWAP6 DUP7 DUP2 GT PUSH3 0x305 JUMPI JUMPDEST POP DUP4 SWAP1 DUP7 DUP4 GT PUSH1 0x1 EQ PUSH3 0x2A1 JUMPI DUP11 SWAP3 PUSH3 0x295 JUMPI JUMPDEST POP POP PUSH1 0x0 NOT PUSH1 0x3 DUP4 SWAP1 SHL SHR NOT AND SWAP1 DUP7 SHL OR DUP8 SSTORE JUMPDEST DUP2 MLOAD SWAP4 DUP5 GT PUSH3 0x282 JUMPI DUP5 SLOAD DUP6 DUP2 DUP2 SHR SWAP2 AND DUP1 ISZERO PUSH3 0x277 JUMPI JUMPDEST DUP3 DUP3 LT EQ PUSH3 0x264 JUMPI SWAP1 DUP2 DUP5 DUP7 SWAP6 SWAP5 SWAP4 GT PUSH3 0x20D JUMPI JUMPDEST POP DUP1 SWAP3 DUP5 GT PUSH1 0x1 EQ PUSH3 0x1A5 JUMPI POP DUP7 SWAP3 PUSH3 0x199 JUMPI JUMPDEST POP POP PUSH1 0x0 NOT PUSH1 0x3 DUP4 SWAP1 SHL SHR NOT AND SWAP1 DUP3 SHL OR SWAP1 SSTORE JUMPDEST CALLER ISZERO PUSH3 0x184 JUMPI POP PUSH1 0x7 DUP1 SLOAD CALLER PUSH1 0x1 PUSH1 0x1 PUSH1 0xA0 SHL SUB NOT DUP3 AND DUP2 OR SWAP1 SWAP3 SSTORE PUSH1 0x1 PUSH1 0x1 PUSH1 0xA0 SHL SUB AND PUSH32 0x8BE0079C531659141344CD1FD0A4F28419497F9722A3DAAFE3B4186F6B6457E0 DUP4 DUP1 LOG3 PUSH3 0x172 CALLER PUSH3 0x3A6 JUMP JUMPDEST POP PUSH1 0x8 SSTORE MLOAD PUSH2 0x2DBC SWAP1 DUP2 PUSH3 0x439 DUP3 CODECOPY RETURN JUMPDEST SWAP2 MLOAD PUSH4 0x1E4FBDF7 PUSH1 0xE0 SHL DUP2 MSTORE SWAP2 DUP3 ADD MSTORE PUSH1 0x24 SWAP1 REVERT JUMPDEST ADD MLOAD SWAP1 POP CODESIZE DUP1 PUSH3 0x109 JUMP JUMPDEST SWAP2 SWAP1 DUP6 SWAP5 POP PUSH1 0x1F NOT DUP5 AND DUP6 DUP10 MSTORE DUP4 DUP10 KECCAK256 SWAP4 DUP10 SWAP1 JUMPDEST DUP3 DUP3 LT PUSH3 0x1F3 JUMPI POP POP DUP5 GT PUSH3 0x1D9 JUMPI JUMPDEST POP POP POP DUP2 SHL ADD SWAP1 SSTORE PUSH3 0x11D JUMP JUMPDEST ADD MLOAD PUSH1 0x0 NOT PUSH1 0xF8 DUP5 PUSH1 0x3 SHL AND SHR NOT AND SWAP1 SSTORE CODESIZE DUP1 DUP1 PUSH3 0x1CB JUMP JUMPDEST DUP5 DUP5 ADD MLOAD DUP7 SSTORE DUP9 SWAP8 SWAP1 SWAP6 ADD SWAP5 SWAP4 DUP5 ADD SWAP4 SWAP1 DUP2 ADD SWAP1 PUSH3 0x1B9 JUMP JUMPDEST SWAP1 SWAP2 SWAP3 SWAP4 POP DUP6 DUP9 MSTORE DUP2 DUP9 KECCAK256 DUP5 DUP1 DUP8 ADD PUSH1 0x5 SHR DUP3 ADD SWAP3 DUP5 DUP9 LT PUSH3 0x25A JUMPI JUMPDEST SWAP2 DUP8 SWAP7 DUP10 SWAP3 SWAP7 SWAP6 SWAP5 SWAP4 ADD PUSH1 0x5 SHR ADD SWAP2 JUMPDEST DUP3 DUP2 LT PUSH3 0x24B JUMPI POP POP PUSH3 0xF3 JUMP JUMPDEST DUP11 DUP2 SSTORE DUP8 SWAP7 POP DUP9 SWAP2 ADD PUSH3 0x23B JUMP JUMPDEST SWAP3 POP DUP2 SWAP3 PUSH3 0x22B JUMP JUMPDEST PUSH4 0x4E487B71 PUSH1 0xE0 SHL DUP9 MSTORE PUSH1 0x22 DUP8 MSTORE PUSH1 0x24 DUP9 REVERT JUMPDEST SWAP1 PUSH1 0x7F AND SWAP1 PUSH3 0xDC JUMP JUMPDEST PUSH4 0x4E487B71 PUSH1 0xE0 SHL DUP8 MSTORE PUSH1 0x41 DUP7 MSTORE PUSH1 0x24 DUP8 REVERT JUMPDEST ADD MLOAD SWAP1 POP CODESIZE DUP1 PUSH3 0xAE JUMP JUMPDEST DUP11 DUP1 MSTORE DUP5 DUP12 KECCAK256 DUP10 SWAP5 POP SWAP2 SWAP1 PUSH1 0x1F NOT DUP5 AND DUP13 JUMPDEST DUP8 DUP3 DUP3 LT PUSH3 0x2EE JUMPI POP POP DUP5 GT PUSH3 0x2D4 JUMPI JUMPDEST POP POP POP DUP2 SHL ADD DUP8 SSTORE PUSH3 0xC2 JUMP JUMPDEST ADD MLOAD PUSH1 0x0 NOT PUSH1 0xF8 DUP5 PUSH1 0x3 SHL AND SHR NOT AND SWAP1 SSTORE CODESIZE DUP1 DUP1 PUSH3 0x2C6 JUMP JUMPDEST DUP4 DUP6 ADD MLOAD DUP7 SSTORE DUP13 SWAP8 SWAP1 SWAP6 ADD SWAP5 SWAP4 DUP5 ADD SWAP4 ADD PUSH3 0x2B3 JUMP JUMPDEST SWAP1 SWAP2 POP DUP10 DUP1 MSTORE DUP4 DUP11 KECCAK256 DUP7 DUP1 DUP6 ADD PUSH1 0x5 SHR DUP3 ADD SWAP3 DUP7 DUP7 LT PUSH3 0x34E JUMPI JUMPDEST SWAP2 DUP11 SWAP2 DUP7 SWAP6 SWAP5 SWAP4 ADD PUSH1 0x5 SHR ADD SWAP2 JUMPDEST DUP3 DUP2 LT PUSH3 0x33F JUMPI POP POP PUSH3 0x98 JUMP JUMPDEST DUP13 DUP2 SSTORE DUP6 SWAP5 POP DUP11 SWAP2 ADD PUSH3 0x32F JUMP JUMPDEST SWAP3 POP DUP2 SWAP3 PUSH3 0x321 JUMP JUMPDEST PUSH4 0x4E487B71 PUSH1 0xE0 SHL DUP10 MSTORE PUSH1 0x22 DUP9 MSTORE PUSH1 0x24 DUP10 REVERT JUMPDEST SWAP5 PUSH1 0x7F AND SWAP5 PUSH3 0x81 JUMP JUMPDEST PUSH1 0x41 DUP6 PUSH4 0x4E487B71 PUSH1 0xE0 SHL PUSH1 0x0 MSTORE MSTORE PUSH1 0x24 PUSH1 0x0 REVERT JUMPDEST PUSH4 0x4E487B71 PUSH1 0xE0 SHL PUSH1 0x0 MSTORE PUSH1 0x41 PUSH1 0x4 MSTORE PUSH1 0x24 PUSH1 0x0 REVERT JUMPDEST PUSH1 0x0 DUP1 REVERT JUMPDEST PUSH1 0x1 PUSH1 0x1 PUSH1 0xA0 SHL SUB AND PUSH1 0x0 DUP2 DUP2 MSTORE PUSH32 0x54CDD369E4E8A8515E52CA72EC816C2101831AD1F18BF44102ED171459C9B4F8 PUSH1 0x20 MSTORE PUSH1 0x40 DUP2 KECCAK256 SLOAD SWAP1 SWAP2 SWAP1 PUSH1 0xFF AND PUSH3 0x434 JUMPI DUP2 DUP1 MSTORE PUSH1 0x6 PUSH1 0x20 MSTORE PUSH1 0x40 DUP3 KECCAK256 DUP2 DUP4 MSTORE PUSH1 0x20 MSTORE PUSH1 0x40 DUP3 KECCAK256 PUSH1 0x1 PUSH1 0xFF NOT DUP3 SLOAD AND OR SWAP1 SSTORE CALLER SWAP2 PUSH32 0x2F8788117E7EFF1D82E926EC794901D17C78024A50270940304540A733656F0D DUP2 DUP1 LOG4 PUSH1 0x1 SWAP1 JUMP JUMPDEST POP SWAP1 JUMP INVALID PUSH1 0x80 DUP1 PUSH1 0x40 MSTORE PUSH1 0x4 CALLDATASIZE LT ISZERO PUSH2 0x13 JUMPI PUSH1 0x0 DUP1 REVERT JUMPDEST PUSH1 0x0 CALLDATALOAD PUSH1 0xE0 SHR SWAP1 DUP2 PUSH4 0x1FFC9A7 EQ PUSH2 0x23BD JUMPI POP DUP1 PUSH4 0x6FDDE03 EQ PUSH2 0x231A JUMPI DUP1 PUSH4 0x81812FC EQ PUSH2 0x22DC JUMPI DUP1 PUSH4 0x95EA7B3 EQ PUSH2 0x21F5 JUMPI DUP1 PUSH4 0x1BF9826A EQ PUSH2 0x15C7 JUMPI DUP1 PUSH4 0x23B872DD EQ PUSH2 0x15B0 JUMPI DUP1 PUSH4 0x248A9CA3 EQ PUSH2 0x1581 JUMPI DUP1 PUSH4 0x2F2FF15D EQ PUSH2 0x1542 JUMPI DUP1 PUSH4 0x35EF8899 EQ PUSH2 0x143D JUMPI DUP1 PUSH4 0x36568ABE EQ PUSH2 0x13F6 JUMPI DUP1 PUSH4 0x42842E0E EQ PUSH2 0x13C8 JUMPI DUP1 PUSH4 0x44B0CEED EQ PUSH2 0x13AA JUMPI DUP1 PUSH4 0x4A348DA9 EQ PUSH2 0x138C JUMPI DUP1 PUSH4 0x4F558E79 EQ PUSH2 0x136E JUMPI DUP1 PUSH4 0x56CB2462 EQ PUSH2 0x1346 JUMPI DUP1 PUSH4 0x5C2FA7E4 EQ PUSH2 0x11C3 JUMPI DUP1 PUSH4 0x60F7F09E EQ PUSH2 0x1074 JUMPI DUP1 PUSH4 0x6352211E EQ PUSH2 0x1044 JUMPI DUP1 PUSH4 0x70A08231 EQ PUSH2 0xFEB JUMPI DUP1 PUSH4 0x715018A6 EQ PUSH2 0xF8E JUMPI DUP1 PUSH4 0x731DB767 EQ PUSH2 0xED0 JUMPI DUP1 PUSH4 0x8DA5CB5B EQ PUSH2 0xEA7 JUMPI DUP1 PUSH4 0x91D14854 EQ PUSH2 0xE5A JUMPI DUP1 PUSH4 0x95D89B41 EQ PUSH2 0xD7B JUMPI DUP1 PUSH4 0xA217FDDF EQ PUSH2 0xD5F JUMPI DUP1 PUSH4 0xA22CB465 EQ PUSH2 0xCB4 JUMPI DUP1 PUSH4 0xB88D4FDE EQ PUSH2 0xC49 JUMPI DUP1 PUSH4 0xB9DB15B4 EQ PUSH2 0xAD4 JUMPI DUP1 PUSH4 0xBDEFD4E4 EQ PUSH2 0x3E1 JUMPI DUP1 PUSH4 0xC87B56DD EQ PUSH2 0x38A JUMPI DUP1 PUSH4 0xCB3E1FE7 EQ PUSH2 0x34F JUMPI DUP1 PUSH4 0xD547741F EQ PUSH2 0x30E JUMPI DUP1 PUSH4 0xE155D6F6 EQ PUSH2 0x2CF JUMPI DUP1 PUSH4 0xE7705DB6 EQ PUSH2 0x294 JUMPI DUP1 PUSH4 0xE985E9C5 EQ PUSH2 0x23E JUMPI PUSH4 0xF2FDE38B EQ PUSH2 0x1AB JUMPI PUSH1 0x0 DUP1 REVERT JUMPDEST CALLVALUE PUSH2 0x239 JUMPI PUSH1 0x20 CALLDATASIZE PUSH1 0x3 NOT ADD SLT PUSH2 0x239 JUMPI PUSH2 0x1C4 PUSH2 0x248A JUMP JUMPDEST PUSH2 0x1CC PUSH2 0x287B JUMP JUMPDEST PUSH1 0x1 PUSH1 0x1 PUSH1 0xA0 SHL SUB SWAP1 DUP2 AND SWAP1 DUP2 ISZERO PUSH2 0x220 JUMPI PUSH1 0x7 SLOAD DUP3 PUSH12 0xFFFFFFFFFFFFFFFFFFFFFFFF PUSH1 0xA0 SHL DUP3 AND OR PUSH1 0x7 SSTORE AND PUSH32 0x8BE0079C531659141344CD1FD0A4F28419497F9722A3DAAFE3B4186F6B6457E0 PUSH1 0x0 DUP1 LOG3 STOP JUMPDEST PUSH1 0x40 MLOAD PUSH4 0x1E4FBDF7 PUSH1 0xE0 SHL DUP2 MSTORE PUSH1 0x0 PUSH1 0x4 DUP3 ADD MSTORE PUSH1 0x24 SWAP1 REVERT JUMPDEST PUSH1 0x0 DUP1 REVERT JUMPDEST CALLVALUE PUSH2 0x239 JUMPI PUSH1 0x40 CALLDATASIZE PUSH1 0x3 NOT ADD SLT PUSH2 0x239 JUMPI PUSH2 0x257 PUSH2 0x248A JUMP JUMPDEST PUSH2 0x25F PUSH2 0x24A0 JUMP JUMPDEST SWAP1 PUSH1 0x1 DUP1 PUSH1 0xA0 SHL SUB DUP1 SWAP2 AND PUSH1 0x0 MSTORE PUSH1 0x5 PUSH1 0x20 MSTORE PUSH1 0x40 PUSH1 0x0 KECCAK256 SWAP2 AND PUSH1 0x0 MSTORE PUSH1 0x20 MSTORE PUSH1 0x20 PUSH1 0xFF PUSH1 0x40 PUSH1 0x0 KECCAK256 SLOAD AND PUSH1 0x40 MLOAD SWAP1 ISZERO ISZERO DUP2 MSTORE RETURN JUMPDEST CALLVALUE PUSH2 0x239 JUMPI PUSH1 0x0 CALLDATASIZE PUSH1 0x3 NOT ADD SLT PUSH2 0x239 JUMPI PUSH1 0x20 PUSH1 0x40 MLOAD PUSH32 0xCE23C3E399818CFEE81A7AB0880F714E53D7672B08DF0FA62F2843416E1EA09 DUP2 MSTORE RETURN JUMPDEST CALLVALUE PUSH2 0x239 JUMPI PUSH1 0x20 CALLDATASIZE PUSH1 0x3 NOT ADD SLT PUSH2 0x239 JUMPI PUSH1 0x1 PUSH1 0x1 PUSH1 0xA0 SHL SUB PUSH2 0x2F0 PUSH2 0x248A JUMP JUMPDEST AND PUSH1 0x0 MSTORE PUSH1 0xA PUSH1 0x20 MSTORE PUSH1 0x20 PUSH1 0xFF PUSH1 0x40 PUSH1 0x0 KECCAK256 SLOAD AND PUSH1 0x40 MLOAD SWAP1 ISZERO ISZERO DUP2 MSTORE RETURN JUMPDEST CALLVALUE PUSH2 0x239 JUMPI PUSH1 0x40 CALLDATASIZE PUSH1 0x3 NOT ADD SLT PUSH2 0x239 JUMPI PUSH2 0x34D PUSH1 0x4 CALLDATALOAD PUSH2 0x32D PUSH2 0x24A0 JUMP JUMPDEST SWAP1 DUP1 PUSH1 0x0 MSTORE PUSH1 0x6 PUSH1 0x20 MSTORE PUSH2 0x348 PUSH1 0x1 PUSH1 0x40 PUSH1 0x0 KECCAK256 ADD SLOAD PUSH2 0x2740 JUMP JUMPDEST PUSH2 0x2804 JUMP JUMPDEST STOP JUMPDEST CALLVALUE PUSH2 0x239 JUMPI PUSH1 0x0 CALLDATASIZE PUSH1 0x3 NOT ADD SLT PUSH2 0x239 JUMPI PUSH1 0x20 PUSH1 0x40 MLOAD PUSH32 0x8EB467F061CA67F42A2D2CA4A346FC9FB645EFC0BA75056EE9F71C3A0CCC10A8 DUP2 MSTORE RETURN JUMPDEST CALLVALUE PUSH2 0x239 JUMPI PUSH1 0x20 CALLDATASIZE PUSH1 0x3 NOT ADD SLT PUSH2 0x239 JUMPI PUSH2 0x3A6 PUSH1 0x4 CALLDATALOAD PUSH2 0x2A2D JUMP JUMPDEST POP PUSH1 0x0 PUSH1 0x40 MLOAD PUSH2 0x3B5 DUP2 PUSH2 0x24B6 JUMP JUMPDEST MSTORE PUSH2 0x3DD PUSH1 0x40 MLOAD PUSH2 0x3C5 DUP2 PUSH2 0x24B6 JUMP JUMPDEST PUSH1 0x0 DUP2 MSTORE PUSH1 0x40 MLOAD SWAP2 DUP3 SWAP2 PUSH1 0x20 DUP4 MSTORE PUSH1 0x20 DUP4 ADD SWAP1 PUSH2 0x2465 JUMP JUMPDEST SUB SWAP1 RETURN JUMPDEST CALLVALUE PUSH2 0x239 JUMPI PUSH1 0xE0 CALLDATASIZE PUSH1 0x3 NOT ADD SLT PUSH2 0x239 JUMPI PUSH1 0x24 CALLDATALOAD PUSH1 0x1 PUSH1 0x1 PUSH1 0x40 SHL SUB DUP2 GT PUSH2 0x239 JUMPI PUSH2 0x411 SWAP1 CALLDATASIZE SWAP1 PUSH1 0x4 ADD PUSH2 0x2544 JUMP JUMPDEST PUSH1 0x44 CALLDATALOAD PUSH1 0x1 PUSH1 0x1 PUSH1 0x40 SHL SUB DUP2 GT PUSH2 0x239 JUMPI PUSH2 0x430 SWAP1 CALLDATASIZE SWAP1 PUSH1 0x4 ADD PUSH2 0x2544 JUMP JUMPDEST PUSH1 0x64 CALLDATALOAD PUSH1 0x1 PUSH1 0x1 PUSH1 0x40 SHL SUB DUP2 GT PUSH2 0x239 JUMPI PUSH2 0x44F SWAP1 CALLDATASIZE SWAP1 PUSH1 0x4 ADD PUSH2 0x2544 JUMP JUMPDEST PUSH1 0xA4 CALLDATALOAD PUSH1 0x1 PUSH1 0x1 PUSH1 0x40 SHL SUB DUP2 GT PUSH2 0x239 JUMPI PUSH2 0x46E SWAP1 CALLDATASIZE SWAP1 PUSH1 0x4 ADD PUSH2 0x26C0 JUMP JUMPDEST SWAP3 PUSH1 0xC4 CALLDATALOAD PUSH1 0x1 PUSH1 0x1 PUSH1 0x40 SHL SUB DUP2 GT PUSH2 0x239 JUMPI PUSH2 0x48E SWAP1 CALLDATASIZE SWAP1 PUSH1 0x4 ADD PUSH2 0x26C0 JUMP JUMPDEST CALLER PUSH1 0x0 SWAP1 DUP2 MSTORE PUSH32 0xE298173FB715FB8B47CBA95AFE542599CDE89075E978203BAA0C87BD3333A439 PUSH1 0x20 MSTORE PUSH1 0x40 SWAP1 KECCAK256 SLOAD SWAP1 SWAP2 SWAP1 PUSH2 0x4CC SWAP1 PUSH1 0xFF AND PUSH2 0x2CF7 JUMP JUMPDEST PUSH2 0x4DF PUSH2 0x4DA PUSH1 0x4 CALLDATALOAD PUSH2 0x2BB7 JUMP JUMPDEST PUSH2 0x2D43 JUMP JUMPDEST DUP5 MLOAD DUP3 MLOAD SUB PUSH2 0xA96 JUMPI DUP1 MLOAD ISZERO PUSH2 0xA51 JUMPI PUSH1 0x4 CALLDATALOAD PUSH1 0x0 MSTORE PUSH1 0x9 PUSH1 0x20 MSTORE PUSH1 0x40 PUSH1 0x0 KECCAK256 SWAP4 PUSH1 0xB DUP6 ADD SLOAD PUSH1 0x0 MSTORE PUSH1 0xA DUP6 ADD PUSH1 0x20 MSTORE PUSH1 0x40 PUSH1 0x0 KECCAK256 SWAP4 TIMESTAMP DUP6 SSTORE DUP3 MLOAD PUSH1 0x1 PUSH1 0x1 PUSH1 0x40 SHL SUB DUP2 GT PUSH2 0x786 JUMPI PUSH2 0x535 PUSH1 0x1 DUP8 ADD SLOAD PUSH2 0x2597 JUMP JUMPDEST PUSH1 0x1F DUP2 GT PUSH2 0xA0A JUMPI JUMPDEST POP DUP1 PUSH1 0x20 PUSH1 0x1F DUP3 GT PUSH1 0x1 EQ PUSH2 0x99D JUMPI PUSH1 0x0 SWAP2 PUSH2 0x992 JUMPI JUMPDEST POP DUP2 PUSH1 0x1 SHL SWAP2 PUSH1 0x0 NOT SWAP1 PUSH1 0x3 SHL SHR NOT AND OR PUSH1 0x1 DUP7 ADD SSTORE JUMPDEST DUP2 MLOAD PUSH1 0x1 PUSH1 0x1 PUSH1 0x40 SHL SUB DUP2 GT PUSH2 0x786 JUMPI PUSH2 0x589 PUSH1 0x2 DUP8 ADD SLOAD PUSH2 0x2597 JUMP JUMPDEST PUSH1 0x1F DUP2 GT PUSH2 0x94B JUMPI JUMPDEST POP DUP1 PUSH1 0x20 PUSH1 0x1F DUP3 GT PUSH1 0x1 EQ PUSH2 0x8DE JUMPI PUSH1 0x0 SWAP2 PUSH2 0x8D3 JUMPI JUMPDEST POP DUP2 PUSH1 0x1 SHL SWAP2 PUSH1 0x0 NOT SWAP1 PUSH1 0x3 SHL SHR NOT AND OR PUSH1 0x2 DUP7 ADD SSTORE JUMPDEST DUP1 MLOAD SWAP1 PUSH1 0x1 PUSH1 0x1 PUSH1 0x40 SHL SUB DUP3 GT PUSH2 0x786 JUMPI DUP2 SWAP1 PUSH2 0x5E0 PUSH1 0x3 DUP9 ADD SLOAD PUSH2 0x2597 JUMP JUMPDEST PUSH1 0x1F DUP2 GT PUSH2 0x880 JUMPI JUMPDEST POP PUSH1 0x20 SWAP1 PUSH1 0x1F DUP4 GT PUSH1 0x1 EQ PUSH2 0x80E JUMPI PUSH1 0x0 SWAP3 PUSH2 0x803 JUMPI JUMPDEST POP POP DUP2 PUSH1 0x1 SHL SWAP2 PUSH1 0x0 NOT SWAP1 PUSH1 0x3 SHL SHR NOT AND OR PUSH1 0x3 DUP6 ADD SSTORE JUMPDEST PUSH1 0x84 CALLDATALOAD PUSH1 0x4 DUP6 ADD SSTORE PUSH1 0x0 JUMPDEST DUP7 MLOAD DUP2 LT ISZERO PUSH2 0x79C JUMPI PUSH2 0x636 DUP2 DUP6 PUSH2 0x2CCD JUMP JUMPDEST MLOAD PUSH2 0x65A PUSH1 0x20 PUSH2 0x646 DUP5 DUP12 PUSH2 0x2CCD JUMP JUMPDEST MLOAD DUP2 PUSH1 0x40 MLOAD SWAP4 DUP3 DUP6 DUP1 SWAP5 MLOAD SWAP4 DUP5 SWAP3 ADD PUSH2 0x2442 JUMP JUMPDEST DUP2 ADD PUSH1 0x5 DUP11 ADD DUP2 MSTORE SUB ADD SWAP1 KECCAK256 SWAP1 DUP1 MLOAD SWAP1 PUSH1 0x1 PUSH1 0x1 PUSH1 0x40 SHL SUB DUP3 GT PUSH2 0x786 JUMPI PUSH2 0x682 DUP4 SLOAD PUSH2 0x2597 JUMP JUMPDEST PUSH1 0x1F DUP2 GT PUSH2 0x742 JUMPI JUMPDEST POP PUSH1 0x20 SWAP1 PUSH1 0x1F DUP4 GT PUSH1 0x1 EQ PUSH2 0x6D3 JUMPI PUSH2 0x6C3 SWAP5 SWAP4 SWAP3 SWAP2 PUSH1 0x0 SWAP2 DUP4 PUSH2 0x6C8 JUMPI JUMPDEST POP POP DUP2 PUSH1 0x1 SHL SWAP2 PUSH1 0x0 NOT SWAP1 PUSH1 0x3 SHL SHR NOT AND OR SWAP1 SSTORE PUSH2 0x2CA8 JUMP JUMPDEST PUSH2 0x623 JUMP JUMPDEST ADD MLOAD SWAP1 POP DUP12 DUP1 PUSH2 0x6AA JUMP JUMPDEST SWAP1 DUP4 PUSH1 0x0 MSTORE PUSH1 0x20 PUSH1 0x0 KECCAK256 SWAP2 PUSH1 0x0 JUMPDEST PUSH1 0x1F NOT DUP6 AND DUP2 LT PUSH2 0x72A JUMPI POP SWAP2 DUP4 SWAP2 PUSH1 0x1 SWAP4 PUSH2 0x6C3 SWAP8 SWAP7 SWAP6 PUSH1 0x1F NOT DUP2 AND LT PUSH2 0x711 JUMPI JUMPDEST POP POP POP DUP2 SHL ADD SWAP1 SSTORE PUSH2 0x2CA8 JUMP JUMPDEST ADD MLOAD PUSH1 0x0 NOT PUSH1 0xF8 DUP5 PUSH1 0x3 SHL AND SHR NOT AND SWAP1 SSTORE DUP12 DUP1 DUP1 PUSH2 0x704 JUMP JUMPDEST SWAP2 SWAP3 PUSH1 0x20 PUSH1 0x1 DUP2 SWAP3 DUP7 DUP6 ADD MLOAD DUP2 SSTORE ADD SWAP5 ADD SWAP3 ADD PUSH2 0x6E1 JUMP JUMPDEST DUP4 PUSH1 0x0 MSTORE PUSH1 0x20 PUSH1 0x0 KECCAK256 PUSH1 0x1F DUP5 ADD PUSH1 0x5 SHR DUP2 ADD PUSH1 0x20 DUP6 LT PUSH2 0x77F JUMPI JUMPDEST PUSH1 0x1F DUP4 ADD PUSH1 0x5 SHR DUP3 ADD DUP2 LT PUSH2 0x773 JUMPI POP POP PUSH2 0x68B JUMP JUMPDEST PUSH1 0x0 DUP2 SSTORE PUSH1 0x1 ADD PUSH2 0x75D JUMP JUMPDEST POP DUP1 PUSH2 0x75D JUMP JUMPDEST PUSH4 0x4E487B71 PUSH1 0xE0 SHL PUSH1 0x0 MSTORE PUSH1 0x41 PUSH1 0x4 MSTORE PUSH1 0x24 PUSH1 0x0 REVERT JUMPDEST POP PUSH2 0x7F2 PUSH32 0xB125A635359523C8C263ECEFF3818C33F0A52D99E6D765BB6A0B0DC946FEE12C SWAP2 DUP7 PUSH1 0xB PUSH1 0x1 DUP2 DUP4 ADD SLOAD ADD SWAP2 ADD SSTORE PUSH2 0x7E4 PUSH1 0x40 MLOAD SWAP5 PUSH1 0x60 DUP7 MSTORE PUSH1 0x60 DUP7 ADD SWAP1 PUSH2 0x2465 JUMP JUMPDEST SWAP1 DUP5 DUP3 SUB PUSH1 0x20 DUP7 ADD MSTORE PUSH2 0x2465 JUMP JUMPDEST SWAP2 TIMESTAMP PUSH1 0x40 DUP3 ADD MSTORE DUP1 PUSH1 0x4 CALLDATALOAD SWAP4 SUB SWAP1 LOG2 STOP JUMPDEST ADD MLOAD SWAP1 POP DUP9 DUP1 PUSH2 0x600 JUMP JUMPDEST SWAP3 POP PUSH1 0x3 DUP8 ADD PUSH1 0x0 MSTORE PUSH1 0x20 PUSH1 0x0 KECCAK256 SWAP1 PUSH1 0x0 SWAP4 JUMPDEST PUSH1 0x1F NOT DUP5 AND DUP6 LT PUSH2 0x865 JUMPI PUSH1 0x1 SWAP5 POP DUP4 PUSH1 0x1F NOT DUP2 AND LT PUSH2 0x84C JUMPI JUMPDEST POP POP POP DUP2 SHL ADD PUSH1 0x3 DUP6 ADD SSTORE PUSH2 0x618 JUMP JUMPDEST ADD MLOAD PUSH1 0x0 NOT PUSH1 0xF8 DUP5 PUSH1 0x3 SHL AND SHR NOT AND SWAP1 SSTORE DUP9 DUP1 DUP1 PUSH2 0x83C JUMP JUMPDEST DUP2 DUP2 ADD MLOAD DUP4 SSTORE PUSH1 0x20 SWAP5 DUP6 ADD SWAP5 PUSH1 0x1 SWAP1 SWAP4 ADD SWAP3 SWAP1 SWAP2 ADD SWAP1 PUSH2 0x821 JUMP JUMPDEST SWAP1 SWAP2 POP PUSH1 0x3 DUP8 ADD PUSH1 0x0 MSTORE PUSH1 0x20 PUSH1 0x0 KECCAK256 PUSH1 0x1F DUP5 ADD PUSH1 0x5 SHR DUP2 ADD PUSH1 0x20 DUP6 LT PUSH2 0x8CC JUMPI JUMPDEST SWAP1 DUP5 SWAP4 SWAP3 SWAP2 JUMPDEST PUSH1 0x1F DUP4 ADD PUSH1 0x5 SHR DUP3 ADD DUP2 LT PUSH2 0x8BD JUMPI POP POP PUSH2 0x5E9 JUMP JUMPDEST PUSH1 0x0 DUP2 SSTORE DUP6 SWAP5 POP PUSH1 0x1 ADD PUSH2 0x8A7 JUMP JUMPDEST POP DUP1 PUSH2 0x8A1 JUMP JUMPDEST SWAP1 POP DUP4 ADD MLOAD DUP10 PUSH2 0x5A9 JUMP JUMPDEST SWAP2 POP PUSH1 0x2 DUP8 ADD PUSH1 0x0 MSTORE PUSH1 0x20 PUSH1 0x0 KECCAK256 PUSH1 0x0 SWAP3 JUMPDEST PUSH1 0x1F NOT DUP4 AND DUP5 LT PUSH2 0x933 JUMPI PUSH1 0x1 SWAP4 POP DUP3 PUSH1 0x1F NOT DUP2 AND LT PUSH2 0x91A JUMPI JUMPDEST POP POP DUP2 SHL ADD PUSH1 0x2 DUP7 ADD SSTORE PUSH2 0x5C0 JUMP JUMPDEST DUP6 ADD MLOAD PUSH1 0x0 NOT PUSH1 0xF8 DUP5 PUSH1 0x3 SHL AND SHR NOT AND SWAP1 SSTORE DUP10 DUP1 PUSH2 0x90B JUMP JUMPDEST DUP6 DUP2 ADD MLOAD DUP3 SSTORE PUSH1 0x20 SWAP4 DUP5 ADD SWAP4 PUSH1 0x1 SWAP1 SWAP3 ADD SWAP2 ADD PUSH2 0x8F0 JUMP JUMPDEST PUSH1 0x2 DUP8 ADD PUSH1 0x0 MSTORE PUSH1 0x20 PUSH1 0x0 KECCAK256 PUSH1 0x1F DUP4 ADD PUSH1 0x5 SHR DUP2 ADD PUSH1 0x20 DUP5 LT PUSH2 0x98B JUMPI JUMPDEST PUSH1 0x1F DUP4 ADD PUSH1 0x5 SHR DUP3 ADD DUP2 LT PUSH2 0x97F JUMPI POP POP PUSH2 0x592 JUMP JUMPDEST PUSH1 0x0 DUP2 SSTORE PUSH1 0x1 ADD PUSH2 0x969 JUMP JUMPDEST POP DUP1 PUSH2 0x969 JUMP JUMPDEST SWAP1 POP DUP5 ADD MLOAD DUP10 PUSH2 0x555 JUMP JUMPDEST SWAP2 POP PUSH1 0x1 DUP8 ADD PUSH1 0x0 MSTORE PUSH1 0x20 PUSH1 0x0 KECCAK256 PUSH1 0x0 SWAP3 JUMPDEST PUSH1 0x1F NOT DUP4 AND DUP5 LT PUSH2 0x9F2 JUMPI PUSH1 0x1 SWAP4 POP DUP3 PUSH1 0x1F NOT DUP2 AND LT PUSH2 0x9D9 JUMPI JUMPDEST POP POP DUP2 SHL ADD PUSH1 0x1 DUP7 ADD SSTORE PUSH2 0x56C JUMP JUMPDEST DUP7 ADD MLOAD PUSH1 0x0 NOT PUSH1 0xF8 DUP5 PUSH1 0x3 SHL AND SHR NOT AND SWAP1 SSTORE DUP10 DUP1 PUSH2 0x9CA JUMP JUMPDEST DUP7 DUP2 ADD MLOAD DUP3 SSTORE PUSH1 0x20 SWAP4 DUP5 ADD SWAP4 PUSH1 0x1 SWAP1 SWAP3 ADD SWAP2 ADD PUSH2 0x9AF JUMP JUMPDEST PUSH1 0x1 DUP8 ADD PUSH1 0x0 MSTORE PUSH1 0x20 PUSH1 0x0 KECCAK256 PUSH1 0x1F DUP4 ADD PUSH1 0x5 SHR DUP2 ADD PUSH1 0x20 DUP5 LT PUSH2 0xA4A JUMPI JUMPDEST PUSH1 0x1F DUP4 ADD PUSH1 0x5 SHR DUP3 ADD DUP2 LT PUSH2 0xA3E JUMPI POP POP PUSH2 0x53E JUMP JUMPDEST PUSH1 0x0 DUP2 SSTORE PUSH1 0x1 ADD PUSH2 0xA28 JUMP JUMPDEST POP DUP1 PUSH2 0xA28 JUMP JUMPDEST PUSH1 0x40 MLOAD PUSH3 0x461BCD PUSH1 0xE5 SHL DUP2 MSTORE PUSH1 0x20 PUSH1 0x4 DUP3 ADD MSTORE PUSH1 0x1A PUSH1 0x24 DUP3 ADD MSTORE PUSH32 0x4576656E7420747970652063616E6E6F7420626520656D707479000000000000 PUSH1 0x44 DUP3 ADD MSTORE PUSH1 0x64 SWAP1 REVERT JUMPDEST PUSH1 0x40 MLOAD PUSH3 0x461BCD PUSH1 0xE5 SHL DUP2 MSTORE PUSH1 0x20 PUSH1 0x4 DUP3 ADD MSTORE PUSH1 0x16 PUSH1 0x24 DUP3 ADD MSTORE PUSH22 0x82E4E4C2F2E640D8CADCCEE8D040DAD2E6DAC2E8C6D PUSH1 0x53 SHL PUSH1 0x44 DUP3 ADD MSTORE PUSH1 0x64 SWAP1 REVERT JUMPDEST CALLVALUE PUSH2 0x239 JUMPI PUSH1 0x20 CALLDATASIZE PUSH1 0x3 NOT ADD SLT PUSH2 0x239 JUMPI PUSH1 0x4 CALLDATALOAD PUSH2 0xAF1 DUP2 PUSH2 0x2BB7 JUMP JUMPDEST PUSH2 0xAFA SWAP1 PUSH2 0x2D43 JUMP JUMPDEST PUSH1 0x0 MSTORE PUSH1 0x9 PUSH1 0x20 MSTORE PUSH1 0x40 PUSH1 0x0 KECCAK256 PUSH1 0x2 DUP2 ADD SLOAD SWAP1 PUSH1 0x4 DUP2 ADD SLOAD SWAP2 PUSH1 0x8 DUP3 ADD SLOAD SWAP1 PUSH1 0x9 DUP4 ADD SLOAD PUSH1 0xC DUP5 ADD SLOAD PUSH1 0xD DUP6 ADD SLOAD PUSH1 0xFF AND SWAP2 PUSH1 0xE DUP7 ADD SLOAD SWAP4 PUSH2 0xB3B DUP8 PUSH2 0x25D1 JUMP JUMPDEST SWAP7 PUSH2 0xB48 PUSH1 0x1 DUP3 ADD PUSH2 0x25D1 JUMP JUMPDEST SWAP9 PUSH2 0xB55 PUSH1 0x3 DUP4 ADD PUSH2 0x25D1 JUMP JUMPDEST SWAP1 PUSH2 0xB62 PUSH1 0x5 DUP5 ADD PUSH2 0x25D1 JUMP JUMPDEST SWAP2 PUSH2 0xB6F PUSH1 0x6 DUP6 ADD PUSH2 0x25D1 JUMP JUMPDEST SWAP4 PUSH1 0x7 ADD PUSH2 0xB7C SWAP1 PUSH2 0x25D1 JUMP JUMPDEST SWAP5 PUSH1 0x40 MLOAD SWAP13 DUP14 SWAP13 DUP14 PUSH2 0x1E0 SWAP1 DUP2 DUP2 MSTORE ADD PUSH2 0xB95 SWAP2 PUSH2 0x2465 JUMP JUMPDEST DUP14 DUP2 SUB PUSH1 0x20 DUP16 ADD MSTORE PUSH2 0xBA6 SWAP2 PUSH2 0x2465 JUMP JUMPDEST SWAP1 PUSH1 0x40 DUP14 ADD MSTORE DUP12 DUP2 SUB PUSH1 0x60 DUP14 ADD MSTORE PUSH2 0xBBD SWAP2 PUSH2 0x2465 JUMP JUMPDEST SWAP1 PUSH1 0x80 DUP12 ADD MSTORE DUP10 DUP2 SUB PUSH1 0xA0 DUP12 ADD MSTORE PUSH2 0xBD4 SWAP2 PUSH2 0x2465 JUMP JUMPDEST DUP9 DUP2 SUB PUSH1 0xC0 DUP11 ADD MSTORE PUSH2 0xBE5 SWAP2 PUSH2 0x2465 JUMP JUMPDEST DUP8 DUP2 SUB PUSH1 0xE0 DUP10 ADD MSTORE PUSH2 0xBF6 SWAP2 PUSH2 0x2465 JUMP JUMPDEST SWAP5 PUSH2 0x100 DUP8 ADD MSTORE PUSH1 0xFF DUP2 AND ISZERO ISZERO PUSH2 0x120 DUP8 ADD MSTORE PUSH1 0x1 PUSH1 0xA0 SHL PUSH1 0x1 SWAP1 SUB DUP2 PUSH1 0x8 SHR AND PUSH2 0x140 DUP8 ADD MSTORE PUSH1 0xA8 SHR PUSH1 0xFF AND ISZERO ISZERO PUSH2 0x160 DUP7 ADD MSTORE PUSH2 0x180 DUP6 ADD MSTORE PUSH2 0x1A0 DUP5 ADD PUSH2 0xC3F SWAP2 PUSH2 0x2677 JUMP JUMPDEST PUSH2 0x1C0 DUP4 ADD MSTORE SUB SWAP1 RETURN JUMPDEST CALLVALUE PUSH2 0x239 JUMPI PUSH1 0x80 CALLDATASIZE PUSH1 0x3 NOT ADD SLT PUSH2 0x239 JUMPI PUSH2 0xC62 PUSH2 0x248A JUMP JUMPDEST PUSH2 0xC6A PUSH2 0x24A0 JUMP JUMPDEST SWAP1 PUSH1 0x44 CALLDATALOAD PUSH1 0x64 CALLDATALOAD SWAP3 PUSH1 0x1 PUSH1 0x1 PUSH1 0x40 SHL SUB DUP5 GT PUSH2 0x239 JUMPI CALLDATASIZE PUSH1 0x23 DUP6 ADD SLT ISZERO PUSH2 0x239 JUMPI PUSH2 0xCA2 PUSH2 0x34D SWAP5 CALLDATASIZE SWAP1 PUSH1 0x24 DUP2 PUSH1 0x4 ADD CALLDATALOAD SWAP2 ADD PUSH2 0x250D JUMP JUMPDEST SWAP3 PUSH2 0xCAE DUP4 DUP4 DUP4 PUSH2 0x28A7 JUMP JUMPDEST CALLER PUSH2 0x2A68 JUMP JUMPDEST CALLVALUE PUSH2 0x239 JUMPI PUSH1 0x40 CALLDATASIZE PUSH1 0x3 NOT ADD SLT PUSH2 0x239 JUMPI PUSH2 0xCCD PUSH2 0x248A JUMP JUMPDEST PUSH2 0xCD5 PUSH2 0x269A JUMP JUMPDEST PUSH1 0x1 PUSH1 0x1 PUSH1 0xA0 SHL SUB SWAP1 SWAP2 AND SWAP1 DUP2 ISZERO PUSH2 0xD46 JUMPI CALLER PUSH1 0x0 MSTORE PUSH1 0x5 PUSH1 0x20 MSTORE PUSH1 0x40 PUSH1 0x0 KECCAK256 DUP3 PUSH1 0x0 MSTORE PUSH1 0x20 MSTORE PUSH2 0xD16 DUP2 PUSH1 0x40 PUSH1 0x0 KECCAK256 SWAP1 PUSH1 0xFF DUP1 NOT DUP4 SLOAD AND SWAP2 ISZERO ISZERO AND OR SWAP1 SSTORE JUMP JUMPDEST PUSH1 0x40 MLOAD SWAP1 ISZERO ISZERO DUP2 MSTORE PUSH32 0x17307EAB39AB6107E8899845AD3D59BD9653F200F220920489CA2B5937696C31 PUSH1 0x20 CALLER SWAP3 LOG3 STOP JUMPDEST PUSH1 0x40 MLOAD PUSH4 0xB611743 PUSH1 0xE3 SHL DUP2 MSTORE PUSH1 0x4 DUP2 ADD DUP4 SWAP1 MSTORE PUSH1 0x24 SWAP1 REVERT JUMPDEST CALLVALUE PUSH2 0x239 JUMPI PUSH1 0x0 CALLDATASIZE PUSH1 0x3 NOT ADD SLT PUSH2 0x239 JUMPI PUSH1 0x20 PUSH1 0x40 MLOAD PUSH1 0x0 DUP2 MSTORE RETURN JUMPDEST CALLVALUE PUSH2 0x239 JUMPI PUSH1 0x0 CALLDATASIZE PUSH1 0x3 NOT ADD SLT PUSH2 0x239 JUMPI PUSH1 0x40 MLOAD PUSH1 0x0 PUSH1 0x1 DUP1 SLOAD SWAP1 PUSH2 0xD9F DUP3 PUSH2 0x2597 JUMP JUMPDEST DUP1 DUP6 MSTORE SWAP2 DUP2 DUP2 AND SWAP1 DUP2 ISZERO PUSH2 0xE33 JUMPI POP PUSH1 0x1 EQ PUSH2 0xDDA JUMPI JUMPDEST PUSH2 0x3DD DUP5 PUSH2 0xDC6 DUP2 DUP7 SUB DUP3 PUSH2 0x24D1 JUMP JUMPDEST PUSH1 0x40 MLOAD SWAP2 DUP3 SWAP2 PUSH1 0x20 DUP4 MSTORE PUSH1 0x20 DUP4 ADD SWAP1 PUSH2 0x2465 JUMP JUMPDEST PUSH1 0x0 DUP2 DUP2 MSTORE SWAP3 POP PUSH32 0xB10E2D527612073B26EECDFD717E6A320CF44B4AFAC2B0732D9FCBE2B7FA0CF6 JUMPDEST DUP3 DUP5 LT PUSH2 0xE1B JUMPI POP POP POP DUP2 ADD PUSH1 0x20 ADD PUSH2 0xDC6 DUP3 PUSH2 0xDB6 JUMP JUMPDEST DUP1 SLOAD PUSH1 0x20 DUP6 DUP8 ADD DUP2 ADD SWAP2 SWAP1 SWAP2 MSTORE SWAP1 SWAP4 ADD SWAP3 DUP2 ADD PUSH2 0xE03 JUMP JUMPDEST PUSH1 0xFF NOT AND PUSH1 0x20 DUP1 DUP8 ADD SWAP2 SWAP1 SWAP2 MSTORE SWAP3 ISZERO ISZERO PUSH1 0x5 SHL DUP6 ADD SWAP1 SWAP3 ADD SWAP3 POP PUSH2 0xDC6 SWAP2 POP DUP4 SWAP1 POP PUSH2 0xDB6 JUMP JUMPDEST CALLVALUE PUSH2 0x239 JUMPI PUSH1 0x40 CALLDATASIZE PUSH1 0x3 NOT ADD SLT PUSH2 0x239 JUMPI PUSH2 0xE73 PUSH2 0x24A0 JUMP JUMPDEST PUSH1 0x4 CALLDATALOAD PUSH1 0x0 MSTORE PUSH1 0x6 PUSH1 0x20 MSTORE PUSH1 0x40 PUSH1 0x0 KECCAK256 SWAP1 PUSH1 0x1 DUP1 PUSH1 0xA0 SHL SUB AND PUSH1 0x0 MSTORE PUSH1 0x20 MSTORE PUSH1 0x20 PUSH1 0xFF PUSH1 0x40 PUSH1 0x0 KECCAK256 SLOAD AND PUSH1 0x40 MLOAD SWAP1 ISZERO ISZERO DUP2 MSTORE RETURN JUMPDEST CALLVALUE PUSH2 0x239 JUMPI PUSH1 0x0 CALLDATASIZE PUSH1 0x3 NOT ADD SLT PUSH2 0x239 JUMPI PUSH1 0x7 SLOAD PUSH1 0x40 MLOAD PUSH1 0x1 PUSH1 0x1 PUSH1 0xA0 SHL SUB SWAP1 SWAP2 AND DUP2 MSTORE PUSH1 0x20 SWAP1 RETURN JUMPDEST CALLVALUE PUSH2 0x239 JUMPI PUSH1 0x40 CALLDATASIZE PUSH1 0x3 NOT ADD SLT PUSH2 0x239 JUMPI PUSH1 0x4 CALLDATALOAD PUSH1 0x24 CALLDATALOAD PUSH1 0x4 DUP2 LT ISZERO PUSH2 0x239 JUMPI CALLER PUSH1 0x0 SWAP1 DUP2 MSTORE PUSH32 0xE298173FB715FB8B47CBA95AFE542599CDE89075E978203BAA0C87BD3333A439 PUSH1 0x20 MSTORE PUSH1 0x40 SWAP1 DUP2 SWAP1 KECCAK256 SLOAD PUSH32 0xC8BF5DF8E37A2CDE1AB3AF715FF64BA9051CB27FCCCA8C4751BD0409A1C71FD8 SWAP3 SWAP1 PUSH2 0xF50 SWAP1 PUSH1 0xFF AND PUSH2 0x2CF7 JUMP JUMPDEST PUSH2 0xF5C PUSH2 0x4DA DUP6 PUSH2 0x2BB7 JUMP JUMPDEST DUP4 PUSH1 0x0 MSTORE PUSH1 0x9 PUSH1 0x20 MSTORE PUSH1 0xD DUP3 PUSH1 0x0 KECCAK256 ADD PUSH1 0xFF NOT DUP2 SLOAD AND PUSH1 0xFF DUP4 AND OR SWAP1 SSTORE PUSH2 0xF85 DUP3 MLOAD DUP1 SWAP3 PUSH2 0x2677 JUMP JUMPDEST TIMESTAMP PUSH1 0x20 DUP3 ADD MSTORE LOG2 STOP JUMPDEST CALLVALUE PUSH2 0x239 JUMPI PUSH1 0x0 CALLDATASIZE PUSH1 0x3 NOT ADD SLT PUSH2 0x239 JUMPI PUSH2 0xFA7 PUSH2 0x287B JUMP JUMPDEST PUSH1 0x7 DUP1 SLOAD PUSH1 0x1 PUSH1 0x1 PUSH1 0xA0 SHL SUB NOT DUP2 AND SWAP1 SWAP2 SSTORE PUSH1 0x0 SWAP1 PUSH1 0x1 PUSH1 0x1 PUSH1 0xA0 SHL SUB AND PUSH32 0x8BE0079C531659141344CD1FD0A4F28419497F9722A3DAAFE3B4186F6B6457E0 DUP3 DUP1 LOG3 STOP JUMPDEST CALLVALUE PUSH2 0x239 JUMPI PUSH1 0x20 CALLDATASIZE PUSH1 0x3 NOT ADD SLT PUSH2 0x239 JUMPI PUSH1 0x1 PUSH1 0x1 PUSH1 0xA0 SHL SUB PUSH2 0x100C PUSH2 0x248A JUMP JUMPDEST AND DUP1 ISZERO PUSH2 0x102B JUMPI PUSH1 0x0 MSTORE PUSH1 0x3 PUSH1 0x20 MSTORE PUSH1 0x20 PUSH1 0x40 PUSH1 0x0 KECCAK256 SLOAD PUSH1 0x40 MLOAD SWAP1 DUP2 MSTORE RETURN JUMPDEST PUSH1 0x40 MLOAD PUSH4 0x22718AD9 PUSH1 0xE2 SHL DUP2 MSTORE PUSH1 0x0 PUSH1 0x4 DUP3 ADD MSTORE PUSH1 0x24 SWAP1 REVERT JUMPDEST CALLVALUE PUSH2 0x239 JUMPI PUSH1 0x20 CALLDATASIZE PUSH1 0x3 NOT ADD SLT PUSH2 0x239 JUMPI PUSH1 0x20 PUSH2 0x1062 PUSH1 0x4 CALLDATALOAD PUSH2 0x2A2D JUMP JUMPDEST PUSH1 0x40 MLOAD PUSH1 0x1 PUSH1 0x1 PUSH1 0xA0 SHL SUB SWAP1 SWAP2 AND DUP2 MSTORE RETURN JUMPDEST CALLVALUE PUSH2 0x239 JUMPI PUSH1 0x60 CALLDATASIZE PUSH1 0x3 NOT ADD SLT PUSH2 0x239 JUMPI PUSH1 0x4 CALLDATALOAD PUSH2 0x1090 PUSH2 0x269A JUMP JUMPDEST PUSH1 0x44 CALLDATALOAD SWAP1 PUSH2 0x10A0 PUSH2 0x4DA DUP5 PUSH2 0x2BB7 JUMP JUMPDEST PUSH2 0x10A9 DUP4 PUSH2 0x2A2D JUMP JUMPDEST CALLER PUSH1 0x1 PUSH1 0x1 PUSH1 0xA0 SHL SUB SWAP1 SWAP2 AND SUB PUSH2 0x118C JUMPI DUP3 PUSH1 0x0 MSTORE PUSH1 0x9 PUSH1 0x20 MSTORE PUSH1 0x40 PUSH1 0x0 KECCAK256 SWAP1 PUSH2 0x10E2 DUP2 PUSH1 0x9 DUP5 ADD SWAP1 PUSH1 0xFF DUP1 NOT DUP4 SLOAD AND SWAP2 ISZERO ISZERO AND OR SWAP1 SSTORE JUMP JUMPDEST ISZERO PUSH2 0x1163 JUMPI DUP2 ISZERO PUSH2 0x1125 JUMPI DUP2 PUSH32 0x97A2FD16610057B24C11EF7212218F5C3AEA1276A8C3D5F2DC824B5B122B0DFC SWAP3 PUSH1 0x8 PUSH1 0x40 SWAP4 ADD SSTORE DUP2 MLOAD SWAP1 DUP2 MSTORE TIMESTAMP PUSH1 0x20 DUP3 ADD MSTORE LOG2 STOP JUMPDEST PUSH1 0x40 MLOAD PUSH3 0x461BCD PUSH1 0xE5 SHL DUP2 MSTORE PUSH1 0x20 PUSH1 0x4 DUP3 ADD MSTORE PUSH1 0x16 PUSH1 0x24 DUP3 ADD MSTORE PUSH22 0x5072696365206D75737420626520706F736974697665 PUSH1 0x50 SHL PUSH1 0x44 DUP3 ADD MSTORE PUSH1 0x64 SWAP1 REVERT JUMPDEST POP POP PUSH32 0x600FE75B22E3FED1948261AB5F0B5B5F149CE6242E5BF06DAF884C2756ED6C83 PUSH1 0x0 DUP1 LOG2 STOP JUMPDEST PUSH1 0x40 MLOAD PUSH3 0x461BCD PUSH1 0xE5 SHL DUP2 MSTORE PUSH1 0x20 PUSH1 0x4 DUP3 ADD MSTORE PUSH1 0xF PUSH1 0x24 DUP3 ADD MSTORE PUSH15 0x2737BA103A37B5B2B71037BBB732B9 PUSH1 0x89 SHL PUSH1 0x44 DUP3 ADD MSTORE PUSH1 0x64 SWAP1 REVERT JUMPDEST CALLVALUE PUSH2 0x239 JUMPI PUSH1 0x20 CALLDATASIZE PUSH1 0x3 NOT ADD SLT PUSH2 0x239 JUMPI PUSH1 0x4 CALLDATALOAD PUSH1 0x0 MSTORE PUSH1 0x9 PUSH1 0x20 MSTORE PUSH1 0x40 PUSH1 0x0 KECCAK256 PUSH2 0x11ED DUP2 PUSH2 0x25D1 JUMP JUMPDEST SWAP1 PUSH2 0x11FA PUSH1 0x1 DUP3 ADD PUSH2 0x25D1 JUMP JUMPDEST SWAP1 PUSH1 0x2 DUP2 ADD SLOAD SWAP3 PUSH1 0x3 DUP3 ADD PUSH2 0x120E SWAP1 PUSH2 0x25D1 JUMP JUMPDEST PUSH1 0x4 DUP4 ADD SLOAD SWAP3 SWAP1 PUSH2 0x1221 PUSH1 0x5 DUP4 ADD PUSH2 0x25D1 JUMP JUMPDEST SWAP4 PUSH2 0x122E PUSH1 0x6 DUP5 ADD PUSH2 0x25D1 JUMP JUMPDEST SWAP5 PUSH2 0x123B PUSH1 0x7 DUP6 ADD PUSH2 0x25D1 JUMP JUMPDEST SWAP6 PUSH1 0x8 DUP6 ADD SLOAD SWAP7 PUSH1 0x9 DUP7 ADD SLOAD SWAP2 PUSH1 0xB DUP8 ADD SLOAD SWAP4 PUSH1 0xC DUP9 ADD SLOAD SWAP6 PUSH1 0xD DUP10 ADD SLOAD PUSH1 0xFF AND SWAP8 PUSH1 0xE DUP11 ADD SLOAD SWAP10 PUSH1 0xF ADD SLOAD PUSH1 0xFF AND SWAP11 PUSH1 0x40 MLOAD SWAP15 DUP16 SWAP15 DUP16 SWAP3 PUSH2 0x220 DUP1 DUP6 MSTORE DUP5 ADD PUSH2 0x1284 SWAP2 PUSH2 0x2465 JUMP JUMPDEST DUP4 DUP2 SUB PUSH1 0x20 DUP6 ADD MSTORE PUSH2 0x1295 SWAP2 PUSH2 0x2465 JUMP JUMPDEST SWAP2 PUSH1 0x40 ADD MSTORE DUP14 DUP1 DUP3 SUB SWAP1 PUSH1 0x60 ADD MSTORE PUSH2 0x12AC SWAP2 PUSH2 0x2465 JUMP JUMPDEST SWAP1 PUSH1 0x80 DUP14 ADD MSTORE DUP12 DUP2 SUB PUSH1 0xA0 DUP14 ADD MSTORE PUSH2 0x12C3 SWAP2 PUSH2 0x2465 JUMP JUMPDEST DUP11 DUP2 SUB PUSH1 0xC0 DUP13 ADD MSTORE PUSH2 0x12D4 SWAP2 PUSH2 0x2465 JUMP JUMPDEST DUP10 DUP2 SUB PUSH1 0xE0 DUP12 ADD MSTORE PUSH2 0x12E5 SWAP2 PUSH2 0x2465 JUMP JUMPDEST SWAP7 PUSH2 0x100 DUP10 ADD MSTORE PUSH1 0xFF DUP2 AND ISZERO ISZERO PUSH2 0x120 DUP10 ADD MSTORE PUSH1 0x1 PUSH1 0xA0 SHL PUSH1 0x1 SWAP1 SUB DUP2 PUSH1 0x8 SHR AND PUSH2 0x140 DUP10 ADD MSTORE PUSH1 0xA8 SHR PUSH1 0xFF AND ISZERO ISZERO PUSH2 0x160 DUP9 ADD MSTORE PUSH2 0x180 DUP8 ADD MSTORE PUSH2 0x1A0 DUP7 ADD MSTORE PUSH2 0x1C0 DUP6 ADD PUSH2 0x1334 SWAP2 PUSH2 0x2677 JUMP JUMPDEST PUSH2 0x1E0 DUP5 ADD MSTORE ISZERO ISZERO PUSH2 0x200 DUP4 ADD MSTORE SUB SWAP1 RETURN JUMPDEST CALLVALUE PUSH2 0x239 JUMPI PUSH1 0x20 CALLDATASIZE PUSH1 0x3 NOT ADD SLT PUSH2 0x239 JUMPI PUSH1 0x20 PUSH2 0x1364 PUSH1 0x4 CALLDATALOAD PUSH2 0x2C83 JUMP JUMPDEST PUSH1 0x40 MLOAD SWAP1 ISZERO ISZERO DUP2 MSTORE RETURN JUMPDEST CALLVALUE PUSH2 0x239 JUMPI PUSH1 0x20 CALLDATASIZE PUSH1 0x3 NOT ADD SLT PUSH2 0x239 JUMPI PUSH1 0x20 PUSH2 0x1364 PUSH1 0x4 CALLDATALOAD PUSH2 0x2BB7 JUMP JUMPDEST CALLVALUE PUSH2 0x239 JUMPI PUSH1 0x0 CALLDATASIZE PUSH1 0x3 NOT ADD SLT PUSH2 0x239 JUMPI PUSH1 0x20 PUSH1 0x8 SLOAD PUSH1 0x40 MLOAD SWAP1 DUP2 MSTORE RETURN JUMPDEST CALLVALUE PUSH2 0x239 JUMPI PUSH1 0x20 CALLDATASIZE PUSH1 0x3 NOT ADD SLT PUSH2 0x239 JUMPI PUSH1 0x20 PUSH2 0x1364 PUSH1 0x4 CALLDATALOAD PUSH2 0x2C3B JUMP JUMPDEST CALLVALUE PUSH2 0x239 JUMPI PUSH2 0x34D PUSH2 0x13D9 CALLDATASIZE PUSH2 0x2562 JUMP JUMPDEST SWAP1 PUSH1 0x40 MLOAD SWAP3 PUSH2 0x13E7 DUP5 PUSH2 0x24B6 JUMP JUMPDEST PUSH1 0x0 DUP5 MSTORE PUSH2 0xCAE DUP4 DUP4 DUP4 PUSH2 0x28A7 JUMP JUMPDEST CALLVALUE PUSH2 0x239 JUMPI PUSH1 0x40 CALLDATASIZE PUSH1 0x3 NOT ADD SLT PUSH2 0x239 JUMPI PUSH2 0x140F PUSH2 0x24A0 JUMP JUMPDEST CALLER PUSH1 0x1 PUSH1 0x1 PUSH1 0xA0 SHL SUB DUP3 AND SUB PUSH2 0x142B JUMPI PUSH2 0x34D SWAP1 PUSH1 0x4 CALLDATALOAD PUSH2 0x2804 JUMP JUMPDEST PUSH1 0x40 MLOAD PUSH4 0x334BD919 PUSH1 0xE1 SHL DUP2 MSTORE PUSH1 0x4 SWAP1 REVERT JUMPDEST CALLVALUE PUSH2 0x239 JUMPI PUSH1 0x20 DUP1 PUSH1 0x3 NOT CALLDATASIZE ADD SLT PUSH2 0x239 JUMPI PUSH2 0x1457 PUSH2 0x248A JUMP JUMPDEST SWAP1 PUSH1 0x8 SWAP2 DUP3 SLOAD SWAP1 PUSH2 0x1467 DUP3 PUSH2 0x26A9 JUMP JUMPDEST SWAP1 PUSH2 0x1475 PUSH1 0x40 MLOAD SWAP3 DUP4 PUSH2 0x24D1 JUMP JUMPDEST DUP3 DUP3 MSTORE PUSH1 0x1F NOT PUSH2 0x1484 DUP5 PUSH2 0x26A9 JUMP JUMPDEST ADD CALLDATASIZE DUP6 DUP5 ADD CALLDATACOPY PUSH1 0x0 SWAP1 PUSH1 0x1 SWAP6 DUP7 JUMPDEST DUP6 DUP2 GT ISZERO PUSH2 0x14D8 JUMPI DUP7 DUP9 PUSH1 0x40 MLOAD SWAP1 DUP3 DUP3 ADD SWAP3 DUP1 DUP4 MSTORE PUSH1 0x60 MLOAD DUP1 SWAP5 MSTORE PUSH1 0x40 DUP4 ADD SWAP4 PUSH1 0x80 SWAP2 PUSH1 0x0 JUMPDEST DUP3 DUP2 LT PUSH2 0x14C5 JUMPI DUP6 DUP8 SUB DUP7 RETURN JUMPDEST DUP4 MLOAD DUP8 MSTORE SWAP6 DUP2 ADD SWAP6 SWAP3 DUP2 ADD SWAP3 DUP5 ADD PUSH2 0x14B8 JUMP JUMPDEST PUSH2 0x14E1 DUP2 PUSH2 0x2BB7 JUMP JUMPDEST DUP1 PUSH2 0x151B JUMPI JUMPDEST PUSH2 0x14FA JUMPI JUMPDEST PUSH2 0x14F5 SWAP1 PUSH2 0x2CA8 JUMP JUMPDEST PUSH2 0x1492 JUMP JUMPDEST SWAP3 PUSH2 0x1513 DUP2 DUP6 PUSH2 0x150D PUSH2 0x14F5 SWAP5 DUP10 PUSH2 0x2CCD JUMP JUMPDEST MSTORE PUSH2 0x2CA8 JUMP JUMPDEST SWAP4 SWAP1 POP PUSH2 0x14EC JUMP JUMPDEST POP PUSH1 0x0 DUP2 DUP2 MSTORE PUSH1 0x9 DUP1 DUP10 MSTORE PUSH1 0x40 SWAP1 SWAP2 KECCAK256 ADD SLOAD PUSH1 0x1 PUSH1 0x1 PUSH1 0xA0 SHL SUB DUP5 DUP2 AND SWAP2 DUP5 SHR AND EQ PUSH2 0x14E7 JUMP JUMPDEST CALLVALUE PUSH2 0x239 JUMPI PUSH1 0x40 CALLDATASIZE PUSH1 0x3 NOT ADD SLT PUSH2 0x239 JUMPI PUSH2 0x34D PUSH1 0x4 CALLDATALOAD PUSH2 0x1561 PUSH2 0x24A0 JUMP JUMPDEST SWAP1 DUP1 PUSH1 0x0 MSTORE PUSH1 0x6 PUSH1 0x20 MSTORE PUSH2 0x157C PUSH1 0x1 PUSH1 0x40 PUSH1 0x0 KECCAK256 ADD SLOAD PUSH2 0x2740 JUMP JUMPDEST PUSH2 0x2784 JUMP JUMPDEST CALLVALUE PUSH2 0x239 JUMPI PUSH1 0x20 CALLDATASIZE PUSH1 0x3 NOT ADD SLT PUSH2 0x239 JUMPI PUSH1 0x4 CALLDATALOAD PUSH1 0x0 MSTORE PUSH1 0x6 PUSH1 0x20 MSTORE PUSH1 0x20 PUSH1 0x1 PUSH1 0x40 PUSH1 0x0 KECCAK256 ADD SLOAD PUSH1 0x40 MLOAD SWAP1 DUP2 MSTORE RETURN JUMPDEST CALLVALUE PUSH2 0x239 JUMPI PUSH2 0x34D PUSH2 0x15C1 CALLDATASIZE PUSH2 0x2562 JUMP JUMPDEST SWAP2 PUSH2 0x28A7 JUMP JUMPDEST CALLVALUE PUSH2 0x239 JUMPI PUSH2 0x160 CALLDATASIZE PUSH1 0x3 NOT ADD SLT PUSH2 0x239 JUMPI PUSH1 0x4 CALLDATALOAD PUSH1 0x1 PUSH1 0x1 PUSH1 0x40 SHL SUB DUP2 GT PUSH2 0x239 JUMPI PUSH2 0x15F8 SWAP1 CALLDATASIZE SWAP1 PUSH1 0x4 ADD PUSH2 0x2544 JUMP JUMPDEST PUSH1 0x24 CALLDATALOAD PUSH1 0x1 PUSH1 0x1 PUSH1 0x40 SHL SUB DUP2 GT PUSH2 0x239 JUMPI PUSH2 0x1617 SWAP1 CALLDATASIZE SWAP1 PUSH1 0x4 ADD PUSH2 0x2544 JUMP JUMPDEST PUSH1 0x64 CALLDATALOAD PUSH1 0x1 PUSH1 0x1 PUSH1 0x40 SHL SUB DUP2 GT PUSH2 0x239 JUMPI PUSH2 0x1636 SWAP1 CALLDATASIZE SWAP1 PUSH1 0x4 ADD PUSH2 0x2544 JUMP JUMPDEST SWAP1 PUSH1 0xA4 CALLDATALOAD PUSH1 0x1 PUSH1 0x1 PUSH1 0x40 SHL SUB DUP2 GT PUSH2 0x239 JUMPI PUSH2 0x1656 SWAP1 CALLDATASIZE SWAP1 PUSH1 0x4 ADD PUSH2 0x2544 JUMP JUMPDEST SWAP1 PUSH1 0xC4 CALLDATALOAD PUSH1 0x1 PUSH1 0x1 PUSH1 0x40 SHL SUB DUP2 GT PUSH2 0x239 JUMPI PUSH2 0x1676 SWAP1 CALLDATASIZE SWAP1 PUSH1 0x4 ADD PUSH2 0x2544 JUMP JUMPDEST SWAP2 PUSH1 0xE4 CALLDATALOAD PUSH1 0x1 PUSH1 0x1 PUSH1 0x40 SHL SUB DUP2 GT PUSH2 0x239 JUMPI PUSH2 0x1696 SWAP1 CALLDATASIZE SWAP1 PUSH1 0x4 ADD PUSH2 0x2544 JUMP JUMPDEST CALLER PUSH1 0x0 SWAP1 DUP2 MSTORE PUSH32 0x328940CD107CA3DBE17884ADBBB9D81697F5FFCB53586525DB9480BE8081F2D5 PUSH1 0x20 MSTORE PUSH1 0x40 SWAP1 KECCAK256 SLOAD SWAP1 SWAP2 SWAP1 PUSH1 0xFF AND ISZERO PUSH2 0x21B0 JUMPI DUP6 MLOAD ISZERO PUSH2 0x2174 JUMPI PUSH1 0x44 CALLDATALOAD ISZERO PUSH2 0x212F JUMPI TIMESTAMP PUSH1 0x84 CALLDATALOAD GT ISZERO PUSH2 0x20E0 JUMPI PUSH1 0x1 PUSH1 0x8 SLOAD ADD SWAP5 DUP6 PUSH1 0x8 SSTORE PUSH1 0x40 MLOAD PUSH2 0x1700 DUP2 PUSH2 0x24B6 JUMP JUMPDEST PUSH1 0x0 DUP2 MSTORE CALLER ISZERO PUSH2 0x20C7 JUMPI PUSH1 0x0 DUP8 DUP2 MSTORE PUSH1 0x2 PUSH1 0x20 MSTORE PUSH1 0x40 SWAP1 KECCAK256 SLOAD PUSH1 0x1 PUSH1 0x1 PUSH1 0xA0 SHL SUB AND DUP1 ISZERO ISZERO SWAP1 DUP9 SWAP1 DUP3 PUSH2 0x2090 JUMPI JUMPDEST CALLER PUSH1 0x0 MSTORE PUSH1 0x3 PUSH1 0x20 MSTORE PUSH1 0x40 PUSH1 0x0 KECCAK256 PUSH1 0x1 DUP2 SLOAD ADD SWAP1 SSTORE DUP2 PUSH1 0x0 MSTORE PUSH1 0x2 PUSH1 0x20 MSTORE PUSH1 0x40 PUSH1 0x0 KECCAK256 CALLER PUSH12 0xFFFFFFFFFFFFFFFFFFFFFFFF PUSH1 0xA0 SHL DUP3 SLOAD AND OR SWAP1 SSTORE CALLER SWAP1 PUSH32 0xDDF252AD1BE2C89B69C2B068FC378DAA952BA7F163C4A11628F55A4DF523B3EF PUSH1 0x0 DUP1 LOG4 PUSH2 0x2077 JUMPI CALLER EXTCODESIZE PUSH2 0x1F58 JUMPI JUMPDEST POP DUP6 PUSH1 0x0 MSTORE PUSH1 0x9 PUSH1 0x20 MSTORE PUSH1 0x40 PUSH1 0x0 KECCAK256 SWAP4 DUP8 MLOAD PUSH1 0x1 PUSH1 0x1 PUSH1 0x40 SHL SUB DUP2 GT PUSH2 0x786 JUMPI PUSH2 0x17C4 DUP7 SLOAD PUSH2 0x2597 JUMP JUMPDEST PUSH1 0x1F DUP2 GT PUSH2 0x1F14 JUMPI JUMPDEST POP DUP1 PUSH1 0x20 PUSH1 0x1F DUP3 GT PUSH1 0x1 EQ PUSH2 0x1EAC JUMPI PUSH1 0x0 SWAP2 PUSH2 0x1EA1 JUMPI JUMPDEST POP DUP2 PUSH1 0x1 SHL SWAP2 PUSH1 0x0 NOT SWAP1 PUSH1 0x3 SHL SHR NOT AND OR DUP6 SSTORE JUMPDEST DUP1 MLOAD SWAP1 PUSH1 0x1 PUSH1 0x1 PUSH1 0x40 SHL SUB DUP3 GT PUSH2 0x786 JUMPI DUP2 SWAP1 PUSH2 0x1818 PUSH1 0x1 DUP9 ADD SLOAD PUSH2 0x2597 JUMP JUMPDEST PUSH1 0x1F DUP2 GT PUSH2 0x1E4E JUMPI JUMPDEST POP PUSH1 0x20 SWAP1 PUSH1 0x1F DUP4 GT PUSH1 0x1 EQ PUSH2 0x1DDC JUMPI PUSH1 0x0 SWAP3 PUSH2 0x1DD1 JUMPI JUMPDEST POP POP DUP2 PUSH1 0x1 SHL SWAP2 PUSH1 0x0 NOT SWAP1 PUSH1 0x3 SHL SHR NOT AND OR PUSH1 0x1 DUP6 ADD SSTORE JUMPDEST PUSH1 0x44 CALLDATALOAD PUSH1 0x2 DUP6 ADD SSTORE DUP1 MLOAD SWAP1 PUSH1 0x1 PUSH1 0x1 PUSH1 0x40 SHL SUB DUP3 GT PUSH2 0x786 JUMPI DUP2 SWAP1 PUSH2 0x1878 PUSH1 0x3 DUP8 ADD SLOAD PUSH2 0x2597 JUMP JUMPDEST PUSH1 0x1F DUP2 GT PUSH2 0x1D7E JUMPI JUMPDEST POP PUSH1 0x20 SWAP1 PUSH1 0x1F DUP4 GT PUSH1 0x1 EQ PUSH2 0x1D0C JUMPI PUSH1 0x0 SWAP3 PUSH2 0x1D01 JUMPI JUMPDEST POP POP DUP2 PUSH1 0x1 SHL SWAP2 PUSH1 0x0 NOT SWAP1 PUSH1 0x3 SHL SHR NOT AND OR PUSH1 0x3 DUP5 ADD SSTORE JUMPDEST PUSH1 0x84 CALLDATALOAD PUSH1 0x4 DUP5 ADD SSTORE DUP1 MLOAD SWAP1 PUSH1 0x1 PUSH1 0x1 PUSH1 0x40 SHL SUB DUP3 GT PUSH2 0x786 JUMPI DUP2 SWAP1 PUSH2 0x18D8 PUSH1 0x5 DUP7 ADD SLOAD PUSH2 0x2597 JUMP JUMPDEST PUSH1 0x1F DUP2 GT PUSH2 0x1CAE JUMPI JUMPDEST POP PUSH1 0x20 SWAP1 PUSH1 0x1F DUP4 GT PUSH1 0x1 EQ PUSH2 0x1C3C JUMPI PUSH1 0x0 SWAP3 PUSH2 0x1C31 JUMPI JUMPDEST POP POP DUP2 PUSH1 0x1 SHL SWAP2 PUSH1 0x0 NOT SWAP1 PUSH1 0x3 SHL SHR NOT AND OR PUSH1 0x5 DUP4 ADD SSTORE JUMPDEST DUP3 MLOAD PUSH1 0x1 PUSH1 0x1 PUSH1 0x40 SHL SUB DUP2 GT PUSH2 0x786 JUMPI PUSH2 0x192D PUSH1 0x6 DUP5 ADD SLOAD PUSH2 0x2597 JUMP JUMPDEST PUSH1 0x1F DUP2 GT PUSH2 0x1BEA JUMPI JUMPDEST POP DUP1 PUSH1 0x20 PUSH1 0x1F DUP3 GT PUSH1 0x1 EQ PUSH2 0x1B7D JUMPI PUSH1 0x0 SWAP2 PUSH2 0x1B72 JUMPI JUMPDEST POP DUP2 PUSH1 0x1 SHL SWAP2 PUSH1 0x0 NOT SWAP1 PUSH1 0x3 SHL SHR NOT AND OR PUSH1 0x6 DUP4 ADD SSTORE JUMPDEST DUP1 MLOAD PUSH1 0x7 DUP4 ADD SWAP2 PUSH1 0x1 PUSH1 0x1 PUSH1 0x40 SHL SUB DUP3 GT PUSH2 0x786 JUMPI PUSH2 0x1983 DUP4 SLOAD PUSH2 0x2597 JUMP JUMPDEST PUSH1 0x1F DUP2 GT PUSH2 0x1B2A JUMPI JUMPDEST POP SWAP2 PUSH1 0x20 SWAP7 SWAP4 SWAP2 DUP7 SWAP6 SWAP4 DUP9 SWAP1 PUSH1 0x1F DUP4 GT PUSH1 0x1 EQ PUSH2 0x1A96 JUMPI SWAP3 DUP3 PUSH2 0x1A6A SWAP7 SWAP4 PUSH32 0x34854A6A88C16FC1B8C8E7EC924A44B14D32B3B126B466A3054B2B636FE48090 SWAP9 SWAP7 SWAP4 PUSH2 0x1A80 SWAP7 PUSH1 0x0 SWAP3 PUSH2 0x1A8B JUMPI JUMPDEST POP POP DUP2 PUSH1 0x1 SHL SWAP2 PUSH1 0x0 NOT SWAP1 PUSH1 0x3 SHL SHR NOT AND OR SWAP1 SSTORE JUMPDEST PUSH2 0x104 CALLDATALOAD PUSH1 0x8 DUP3 ADD SSTORE PUSH1 0x9 DUP2 ADD PUSH1 0x1 DUP2 SLOAD PUSH2 0x100 DUP3 PUSH1 0xA8 SHL SUB CALLER PUSH1 0x8 SHL AND SWAP1 PUSH11 0xFFFFFFFFFFFFFFFFFFFFFF PUSH1 0xA8 SHL AND OR OR SWAP1 SSTORE PUSH2 0x124 CALLDATALOAD PUSH1 0xC DUP3 ADD SSTORE PUSH1 0x1 PUSH1 0xF PUSH1 0xD DUP4 ADD SWAP3 PUSH1 0xFF NOT SWAP4 DUP4 DUP6 DUP3 SLOAD AND OR SWAP1 SSTORE PUSH2 0x144 CALLDATALOAD PUSH1 0xE DUP3 ADD SSTORE ADD SWAP2 DUP3 SLOAD AND OR SWAP1 SSTORE PUSH1 0x40 MLOAD SWAP4 DUP5 SWAP4 CALLER DUP6 MSTORE PUSH1 0x80 DUP11 DUP7 ADD MSTORE PUSH1 0x80 DUP6 ADD SWAP1 PUSH2 0x2465 JUMP JUMPDEST SWAP1 PUSH1 0x44 CALLDATALOAD PUSH1 0x40 DUP6 ADD MSTORE DUP4 DUP3 SUB PUSH1 0x60 DUP6 ADD MSTORE PUSH2 0x2465 JUMP JUMPDEST SUB SWAP1 LOG2 PUSH1 0x40 MLOAD SWAP1 DUP2 MSTORE RETURN JUMPDEST ADD MLOAD SWAP1 POP DUP13 DUP1 PUSH2 0x19DA JUMP JUMPDEST SWAP1 PUSH1 0x1F NOT DUP4 AND SWAP2 DUP5 PUSH1 0x0 MSTORE DUP11 PUSH1 0x0 KECCAK256 SWAP3 PUSH1 0x0 JUMPDEST DUP2 DUP2 LT PUSH2 0x1B10 JUMPI POP SWAP4 PUSH32 0x34854A6A88C16FC1B8C8E7EC924A44B14D32B3B126B466A3054B2B636FE48090 SWAP9 SWAP7 SWAP4 PUSH2 0x1A80 SWAP7 SWAP4 PUSH1 0x1 SWAP4 DUP4 PUSH2 0x1A6A SWAP12 SWAP9 LT PUSH2 0x1AF7 JUMPI JUMPDEST POP POP POP DUP2 SHL ADD SWAP1 SSTORE PUSH2 0x19EF JUMP JUMPDEST ADD MLOAD PUSH1 0x0 NOT PUSH1 0xF8 DUP5 PUSH1 0x3 SHL AND SHR NOT AND SWAP1 SSTORE DUP13 DUP1 DUP1 PUSH2 0x1AEA JUMP JUMPDEST DUP3 DUP5 ADD MLOAD DUP6 SSTORE DUP12 SWAP11 POP PUSH1 0x1 SWAP1 SWAP5 ADD SWAP4 SWAP3 DUP13 ADD SWAP3 DUP13 ADD PUSH2 0x1AA9 JUMP JUMPDEST DUP4 PUSH1 0x0 MSTORE PUSH1 0x20 PUSH1 0x0 KECCAK256 PUSH1 0x1F DUP5 ADD PUSH1 0x5 SHR DUP2 ADD SWAP2 PUSH1 0x20 DUP6 LT PUSH2 0x1B68 JUMPI JUMPDEST PUSH1 0x1F ADD PUSH1 0x5 SHR ADD SWAP1 JUMPDEST DUP2 DUP2 LT PUSH2 0x1B5C JUMPI POP PUSH2 0x198C JUMP JUMPDEST PUSH1 0x0 DUP2 SSTORE PUSH1 0x1 ADD PUSH2 0x1B4F JUMP JUMPDEST SWAP1 SWAP2 POP DUP2 SWAP1 PUSH2 0x1B46 JUMP JUMPDEST SWAP1 POP DUP5 ADD MLOAD DUP8 PUSH2 0x194D JUMP JUMPDEST SWAP2 POP PUSH1 0x6 DUP5 ADD PUSH1 0x0 MSTORE PUSH1 0x20 PUSH1 0x0 KECCAK256 PUSH1 0x0 SWAP3 JUMPDEST PUSH1 0x1F NOT DUP4 AND DUP5 LT PUSH2 0x1BD2 JUMPI PUSH1 0x1 SWAP4 POP DUP3 PUSH1 0x1F NOT DUP2 AND LT PUSH2 0x1BB9 JUMPI JUMPDEST POP POP DUP2 SHL ADD PUSH1 0x6 DUP4 ADD SSTORE PUSH2 0x1964 JUMP JUMPDEST DUP7 ADD MLOAD PUSH1 0x0 NOT PUSH1 0xF8 DUP5 PUSH1 0x3 SHL AND SHR NOT AND SWAP1 SSTORE DUP8 DUP1 PUSH2 0x1BAA JUMP JUMPDEST DUP7 DUP2 ADD MLOAD DUP3 SSTORE PUSH1 0x20 SWAP4 DUP5 ADD SWAP4 PUSH1 0x1 SWAP1 SWAP3 ADD SWAP2 ADD PUSH2 0x1B8F JUMP JUMPDEST PUSH1 0x6 DUP5 ADD PUSH1 0x0 MSTORE PUSH1 0x20 PUSH1 0x0 KECCAK256 PUSH1 0x1F DUP4 ADD PUSH1 0x5 SHR DUP2 ADD PUSH1 0x20 DUP5 LT PUSH2 0x1C2A JUMPI JUMPDEST PUSH1 0x1F DUP4 ADD PUSH1 0x5 SHR DUP3 ADD DUP2 LT PUSH2 0x1C1E JUMPI POP POP PUSH2 0x1936 JUMP JUMPDEST PUSH1 0x0 DUP2 SSTORE PUSH1 0x1 ADD PUSH2 0x1C08 JUMP JUMPDEST POP DUP1 PUSH2 0x1C08 JUMP JUMPDEST ADD MLOAD SWAP1 POP DUP8 DUP1 PUSH2 0x18F8 JUMP JUMPDEST SWAP3 POP PUSH1 0x5 DUP6 ADD PUSH1 0x0 MSTORE PUSH1 0x20 PUSH1 0x0 KECCAK256 SWAP1 PUSH1 0x0 SWAP4 JUMPDEST PUSH1 0x1F NOT DUP5 AND DUP6 LT PUSH2 0x1C93 JUMPI PUSH1 0x1 SWAP5 POP DUP4 PUSH1 0x1F NOT DUP2 AND LT PUSH2 0x1C7A JUMPI JUMPDEST POP POP POP DUP2 SHL ADD PUSH1 0x5 DUP4 ADD SSTORE PUSH2 0x1910 JUMP JUMPDEST ADD MLOAD PUSH1 0x0 NOT PUSH1 0xF8 DUP5 PUSH1 0x3 SHL AND SHR NOT AND SWAP1 SSTORE DUP8 DUP1 DUP1 PUSH2 0x1C6A JUMP JUMPDEST DUP2 DUP2 ADD MLOAD DUP4 SSTORE PUSH1 0x20 SWAP5 DUP6 ADD SWAP5 PUSH1 0x1 SWAP1 SWAP4 ADD SWAP3 SWAP1 SWAP2 ADD SWAP1 PUSH2 0x1C4F JUMP JUMPDEST SWAP1 SWAP2 POP PUSH1 0x5 DUP6 ADD PUSH1 0x0 MSTORE PUSH1 0x20 PUSH1 0x0 KECCAK256 PUSH1 0x1F DUP5 ADD PUSH1 0x5 SHR DUP2 ADD PUSH1 0x20 DUP6 LT PUSH2 0x1CFA JUMPI JUMPDEST SWAP1 DUP5 SWAP4 SWAP3 SWAP2 JUMPDEST PUSH1 0x1F DUP4 ADD PUSH1 0x5 SHR DUP3 ADD DUP2 LT PUSH2 0x1CEB JUMPI POP POP PUSH2 0x18E1 JUMP JUMPDEST PUSH1 0x0 DUP2 SSTORE DUP6 SWAP5 POP PUSH1 0x1 ADD PUSH2 0x1CD5 JUMP JUMPDEST POP DUP1 PUSH2 0x1CCF JUMP JUMPDEST ADD MLOAD SWAP1 POP DUP9 DUP1 PUSH2 0x1898 JUMP JUMPDEST SWAP3 POP PUSH1 0x3 DUP7 ADD PUSH1 0x0 MSTORE PUSH1 0x20 PUSH1 0x0 KECCAK256 SWAP1 PUSH1 0x0 SWAP4 JUMPDEST PUSH1 0x1F NOT DUP5 AND DUP6 LT PUSH2 0x1D63 JUMPI PUSH1 0x1 SWAP5 POP DUP4 PUSH1 0x1F NOT DUP2 AND LT PUSH2 0x1D4A JUMPI JUMPDEST POP POP POP DUP2 SHL ADD PUSH1 0x3 DUP5 ADD SSTORE PUSH2 0x18B0 JUMP JUMPDEST ADD MLOAD PUSH1 0x0 NOT PUSH1 0xF8 DUP5 PUSH1 0x3 SHL AND SHR NOT AND SWAP1 SSTORE DUP9 DUP1 DUP1 PUSH2 0x1D3A JUMP JUMPDEST DUP2 DUP2 ADD MLOAD DUP4 SSTORE PUSH1 0x20 SWAP5 DUP6 ADD SWAP5 PUSH1 0x1 SWAP1 SWAP4 ADD SWAP3 SWAP1 SWAP2 ADD SWAP1 PUSH2 0x1D1F JUMP JUMPDEST SWAP1 SWAP2 POP PUSH1 0x3 DUP7 ADD PUSH1 0x0 MSTORE PUSH1 0x20 PUSH1 0x0 KECCAK256 PUSH1 0x1F DUP5 ADD PUSH1 0x5 SHR DUP2 ADD PUSH1 0x20 DUP6 LT PUSH2 0x1DCA JUMPI JUMPDEST SWAP1 DUP5 SWAP4 SWAP3 SWAP2 JUMPDEST PUSH1 0x1F DUP4 ADD PUSH1 0x5 SHR DUP3 ADD DUP2 LT PUSH2 0x1DBB JUMPI POP POP PUSH2 0x1881 JUMP JUMPDEST PUSH1 0x0 DUP2 SSTORE DUP6 SWAP5 POP PUSH1 0x1 ADD PUSH2 0x1DA5 JUMP JUMPDEST POP DUP1 PUSH2 0x1D9F JUMP JUMPDEST ADD MLOAD SWAP1 POP DUP10 DUP1 PUSH2 0x1838 JUMP JUMPDEST SWAP3 POP PUSH1 0x1 DUP8 ADD PUSH1 0x0 MSTORE PUSH1 0x20 PUSH1 0x0 KECCAK256 SWAP1 PUSH1 0x0 SWAP4 JUMPDEST PUSH1 0x1F NOT DUP5 AND DUP6 LT PUSH2 0x1E33 JUMPI PUSH1 0x1 SWAP5 POP DUP4 PUSH1 0x1F NOT DUP2 AND LT PUSH2 0x1E1A JUMPI JUMPDEST POP POP POP DUP2 SHL ADD PUSH1 0x1 DUP6 ADD SSTORE PUSH2 0x1850 JUMP JUMPDEST ADD MLOAD PUSH1 0x0 NOT PUSH1 0xF8 DUP5 PUSH1 0x3 SHL AND SHR NOT AND SWAP1 SSTORE DUP10 DUP1 DUP1 PUSH2 0x1E0A JUMP JUMPDEST DUP2 DUP2 ADD MLOAD DUP4 SSTORE PUSH1 0x20 SWAP5 DUP6 ADD SWAP5 PUSH1 0x1 SWAP1 SWAP4 ADD SWAP3 SWAP1 SWAP2 ADD SWAP1 PUSH2 0x1DEF JUMP JUMPDEST SWAP1 SWAP2 POP PUSH1 0x1 DUP8 ADD PUSH1 0x0 MSTORE PUSH1 0x20 PUSH1 0x0 KECCAK256 PUSH1 0x1F DUP5 ADD PUSH1 0x5 SHR DUP2 ADD PUSH1 0x20 DUP6 LT PUSH2 0x1E9A JUMPI JUMPDEST SWAP1 DUP5 SWAP4 SWAP3 SWAP2 JUMPDEST PUSH1 0x1F DUP4 ADD PUSH1 0x5 SHR DUP3 ADD DUP2 LT PUSH2 0x1E8B JUMPI POP POP PUSH2 0x1821 JUMP JUMPDEST PUSH1 0x0 DUP2 SSTORE DUP6 SWAP5 POP PUSH1 0x1 ADD PUSH2 0x1E75 JUMP JUMPDEST POP DUP1 PUSH2 0x1E6F JUMP JUMPDEST SWAP1 POP DUP10 ADD MLOAD DUP11 PUSH2 0x17E4 JUMP JUMPDEST SWAP2 POP DUP7 PUSH1 0x0 MSTORE PUSH1 0x20 PUSH1 0x0 KECCAK256 PUSH1 0x0 SWAP3 JUMPDEST DUP12 PUSH1 0x1F NOT DUP5 AND DUP6 LT PUSH2 0x1EFD JUMPI POP PUSH1 0x1 SWAP4 POP DUP3 PUSH1 0x1F NOT DUP2 AND LT PUSH2 0x1EE4 JUMPI JUMPDEST POP POP DUP2 SHL ADD DUP6 SSTORE PUSH2 0x17F8 JUMP JUMPDEST DUP12 ADD MLOAD PUSH1 0x0 NOT PUSH1 0xF8 DUP5 PUSH1 0x3 SHL AND SHR NOT AND SWAP1 SSTORE DUP11 DUP1 PUSH2 0x1ED8 JUMP JUMPDEST DUP2 ADD MLOAD DUP3 SSTORE PUSH1 0x20 SWAP4 DUP5 ADD SWAP4 PUSH1 0x1 SWAP1 SWAP3 ADD SWAP2 ADD PUSH2 0x1EBB JUMP JUMPDEST DUP7 PUSH1 0x0 MSTORE PUSH1 0x20 PUSH1 0x0 KECCAK256 PUSH1 0x1F DUP4 ADD PUSH1 0x5 SHR DUP2 ADD PUSH1 0x20 DUP5 LT PUSH2 0x1F51 JUMPI JUMPDEST PUSH1 0x1F DUP4 ADD PUSH1 0x5 SHR DUP3 ADD DUP2 LT PUSH2 0x1F45 JUMPI POP POP PUSH2 0x17CD JUMP JUMPDEST PUSH1 0x0 DUP2 SSTORE PUSH1 0x1 ADD PUSH2 0x1F2F JUMP JUMPDEST POP DUP1 PUSH2 0x1F2F JUMP JUMPDEST PUSH1 0x20 PUSH2 0x1F93 SWAP2 PUSH1 0x40 MLOAD DUP1 SWAP4 DUP2 SWAP3 PUSH4 0xA85BD01 PUSH1 0xE1 SHL DUP4 MSTORE CALLER PUSH1 0x4 DUP5 ADD MSTORE PUSH1 0x0 PUSH1 0x24 DUP5 ADD MSTORE DUP12 PUSH1 0x44 DUP5 ADD MSTORE PUSH1 0x80 PUSH1 0x64 DUP5 ADD MSTORE PUSH1 0x84 DUP4 ADD SWAP1 PUSH2 0x2465 JUMP JUMPDEST SUB DUP2 PUSH1 0x0 CALLER GAS CALL PUSH1 0x0 SWAP2 DUP2 PUSH2 0x2032 JUMPI JUMPDEST POP PUSH2 0x1FFD JUMPI RETURNDATASIZE ISZERO PUSH2 0x1FF6 JUMPI RETURNDATASIZE PUSH2 0x1FB8 DUP2 PUSH2 0x24F2 JUMP JUMPDEST SWAP1 PUSH2 0x1FC6 PUSH1 0x40 MLOAD SWAP3 DUP4 PUSH2 0x24D1 JUMP JUMPDEST DUP2 MSTORE RETURNDATASIZE PUSH1 0x0 PUSH1 0x20 DUP4 ADD RETURNDATACOPY JUMPDEST DUP1 MLOAD SWAP1 DUP2 PUSH2 0x1FF1 JUMPI PUSH1 0x40 MLOAD PUSH4 0x32505749 PUSH1 0xE1 SHL DUP2 MSTORE CALLER PUSH1 0x4 DUP3 ADD MSTORE PUSH1 0x24 SWAP1 REVERT JUMPDEST PUSH1 0x20 ADD REVERT JUMPDEST PUSH1 0x60 PUSH2 0x1FD1 JUMP JUMPDEST PUSH1 0x1 PUSH1 0x1 PUSH1 0xE0 SHL SUB NOT AND PUSH4 0x757A42FF PUSH1 0xE1 SHL ADD PUSH2 0x201A JUMPI DUP8 PUSH2 0x179A JUMP JUMPDEST PUSH1 0x40 MLOAD PUSH4 0x32505749 PUSH1 0xE1 SHL DUP2 MSTORE CALLER PUSH1 0x4 DUP3 ADD MSTORE PUSH1 0x24 SWAP1 REVERT JUMPDEST SWAP1 SWAP2 POP PUSH1 0x20 DUP2 RETURNDATASIZE PUSH1 0x20 GT PUSH2 0x206F JUMPI JUMPDEST DUP2 PUSH2 0x204E PUSH1 0x20 SWAP4 DUP4 PUSH2 0x24D1 JUMP JUMPDEST DUP2 ADD SUB SLT PUSH2 0x239 JUMPI MLOAD PUSH1 0x1 PUSH1 0x1 PUSH1 0xE0 SHL SUB NOT DUP2 AND DUP2 SUB PUSH2 0x239 JUMPI SWAP1 DUP10 PUSH2 0x1FA3 JUMP JUMPDEST RETURNDATASIZE SWAP2 POP PUSH2 0x2041 JUMP JUMPDEST PUSH1 0x40 MLOAD PUSH4 0x39E35637 PUSH1 0xE1 SHL DUP2 MSTORE PUSH1 0x0 PUSH1 0x4 DUP3 ADD MSTORE PUSH1 0x24 SWAP1 REVERT JUMPDEST PUSH1 0x0 DUP3 DUP2 MSTORE PUSH1 0x4 PUSH1 0x20 MSTORE PUSH1 0x40 SWAP1 KECCAK256 DUP1 SLOAD PUSH1 0x1 PUSH1 0x1 PUSH1 0xA0 SHL SUB NOT AND SWAP1 SSTORE DUP1 PUSH1 0x0 MSTORE PUSH1 0x3 PUSH1 0x20 MSTORE PUSH1 0x40 PUSH1 0x0 KECCAK256 PUSH1 0x0 NOT DUP2 SLOAD ADD SWAP1 SSTORE PUSH2 0x172E JUMP JUMPDEST PUSH1 0x40 MLOAD PUSH4 0x32505749 PUSH1 0xE1 SHL DUP2 MSTORE PUSH1 0x0 PUSH1 0x4 DUP3 ADD MSTORE PUSH1 0x24 SWAP1 REVERT JUMPDEST PUSH1 0x40 MLOAD PUSH3 0x461BCD PUSH1 0xE5 SHL DUP2 MSTORE PUSH1 0x20 PUSH1 0x4 DUP3 ADD MSTORE PUSH1 0x21 PUSH1 0x24 DUP3 ADD MSTORE PUSH32 0x4578706972792064617465206D75737420626520696E20746865206675747572 PUSH1 0x44 DUP3 ADD MSTORE PUSH1 0x65 PUSH1 0xF8 SHL PUSH1 0x64 DUP3 ADD MSTORE PUSH1 0x84 SWAP1 REVERT JUMPDEST PUSH1 0x40 MLOAD PUSH3 0x461BCD PUSH1 0xE5 SHL DUP2 MSTORE PUSH1 0x20 PUSH1 0x4 DUP3 ADD MSTORE PUSH1 0x19 PUSH1 0x24 DUP3 ADD MSTORE PUSH32 0x5175616E74697479206D75737420626520706F73697469766500000000000000 PUSH1 0x44 DUP3 ADD MSTORE PUSH1 0x64 SWAP1 REVERT JUMPDEST PUSH1 0x40 MLOAD PUSH3 0x461BCD PUSH1 0xE5 SHL DUP2 MSTORE PUSH1 0x20 PUSH1 0x4 DUP3 ADD MSTORE PUSH1 0x14 PUSH1 0x24 DUP3 ADD MSTORE PUSH20 0x4E616D652063616E6E6F7420626520656D707479 PUSH1 0x60 SHL PUSH1 0x44 DUP3 ADD MSTORE PUSH1 0x64 SWAP1 REVERT JUMPDEST PUSH1 0x40 MLOAD PUSH3 0x461BCD PUSH1 0xE5 SHL DUP2 MSTORE PUSH1 0x20 PUSH1 0x4 DUP3 ADD MSTORE PUSH1 0x17 PUSH1 0x24 DUP3 ADD MSTORE PUSH32 0x4D75737420686176652070726F647563657220726F6C65000000000000000000 PUSH1 0x44 DUP3 ADD MSTORE PUSH1 0x64 SWAP1 REVERT JUMPDEST CALLVALUE PUSH2 0x239 JUMPI PUSH1 0x40 CALLDATASIZE PUSH1 0x3 NOT ADD SLT PUSH2 0x239 JUMPI PUSH2 0x220E PUSH2 0x248A JUMP JUMPDEST PUSH1 0x24 CALLDATALOAD PUSH2 0x221A DUP2 PUSH2 0x2A2D JUMP JUMPDEST CALLER ISZERO ISZERO DUP1 PUSH2 0x22C9 JUMPI JUMPDEST DUP1 PUSH2 0x229C JUMPI JUMPDEST PUSH2 0x2284 JUMPI PUSH1 0x1 PUSH1 0x1 PUSH1 0xA0 SHL SUB SWAP3 DUP4 AND SWAP3 DUP3 SWAP2 DUP5 SWAP2 AND PUSH32 0x8C5BE1E5EBEC7D5BD14F71427D1E84F3DD0314C0F7B2291E5B200AC8C7C3B925 PUSH1 0x0 DUP1 LOG4 PUSH1 0x0 SWAP1 DUP2 MSTORE PUSH1 0x4 PUSH1 0x20 MSTORE PUSH1 0x40 SWAP1 KECCAK256 DUP1 SLOAD PUSH1 0x1 PUSH1 0x1 PUSH1 0xA0 SHL SUB NOT AND SWAP1 SWAP2 OR SWAP1 SSTORE STOP JUMPDEST PUSH1 0x40 MLOAD PUSH4 0xA9FBF51F PUSH1 0xE0 SHL DUP2 MSTORE CALLER PUSH1 0x4 DUP3 ADD MSTORE PUSH1 0x24 SWAP1 REVERT JUMPDEST POP PUSH1 0x1 DUP1 PUSH1 0xA0 SHL SUB DUP2 AND PUSH1 0x0 MSTORE PUSH1 0x5 PUSH1 0x20 MSTORE PUSH1 0x40 PUSH1 0x0 KECCAK256 CALLER PUSH1 0x0 MSTORE PUSH1 0x20 MSTORE PUSH1 0xFF PUSH1 0x40 PUSH1 0x0 KECCAK256 SLOAD AND ISZERO PUSH2 0x2229 JUMP JUMPDEST POP PUSH1 0x1 PUSH1 0x1 PUSH1 0xA0 SHL SUB DUP2 AND CALLER EQ ISZERO PUSH2 0x2223 JUMP JUMPDEST CALLVALUE PUSH2 0x239 JUMPI PUSH1 0x20 CALLDATASIZE PUSH1 0x3 NOT ADD SLT PUSH2 0x239 JUMPI PUSH1 0x4 CALLDATALOAD PUSH2 0x22F9 DUP2 PUSH2 0x2A2D JUMP JUMPDEST POP PUSH1 0x0 MSTORE PUSH1 0x4 PUSH1 0x20 MSTORE PUSH1 0x20 PUSH1 0x1 DUP1 PUSH1 0xA0 SHL SUB PUSH1 0x40 PUSH1 0x0 KECCAK256 SLOAD AND PUSH1 0x40 MLOAD SWAP1 DUP2 MSTORE RETURN JUMPDEST CALLVALUE PUSH2 0x239 JUMPI PUSH1 0x0 CALLDATASIZE PUSH1 0x3 NOT ADD SLT PUSH2 0x239 JUMPI PUSH1 0x40 MLOAD PUSH1 0x0 DUP1 SLOAD PUSH2 0x233B DUP2 PUSH2 0x2597 JUMP JUMPDEST DUP1 DUP5 MSTORE SWAP1 PUSH1 0x1 SWAP1 DUP2 DUP2 AND SWAP1 DUP2 ISZERO PUSH2 0xE33 JUMPI POP PUSH1 0x1 EQ PUSH2 0x2364 JUMPI PUSH2 0x3DD DUP5 PUSH2 0xDC6 DUP2 DUP7 SUB DUP3 PUSH2 0x24D1 JUMP JUMPDEST PUSH1 0x0 DUP1 DUP1 MSTORE SWAP3 POP PUSH32 0x290DECD9548B62A8D60345A988386FC84BA6BC95484008F6362F93160EF3E563 JUMPDEST DUP3 DUP5 LT PUSH2 0x23A5 JUMPI POP POP POP DUP2 ADD PUSH1 0x20 ADD PUSH2 0xDC6 DUP3 PUSH2 0xDB6 JUMP JUMPDEST DUP1 SLOAD PUSH1 0x20 DUP6 DUP8 ADD DUP2 ADD SWAP2 SWAP1 SWAP2 MSTORE SWAP1 SWAP4 ADD SWAP3 DUP2 ADD PUSH2 0x238D JUMP JUMPDEST CALLVALUE PUSH2 0x239 JUMPI PUSH1 0x20 CALLDATASIZE PUSH1 0x3 NOT ADD SLT PUSH2 0x239 JUMPI PUSH1 0x4 CALLDATALOAD SWAP1 PUSH4 0xFFFFFFFF PUSH1 0xE0 SHL DUP3 AND DUP1 SWAP3 SUB PUSH2 0x239 JUMPI PUSH1 0x20 SWAP2 PUSH4 0x7965DB0B PUSH1 0xE0 SHL DUP2 EQ SWAP1 DUP2 ISZERO PUSH2 0x23FF JUMPI JUMPDEST POP ISZERO ISZERO DUP2 MSTORE RETURN JUMPDEST PUSH4 0x80AC58CD PUSH1 0xE0 SHL DUP2 EQ SWAP2 POP DUP2 ISZERO PUSH2 0x2431 JUMPI JUMPDEST DUP2 ISZERO PUSH2 0x2420 JUMPI JUMPDEST POP DUP4 PUSH2 0x23F8 JUMP JUMPDEST PUSH4 0x1FFC9A7 PUSH1 0xE0 SHL EQ SWAP1 POP DUP4 PUSH2 0x2419 JUMP JUMPDEST PUSH4 0x5B5E139F PUSH1 0xE0 SHL DUP2 EQ SWAP2 POP PUSH2 0x2412 JUMP JUMPDEST PUSH1 0x0 JUMPDEST DUP4 DUP2 LT PUSH2 0x2455 JUMPI POP POP PUSH1 0x0 SWAP2 ADD MSTORE JUMP JUMPDEST DUP2 DUP2 ADD MLOAD DUP4 DUP3 ADD MSTORE PUSH1 0x20 ADD PUSH2 0x2445 JUMP JUMPDEST SWAP1 PUSH1 0x20 SWAP2 PUSH2 0x247E DUP2 MLOAD DUP1 SWAP3 DUP2 DUP6 MSTORE DUP6 DUP1 DUP7 ADD SWAP2 ADD PUSH2 0x2442 JUMP JUMPDEST PUSH1 0x1F ADD PUSH1 0x1F NOT AND ADD ADD SWAP1 JUMP JUMPDEST PUSH1 0x4 CALLDATALOAD SWAP1 PUSH1 0x1 PUSH1 0x1 PUSH1 0xA0 SHL SUB DUP3 AND DUP3 SUB PUSH2 0x239 JUMPI JUMP JUMPDEST PUSH1 0x24 CALLDATALOAD SWAP1 PUSH1 0x1 PUSH1 0x1 PUSH1 0xA0 SHL SUB DUP3 AND DUP3 SUB PUSH2 0x239 JUMPI JUMP JUMPDEST PUSH1 0x20 DUP2 ADD SWAP1 DUP2 LT PUSH1 0x1 PUSH1 0x1 PUSH1 0x40 SHL SUB DUP3 GT OR PUSH2 0x786 JUMPI PUSH1 0x40 MSTORE JUMP JUMPDEST SWAP1 PUSH1 0x1F DUP1 NOT SWAP2 ADD AND DUP2 ADD SWAP1 DUP2 LT PUSH1 0x1 PUSH1 0x1 PUSH1 0x40 SHL SUB DUP3 GT OR PUSH2 0x786 JUMPI PUSH1 0x40 MSTORE JUMP JUMPDEST PUSH1 0x1 PUSH1 0x1 PUSH1 0x40 SHL SUB DUP2 GT PUSH2 0x786 JUMPI PUSH1 0x1F ADD PUSH1 0x1F NOT AND PUSH1 0x20 ADD SWAP1 JUMP JUMPDEST SWAP3 SWAP2 SWAP3 PUSH2 0x2519 DUP3 PUSH2 0x24F2 JUMP JUMPDEST SWAP2 PUSH2 0x2527 PUSH1 0x40 MLOAD SWAP4 DUP5 PUSH2 0x24D1 JUMP JUMPDEST DUP3 SWAP5 DUP2 DUP5 MSTORE DUP2 DUP4 ADD GT PUSH2 0x239 JUMPI DUP3 DUP2 PUSH1 0x20 SWAP4 DUP5 PUSH1 0x0 SWAP7 ADD CALLDATACOPY ADD ADD MSTORE JUMP JUMPDEST SWAP1 DUP1 PUSH1 0x1F DUP4 ADD SLT ISZERO PUSH2 0x239 JUMPI DUP2 PUSH1 0x20 PUSH2 0x255F SWAP4 CALLDATALOAD SWAP2 ADD PUSH2 0x250D JUMP JUMPDEST SWAP1 JUMP JUMPDEST PUSH1 0x60 SWAP1 PUSH1 0x3 NOT ADD SLT PUSH2 0x239 JUMPI PUSH1 0x1 PUSH1 0x1 PUSH1 0xA0 SHL SUB SWAP1 PUSH1 0x4 CALLDATALOAD DUP3 DUP2 AND DUP2 SUB PUSH2 0x239 JUMPI SWAP2 PUSH1 0x24 CALLDATALOAD SWAP1 DUP2 AND DUP2 SUB PUSH2 0x239 JUMPI SWAP1 PUSH1 0x44 CALLDATALOAD SWAP1 JUMP JUMPDEST SWAP1 PUSH1 0x1 DUP3 DUP2 SHR SWAP3 AND DUP1 ISZERO PUSH2 0x25C7 JUMPI JUMPDEST PUSH1 0x20 DUP4 LT EQ PUSH2 0x25B1 JUMPI JUMP JUMPDEST PUSH4 0x4E487B71 PUSH1 0xE0 SHL PUSH1 0x0 MSTORE PUSH1 0x22 PUSH1 0x4 MSTORE PUSH1 0x24 PUSH1 0x0 REVERT JUMPDEST SWAP2 PUSH1 0x7F AND SWAP2 PUSH2 0x25A6 JUMP JUMPDEST SWAP1 PUSH1 0x40 MLOAD SWAP2 DUP3 PUSH1 0x0 DUP3 SLOAD SWAP3 PUSH2 0x25E5 DUP5 PUSH2 0x2597 JUMP JUMPDEST SWAP1 DUP2 DUP5 MSTORE PUSH1 0x1 SWAP5 DUP6 DUP2 AND SWAP1 DUP2 PUSH1 0x0 EQ PUSH2 0x2654 JUMPI POP PUSH1 0x1 EQ PUSH2 0x2611 JUMPI JUMPDEST POP POP PUSH2 0x260F SWAP3 POP SUB DUP4 PUSH2 0x24D1 JUMP JUMPDEST JUMP JUMPDEST SWAP1 SWAP4 SWAP2 POP PUSH1 0x0 MSTORE PUSH1 0x20 SWAP1 DUP2 PUSH1 0x0 KECCAK256 SWAP4 PUSH1 0x0 SWAP2 JUMPDEST DUP2 DUP4 LT PUSH2 0x263C JUMPI POP POP PUSH2 0x260F SWAP4 POP DUP3 ADD ADD CODESIZE DUP1 PUSH2 0x2601 JUMP JUMPDEST DUP6 SLOAD DUP9 DUP5 ADD DUP6 ADD MSTORE SWAP5 DUP6 ADD SWAP5 DUP8 SWAP5 POP SWAP2 DUP4 ADD SWAP2 PUSH2 0x2624 JUMP JUMPDEST SWAP2 POP POP PUSH2 0x260F SWAP5 POP PUSH1 0x20 SWAP3 POP PUSH1 0xFF NOT AND DUP3 DUP5 ADD MSTORE ISZERO ISZERO PUSH1 0x5 SHL DUP3 ADD ADD CODESIZE DUP1 PUSH2 0x2601 JUMP JUMPDEST SWAP1 PUSH1 0x4 DUP3 LT ISZERO PUSH2 0x2684 JUMPI MSTORE JUMP JUMPDEST PUSH4 0x4E487B71 PUSH1 0xE0 SHL PUSH1 0x0 MSTORE PUSH1 0x21 PUSH1 0x4 MSTORE PUSH1 0x24 PUSH1 0x0 REVERT JUMPDEST PUSH1 0x24 CALLDATALOAD SWAP1 DUP2 ISZERO ISZERO DUP3 SUB PUSH2 0x239 JUMPI JUMP JUMPDEST PUSH1 0x1 PUSH1 0x1 PUSH1 0x40 SHL SUB DUP2 GT PUSH2 0x786 JUMPI PUSH1 0x5 SHL PUSH1 0x20 ADD SWAP1 JUMP JUMPDEST SWAP1 DUP1 PUSH1 0x1F DUP4 ADD SLT ISZERO PUSH2 0x239 JUMPI DUP2 CALLDATALOAD SWAP1 PUSH2 0x26D8 DUP3 PUSH2 0x26A9 JUMP JUMPDEST SWAP3 PUSH2 0x26E6 PUSH1 0x40 MLOAD SWAP5 DUP6 PUSH2 0x24D1 JUMP JUMPDEST DUP3 DUP5 MSTORE PUSH1 0x20 SWAP3 DUP4 DUP1 DUP7 ADD SWAP2 PUSH1 0x5 SHL DUP4 ADD ADD SWAP3 DUP1 DUP5 GT PUSH2 0x239 JUMPI DUP5 DUP4 ADD SWAP2 JUMPDEST DUP5 DUP4 LT PUSH2 0x2714 JUMPI POP POP POP POP POP POP SWAP1 JUMP JUMPDEST DUP3 CALLDATALOAD PUSH1 0x1 PUSH1 0x1 PUSH1 0x40 SHL SUB DUP2 GT PUSH2 0x239 JUMPI DUP7 SWAP2 PUSH2 0x2735 DUP5 DUP5 DUP1 SWAP5 DUP10 ADD ADD PUSH2 0x2544 JUMP JUMPDEST DUP2 MSTORE ADD SWAP3 ADD SWAP2 PUSH2 0x2704 JUMP JUMPDEST DUP1 PUSH1 0x0 MSTORE PUSH1 0x6 PUSH1 0x20 MSTORE PUSH1 0x40 PUSH1 0x0 KECCAK256 CALLER PUSH1 0x0 MSTORE PUSH1 0x20 MSTORE PUSH1 0xFF PUSH1 0x40 PUSH1 0x0 KECCAK256 SLOAD AND ISZERO PUSH2 0x2766 JUMPI POP JUMP JUMPDEST PUSH1 0x44 SWAP1 PUSH1 0x40 MLOAD SWAP1 PUSH4 0xE2517D3F PUSH1 0xE0 SHL DUP3 MSTORE CALLER PUSH1 0x4 DUP4 ADD MSTORE PUSH1 0x24 DUP3 ADD MSTORE REVERT JUMPDEST SWAP1 PUSH1 0x0 SWAP2 DUP1 DUP4 MSTORE PUSH1 0x6 PUSH1 0x20 MSTORE PUSH1 0x40 DUP4 KECCAK256 SWAP2 PUSH1 0x1 DUP1 PUSH1 0xA0 SHL SUB AND SWAP2 DUP3 DUP5 MSTORE PUSH1 0x20 MSTORE PUSH1 0xFF PUSH1 0x40 DUP5 KECCAK256 SLOAD AND ISZERO PUSH1 0x0 EQ PUSH2 0x27FF JUMPI DUP1 DUP4 MSTORE PUSH1 0x6 PUSH1 0x20 MSTORE PUSH1 0x40 DUP4 KECCAK256 DUP3 DUP5 MSTORE PUSH1 0x20 MSTORE PUSH1 0x40 DUP4 KECCAK256 PUSH1 0x1 PUSH1 0xFF NOT DUP3 SLOAD AND OR SWAP1 SSTORE PUSH32 0x2F8788117E7EFF1D82E926EC794901D17C78024A50270940304540A733656F0D CALLER SWAP4 DUP1 LOG4 PUSH1 0x1 SWAP1 JUMP JUMPDEST POP POP SWAP1 JUMP JUMPDEST SWAP1 PUSH1 0x0 SWAP2 DUP1 DUP4 MSTORE PUSH1 0x6 PUSH1 0x20 MSTORE PUSH1 0x40 DUP4 KECCAK256 SWAP2 PUSH1 0x1 DUP1 PUSH1 0xA0 SHL SUB AND SWAP2 DUP3 DUP5 MSTORE PUSH1 0x20 MSTORE PUSH1 0xFF PUSH1 0x40 DUP5 KECCAK256 SLOAD AND PUSH1 0x0 EQ PUSH2 0x27FF JUMPI DUP1 DUP4 MSTORE PUSH1 0x6 PUSH1 0x20 MSTORE PUSH1 0x40 DUP4 KECCAK256 DUP3 DUP5 MSTORE PUSH1 0x20 MSTORE PUSH1 0x40 DUP4 KECCAK256 PUSH1 0xFF NOT DUP2 SLOAD AND SWAP1 SSTORE PUSH32 0xF6391F5C32D9C69D2A47EA670B442974B53935D1EDC7FD64EB21E047A839171B CALLER SWAP4 DUP1 LOG4 PUSH1 0x1 SWAP1 JUMP JUMPDEST PUSH1 0x7 SLOAD PUSH1 0x1 PUSH1 0x1 PUSH1 0xA0 SHL SUB AND CALLER SUB PUSH2 0x288F JUMPI JUMP JUMPDEST PUSH1 0x40 MLOAD PUSH4 0x118CDAA7 PUSH1 0xE0 SHL DUP2 MSTORE CALLER PUSH1 0x4 DUP3 ADD MSTORE PUSH1 0x24 SWAP1 REVERT JUMPDEST PUSH1 0x1 PUSH1 0x1 PUSH1 0xA0 SHL SUB SWAP2 DUP3 AND SWAP3 SWAP1 SWAP2 DUP4 ISZERO PUSH2 0x20C7 JUMPI PUSH1 0x0 SWAP3 DUP3 DUP5 MSTORE DUP3 PUSH1 0x20 SWAP6 PUSH1 0x2 DUP8 MSTORE PUSH1 0x40 SWAP7 DUP5 DUP9 DUP9 KECCAK256 SLOAD AND SWAP7 DUP8 SWAP2 CALLER ISZERO ISZERO DUP1 PUSH2 0x2997 JUMPI JUMPDEST POP SWAP1 PUSH1 0x2 PUSH32 0xDDF252AD1BE2C89B69C2B068FC378DAA952BA7F163C4A11628F55A4DF523B3EF SWAP3 DUP5 PUSH2 0x2964 JUMPI JUMPDEST DUP6 DUP4 MSTORE PUSH1 0x3 DUP2 MSTORE DUP12 DUP4 KECCAK256 DUP1 SLOAD PUSH1 0x1 ADD SWAP1 SSTORE DUP7 DUP4 MSTORE MSTORE DUP10 DUP2 KECCAK256 DUP1 SLOAD PUSH1 0x1 PUSH1 0x1 PUSH1 0xA0 SHL SUB NOT AND DUP6 OR SWAP1 SSTORE DUP1 LOG4 AND SWAP3 DUP4 DUP4 SUB PUSH2 0x2943 JUMPI POP POP POP POP JUMP JUMPDEST PUSH1 0x64 SWAP5 POP MLOAD SWAP3 PUSH4 0x64283D7B PUSH1 0xE0 SHL DUP5 MSTORE PUSH1 0x4 DUP5 ADD MSTORE PUSH1 0x24 DUP4 ADD MSTORE PUSH1 0x44 DUP3 ADD MSTORE REVERT JUMPDEST PUSH1 0x0 DUP8 DUP2 MSTORE PUSH1 0x4 PUSH1 0x20 MSTORE PUSH1 0x40 SWAP1 KECCAK256 DUP1 SLOAD PUSH1 0x1 PUSH1 0x1 PUSH1 0xA0 SHL SUB NOT AND SWAP1 SSTORE DUP5 DUP4 MSTORE PUSH1 0x3 DUP2 MSTORE DUP12 DUP4 KECCAK256 DUP1 SLOAD PUSH1 0x0 NOT ADD SWAP1 SSTORE PUSH2 0x290A JUMP JUMPDEST SWAP2 SWAP4 SWAP5 POP SWAP2 POP DUP1 PUSH2 0x29EC JUMPI JUMPDEST ISZERO PUSH2 0x29B3 JUMPI DUP6 SWAP3 SWAP2 DUP8 SWAP2 CODESIZE PUSH2 0x28DE JUMP JUMPDEST DUP8 DUP7 DUP9 PUSH2 0x29D0 JUMPI PUSH1 0x24 SWAP2 MLOAD SWAP1 PUSH4 0x7E273289 PUSH1 0xE0 SHL DUP3 MSTORE PUSH1 0x4 DUP3 ADD MSTORE REVERT JUMPDEST PUSH1 0x44 SWAP2 MLOAD SWAP1 PUSH4 0x177E802F PUSH1 0xE0 SHL DUP3 MSTORE CALLER PUSH1 0x4 DUP4 ADD MSTORE PUSH1 0x24 DUP3 ADD MSTORE REVERT JUMPDEST POP CALLER DUP8 EQ DUP1 ISZERO PUSH2 0x2A11 JUMPI JUMPDEST DUP1 PUSH2 0x29A3 JUMPI POP DUP6 DUP3 MSTORE PUSH1 0x4 DUP2 MSTORE CALLER DUP6 DUP10 DUP5 KECCAK256 SLOAD AND EQ PUSH2 0x29A3 JUMP JUMPDEST POP DUP7 DUP3 MSTORE PUSH1 0x5 DUP2 MSTORE DUP8 DUP3 KECCAK256 CALLER DUP4 MSTORE DUP2 MSTORE PUSH1 0xFF DUP9 DUP4 KECCAK256 SLOAD AND PUSH2 0x29F7 JUMP JUMPDEST PUSH1 0x0 DUP2 DUP2 MSTORE PUSH1 0x2 PUSH1 0x20 MSTORE PUSH1 0x40 SWAP1 KECCAK256 SLOAD PUSH1 0x1 PUSH1 0x1 PUSH1 0xA0 SHL SUB AND SWAP1 DUP2 ISZERO PUSH2 0x2A50 JUMPI POP SWAP1 JUMP JUMPDEST PUSH1 0x24 SWAP1 PUSH1 0x40 MLOAD SWAP1 PUSH4 0x7E273289 PUSH1 0xE0 SHL DUP3 MSTORE PUSH1 0x4 DUP3 ADD MSTORE REVERT JUMPDEST SWAP1 SWAP2 SWAP3 DUP4 EXTCODESIZE PUSH2 0x2A79 JUMPI JUMPDEST POP POP POP POP POP JUMP JUMPDEST PUSH1 0x40 MLOAD PUSH4 0xA85BD01 PUSH1 0xE1 SHL DUP1 DUP3 MSTORE PUSH1 0x1 PUSH1 0x1 PUSH1 0xA0 SHL SUB SWAP4 DUP5 AND PUSH1 0x4 DUP4 ADD MSTORE SWAP4 DUP4 AND PUSH1 0x24 DUP3 ADD MSTORE PUSH1 0x44 DUP2 ADD SWAP2 SWAP1 SWAP2 MSTORE PUSH1 0x80 PUSH1 0x64 DUP3 ADD MSTORE PUSH1 0x20 SWAP6 SWAP2 SWAP1 SWAP4 AND SWAP4 SWAP1 SWAP2 SWAP1 DUP4 SWAP1 PUSH2 0x2AC9 SWAP1 PUSH1 0x84 DUP4 ADD SWAP1 PUSH2 0x2465 JUMP JUMPDEST SUB SWAP3 DUP6 DUP2 PUSH1 0x0 SWAP6 DUP2 DUP8 DUP10 GAS CALL DUP5 SWAP2 DUP2 PUSH2 0x2B73 JUMPI JUMPDEST POP PUSH2 0x2B3D JUMPI POP POP POP RETURNDATASIZE PUSH1 0x0 EQ PUSH2 0x2B35 JUMPI RETURNDATASIZE PUSH2 0x2AF7 DUP2 PUSH2 0x24F2 JUMP JUMPDEST SWAP1 PUSH2 0x2B05 PUSH1 0x40 MLOAD SWAP3 DUP4 PUSH2 0x24D1 JUMP JUMPDEST DUP2 MSTORE DUP1 SWAP2 DUP5 RETURNDATASIZE SWAP3 ADD RETURNDATACOPY JUMPDEST DUP1 MLOAD SWAP3 DUP4 PUSH2 0x2B30 JUMPI PUSH1 0x40 MLOAD PUSH4 0x32505749 PUSH1 0xE1 SHL DUP2 MSTORE PUSH1 0x4 DUP2 ADD DUP5 SWAP1 MSTORE PUSH1 0x24 SWAP1 REVERT JUMPDEST ADD SWAP1 POP REVERT JUMPDEST POP PUSH1 0x60 PUSH2 0x2B0F JUMP JUMPDEST SWAP2 SWAP5 POP SWAP2 POP PUSH4 0xFFFFFFFF PUSH1 0xE0 SHL AND SUB PUSH2 0x2B5B JUMPI POP CODESIZE DUP1 DUP1 DUP1 DUP1 PUSH2 0x2A72 JUMP JUMPDEST PUSH1 0x24 SWAP1 PUSH1 0x40 MLOAD SWAP1 PUSH4 0x32505749 PUSH1 0xE1 SHL DUP3 MSTORE PUSH1 0x4 DUP3 ADD MSTORE REVERT JUMPDEST SWAP1 SWAP2 POP DUP7 DUP2 DUP2 RETURNDATASIZE DUP4 GT PUSH2 0x2BB0 JUMPI JUMPDEST PUSH2 0x2B8B DUP2 DUP4 PUSH2 0x24D1 JUMP JUMPDEST DUP2 ADD SUB SLT PUSH2 0x2BAC JUMPI MLOAD PUSH1 0x1 PUSH1 0x1 PUSH1 0xE0 SHL SUB NOT DUP2 AND DUP2 SUB PUSH2 0x2BAC JUMPI SWAP1 CODESIZE PUSH2 0x2ADD JUMP JUMPDEST DUP5 DUP1 REVERT JUMPDEST POP RETURNDATASIZE PUSH2 0x2B81 JUMP JUMPDEST PUSH1 0x40 MLOAD PUSH4 0x31A9108F PUSH1 0xE1 SHL DUP2 MSTORE PUSH1 0x4 DUP2 ADD DUP3 SWAP1 MSTORE PUSH1 0x20 DUP2 PUSH1 0x24 DUP2 ADDRESS GAS STATICCALL SWAP1 DUP2 PUSH2 0x2BFD JUMPI JUMPDEST POP PUSH2 0x2BE6 JUMPI POP PUSH1 0x0 SWAP1 JUMP JUMPDEST PUSH1 0x0 MSTORE PUSH1 0x9 PUSH1 0x20 MSTORE PUSH1 0xFF PUSH1 0xF PUSH1 0x40 PUSH1 0x0 KECCAK256 ADD SLOAD AND SWAP1 JUMP JUMPDEST PUSH1 0x20 DUP2 RETURNDATASIZE DUP3 GT PUSH2 0x2C33 JUMPI JUMPDEST DUP2 PUSH2 0x2C15 PUSH1 0x20 SWAP4 DUP4 PUSH2 0x24D1 JUMP JUMPDEST DUP2 ADD SUB SLT PUSH2 0x239 JUMPI MLOAD PUSH1 0x1 PUSH1 0x1 PUSH1 0xA0 SHL SUB DUP2 AND SUB PUSH2 0x239 JUMPI CODESIZE PUSH2 0x2BDB JUMP JUMPDEST RETURNDATASIZE SWAP2 POP PUSH2 0x2C08 JUMP JUMPDEST PUSH2 0x2C44 DUP2 PUSH2 0x2BB7 JUMP JUMPDEST ISZERO PUSH2 0x2C7D JUMPI PUSH1 0x0 MSTORE PUSH1 0x9 PUSH1 0x20 MSTORE PUSH1 0x40 PUSH1 0x0 KECCAK256 PUSH1 0x1 DUP1 PUSH1 0xA0 SHL SUB PUSH1 0x9 DUP3 ADD SLOAD PUSH1 0x8 SHR AND ISZERO ISZERO SWAP1 DUP2 PUSH2 0x2C72 JUMPI POP SWAP1 JUMP JUMPDEST PUSH1 0x4 SWAP2 POP ADD SLOAD TIMESTAMP LT SWAP1 JUMP JUMPDEST POP PUSH1 0x0 SWAP1 JUMP JUMPDEST PUSH2 0x2C8C DUP2 PUSH2 0x2BB7 JUMP JUMPDEST ISZERO PUSH2 0x2C7D JUMPI PUSH1 0x0 MSTORE PUSH1 0x9 PUSH1 0x20 MSTORE PUSH1 0xFF PUSH1 0x9 PUSH1 0x40 PUSH1 0x0 KECCAK256 ADD SLOAD AND SWAP1 JUMP JUMPDEST PUSH1 0x0 NOT DUP2 EQ PUSH2 0x2CB7 JUMPI PUSH1 0x1 ADD SWAP1 JUMP JUMPDEST PUSH4 0x4E487B71 PUSH1 0xE0 SHL PUSH1 0x0 MSTORE PUSH1 0x11 PUSH1 0x4 MSTORE PUSH1 0x24 PUSH1 0x0 REVERT JUMPDEST DUP1 MLOAD DUP3 LT ISZERO PUSH2 0x2CE1 JUMPI PUSH1 0x20 SWAP2 PUSH1 0x5 SHL ADD ADD SWAP1 JUMP JUMPDEST PUSH4 0x4E487B71 PUSH1 0xE0 SHL PUSH1 0x0 MSTORE PUSH1 0x32 PUSH1 0x4 MSTORE PUSH1 0x24 PUSH1 0x0 REVERT JUMPDEST ISZERO PUSH2 0x2CFE JUMPI JUMP JUMPDEST PUSH1 0x40 MLOAD PUSH3 0x461BCD PUSH1 0xE5 SHL DUP2 MSTORE PUSH1 0x20 PUSH1 0x4 DUP3 ADD MSTORE PUSH1 0x17 PUSH1 0x24 DUP3 ADD MSTORE PUSH32 0x4D757374206861766520766572696669657220726F6C65000000000000000000 PUSH1 0x44 DUP3 ADD MSTORE PUSH1 0x64 SWAP1 REVERT JUMPDEST ISZERO PUSH2 0x2D4A JUMPI JUMP JUMPDEST PUSH1 0x40 MLOAD PUSH3 0x461BCD PUSH1 0xE5 SHL DUP2 MSTORE PUSH1 0x20 PUSH1 0x4 DUP3 ADD MSTORE PUSH1 0x14 PUSH1 0x24 DUP3 ADD MSTORE PUSH20 0x151BDAD95B88191BD95CC81B9BDD08195E1A5CDD PUSH1 0x62 SHL PUSH1 0x44 DUP3 ADD MSTORE PUSH1 0x64 SWAP1 REVERT INVALID LOG2 PUSH5 0x6970667358 0x22 SLT KECCAK256 PUSH25 0xF140B45E99F11E2332E380180E0DFA660E4CB3C777891CE94F BLOCKHASH 0xE0 0xF6 0x2E STATICCALL 0xE0 PUSH5 0x736F6C6343 STOP ADDMOD EQ STOP CALLER "},"methodIdentifiers":{"DEFAULT_ADMIN_ROLE()":"a217fddf","PRODUCER_ROLE()":"cb3e1fe7","VERIFIER_ROLE()":"e7705db6","addSupplyChainEvent(uint256,string,string,string,bytes32,string[],string[])":"bdefd4e4","approve(address,uint256)":"095ea7b3","balanceOf(address)":"70a08231","createFoodProduct(string,string,uint256,string,uint256,string,string,string,uint256,bytes32,uint256)":"1bf9826a","exists(uint256)":"4f558e79","foodProducts(uint256)":"5c2fa7e4","getApproved(uint256)":"081812fc","getProduct(uint256)":"b9db15b4","getProductCount()":"4a348da9","getProductsByProducer(address)":"35ef8899","getRoleAdmin(bytes32)":"248a9ca3","grantRole(bytes32,address)":"2f2ff15d","hasRole(bytes32,address)":"91d14854","isApprovedForAll(address,address)":"e985e9c5","isListedProduct(uint256)":"56cb2462","isValidProduct(uint256)":"44b0ceed","name()":"06fdde03","owner()":"8da5cb5b","ownerOf(uint256)":"6352211e","renounceOwnership()":"715018a6","renounceRole(bytes32,address)":"36568abe","revokeRole(bytes32,address)":"d547741f","safeTransferFrom(address,address,uint256)":"42842e0e","safeTransferFrom(address,address,uint256,bytes)":"b88d4fde","setApprovalForAll(address,bool)":"a22cb465","supportsInterface(bytes4)":"01ffc9a7","symbol()":"95d89b41","toggleProductListing(uint256,bool,uint256)":"60f7f09e","tokenURI(uint256)":"c87b56dd","transferFrom(address,address,uint256)":"23b872dd","transferOwnership(address)":"f2fde38b","updateQuality(uint256,uint8)":"731db767","verifiedProducers(address)":"e155d6f6"}}}}}